{
	"Day 19/EventEntry.sol": {
		"EventEntry": {
			"abi": [
				{
					"inputs": [
						{
							"internalType": "string",
							"name": "_eventName",
							"type": "string"
						},
						{
							"internalType": "uint256",
							"name": "_eventDate_unix",
							"type": "uint256"
						},
						{
							"internalType": "uint256",
							"name": "_maxAttendees",
							"type": "uint256"
						}
					],
					"stateMutability": "nonpayable",
					"type": "constructor"
				},
				{
					"anonymous": false,
					"inputs": [
						{
							"indexed": false,
							"internalType": "address",
							"name": "attendee",
							"type": "address"
						},
						{
							"indexed": false,
							"internalType": "uint256",
							"name": "timestamp",
							"type": "uint256"
						}
					],
					"name": "AttendeeCheckedIn",
					"type": "event"
				},
				{
					"anonymous": false,
					"inputs": [
						{
							"indexed": false,
							"internalType": "string",
							"name": "name",
							"type": "string"
						},
						{
							"indexed": false,
							"internalType": "uint256",
							"name": "date",
							"type": "uint256"
						},
						{
							"indexed": false,
							"internalType": "uint256",
							"name": "maxAttendees",
							"type": "uint256"
						}
					],
					"name": "EventCreated",
					"type": "event"
				},
				{
					"anonymous": false,
					"inputs": [
						{
							"indexed": false,
							"internalType": "bool",
							"name": "isActive",
							"type": "bool"
						}
					],
					"name": "EventStatusChanged",
					"type": "event"
				},
				{
					"inputs": [],
					"name": "attendeeCount",
					"outputs": [
						{
							"internalType": "uint256",
							"name": "",
							"type": "uint256"
						}
					],
					"stateMutability": "view",
					"type": "function"
				},
				{
					"inputs": [
						{
							"internalType": "bytes",
							"name": "_signature",
							"type": "bytes"
						}
					],
					"name": "checkIn",
					"outputs": [],
					"stateMutability": "nonpayable",
					"type": "function"
				},
				{
					"inputs": [],
					"name": "eventDate",
					"outputs": [
						{
							"internalType": "uint256",
							"name": "",
							"type": "uint256"
						}
					],
					"stateMutability": "view",
					"type": "function"
				},
				{
					"inputs": [],
					"name": "eventName",
					"outputs": [
						{
							"internalType": "string",
							"name": "",
							"type": "string"
						}
					],
					"stateMutability": "view",
					"type": "function"
				},
				{
					"inputs": [
						{
							"internalType": "bytes32",
							"name": "_messageHash",
							"type": "bytes32"
						}
					],
					"name": "getEthSignedMessageHash",
					"outputs": [
						{
							"internalType": "bytes32",
							"name": "",
							"type": "bytes32"
						}
					],
					"stateMutability": "pure",
					"type": "function"
				},
				{
					"inputs": [
						{
							"internalType": "address",
							"name": "_attendee",
							"type": "address"
						}
					],
					"name": "getMessageHash",
					"outputs": [
						{
							"internalType": "bytes32",
							"name": "",
							"type": "bytes32"
						}
					],
					"stateMutability": "view",
					"type": "function"
				},
				{
					"inputs": [
						{
							"internalType": "address",
							"name": "",
							"type": "address"
						}
					],
					"name": "hasAttended",
					"outputs": [
						{
							"internalType": "bool",
							"name": "",
							"type": "bool"
						}
					],
					"stateMutability": "view",
					"type": "function"
				},
				{
					"inputs": [],
					"name": "isEventActive",
					"outputs": [
						{
							"internalType": "bool",
							"name": "",
							"type": "bool"
						}
					],
					"stateMutability": "view",
					"type": "function"
				},
				{
					"inputs": [],
					"name": "maxAttendees",
					"outputs": [
						{
							"internalType": "uint256",
							"name": "",
							"type": "uint256"
						}
					],
					"stateMutability": "view",
					"type": "function"
				},
				{
					"inputs": [],
					"name": "organizer",
					"outputs": [
						{
							"internalType": "address",
							"name": "",
							"type": "address"
						}
					],
					"stateMutability": "view",
					"type": "function"
				},
				{
					"inputs": [
						{
							"internalType": "bytes32",
							"name": "_ethSignedMessageHash",
							"type": "bytes32"
						},
						{
							"internalType": "bytes",
							"name": "_signature",
							"type": "bytes"
						}
					],
					"name": "recoverSigner",
					"outputs": [
						{
							"internalType": "address",
							"name": "",
							"type": "address"
						}
					],
					"stateMutability": "pure",
					"type": "function"
				},
				{
					"inputs": [
						{
							"internalType": "bool",
							"name": "_isActive",
							"type": "bool"
						}
					],
					"name": "setEventStatus",
					"outputs": [],
					"stateMutability": "nonpayable",
					"type": "function"
				},
				{
					"inputs": [
						{
							"internalType": "address",
							"name": "_attendee",
							"type": "address"
						},
						{
							"internalType": "bytes",
							"name": "_signature",
							"type": "bytes"
						}
					],
					"name": "verifySignature",
					"outputs": [
						{
							"internalType": "bool",
							"name": "",
							"type": "bool"
						}
					],
					"stateMutability": "view",
					"type": "function"
				}
			],
			"devdoc": {
				"kind": "dev",
				"methods": {},
				"version": 1
			},
			"evm": {
				"assembly": "    /* \"Day 19/EventEntry.sol\":61:3401  contract EventEntry {... */\n  mstore(0x40, 0x80)\n    /* \"Day 19/EventEntry.sol\":524:900  constructor(... */\n  callvalue\n  dup1\n  iszero\n  tag_1\n  jumpi\n  0x00\n  dup1\n  revert\ntag_1:\n  pop\n  mload(0x40)\n  sub(codesize, bytecodeSize)\n  dup1\n  bytecodeSize\n  dup4\n  codecopy\n  dup2\n  dup2\n  add\n  0x40\n  mstore\n  dup2\n  add\n  swap1\n  tag_2\n  swap2\n  swap1\n  tag_3\n  jump\t// in\ntag_2:\n    /* \"Day 19/EventEntry.sol\":667:677  _eventName */\n  dup3\n    /* \"Day 19/EventEntry.sol\":655:664  eventName */\n  0x00\n    /* \"Day 19/EventEntry.sol\":655:677  eventName = _eventName */\n  swap1\n  dup2\n  tag_6\n  swap2\n  swap1\n  tag_7\n  jump\t// in\ntag_6:\n  pop\n    /* \"Day 19/EventEntry.sol\":700:715  _eventDate_unix */\n  dup2\n    /* \"Day 19/EventEntry.sol\":688:697  eventDate */\n  0x02\n    /* \"Day 19/EventEntry.sol\":688:715  eventDate = _eventDate_unix */\n  dup2\n  swap1\n  sstore\n  pop\n    /* \"Day 19/EventEntry.sol\":741:754  _maxAttendees */\n  dup1\n    /* \"Day 19/EventEntry.sol\":726:738  maxAttendees */\n  0x03\n    /* \"Day 19/EventEntry.sol\":726:754  maxAttendees = _maxAttendees */\n  dup2\n  swap1\n  sstore\n  pop\n    /* \"Day 19/EventEntry.sol\":777:787  msg.sender */\n  caller\n    /* \"Day 19/EventEntry.sol\":765:774  organizer */\n  0x01\n  0x00\n    /* \"Day 19/EventEntry.sol\":765:787  organizer = msg.sender */\n  0x0100\n  exp\n  dup2\n  sload\n  dup2\n  0xffffffffffffffffffffffffffffffffffffffff\n  mul\n  not\n  and\n  swap1\n  dup4\n  0xffffffffffffffffffffffffffffffffffffffff\n  and\n  mul\n  or\n  swap1\n  sstore\n  pop\n    /* \"Day 19/EventEntry.sol\":814:818  true */\n  0x01\n    /* \"Day 19/EventEntry.sol\":798:811  isEventActive */\n  0x05\n  0x00\n    /* \"Day 19/EventEntry.sol\":798:818  isEventActive = true */\n  0x0100\n  exp\n  dup2\n  sload\n  dup2\n  0xff\n  mul\n  not\n  and\n  swap1\n  dup4\n  iszero\n  iszero\n  mul\n  or\n  swap1\n  sstore\n  pop\n    /* \"Day 19/EventEntry.sol\":836:892  EventCreated(_eventName, _eventDate_unix, _maxAttendees) */\n  0xef361a1e306446b9c7b03355ef7fbc9ea7cbdc417a1fd436d496c6d5523a48db\n    /* \"Day 19/EventEntry.sol\":849:859  _eventName */\n  dup4\n    /* \"Day 19/EventEntry.sol\":861:876  _eventDate_unix */\n  dup4\n    /* \"Day 19/EventEntry.sol\":878:891  _maxAttendees */\n  dup4\n    /* \"Day 19/EventEntry.sol\":836:892  EventCreated(_eventName, _eventDate_unix, _maxAttendees) */\n  mload(0x40)\n  tag_8\n  swap4\n  swap3\n  swap2\n  swap1\n  tag_9\n  jump\t// in\ntag_8:\n  mload(0x40)\n  dup1\n  swap2\n  sub\n  swap1\n  log1\n    /* \"Day 19/EventEntry.sol\":524:900  constructor(... */\n  pop\n  pop\n  pop\n    /* \"Day 19/EventEntry.sol\":61:3401  contract EventEntry {... */\n  jump(tag_10)\n    /* \"#utility.yul\":7:82   */\ntag_11:\n    /* \"#utility.yul\":40:46   */\n  0x00\n    /* \"#utility.yul\":73:75   */\n  0x40\n    /* \"#utility.yul\":67:76   */\n  mload\n    /* \"#utility.yul\":57:76   */\n  swap1\n  pop\n    /* \"#utility.yul\":7:82   */\n  swap1\n  jump\t// out\n    /* \"#utility.yul\":88:205   */\ntag_12:\n    /* \"#utility.yul\":197:198   */\n  0x00\n    /* \"#utility.yul\":194:195   */\n  dup1\n    /* \"#utility.yul\":187:199   */\n  revert\n    /* \"#utility.yul\":211:328   */\ntag_13:\n    /* \"#utility.yul\":320:321   */\n  0x00\n    /* \"#utility.yul\":317:318   */\n  dup1\n    /* \"#utility.yul\":310:322   */\n  revert\n    /* \"#utility.yul\":334:451   */\ntag_14:\n    /* \"#utility.yul\":443:444   */\n  0x00\n    /* \"#utility.yul\":440:441   */\n  dup1\n    /* \"#utility.yul\":433:445   */\n  revert\n    /* \"#utility.yul\":457:574   */\ntag_15:\n    /* \"#utility.yul\":566:567   */\n  0x00\n    /* \"#utility.yul\":563:564   */\n  dup1\n    /* \"#utility.yul\":556:568   */\n  revert\n    /* \"#utility.yul\":580:682   */\ntag_16:\n    /* \"#utility.yul\":621:627   */\n  0x00\n    /* \"#utility.yul\":672:674   */\n  0x1f\n    /* \"#utility.yul\":668:675   */\n  not\n    /* \"#utility.yul\":663:665   */\n  0x1f\n    /* \"#utility.yul\":656:661   */\n  dup4\n    /* \"#utility.yul\":652:666   */\n  add\n    /* \"#utility.yul\":648:676   */\n  and\n    /* \"#utility.yul\":638:676   */\n  swap1\n  pop\n    /* \"#utility.yul\":580:682   */\n  swap2\n  swap1\n  pop\n  jump\t// out\n    /* \"#utility.yul\":688:868   */\ntag_17:\n    /* \"#utility.yul\":736:813   */\n  0x4e487b7100000000000000000000000000000000000000000000000000000000\n    /* \"#utility.yul\":733:734   */\n  0x00\n    /* \"#utility.yul\":726:814   */\n  mstore\n    /* \"#utility.yul\":833:837   */\n  0x41\n    /* \"#utility.yul\":830:831   */\n  0x04\n    /* \"#utility.yul\":823:838   */\n  mstore\n    /* \"#utility.yul\":857:861   */\n  0x24\n    /* \"#utility.yul\":854:855   */\n  0x00\n    /* \"#utility.yul\":847:862   */\n  revert\n    /* \"#utility.yul\":874:1155   */\ntag_18:\n    /* \"#utility.yul\":957:984   */\n  tag_57\n    /* \"#utility.yul\":979:983   */\n  dup3\n    /* \"#utility.yul\":957:984   */\n  tag_16\n  jump\t// in\ntag_57:\n    /* \"#utility.yul\":949:955   */\n  dup2\n    /* \"#utility.yul\":945:985   */\n  add\n    /* \"#utility.yul\":1087:1093   */\n  dup2\n    /* \"#utility.yul\":1075:1085   */\n  dup2\n    /* \"#utility.yul\":1072:1094   */\n  lt\n    /* \"#utility.yul\":1051:1069   */\n  0xffffffffffffffff\n    /* \"#utility.yul\":1039:1049   */\n  dup3\n    /* \"#utility.yul\":1036:1070   */\n  gt\n    /* \"#utility.yul\":1033:1095   */\n  or\n    /* \"#utility.yul\":1030:1118   */\n  iszero\n  tag_58\n  jumpi\n    /* \"#utility.yul\":1098:1116   */\n  tag_59\n  tag_17\n  jump\t// in\ntag_59:\n    /* \"#utility.yul\":1030:1118   */\ntag_58:\n    /* \"#utility.yul\":1138:1148   */\n  dup1\n    /* \"#utility.yul\":1134:1136   */\n  0x40\n    /* \"#utility.yul\":1127:1149   */\n  mstore\n    /* \"#utility.yul\":917:1155   */\n  pop\n    /* \"#utility.yul\":874:1155   */\n  pop\n  pop\n  jump\t// out\n    /* \"#utility.yul\":1161:1290   */\ntag_19:\n    /* \"#utility.yul\":1195:1201   */\n  0x00\n    /* \"#utility.yul\":1222:1242   */\n  tag_61\n  tag_11\n  jump\t// in\ntag_61:\n    /* \"#utility.yul\":1212:1242   */\n  swap1\n  pop\n    /* \"#utility.yul\":1251:1284   */\n  tag_62\n    /* \"#utility.yul\":1279:1283   */\n  dup3\n    /* \"#utility.yul\":1271:1277   */\n  dup3\n    /* \"#utility.yul\":1251:1284   */\n  tag_18\n  jump\t// in\ntag_62:\n    /* \"#utility.yul\":1161:1290   */\n  swap2\n  swap1\n  pop\n  jump\t// out\n    /* \"#utility.yul\":1296:1604   */\ntag_20:\n    /* \"#utility.yul\":1358:1362   */\n  0x00\n    /* \"#utility.yul\":1448:1466   */\n  0xffffffffffffffff\n    /* \"#utility.yul\":1440:1446   */\n  dup3\n    /* \"#utility.yul\":1437:1467   */\n  gt\n    /* \"#utility.yul\":1434:1490   */\n  iszero\n  tag_64\n  jumpi\n    /* \"#utility.yul\":1470:1488   */\n  tag_65\n  tag_17\n  jump\t// in\ntag_65:\n    /* \"#utility.yul\":1434:1490   */\ntag_64:\n    /* \"#utility.yul\":1508:1537   */\n  tag_66\n    /* \"#utility.yul\":1530:1536   */\n  dup3\n    /* \"#utility.yul\":1508:1537   */\n  tag_16\n  jump\t// in\ntag_66:\n    /* \"#utility.yul\":1500:1537   */\n  swap1\n  pop\n    /* \"#utility.yul\":1592:1596   */\n  0x20\n    /* \"#utility.yul\":1586:1590   */\n  dup2\n    /* \"#utility.yul\":1582:1597   */\n  add\n    /* \"#utility.yul\":1574:1597   */\n  swap1\n  pop\n    /* \"#utility.yul\":1296:1604   */\n  swap2\n  swap1\n  pop\n  jump\t// out\n    /* \"#utility.yul\":1610:1856   */\ntag_21:\n    /* \"#utility.yul\":1691:1692   */\n  0x00\n    /* \"#utility.yul\":1701:1814   */\ntag_68:\n    /* \"#utility.yul\":1715:1721   */\n  dup4\n    /* \"#utility.yul\":1712:1713   */\n  dup2\n    /* \"#utility.yul\":1709:1722   */\n  lt\n    /* \"#utility.yul\":1701:1814   */\n  iszero\n  tag_70\n  jumpi\n    /* \"#utility.yul\":1800:1801   */\n  dup1\n    /* \"#utility.yul\":1795:1798   */\n  dup3\n    /* \"#utility.yul\":1791:1802   */\n  add\n    /* \"#utility.yul\":1785:1803   */\n  mload\n    /* \"#utility.yul\":1781:1782   */\n  dup2\n    /* \"#utility.yul\":1776:1779   */\n  dup5\n    /* \"#utility.yul\":1772:1783   */\n  add\n    /* \"#utility.yul\":1765:1804   */\n  mstore\n    /* \"#utility.yul\":1737:1739   */\n  0x20\n    /* \"#utility.yul\":1734:1735   */\n  dup2\n    /* \"#utility.yul\":1730:1740   */\n  add\n    /* \"#utility.yul\":1725:1740   */\n  swap1\n  pop\n    /* \"#utility.yul\":1701:1814   */\n  jump(tag_68)\ntag_70:\n    /* \"#utility.yul\":1848:1849   */\n  0x00\n    /* \"#utility.yul\":1839:1845   */\n  dup5\n    /* \"#utility.yul\":1834:1837   */\n  dup5\n    /* \"#utility.yul\":1830:1846   */\n  add\n    /* \"#utility.yul\":1823:1850   */\n  mstore\n    /* \"#utility.yul\":1672:1856   */\n  pop\n    /* \"#utility.yul\":1610:1856   */\n  pop\n  pop\n  pop\n  jump\t// out\n    /* \"#utility.yul\":1862:2296   */\ntag_22:\n    /* \"#utility.yul\":1951:1956   */\n  0x00\n    /* \"#utility.yul\":1976:2042   */\n  tag_72\n    /* \"#utility.yul\":1992:2041   */\n  tag_73\n    /* \"#utility.yul\":2034:2040   */\n  dup5\n    /* \"#utility.yul\":1992:2041   */\n  tag_20\n  jump\t// in\ntag_73:\n    /* \"#utility.yul\":1976:2042   */\n  tag_19\n  jump\t// in\ntag_72:\n    /* \"#utility.yul\":1967:2042   */\n  swap1\n  pop\n    /* \"#utility.yul\":2065:2071   */\n  dup3\n    /* \"#utility.yul\":2058:2063   */\n  dup2\n    /* \"#utility.yul\":2051:2072   */\n  mstore\n    /* \"#utility.yul\":2103:2107   */\n  0x20\n    /* \"#utility.yul\":2096:2101   */\n  dup2\n    /* \"#utility.yul\":2092:2108   */\n  add\n    /* \"#utility.yul\":2141:2144   */\n  dup5\n    /* \"#utility.yul\":2132:2138   */\n  dup5\n    /* \"#utility.yul\":2127:2130   */\n  dup5\n    /* \"#utility.yul\":2123:2139   */\n  add\n    /* \"#utility.yul\":2120:2145   */\n  gt\n    /* \"#utility.yul\":2117:2229   */\n  iszero\n  tag_74\n  jumpi\n    /* \"#utility.yul\":2148:2227   */\n  tag_75\n  tag_15\n  jump\t// in\ntag_75:\n    /* \"#utility.yul\":2117:2229   */\ntag_74:\n    /* \"#utility.yul\":2238:2290   */\n  tag_76\n    /* \"#utility.yul\":2283:2289   */\n  dup5\n    /* \"#utility.yul\":2278:2281   */\n  dup3\n    /* \"#utility.yul\":2273:2276   */\n  dup6\n    /* \"#utility.yul\":2238:2290   */\n  tag_21\n  jump\t// in\ntag_76:\n    /* \"#utility.yul\":1957:2296   */\n  pop\n    /* \"#utility.yul\":1862:2296   */\n  swap4\n  swap3\n  pop\n  pop\n  pop\n  jump\t// out\n    /* \"#utility.yul\":2316:2671   */\ntag_23:\n    /* \"#utility.yul\":2383:2388   */\n  0x00\n    /* \"#utility.yul\":2432:2435   */\n  dup3\n    /* \"#utility.yul\":2425:2429   */\n  0x1f\n    /* \"#utility.yul\":2417:2423   */\n  dup4\n    /* \"#utility.yul\":2413:2430   */\n  add\n    /* \"#utility.yul\":2409:2436   */\n  slt\n    /* \"#utility.yul\":2399:2521   */\n  tag_78\n  jumpi\n    /* \"#utility.yul\":2440:2519   */\n  tag_79\n  tag_14\n  jump\t// in\ntag_79:\n    /* \"#utility.yul\":2399:2521   */\ntag_78:\n    /* \"#utility.yul\":2550:2556   */\n  dup2\n    /* \"#utility.yul\":2544:2557   */\n  mload\n    /* \"#utility.yul\":2575:2665   */\n  tag_80\n    /* \"#utility.yul\":2661:2664   */\n  dup5\n    /* \"#utility.yul\":2653:2659   */\n  dup3\n    /* \"#utility.yul\":2646:2650   */\n  0x20\n    /* \"#utility.yul\":2638:2644   */\n  dup7\n    /* \"#utility.yul\":2634:2651   */\n  add\n    /* \"#utility.yul\":2575:2665   */\n  tag_22\n  jump\t// in\ntag_80:\n    /* \"#utility.yul\":2566:2665   */\n  swap2\n  pop\n    /* \"#utility.yul\":2389:2671   */\n  pop\n    /* \"#utility.yul\":2316:2671   */\n  swap3\n  swap2\n  pop\n  pop\n  jump\t// out\n    /* \"#utility.yul\":2677:2754   */\ntag_24:\n    /* \"#utility.yul\":2714:2721   */\n  0x00\n    /* \"#utility.yul\":2743:2748   */\n  dup2\n    /* \"#utility.yul\":2732:2748   */\n  swap1\n  pop\n    /* \"#utility.yul\":2677:2754   */\n  swap2\n  swap1\n  pop\n  jump\t// out\n    /* \"#utility.yul\":2760:2882   */\ntag_25:\n    /* \"#utility.yul\":2833:2857   */\n  tag_83\n    /* \"#utility.yul\":2851:2856   */\n  dup2\n    /* \"#utility.yul\":2833:2857   */\n  tag_24\n  jump\t// in\ntag_83:\n    /* \"#utility.yul\":2826:2831   */\n  dup2\n    /* \"#utility.yul\":2823:2858   */\n  eq\n    /* \"#utility.yul\":2813:2876   */\n  tag_84\n  jumpi\n    /* \"#utility.yul\":2872:2873   */\n  0x00\n    /* \"#utility.yul\":2869:2870   */\n  dup1\n    /* \"#utility.yul\":2862:2874   */\n  revert\n    /* \"#utility.yul\":2813:2876   */\ntag_84:\n    /* \"#utility.yul\":2760:2882   */\n  pop\n  jump\t// out\n    /* \"#utility.yul\":2888:3031   */\ntag_26:\n    /* \"#utility.yul\":2945:2950   */\n  0x00\n    /* \"#utility.yul\":2976:2982   */\n  dup2\n    /* \"#utility.yul\":2970:2983   */\n  mload\n    /* \"#utility.yul\":2961:2983   */\n  swap1\n  pop\n    /* \"#utility.yul\":2992:3025   */\n  tag_86\n    /* \"#utility.yul\":3019:3024   */\n  dup2\n    /* \"#utility.yul\":2992:3025   */\n  tag_25\n  jump\t// in\ntag_86:\n    /* \"#utility.yul\":2888:3031   */\n  swap3\n  swap2\n  pop\n  pop\n  jump\t// out\n    /* \"#utility.yul\":3037:3873   */\ntag_3:\n    /* \"#utility.yul\":3135:3141   */\n  0x00\n    /* \"#utility.yul\":3143:3149   */\n  dup1\n    /* \"#utility.yul\":3151:3157   */\n  0x00\n    /* \"#utility.yul\":3200:3202   */\n  0x60\n    /* \"#utility.yul\":3188:3197   */\n  dup5\n    /* \"#utility.yul\":3179:3186   */\n  dup7\n    /* \"#utility.yul\":3175:3198   */\n  sub\n    /* \"#utility.yul\":3171:3203   */\n  slt\n    /* \"#utility.yul\":3168:3287   */\n  iszero\n  tag_88\n  jumpi\n    /* \"#utility.yul\":3206:3285   */\n  tag_89\n  tag_12\n  jump\t// in\ntag_89:\n    /* \"#utility.yul\":3168:3287   */\ntag_88:\n    /* \"#utility.yul\":3347:3348   */\n  0x00\n    /* \"#utility.yul\":3336:3345   */\n  dup5\n    /* \"#utility.yul\":3332:3349   */\n  add\n    /* \"#utility.yul\":3326:3350   */\n  mload\n    /* \"#utility.yul\":3377:3395   */\n  0xffffffffffffffff\n    /* \"#utility.yul\":3369:3375   */\n  dup2\n    /* \"#utility.yul\":3366:3396   */\n  gt\n    /* \"#utility.yul\":3363:3480   */\n  iszero\n  tag_90\n  jumpi\n    /* \"#utility.yul\":3399:3478   */\n  tag_91\n  tag_13\n  jump\t// in\ntag_91:\n    /* \"#utility.yul\":3363:3480   */\ntag_90:\n    /* \"#utility.yul\":3504:3578   */\n  tag_92\n    /* \"#utility.yul\":3570:3577   */\n  dup7\n    /* \"#utility.yul\":3561:3567   */\n  dup3\n    /* \"#utility.yul\":3550:3559   */\n  dup8\n    /* \"#utility.yul\":3546:3568   */\n  add\n    /* \"#utility.yul\":3504:3578   */\n  tag_23\n  jump\t// in\ntag_92:\n    /* \"#utility.yul\":3494:3578   */\n  swap4\n  pop\n    /* \"#utility.yul\":3297:3588   */\n  pop\n    /* \"#utility.yul\":3627:3629   */\n  0x20\n    /* \"#utility.yul\":3653:3717   */\n  tag_93\n    /* \"#utility.yul\":3709:3716   */\n  dup7\n    /* \"#utility.yul\":3700:3706   */\n  dup3\n    /* \"#utility.yul\":3689:3698   */\n  dup8\n    /* \"#utility.yul\":3685:3707   */\n  add\n    /* \"#utility.yul\":3653:3717   */\n  tag_26\n  jump\t// in\ntag_93:\n    /* \"#utility.yul\":3643:3717   */\n  swap3\n  pop\n    /* \"#utility.yul\":3598:3727   */\n  pop\n    /* \"#utility.yul\":3766:3768   */\n  0x40\n    /* \"#utility.yul\":3792:3856   */\n  tag_94\n    /* \"#utility.yul\":3848:3855   */\n  dup7\n    /* \"#utility.yul\":3839:3845   */\n  dup3\n    /* \"#utility.yul\":3828:3837   */\n  dup8\n    /* \"#utility.yul\":3824:3846   */\n  add\n    /* \"#utility.yul\":3792:3856   */\n  tag_26\n  jump\t// in\ntag_94:\n    /* \"#utility.yul\":3782:3856   */\n  swap2\n  pop\n    /* \"#utility.yul\":3737:3866   */\n  pop\n    /* \"#utility.yul\":3037:3873   */\n  swap3\n  pop\n  swap3\n  pop\n  swap3\n  jump\t// out\n    /* \"#utility.yul\":3879:3978   */\ntag_27:\n    /* \"#utility.yul\":3931:3937   */\n  0x00\n    /* \"#utility.yul\":3965:3970   */\n  dup2\n    /* \"#utility.yul\":3959:3971   */\n  mload\n    /* \"#utility.yul\":3949:3971   */\n  swap1\n  pop\n    /* \"#utility.yul\":3879:3978   */\n  swap2\n  swap1\n  pop\n  jump\t// out\n    /* \"#utility.yul\":3984:4164   */\ntag_28:\n    /* \"#utility.yul\":4032:4109   */\n  0x4e487b7100000000000000000000000000000000000000000000000000000000\n    /* \"#utility.yul\":4029:4030   */\n  0x00\n    /* \"#utility.yul\":4022:4110   */\n  mstore\n    /* \"#utility.yul\":4129:4133   */\n  0x22\n    /* \"#utility.yul\":4126:4127   */\n  0x04\n    /* \"#utility.yul\":4119:4134   */\n  mstore\n    /* \"#utility.yul\":4153:4157   */\n  0x24\n    /* \"#utility.yul\":4150:4151   */\n  0x00\n    /* \"#utility.yul\":4143:4158   */\n  revert\n    /* \"#utility.yul\":4170:4490   */\ntag_29:\n    /* \"#utility.yul\":4214:4220   */\n  0x00\n    /* \"#utility.yul\":4251:4252   */\n  0x02\n    /* \"#utility.yul\":4245:4249   */\n  dup3\n    /* \"#utility.yul\":4241:4253   */\n  div\n    /* \"#utility.yul\":4231:4253   */\n  swap1\n  pop\n    /* \"#utility.yul\":4298:4299   */\n  0x01\n    /* \"#utility.yul\":4292:4296   */\n  dup3\n    /* \"#utility.yul\":4288:4300   */\n  and\n    /* \"#utility.yul\":4319:4337   */\n  dup1\n    /* \"#utility.yul\":4309:4390   */\n  tag_98\n  jumpi\n    /* \"#utility.yul\":4375:4379   */\n  0x7f\n    /* \"#utility.yul\":4367:4373   */\n  dup3\n    /* \"#utility.yul\":4363:4380   */\n  and\n    /* \"#utility.yul\":4353:4380   */\n  swap2\n  pop\n    /* \"#utility.yul\":4309:4390   */\ntag_98:\n    /* \"#utility.yul\":4437:4439   */\n  0x20\n    /* \"#utility.yul\":4429:4435   */\n  dup3\n    /* \"#utility.yul\":4426:4440   */\n  lt\n    /* \"#utility.yul\":4406:4424   */\n  dup2\n    /* \"#utility.yul\":4403:4441   */\n  sub\n    /* \"#utility.yul\":4400:4484   */\n  tag_99\n  jumpi\n    /* \"#utility.yul\":4456:4474   */\n  tag_100\n  tag_28\n  jump\t// in\ntag_100:\n    /* \"#utility.yul\":4400:4484   */\ntag_99:\n    /* \"#utility.yul\":4221:4490   */\n  pop\n    /* \"#utility.yul\":4170:4490   */\n  swap2\n  swap1\n  pop\n  jump\t// out\n    /* \"#utility.yul\":4496:4637   */\ntag_30:\n    /* \"#utility.yul\":4545:4549   */\n  0x00\n    /* \"#utility.yul\":4568:4571   */\n  dup2\n    /* \"#utility.yul\":4560:4571   */\n  swap1\n  pop\n    /* \"#utility.yul\":4591:4594   */\n  dup2\n    /* \"#utility.yul\":4588:4589   */\n  0x00\n    /* \"#utility.yul\":4581:4595   */\n  mstore\n    /* \"#utility.yul\":4625:4629   */\n  0x20\n    /* \"#utility.yul\":4622:4623   */\n  0x00\n    /* \"#utility.yul\":4612:4630   */\n  keccak256\n    /* \"#utility.yul\":4604:4630   */\n  swap1\n  pop\n    /* \"#utility.yul\":4496:4637   */\n  swap2\n  swap1\n  pop\n  jump\t// out\n    /* \"#utility.yul\":4643:4736   */\ntag_31:\n    /* \"#utility.yul\":4680:4686   */\n  0x00\n    /* \"#utility.yul\":4727:4729   */\n  0x20\n    /* \"#utility.yul\":4722:4724   */\n  0x1f\n    /* \"#utility.yul\":4715:4720   */\n  dup4\n    /* \"#utility.yul\":4711:4725   */\n  add\n    /* \"#utility.yul\":4707:4730   */\n  div\n    /* \"#utility.yul\":4697:4730   */\n  swap1\n  pop\n    /* \"#utility.yul\":4643:4736   */\n  swap2\n  swap1\n  pop\n  jump\t// out\n    /* \"#utility.yul\":4742:4849   */\ntag_32:\n    /* \"#utility.yul\":4786:4794   */\n  0x00\n    /* \"#utility.yul\":4836:4841   */\n  dup3\n    /* \"#utility.yul\":4830:4834   */\n  dup3\n    /* \"#utility.yul\":4826:4842   */\n  shl\n    /* \"#utility.yul\":4805:4842   */\n  swap1\n  pop\n    /* \"#utility.yul\":4742:4849   */\n  swap3\n  swap2\n  pop\n  pop\n  jump\t// out\n    /* \"#utility.yul\":4855:5248   */\ntag_33:\n    /* \"#utility.yul\":4924:4930   */\n  0x00\n    /* \"#utility.yul\":4974:4975   */\n  0x08\n    /* \"#utility.yul\":4962:4972   */\n  dup4\n    /* \"#utility.yul\":4958:4976   */\n  mul\n    /* \"#utility.yul\":4997:5094   */\n  tag_105\n    /* \"#utility.yul\":5027:5093   */\n  0xffffffffffffffffffffffffffffffffffffffffffffffffffffffffffffffff\n    /* \"#utility.yul\":5016:5025   */\n  dup3\n    /* \"#utility.yul\":4997:5094   */\n  tag_32\n  jump\t// in\ntag_105:\n    /* \"#utility.yul\":5115:5154   */\n  tag_106\n    /* \"#utility.yul\":5145:5153   */\n  dup7\n    /* \"#utility.yul\":5134:5143   */\n  dup4\n    /* \"#utility.yul\":5115:5154   */\n  tag_32\n  jump\t// in\ntag_106:\n    /* \"#utility.yul\":5103:5154   */\n  swap6\n  pop\n    /* \"#utility.yul\":5187:5191   */\n  dup1\n    /* \"#utility.yul\":5183:5192   */\n  not\n    /* \"#utility.yul\":5176:5181   */\n  dup5\n    /* \"#utility.yul\":5172:5193   */\n  and\n    /* \"#utility.yul\":5163:5193   */\n  swap4\n  pop\n    /* \"#utility.yul\":5236:5240   */\n  dup1\n    /* \"#utility.yul\":5226:5234   */\n  dup7\n    /* \"#utility.yul\":5222:5241   */\n  and\n    /* \"#utility.yul\":5215:5220   */\n  dup5\n    /* \"#utility.yul\":5212:5242   */\n  or\n    /* \"#utility.yul\":5202:5242   */\n  swap3\n  pop\n    /* \"#utility.yul\":4931:5248   */\n  pop\n  pop\n    /* \"#utility.yul\":4855:5248   */\n  swap4\n  swap3\n  pop\n  pop\n  pop\n  jump\t// out\n    /* \"#utility.yul\":5254:5314   */\ntag_34:\n    /* \"#utility.yul\":5282:5285   */\n  0x00\n    /* \"#utility.yul\":5303:5308   */\n  dup2\n    /* \"#utility.yul\":5296:5308   */\n  swap1\n  pop\n    /* \"#utility.yul\":5254:5314   */\n  swap2\n  swap1\n  pop\n  jump\t// out\n    /* \"#utility.yul\":5320:5462   */\ntag_35:\n    /* \"#utility.yul\":5370:5379   */\n  0x00\n    /* \"#utility.yul\":5403:5456   */\n  tag_109\n    /* \"#utility.yul\":5421:5455   */\n  tag_110\n    /* \"#utility.yul\":5430:5454   */\n  tag_111\n    /* \"#utility.yul\":5448:5453   */\n  dup5\n    /* \"#utility.yul\":5430:5454   */\n  tag_24\n  jump\t// in\ntag_111:\n    /* \"#utility.yul\":5421:5455   */\n  tag_34\n  jump\t// in\ntag_110:\n    /* \"#utility.yul\":5403:5456   */\n  tag_24\n  jump\t// in\ntag_109:\n    /* \"#utility.yul\":5390:5456   */\n  swap1\n  pop\n    /* \"#utility.yul\":5320:5462   */\n  swap2\n  swap1\n  pop\n  jump\t// out\n    /* \"#utility.yul\":5468:5543   */\ntag_36:\n    /* \"#utility.yul\":5511:5514   */\n  0x00\n    /* \"#utility.yul\":5532:5537   */\n  dup2\n    /* \"#utility.yul\":5525:5537   */\n  swap1\n  pop\n    /* \"#utility.yul\":5468:5543   */\n  swap2\n  swap1\n  pop\n  jump\t// out\n    /* \"#utility.yul\":5549:5818   */\ntag_37:\n    /* \"#utility.yul\":5659:5698   */\n  tag_114\n    /* \"#utility.yul\":5690:5697   */\n  dup4\n    /* \"#utility.yul\":5659:5698   */\n  tag_35\n  jump\t// in\ntag_114:\n    /* \"#utility.yul\":5720:5811   */\n  tag_115\n    /* \"#utility.yul\":5769:5810   */\n  tag_116\n    /* \"#utility.yul\":5793:5809   */\n  dup3\n    /* \"#utility.yul\":5769:5810   */\n  tag_36\n  jump\t// in\ntag_116:\n    /* \"#utility.yul\":5761:5767   */\n  dup5\n    /* \"#utility.yul\":5754:5758   */\n  dup5\n    /* \"#utility.yul\":5748:5759   */\n  sload\n    /* \"#utility.yul\":5720:5811   */\n  tag_33\n  jump\t// in\ntag_115:\n    /* \"#utility.yul\":5714:5718   */\n  dup3\n    /* \"#utility.yul\":5707:5812   */\n  sstore\n    /* \"#utility.yul\":5625:5818   */\n  pop\n    /* \"#utility.yul\":5549:5818   */\n  pop\n  pop\n  pop\n  jump\t// out\n    /* \"#utility.yul\":5824:5897   */\ntag_38:\n    /* \"#utility.yul\":5869:5872   */\n  0x00\n    /* \"#utility.yul\":5824:5897   */\n  swap1\n  jump\t// out\n    /* \"#utility.yul\":5903:6092   */\ntag_39:\n    /* \"#utility.yul\":5980:6012   */\n  tag_119\n  tag_38\n  jump\t// in\ntag_119:\n    /* \"#utility.yul\":6021:6086   */\n  tag_120\n    /* \"#utility.yul\":6079:6085   */\n  dup2\n    /* \"#utility.yul\":6071:6077   */\n  dup5\n    /* \"#utility.yul\":6065:6069   */\n  dup5\n    /* \"#utility.yul\":6021:6086   */\n  tag_37\n  jump\t// in\ntag_120:\n    /* \"#utility.yul\":5956:6092   */\n  pop\n    /* \"#utility.yul\":5903:6092   */\n  pop\n  pop\n  jump\t// out\n    /* \"#utility.yul\":6098:6284   */\ntag_40:\n    /* \"#utility.yul\":6158:6278   */\ntag_122:\n    /* \"#utility.yul\":6175:6178   */\n  dup2\n    /* \"#utility.yul\":6168:6173   */\n  dup2\n    /* \"#utility.yul\":6165:6179   */\n  lt\n    /* \"#utility.yul\":6158:6278   */\n  iszero\n  tag_124\n  jumpi\n    /* \"#utility.yul\":6229:6268   */\n  tag_125\n    /* \"#utility.yul\":6266:6267   */\n  0x00\n    /* \"#utility.yul\":6259:6264   */\n  dup3\n    /* \"#utility.yul\":6229:6268   */\n  tag_39\n  jump\t// in\ntag_125:\n    /* \"#utility.yul\":6202:6203   */\n  0x01\n    /* \"#utility.yul\":6195:6200   */\n  dup2\n    /* \"#utility.yul\":6191:6204   */\n  add\n    /* \"#utility.yul\":6182:6204   */\n  swap1\n  pop\n    /* \"#utility.yul\":6158:6278   */\n  jump(tag_122)\ntag_124:\n    /* \"#utility.yul\":6098:6284   */\n  pop\n  pop\n  jump\t// out\n    /* \"#utility.yul\":6290:6833   */\ntag_41:\n    /* \"#utility.yul\":6391:6393   */\n  0x1f\n    /* \"#utility.yul\":6386:6389   */\n  dup3\n    /* \"#utility.yul\":6383:6394   */\n  gt\n    /* \"#utility.yul\":6380:6826   */\n  iszero\n  tag_127\n  jumpi\n    /* \"#utility.yul\":6425:6463   */\n  tag_128\n    /* \"#utility.yul\":6457:6462   */\n  dup2\n    /* \"#utility.yul\":6425:6463   */\n  tag_30\n  jump\t// in\ntag_128:\n    /* \"#utility.yul\":6509:6538   */\n  tag_129\n    /* \"#utility.yul\":6527:6537   */\n  dup5\n    /* \"#utility.yul\":6509:6538   */\n  tag_31\n  jump\t// in\ntag_129:\n    /* \"#utility.yul\":6499:6507   */\n  dup2\n    /* \"#utility.yul\":6495:6539   */\n  add\n    /* \"#utility.yul\":6692:6694   */\n  0x20\n    /* \"#utility.yul\":6680:6690   */\n  dup6\n    /* \"#utility.yul\":6677:6695   */\n  lt\n    /* \"#utility.yul\":6674:6723   */\n  iszero\n  tag_130\n  jumpi\n    /* \"#utility.yul\":6713:6721   */\n  dup2\n    /* \"#utility.yul\":6698:6721   */\n  swap1\n  pop\n    /* \"#utility.yul\":6674:6723   */\ntag_130:\n    /* \"#utility.yul\":6736:6816   */\n  tag_131\n    /* \"#utility.yul\":6792:6814   */\n  tag_132\n    /* \"#utility.yul\":6810:6813   */\n  dup6\n    /* \"#utility.yul\":6792:6814   */\n  tag_31\n  jump\t// in\ntag_132:\n    /* \"#utility.yul\":6782:6790   */\n  dup4\n    /* \"#utility.yul\":6778:6815   */\n  add\n    /* \"#utility.yul\":6765:6776   */\n  dup3\n    /* \"#utility.yul\":6736:6816   */\n  tag_40\n  jump\t// in\ntag_131:\n    /* \"#utility.yul\":6395:6826   */\n  pop\n  pop\n    /* \"#utility.yul\":6380:6826   */\ntag_127:\n    /* \"#utility.yul\":6290:6833   */\n  pop\n  pop\n  pop\n  jump\t// out\n    /* \"#utility.yul\":6839:6956   */\ntag_42:\n    /* \"#utility.yul\":6893:6901   */\n  0x00\n    /* \"#utility.yul\":6943:6948   */\n  dup3\n    /* \"#utility.yul\":6937:6941   */\n  dup3\n    /* \"#utility.yul\":6933:6949   */\n  shr\n    /* \"#utility.yul\":6912:6949   */\n  swap1\n  pop\n    /* \"#utility.yul\":6839:6956   */\n  swap3\n  swap2\n  pop\n  pop\n  jump\t// out\n    /* \"#utility.yul\":6962:7131   */\ntag_43:\n    /* \"#utility.yul\":7006:7012   */\n  0x00\n    /* \"#utility.yul\":7039:7090   */\n  tag_135\n    /* \"#utility.yul\":7087:7088   */\n  0x00\n    /* \"#utility.yul\":7083:7089   */\n  not\n    /* \"#utility.yul\":7075:7080   */\n  dup5\n    /* \"#utility.yul\":7072:7073   */\n  0x08\n    /* \"#utility.yul\":7068:7081   */\n  mul\n    /* \"#utility.yul\":7039:7090   */\n  tag_42\n  jump\t// in\ntag_135:\n    /* \"#utility.yul\":7035:7091   */\n  not\n    /* \"#utility.yul\":7120:7124   */\n  dup1\n    /* \"#utility.yul\":7114:7118   */\n  dup4\n    /* \"#utility.yul\":7110:7125   */\n  and\n    /* \"#utility.yul\":7100:7125   */\n  swap2\n  pop\n    /* \"#utility.yul\":7013:7131   */\n  pop\n    /* \"#utility.yul\":6962:7131   */\n  swap3\n  swap2\n  pop\n  pop\n  jump\t// out\n    /* \"#utility.yul\":7136:7431   */\ntag_44:\n    /* \"#utility.yul\":7212:7216   */\n  0x00\n    /* \"#utility.yul\":7358:7387   */\n  tag_137\n    /* \"#utility.yul\":7383:7386   */\n  dup4\n    /* \"#utility.yul\":7377:7381   */\n  dup4\n    /* \"#utility.yul\":7358:7387   */\n  tag_43\n  jump\t// in\ntag_137:\n    /* \"#utility.yul\":7350:7387   */\n  swap2\n  pop\n    /* \"#utility.yul\":7420:7423   */\n  dup3\n    /* \"#utility.yul\":7417:7418   */\n  0x02\n    /* \"#utility.yul\":7413:7424   */\n  mul\n    /* \"#utility.yul\":7407:7411   */\n  dup3\n    /* \"#utility.yul\":7404:7425   */\n  or\n    /* \"#utility.yul\":7396:7425   */\n  swap1\n  pop\n    /* \"#utility.yul\":7136:7431   */\n  swap3\n  swap2\n  pop\n  pop\n  jump\t// out\n    /* \"#utility.yul\":7436:8831   */\ntag_7:\n    /* \"#utility.yul\":7553:7590   */\n  tag_139\n    /* \"#utility.yul\":7586:7589   */\n  dup3\n    /* \"#utility.yul\":7553:7590   */\n  tag_27\n  jump\t// in\ntag_139:\n    /* \"#utility.yul\":7655:7673   */\n  0xffffffffffffffff\n    /* \"#utility.yul\":7647:7653   */\n  dup2\n    /* \"#utility.yul\":7644:7674   */\n  gt\n    /* \"#utility.yul\":7641:7697   */\n  iszero\n  tag_140\n  jumpi\n    /* \"#utility.yul\":7677:7695   */\n  tag_141\n  tag_17\n  jump\t// in\ntag_141:\n    /* \"#utility.yul\":7641:7697   */\ntag_140:\n    /* \"#utility.yul\":7721:7759   */\n  tag_142\n    /* \"#utility.yul\":7753:7757   */\n  dup3\n    /* \"#utility.yul\":7747:7758   */\n  sload\n    /* \"#utility.yul\":7721:7759   */\n  tag_29\n  jump\t// in\ntag_142:\n    /* \"#utility.yul\":7806:7873   */\n  tag_143\n    /* \"#utility.yul\":7866:7872   */\n  dup3\n    /* \"#utility.yul\":7858:7864   */\n  dup3\n    /* \"#utility.yul\":7852:7856   */\n  dup6\n    /* \"#utility.yul\":7806:7873   */\n  tag_41\n  jump\t// in\ntag_143:\n    /* \"#utility.yul\":7900:7901   */\n  0x00\n    /* \"#utility.yul\":7924:7928   */\n  0x20\n    /* \"#utility.yul\":7911:7928   */\n  swap1\n  pop\n    /* \"#utility.yul\":7956:7958   */\n  0x1f\n    /* \"#utility.yul\":7948:7954   */\n  dup4\n    /* \"#utility.yul\":7945:7959   */\n  gt\n    /* \"#utility.yul\":7973:7974   */\n  0x01\n    /* \"#utility.yul\":7968:8586   */\n  dup2\n  eq\n  tag_145\n  jumpi\n    /* \"#utility.yul\":8630:8631   */\n  0x00\n    /* \"#utility.yul\":8647:8653   */\n  dup5\n    /* \"#utility.yul\":8644:8721   */\n  iszero\n  tag_146\n  jumpi\n    /* \"#utility.yul\":8696:8705   */\n  dup3\n    /* \"#utility.yul\":8691:8694   */\n  dup8\n    /* \"#utility.yul\":8687:8706   */\n  add\n    /* \"#utility.yul\":8681:8707   */\n  mload\n    /* \"#utility.yul\":8672:8707   */\n  swap1\n  pop\n    /* \"#utility.yul\":8644:8721   */\ntag_146:\n    /* \"#utility.yul\":8747:8814   */\n  tag_147\n    /* \"#utility.yul\":8807:8813   */\n  dup6\n    /* \"#utility.yul\":8800:8805   */\n  dup3\n    /* \"#utility.yul\":8747:8814   */\n  tag_44\n  jump\t// in\ntag_147:\n    /* \"#utility.yul\":8741:8745   */\n  dup7\n    /* \"#utility.yul\":8734:8815   */\n  sstore\n    /* \"#utility.yul\":8603:8825   */\n  pop\n    /* \"#utility.yul\":7938:8825   */\n  jump(tag_144)\n    /* \"#utility.yul\":7968:8586   */\ntag_145:\n    /* \"#utility.yul\":8020:8024   */\n  0x1f\n    /* \"#utility.yul\":8016:8025   */\n  not\n    /* \"#utility.yul\":8008:8014   */\n  dup5\n    /* \"#utility.yul\":8004:8026   */\n  and\n    /* \"#utility.yul\":8054:8091   */\n  tag_148\n    /* \"#utility.yul\":8086:8090   */\n  dup7\n    /* \"#utility.yul\":8054:8091   */\n  tag_30\n  jump\t// in\ntag_148:\n    /* \"#utility.yul\":8113:8114   */\n  0x00\n    /* \"#utility.yul\":8127:8335   */\ntag_149:\n    /* \"#utility.yul\":8141:8148   */\n  dup3\n    /* \"#utility.yul\":8138:8139   */\n  dup2\n    /* \"#utility.yul\":8135:8149   */\n  lt\n    /* \"#utility.yul\":8127:8335   */\n  iszero\n  tag_151\n  jumpi\n    /* \"#utility.yul\":8220:8229   */\n  dup5\n    /* \"#utility.yul\":8215:8218   */\n  dup10\n    /* \"#utility.yul\":8211:8230   */\n  add\n    /* \"#utility.yul\":8205:8231   */\n  mload\n    /* \"#utility.yul\":8197:8203   */\n  dup3\n    /* \"#utility.yul\":8190:8232   */\n  sstore\n    /* \"#utility.yul\":8271:8272   */\n  0x01\n    /* \"#utility.yul\":8263:8269   */\n  dup3\n    /* \"#utility.yul\":8259:8273   */\n  add\n    /* \"#utility.yul\":8249:8273   */\n  swap2\n  pop\n    /* \"#utility.yul\":8318:8320   */\n  0x20\n    /* \"#utility.yul\":8307:8316   */\n  dup6\n    /* \"#utility.yul\":8303:8321   */\n  add\n    /* \"#utility.yul\":8290:8321   */\n  swap5\n  pop\n    /* \"#utility.yul\":8164:8168   */\n  0x20\n    /* \"#utility.yul\":8161:8162   */\n  dup2\n    /* \"#utility.yul\":8157:8169   */\n  add\n    /* \"#utility.yul\":8152:8169   */\n  swap1\n  pop\n    /* \"#utility.yul\":8127:8335   */\n  jump(tag_149)\ntag_151:\n    /* \"#utility.yul\":8363:8369   */\n  dup7\n    /* \"#utility.yul\":8354:8361   */\n  dup4\n    /* \"#utility.yul\":8351:8370   */\n  lt\n    /* \"#utility.yul\":8348:8527   */\n  iszero\n  tag_152\n  jumpi\n    /* \"#utility.yul\":8421:8430   */\n  dup5\n    /* \"#utility.yul\":8416:8419   */\n  dup10\n    /* \"#utility.yul\":8412:8431   */\n  add\n    /* \"#utility.yul\":8406:8432   */\n  mload\n    /* \"#utility.yul\":8464:8512   */\n  tag_153\n    /* \"#utility.yul\":8506:8510   */\n  0x1f\n    /* \"#utility.yul\":8498:8504   */\n  dup10\n    /* \"#utility.yul\":8494:8511   */\n  and\n    /* \"#utility.yul\":8483:8492   */\n  dup3\n    /* \"#utility.yul\":8464:8512   */\n  tag_43\n  jump\t// in\ntag_153:\n    /* \"#utility.yul\":8456:8462   */\n  dup4\n    /* \"#utility.yul\":8449:8513   */\n  sstore\n    /* \"#utility.yul\":8371:8527   */\n  pop\n    /* \"#utility.yul\":8348:8527   */\ntag_152:\n    /* \"#utility.yul\":8573:8574   */\n  0x01\n    /* \"#utility.yul\":8569:8570   */\n  0x02\n    /* \"#utility.yul\":8561:8567   */\n  dup9\n    /* \"#utility.yul\":8557:8571   */\n  mul\n    /* \"#utility.yul\":8553:8575   */\n  add\n    /* \"#utility.yul\":8547:8551   */\n  dup9\n    /* \"#utility.yul\":8540:8576   */\n  sstore\n    /* \"#utility.yul\":7975:8586   */\n  pop\n  pop\n  pop\n    /* \"#utility.yul\":7938:8825   */\ntag_144:\n  pop\n    /* \"#utility.yul\":7528:8831   */\n  pop\n  pop\n  pop\n    /* \"#utility.yul\":7436:8831   */\n  pop\n  pop\n  jump\t// out\n    /* \"#utility.yul\":8837:9006   */\ntag_45:\n    /* \"#utility.yul\":8921:8932   */\n  0x00\n    /* \"#utility.yul\":8955:8961   */\n  dup3\n    /* \"#utility.yul\":8950:8953   */\n  dup3\n    /* \"#utility.yul\":8943:8962   */\n  mstore\n    /* \"#utility.yul\":8995:8999   */\n  0x20\n    /* \"#utility.yul\":8990:8993   */\n  dup3\n    /* \"#utility.yul\":8986:9000   */\n  add\n    /* \"#utility.yul\":8971:9000   */\n  swap1\n  pop\n    /* \"#utility.yul\":8837:9006   */\n  swap3\n  swap2\n  pop\n  pop\n  jump\t// out\n    /* \"#utility.yul\":9012:9389   */\ntag_46:\n    /* \"#utility.yul\":9100:9103   */\n  0x00\n    /* \"#utility.yul\":9128:9167   */\n  tag_156\n    /* \"#utility.yul\":9161:9166   */\n  dup3\n    /* \"#utility.yul\":9128:9167   */\n  tag_27\n  jump\t// in\ntag_156:\n    /* \"#utility.yul\":9183:9254   */\n  tag_157\n    /* \"#utility.yul\":9247:9253   */\n  dup2\n    /* \"#utility.yul\":9242:9245   */\n  dup6\n    /* \"#utility.yul\":9183:9254   */\n  tag_45\n  jump\t// in\ntag_157:\n    /* \"#utility.yul\":9176:9254   */\n  swap4\n  pop\n    /* \"#utility.yul\":9263:9328   */\n  tag_158\n    /* \"#utility.yul\":9321:9327   */\n  dup2\n    /* \"#utility.yul\":9316:9319   */\n  dup6\n    /* \"#utility.yul\":9309:9313   */\n  0x20\n    /* \"#utility.yul\":9302:9307   */\n  dup7\n    /* \"#utility.yul\":9298:9314   */\n  add\n    /* \"#utility.yul\":9263:9328   */\n  tag_21\n  jump\t// in\ntag_158:\n    /* \"#utility.yul\":9353:9382   */\n  tag_159\n    /* \"#utility.yul\":9375:9381   */\n  dup2\n    /* \"#utility.yul\":9353:9382   */\n  tag_16\n  jump\t// in\ntag_159:\n    /* \"#utility.yul\":9348:9351   */\n  dup5\n    /* \"#utility.yul\":9344:9383   */\n  add\n    /* \"#utility.yul\":9337:9383   */\n  swap2\n  pop\n    /* \"#utility.yul\":9104:9389   */\n  pop\n    /* \"#utility.yul\":9012:9389   */\n  swap3\n  swap2\n  pop\n  pop\n  jump\t// out\n    /* \"#utility.yul\":9395:9513   */\ntag_47:\n    /* \"#utility.yul\":9482:9506   */\n  tag_161\n    /* \"#utility.yul\":9500:9505   */\n  dup2\n    /* \"#utility.yul\":9482:9506   */\n  tag_24\n  jump\t// in\ntag_161:\n    /* \"#utility.yul\":9477:9480   */\n  dup3\n    /* \"#utility.yul\":9470:9507   */\n  mstore\n    /* \"#utility.yul\":9395:9513   */\n  pop\n  pop\n  jump\t// out\n    /* \"#utility.yul\":9519:10052   */\ntag_9:\n    /* \"#utility.yul\":9688:9692   */\n  0x00\n    /* \"#utility.yul\":9726:9728   */\n  0x60\n    /* \"#utility.yul\":9715:9724   */\n  dup3\n    /* \"#utility.yul\":9711:9729   */\n  add\n    /* \"#utility.yul\":9703:9729   */\n  swap1\n  pop\n    /* \"#utility.yul\":9775:9784   */\n  dup2\n    /* \"#utility.yul\":9769:9773   */\n  dup2\n    /* \"#utility.yul\":9765:9785   */\n  sub\n    /* \"#utility.yul\":9761:9762   */\n  0x00\n    /* \"#utility.yul\":9750:9759   */\n  dup4\n    /* \"#utility.yul\":9746:9763   */\n  add\n    /* \"#utility.yul\":9739:9786   */\n  mstore\n    /* \"#utility.yul\":9803:9881   */\n  tag_163\n    /* \"#utility.yul\":9876:9880   */\n  dup2\n    /* \"#utility.yul\":9867:9873   */\n  dup7\n    /* \"#utility.yul\":9803:9881   */\n  tag_46\n  jump\t// in\ntag_163:\n    /* \"#utility.yul\":9795:9881   */\n  swap1\n  pop\n    /* \"#utility.yul\":9891:9963   */\n  tag_164\n    /* \"#utility.yul\":9959:9961   */\n  0x20\n    /* \"#utility.yul\":9948:9957   */\n  dup4\n    /* \"#utility.yul\":9944:9962   */\n  add\n    /* \"#utility.yul\":9935:9941   */\n  dup6\n    /* \"#utility.yul\":9891:9963   */\n  tag_47\n  jump\t// in\ntag_164:\n    /* \"#utility.yul\":9973:10045   */\n  tag_165\n    /* \"#utility.yul\":10041:10043   */\n  0x40\n    /* \"#utility.yul\":10030:10039   */\n  dup4\n    /* \"#utility.yul\":10026:10044   */\n  add\n    /* \"#utility.yul\":10017:10023   */\n  dup5\n    /* \"#utility.yul\":9973:10045   */\n  tag_47\n  jump\t// in\ntag_165:\n    /* \"#utility.yul\":9519:10052   */\n  swap5\n  swap4\n  pop\n  pop\n  pop\n  pop\n  jump\t// out\n    /* \"Day 19/EventEntry.sol\":61:3401  contract EventEntry {... */\ntag_10:\n  dataSize(sub_0)\n  dup1\n  dataOffset(sub_0)\n  0x00\n  codecopy\n  0x00\n  return\nstop\n\nsub_0: assembly {\n        /* \"Day 19/EventEntry.sol\":61:3401  contract EventEntry {... */\n      mstore(0x40, 0x80)\n      callvalue\n      dup1\n      iszero\n      tag_1\n      jumpi\n      0x00\n      dup1\n      revert\n    tag_1:\n      pop\n      jumpi(tag_2, lt(calldatasize, 0x04))\n      shr(0xe0, calldataload(0x00))\n      dup1\n      0x665983ec\n      gt\n      tag_16\n      jumpi\n      dup1\n      0xcc54bcf2\n      gt\n      tag_17\n      jumpi\n      dup1\n      0xcc54bcf2\n      eq\n      tag_12\n      jumpi\n      dup1\n      0xd866b0b6\n      eq\n      tag_13\n      jumpi\n      dup1\n      0xf1adda47\n      eq\n      tag_14\n      jumpi\n      dup1\n      0xfa540801\n      eq\n      tag_15\n      jumpi\n      jump(tag_2)\n    tag_17:\n      dup1\n      0x665983ec\n      eq\n      tag_9\n      jumpi\n      dup1\n      0x8043c9c0\n      eq\n      tag_10\n      jumpi\n      dup1\n      0x97aba7f9\n      eq\n      tag_11\n      jumpi\n      jump(tag_2)\n    tag_16:\n      dup1\n      0x1f5ac1b2\n      eq\n      tag_3\n      jumpi\n      dup1\n      0x258c1ef5\n      eq\n      tag_4\n      jumpi\n      dup1\n      0x304c44d1\n      eq\n      tag_5\n      jumpi\n      dup1\n      0x4bfbe5df\n      eq\n      tag_6\n      jumpi\n      dup1\n      0x5f3d7fa1\n      eq\n      tag_7\n      jumpi\n      dup1\n      0x61203265\n      eq\n      tag_8\n      jumpi\n    tag_2:\n      0x00\n      dup1\n      revert\n        /* \"Day 19/EventEntry.sol\":1254:1417  function getMessageHash(address _attendee) public view returns (bytes32) {... */\n    tag_3:\n      tag_18\n      0x04\n      dup1\n      calldatasize\n      sub\n      dup2\n      add\n      swap1\n      tag_19\n      swap2\n      swap1\n      tag_20\n      jump\t// in\n    tag_19:\n      tag_21\n      jump\t// in\n    tag_18:\n      mload(0x40)\n      tag_22\n      swap2\n      swap1\n      tag_23\n      jump\t// in\n    tag_22:\n      mload(0x40)\n      dup1\n      swap2\n      sub\n      swap1\n      return\n        /* \"Day 19/EventEntry.sol\":1743:2086  function verifySignature(... */\n    tag_4:\n      tag_24\n      0x04\n      dup1\n      calldatasize\n      sub\n      dup2\n      add\n      swap1\n      tag_25\n      swap2\n      swap1\n      tag_26\n      jump\t// in\n    tag_25:\n      tag_27\n      jump\t// in\n    tag_24:\n      mload(0x40)\n      tag_28\n      swap2\n      swap1\n      tag_29\n      jump\t// in\n    tag_28:\n      mload(0x40)\n      dup1\n      swap2\n      sub\n      swap1\n      return\n        /* \"Day 19/EventEntry.sol\":2838:3398  function checkIn(bytes memory _signature) external {... */\n    tag_5:\n      tag_30\n      0x04\n      dup1\n      calldatasize\n      sub\n      dup2\n      add\n      swap1\n      tag_31\n      swap2\n      swap1\n      tag_32\n      jump\t// in\n    tag_31:\n      tag_33\n      jump\t// in\n    tag_30:\n      stop\n        /* \"Day 19/EventEntry.sol\":149:173  uint256 public eventDate */\n    tag_6:\n      tag_34\n      tag_35\n      jump\t// in\n    tag_34:\n      mload(0x40)\n      tag_36\n      swap2\n      swap1\n      tag_37\n      jump\t// in\n    tag_36:\n      mload(0x40)\n      dup1\n      swap2\n      sub\n      swap1\n      return\n        /* \"Day 19/EventEntry.sol\":180:207  uint256 public maxAttendees */\n    tag_7:\n      tag_38\n      tag_39\n      jump\t// in\n    tag_38:\n      mload(0x40)\n      tag_40\n      swap2\n      swap1\n      tag_37\n      jump\t// in\n    tag_40:\n      mload(0x40)\n      dup1\n      swap2\n      sub\n      swap1\n      return\n        /* \"Day 19/EventEntry.sol\":118:142  address public organizer */\n    tag_8:\n      tag_41\n      tag_42\n      jump\t// in\n    tag_41:\n      mload(0x40)\n      tag_43\n      swap2\n      swap1\n      tag_44\n      jump\t// in\n    tag_43:\n      mload(0x40)\n      dup1\n      swap2\n      sub\n      swap1\n      return\n        /* \"Day 19/EventEntry.sol\":1092:1244  function setEventStatus(bool _isActive) external onlyOrganizer {... */\n    tag_9:\n      tag_45\n      0x04\n      dup1\n      calldatasize\n      sub\n      dup2\n      add\n      swap1\n      tag_46\n      swap2\n      swap1\n      tag_47\n      jump\t// in\n    tag_46:\n      tag_48\n      jump\t// in\n    tag_45:\n      stop\n        /* \"Day 19/EventEntry.sol\":88:111  string public eventName */\n    tag_10:\n      tag_49\n      tag_50\n      jump\t// in\n    tag_49:\n      mload(0x40)\n      tag_51\n      swap2\n      swap1\n      tag_52\n      jump\t// in\n    tag_51:\n      mload(0x40)\n      dup1\n      swap2\n      sub\n      swap1\n      return\n        /* \"Day 19/EventEntry.sol\":2094:2734  function recoverSigner(... */\n    tag_11:\n      tag_53\n      0x04\n      dup1\n      calldatasize\n      sub\n      dup2\n      add\n      swap1\n      tag_54\n      swap2\n      swap1\n      tag_55\n      jump\t// in\n    tag_54:\n      tag_56\n      jump\t// in\n    tag_53:\n      mload(0x40)\n      tag_57\n      swap2\n      swap1\n      tag_44\n      jump\t// in\n    tag_57:\n      mload(0x40)\n      dup1\n      swap2\n      sub\n      swap1\n      return\n        /* \"Day 19/EventEntry.sol\":249:274  bool public isEventActive */\n    tag_12:\n      tag_58\n      tag_59\n      jump\t// in\n    tag_58:\n      mload(0x40)\n      tag_60\n      swap2\n      swap1\n      tag_29\n      jump\t// in\n    tag_60:\n      mload(0x40)\n      dup1\n      swap2\n      sub\n      swap1\n      return\n        /* \"Day 19/EventEntry.sol\":283:326  mapping(address => bool) public hasAttended */\n    tag_13:\n      tag_61\n      0x04\n      dup1\n      calldatasize\n      sub\n      dup2\n      add\n      swap1\n      tag_62\n      swap2\n      swap1\n      tag_20\n      jump\t// in\n    tag_62:\n      tag_63\n      jump\t// in\n    tag_61:\n      mload(0x40)\n      tag_64\n      swap2\n      swap1\n      tag_29\n      jump\t// in\n    tag_64:\n      mload(0x40)\n      dup1\n      swap2\n      sub\n      swap1\n      return\n        /* \"Day 19/EventEntry.sol\":214:242  uint256 public attendeeCount */\n    tag_14:\n      tag_65\n      tag_66\n      jump\t// in\n    tag_65:\n      mload(0x40)\n      tag_67\n      swap2\n      swap1\n      tag_37\n      jump\t// in\n    tag_67:\n      mload(0x40)\n      dup1\n      swap2\n      sub\n      swap1\n      return\n        /* \"Day 19/EventEntry.sol\":1425:1735  function getEthSignedMessageHash(... */\n    tag_15:\n      tag_68\n      0x04\n      dup1\n      calldatasize\n      sub\n      dup2\n      add\n      swap1\n      tag_69\n      swap2\n      swap1\n      tag_70\n      jump\t// in\n    tag_69:\n      tag_71\n      jump\t// in\n    tag_68:\n      mload(0x40)\n      tag_72\n      swap2\n      swap1\n      tag_23\n      jump\t// in\n    tag_72:\n      mload(0x40)\n      dup1\n      swap2\n      sub\n      swap1\n      return\n        /* \"Day 19/EventEntry.sol\":1254:1417  function getMessageHash(address _attendee) public view returns (bytes32) {... */\n    tag_21:\n        /* \"Day 19/EventEntry.sol\":1318:1325  bytes32 */\n      0x00\n        /* \"Day 19/EventEntry.sol\":1380:1384  this */\n      address\n        /* \"Day 19/EventEntry.sol\":1387:1396  eventName */\n      0x00\n        /* \"Day 19/EventEntry.sol\":1398:1407  _attendee */\n      dup4\n        /* \"Day 19/EventEntry.sol\":1355:1408  abi.encodePacked(address(this), eventName, _attendee) */\n      add(0x20, mload(0x40))\n      tag_74\n      swap4\n      swap3\n      swap2\n      swap1\n      tag_75\n      jump\t// in\n    tag_74:\n      mload(0x40)\n      0x20\n      dup2\n      dup4\n      sub\n      sub\n      dup2\n      mstore\n      swap1\n      0x40\n      mstore\n        /* \"Day 19/EventEntry.sol\":1345:1409  keccak256(abi.encodePacked(address(this), eventName, _attendee)) */\n      dup1\n      mload\n      swap1\n      0x20\n      add\n      keccak256\n        /* \"Day 19/EventEntry.sol\":1338:1409  return keccak256(abi.encodePacked(address(this), eventName, _attendee)) */\n      swap1\n      pop\n        /* \"Day 19/EventEntry.sol\":1254:1417  function getMessageHash(address _attendee) public view returns (bytes32) {... */\n      swap2\n      swap1\n      pop\n      jump\t// out\n        /* \"Day 19/EventEntry.sol\":1743:2086  function verifySignature(... */\n    tag_27:\n        /* \"Day 19/EventEntry.sol\":1858:1862  bool */\n      0x00\n        /* \"Day 19/EventEntry.sol\":1875:1894  bytes32 messageHash */\n      dup1\n        /* \"Day 19/EventEntry.sol\":1897:1922  getMessageHash(_attendee) */\n      tag_77\n        /* \"Day 19/EventEntry.sol\":1912:1921  _attendee */\n      dup5\n        /* \"Day 19/EventEntry.sol\":1897:1911  getMessageHash */\n      tag_21\n        /* \"Day 19/EventEntry.sol\":1897:1922  getMessageHash(_attendee) */\n      jump\t// in\n    tag_77:\n        /* \"Day 19/EventEntry.sol\":1875:1922  bytes32 messageHash = getMessageHash(_attendee) */\n      swap1\n      pop\n        /* \"Day 19/EventEntry.sol\":1933:1961  bytes32 ethSignedMessageHash */\n      0x00\n        /* \"Day 19/EventEntry.sol\":1964:2000  getEthSignedMessageHash(messageHash) */\n      tag_78\n        /* \"Day 19/EventEntry.sol\":1988:1999  messageHash */\n      dup3\n        /* \"Day 19/EventEntry.sol\":1964:1987  getEthSignedMessageHash */\n      tag_71\n        /* \"Day 19/EventEntry.sol\":1964:2000  getEthSignedMessageHash(messageHash) */\n      jump\t// in\n    tag_78:\n        /* \"Day 19/EventEntry.sol\":1933:2000  bytes32 ethSignedMessageHash = getEthSignedMessageHash(messageHash) */\n      swap1\n      pop\n        /* \"Day 19/EventEntry.sol\":2069:2078  organizer */\n      0x01\n      0x00\n      swap1\n      sload\n      swap1\n      0x0100\n      exp\n      swap1\n      div\n      0xffffffffffffffffffffffffffffffffffffffff\n      and\n        /* \"Day 19/EventEntry.sol\":2018:2078  recoverSigner(ethSignedMessageHash, _signature) == organizer */\n      0xffffffffffffffffffffffffffffffffffffffff\n      and\n        /* \"Day 19/EventEntry.sol\":2018:2065  recoverSigner(ethSignedMessageHash, _signature) */\n      tag_79\n        /* \"Day 19/EventEntry.sol\":2032:2052  ethSignedMessageHash */\n      dup3\n        /* \"Day 19/EventEntry.sol\":2054:2064  _signature */\n      dup7\n        /* \"Day 19/EventEntry.sol\":2018:2031  recoverSigner */\n      tag_56\n        /* \"Day 19/EventEntry.sol\":2018:2065  recoverSigner(ethSignedMessageHash, _signature) */\n      jump\t// in\n    tag_79:\n        /* \"Day 19/EventEntry.sol\":2018:2078  recoverSigner(ethSignedMessageHash, _signature) == organizer */\n      0xffffffffffffffffffffffffffffffffffffffff\n      and\n      eq\n        /* \"Day 19/EventEntry.sol\":2011:2078  return recoverSigner(ethSignedMessageHash, _signature) == organizer */\n      swap3\n      pop\n      pop\n      pop\n        /* \"Day 19/EventEntry.sol\":1743:2086  function verifySignature(... */\n      swap3\n      swap2\n      pop\n      pop\n      jump\t// out\n        /* \"Day 19/EventEntry.sol\":2838:3398  function checkIn(bytes memory _signature) external {... */\n    tag_33:\n        /* \"Day 19/EventEntry.sol\":2908:2921  isEventActive */\n      0x05\n      0x00\n      swap1\n      sload\n      swap1\n      0x0100\n      exp\n      swap1\n      div\n      0xff\n      and\n        /* \"Day 19/EventEntry.sol\":2900:2945  require(isEventActive, \"Event is not active\") */\n      tag_81\n      jumpi\n      mload(0x40)\n      0x08c379a000000000000000000000000000000000000000000000000000000000\n      dup2\n      mstore\n      0x04\n      add\n      tag_82\n      swap1\n      tag_83\n      jump\t// in\n    tag_82:\n      mload(0x40)\n      dup1\n      swap2\n      sub\n      swap1\n      revert\n    tag_81:\n        /* \"Day 19/EventEntry.sol\":2995:3001  1 days */\n      0x015180\n        /* \"Day 19/EventEntry.sol\":2983:2992  eventDate */\n      sload(0x02)\n        /* \"Day 19/EventEntry.sol\":2983:3001  eventDate + 1 days */\n      tag_84\n      swap2\n      swap1\n      tag_85\n      jump\t// in\n    tag_84:\n        /* \"Day 19/EventEntry.sol\":2964:2979  block.timestamp */\n      timestamp\n        /* \"Day 19/EventEntry.sol\":2964:3001  block.timestamp <= eventDate + 1 days */\n      gt\n      iszero\n        /* \"Day 19/EventEntry.sol\":2956:3021  require(block.timestamp <= eventDate + 1 days, \"Event has ended\") */\n      tag_86\n      jumpi\n      mload(0x40)\n      0x08c379a000000000000000000000000000000000000000000000000000000000\n      dup2\n      mstore\n      0x04\n      add\n      tag_87\n      swap1\n      tag_88\n      jump\t// in\n    tag_87:\n      mload(0x40)\n      dup1\n      swap2\n      sub\n      swap1\n      revert\n    tag_86:\n        /* \"Day 19/EventEntry.sol\":3041:3052  hasAttended */\n      0x06\n        /* \"Day 19/EventEntry.sol\":3041:3064  hasAttended[msg.sender] */\n      0x00\n        /* \"Day 19/EventEntry.sol\":3053:3063  msg.sender */\n      caller\n        /* \"Day 19/EventEntry.sol\":3041:3064  hasAttended[msg.sender] */\n      0xffffffffffffffffffffffffffffffffffffffff\n      and\n      0xffffffffffffffffffffffffffffffffffffffff\n      and\n      dup2\n      mstore\n      0x20\n      add\n      swap1\n      dup2\n      mstore\n      0x20\n      add\n      0x00\n      keccak256\n      0x00\n      swap1\n      sload\n      swap1\n      0x0100\n      exp\n      swap1\n      div\n      0xff\n      and\n        /* \"Day 19/EventEntry.sol\":3040:3064  !hasAttended[msg.sender] */\n      iszero\n        /* \"Day 19/EventEntry.sol\":3032:3100  require(!hasAttended[msg.sender], \"Attendee has already checked in\") */\n      tag_89\n      jumpi\n      mload(0x40)\n      0x08c379a000000000000000000000000000000000000000000000000000000000\n      dup2\n      mstore\n      0x04\n      add\n      tag_90\n      swap1\n      tag_91\n      jump\t// in\n    tag_90:\n      mload(0x40)\n      dup1\n      swap2\n      sub\n      swap1\n      revert\n    tag_89:\n        /* \"Day 19/EventEntry.sol\":3135:3147  maxAttendees */\n      sload(0x03)\n        /* \"Day 19/EventEntry.sol\":3119:3132  attendeeCount */\n      sload(0x04)\n        /* \"Day 19/EventEntry.sol\":3119:3147  attendeeCount < maxAttendees */\n      lt\n        /* \"Day 19/EventEntry.sol\":3111:3177  require(attendeeCount < maxAttendees, \"Maximum attendees reached\") */\n      tag_92\n      jumpi\n      mload(0x40)\n      0x08c379a000000000000000000000000000000000000000000000000000000000\n      dup2\n      mstore\n      0x04\n      add\n      tag_93\n      swap1\n      tag_94\n      jump\t// in\n    tag_93:\n      mload(0x40)\n      dup1\n      swap2\n      sub\n      swap1\n      revert\n    tag_92:\n        /* \"Day 19/EventEntry.sol\":3196:3235  verifySignature(msg.sender, _signature) */\n      tag_95\n        /* \"Day 19/EventEntry.sol\":3212:3222  msg.sender */\n      caller\n        /* \"Day 19/EventEntry.sol\":3224:3234  _signature */\n      dup3\n        /* \"Day 19/EventEntry.sol\":3196:3211  verifySignature */\n      tag_27\n        /* \"Day 19/EventEntry.sol\":3196:3235  verifySignature(msg.sender, _signature) */\n      jump\t// in\n    tag_95:\n        /* \"Day 19/EventEntry.sol\":3188:3257  require(verifySignature(msg.sender, _signature), \"Invalid signature\") */\n      tag_96\n      jumpi\n      mload(0x40)\n      0x08c379a000000000000000000000000000000000000000000000000000000000\n      dup2\n      mstore\n      0x04\n      add\n      tag_97\n      swap1\n      tag_98\n      jump\t// in\n    tag_97:\n      mload(0x40)\n      dup1\n      swap2\n      sub\n      swap1\n      revert\n    tag_96:\n        /* \"Day 19/EventEntry.sol\":3296:3300  true */\n      0x01\n        /* \"Day 19/EventEntry.sol\":3270:3281  hasAttended */\n      0x06\n        /* \"Day 19/EventEntry.sol\":3270:3293  hasAttended[msg.sender] */\n      0x00\n        /* \"Day 19/EventEntry.sol\":3282:3292  msg.sender */\n      caller\n        /* \"Day 19/EventEntry.sol\":3270:3293  hasAttended[msg.sender] */\n      0xffffffffffffffffffffffffffffffffffffffff\n      and\n      0xffffffffffffffffffffffffffffffffffffffff\n      and\n      dup2\n      mstore\n      0x20\n      add\n      swap1\n      dup2\n      mstore\n      0x20\n      add\n      0x00\n      keccak256\n      0x00\n        /* \"Day 19/EventEntry.sol\":3270:3300  hasAttended[msg.sender] = true */\n      0x0100\n      exp\n      dup2\n      sload\n      dup2\n      0xff\n      mul\n      not\n      and\n      swap1\n      dup4\n      iszero\n      iszero\n      mul\n      or\n      swap1\n      sstore\n      pop\n        /* \"Day 19/EventEntry.sol\":3311:3324  attendeeCount */\n      0x04\n      0x00\n        /* \"Day 19/EventEntry.sol\":3311:3326  attendeeCount++ */\n      dup2\n      sload\n      dup1\n      swap3\n      swap2\n      swap1\n      tag_99\n      swap1\n      tag_100\n      jump\t// in\n    tag_99:\n      swap2\n      swap1\n      pop\n      sstore\n      pop\n        /* \"Day 19/EventEntry.sol\":3344:3390  AttendeeCheckedIn(msg.sender, block.timestamp) */\n      0xc4b6af862e5edf86b47bbd28434015dfdddfc6ce20ea8f6146df2972b54db5d5\n        /* \"Day 19/EventEntry.sol\":3362:3372  msg.sender */\n      caller\n        /* \"Day 19/EventEntry.sol\":3374:3389  block.timestamp */\n      timestamp\n        /* \"Day 19/EventEntry.sol\":3344:3390  AttendeeCheckedIn(msg.sender, block.timestamp) */\n      mload(0x40)\n      tag_101\n      swap3\n      swap2\n      swap1\n      tag_102\n      jump\t// in\n    tag_101:\n      mload(0x40)\n      dup1\n      swap2\n      sub\n      swap1\n      log1\n        /* \"Day 19/EventEntry.sol\":2838:3398  function checkIn(bytes memory _signature) external {... */\n      pop\n      jump\t// out\n        /* \"Day 19/EventEntry.sol\":149:173  uint256 public eventDate */\n    tag_35:\n      sload(0x02)\n      dup2\n      jump\t// out\n        /* \"Day 19/EventEntry.sol\":180:207  uint256 public maxAttendees */\n    tag_39:\n      sload(0x03)\n      dup2\n      jump\t// out\n        /* \"Day 19/EventEntry.sol\":118:142  address public organizer */\n    tag_42:\n      0x01\n      0x00\n      swap1\n      sload\n      swap1\n      0x0100\n      exp\n      swap1\n      div\n      0xffffffffffffffffffffffffffffffffffffffff\n      and\n      dup2\n      jump\t// out\n        /* \"Day 19/EventEntry.sol\":1092:1244  function setEventStatus(bool _isActive) external onlyOrganizer {... */\n    tag_48:\n        /* \"Day 19/EventEntry.sol\":980:989  organizer */\n      0x01\n      0x00\n      swap1\n      sload\n      swap1\n      0x0100\n      exp\n      swap1\n      div\n      0xffffffffffffffffffffffffffffffffffffffff\n      and\n        /* \"Day 19/EventEntry.sol\":966:989  msg.sender == organizer */\n      0xffffffffffffffffffffffffffffffffffffffff\n      and\n        /* \"Day 19/EventEntry.sol\":966:976  msg.sender */\n      caller\n        /* \"Day 19/EventEntry.sol\":966:989  msg.sender == organizer */\n      0xffffffffffffffffffffffffffffffffffffffff\n      and\n      eq\n        /* \"Day 19/EventEntry.sol\":944:1064  require(... */\n      tag_104\n      jumpi\n      mload(0x40)\n      0x08c379a000000000000000000000000000000000000000000000000000000000\n      dup2\n      mstore\n      0x04\n      add\n      tag_105\n      swap1\n      tag_106\n      jump\t// in\n    tag_105:\n      mload(0x40)\n      dup1\n      swap2\n      sub\n      swap1\n      revert\n    tag_104:\n        /* \"Day 19/EventEntry.sol\":1182:1191  _isActive */\n      dup1\n        /* \"Day 19/EventEntry.sol\":1166:1179  isEventActive */\n      0x05\n      0x00\n        /* \"Day 19/EventEntry.sol\":1166:1191  isEventActive = _isActive */\n      0x0100\n      exp\n      dup2\n      sload\n      dup2\n      0xff\n      mul\n      not\n      and\n      swap1\n      dup4\n      iszero\n      iszero\n      mul\n      or\n      swap1\n      sstore\n      pop\n        /* \"Day 19/EventEntry.sol\":1207:1236  EventStatusChanged(_isActive) */\n      0x3b2459d109ea4ebe9f621a02c3324d4b06bcbb121b32094e9210c57575e2f150\n        /* \"Day 19/EventEntry.sol\":1226:1235  _isActive */\n      dup2\n        /* \"Day 19/EventEntry.sol\":1207:1236  EventStatusChanged(_isActive) */\n      mload(0x40)\n      tag_108\n      swap2\n      swap1\n      tag_29\n      jump\t// in\n    tag_108:\n      mload(0x40)\n      dup1\n      swap2\n      sub\n      swap1\n      log1\n        /* \"Day 19/EventEntry.sol\":1092:1244  function setEventStatus(bool _isActive) external onlyOrganizer {... */\n      pop\n      jump\t// out\n        /* \"Day 19/EventEntry.sol\":88:111  string public eventName */\n    tag_50:\n      0x00\n      dup1\n      sload\n      tag_109\n      swap1\n      tag_110\n      jump\t// in\n    tag_109:\n      dup1\n      0x1f\n      add\n      0x20\n      dup1\n      swap2\n      div\n      mul\n      0x20\n      add\n      mload(0x40)\n      swap1\n      dup2\n      add\n      0x40\n      mstore\n      dup1\n      swap3\n      swap2\n      swap1\n      dup2\n      dup2\n      mstore\n      0x20\n      add\n      dup3\n      dup1\n      sload\n      tag_111\n      swap1\n      tag_110\n      jump\t// in\n    tag_111:\n      dup1\n      iszero\n      tag_112\n      jumpi\n      dup1\n      0x1f\n      lt\n      tag_113\n      jumpi\n      0x0100\n      dup1\n      dup4\n      sload\n      div\n      mul\n      dup4\n      mstore\n      swap2\n      0x20\n      add\n      swap2\n      jump(tag_112)\n    tag_113:\n      dup3\n      add\n      swap2\n      swap1\n      0x00\n      mstore\n      keccak256(0x00, 0x20)\n      swap1\n    tag_114:\n      dup2\n      sload\n      dup2\n      mstore\n      swap1\n      0x01\n      add\n      swap1\n      0x20\n      add\n      dup1\n      dup4\n      gt\n      tag_114\n      jumpi\n      dup3\n      swap1\n      sub\n      0x1f\n      and\n      dup3\n      add\n      swap2\n    tag_112:\n      pop\n      pop\n      pop\n      pop\n      pop\n      dup2\n      jump\t// out\n        /* \"Day 19/EventEntry.sol\":2094:2734  function recoverSigner(... */\n    tag_56:\n        /* \"Day 19/EventEntry.sol\":2219:2226  address */\n      0x00\n        /* \"Day 19/EventEntry.sol\":2268:2270  65 */\n      0x41\n        /* \"Day 19/EventEntry.sol\":2247:2257  _signature */\n      dup3\n        /* \"Day 19/EventEntry.sol\":2247:2264  _signature.length */\n      mload\n        /* \"Day 19/EventEntry.sol\":2247:2270  _signature.length == 65 */\n      eq\n        /* \"Day 19/EventEntry.sol\":2239:2299  require(_signature.length == 65, \"Invalid signature length\") */\n      tag_116\n      jumpi\n      mload(0x40)\n      0x08c379a000000000000000000000000000000000000000000000000000000000\n      dup2\n      mstore\n      0x04\n      add\n      tag_117\n      swap1\n      tag_118\n      jump\t// in\n    tag_117:\n      mload(0x40)\n      dup1\n      swap2\n      sub\n      swap1\n      revert\n    tag_116:\n        /* \"Day 19/EventEntry.sol\":2312:2321  bytes32 r */\n      0x00\n        /* \"Day 19/EventEntry.sol\":2332:2341  bytes32 s */\n      dup1\n        /* \"Day 19/EventEntry.sol\":2352:2359  uint8 v */\n      0x00\n        /* \"Day 19/EventEntry.sol\":2423:2425  32 */\n      0x20\n        /* \"Day 19/EventEntry.sol\":2411:2421  _signature */\n      dup6\n        /* \"Day 19/EventEntry.sol\":2407:2426  add(_signature, 32) */\n      add\n        /* \"Day 19/EventEntry.sol\":2401:2427  mload(add(_signature, 32)) */\n      mload\n        /* \"Day 19/EventEntry.sol\":2396:2427  r := mload(add(_signature, 32)) */\n      swap3\n      pop\n        /* \"Day 19/EventEntry.sol\":2468:2470  64 */\n      0x40\n        /* \"Day 19/EventEntry.sol\":2456:2466  _signature */\n      dup6\n        /* \"Day 19/EventEntry.sol\":2452:2471  add(_signature, 64) */\n      add\n        /* \"Day 19/EventEntry.sol\":2446:2472  mload(add(_signature, 64)) */\n      mload\n        /* \"Day 19/EventEntry.sol\":2441:2472  s := mload(add(_signature, 64)) */\n      swap2\n      pop\n        /* \"Day 19/EventEntry.sol\":2521:2523  96 */\n      0x60\n        /* \"Day 19/EventEntry.sol\":2509:2519  _signature */\n      dup6\n        /* \"Day 19/EventEntry.sol\":2505:2524  add(_signature, 96) */\n      add\n        /* \"Day 19/EventEntry.sol\":2499:2525  mload(add(_signature, 96)) */\n      mload\n        /* \"Day 19/EventEntry.sol\":2496:2497  0 */\n      0x00\n        /* \"Day 19/EventEntry.sol\":2491:2526  byte(0, mload(add(_signature, 96))) */\n      byte\n        /* \"Day 19/EventEntry.sol\":2486:2526  v := byte(0, mload(add(_signature, 96))) */\n      swap1\n      pop\n        /* \"Day 19/EventEntry.sol\":2557:2559  27 */\n      0x1b\n        /* \"Day 19/EventEntry.sol\":2553:2554  v */\n      dup2\n        /* \"Day 19/EventEntry.sol\":2553:2559  v < 27 */\n      0xff\n      and\n      lt\n        /* \"Day 19/EventEntry.sol\":2549:2595  if (v < 27) {... */\n      iszero\n      tag_119\n      jumpi\n        /* \"Day 19/EventEntry.sol\":2581:2583  27 */\n      0x1b\n        /* \"Day 19/EventEntry.sol\":2576:2583  v += 27 */\n      dup2\n      tag_120\n      swap2\n      swap1\n      tag_121\n      jump\t// in\n    tag_120:\n      swap1\n      pop\n        /* \"Day 19/EventEntry.sol\":2549:2595  if (v < 27) {... */\n    tag_119:\n        /* \"Day 19/EventEntry.sol\":2620:2622  27 */\n      0x1b\n        /* \"Day 19/EventEntry.sol\":2615:2616  v */\n      dup2\n        /* \"Day 19/EventEntry.sol\":2615:2622  v == 27 */\n      0xff\n      and\n      eq\n        /* \"Day 19/EventEntry.sol\":2615:2633  v == 27 || v == 28 */\n      dup1\n      tag_122\n      jumpi\n      pop\n        /* \"Day 19/EventEntry.sol\":2631:2633  28 */\n      0x1c\n        /* \"Day 19/EventEntry.sol\":2626:2627  v */\n      dup2\n        /* \"Day 19/EventEntry.sol\":2626:2633  v == 28 */\n      0xff\n      and\n      eq\n        /* \"Day 19/EventEntry.sol\":2615:2633  v == 27 || v == 28 */\n    tag_122:\n        /* \"Day 19/EventEntry.sol\":2607:2665  require(v == 27 || v == 28, \"Invalid signature 'v' value\") */\n      tag_123\n      jumpi\n      mload(0x40)\n      0x08c379a000000000000000000000000000000000000000000000000000000000\n      dup2\n      mstore\n      0x04\n      add\n      tag_124\n      swap1\n      tag_125\n      jump\t// in\n    tag_124:\n      mload(0x40)\n      dup1\n      swap2\n      sub\n      swap1\n      revert\n    tag_123:\n        /* \"Day 19/EventEntry.sol\":2685:2726  ecrecover(_ethSignedMessageHash, v, r, s) */\n      0x01\n        /* \"Day 19/EventEntry.sol\":2695:2716  _ethSignedMessageHash */\n      dup7\n        /* \"Day 19/EventEntry.sol\":2718:2719  v */\n      dup3\n        /* \"Day 19/EventEntry.sol\":2721:2722  r */\n      dup6\n        /* \"Day 19/EventEntry.sol\":2724:2725  s */\n      dup6\n        /* \"Day 19/EventEntry.sol\":2685:2726  ecrecover(_ethSignedMessageHash, v, r, s) */\n      mload(0x40)\n      0x00\n      dup2\n      mstore\n      0x20\n      add\n      0x40\n      mstore\n      mload(0x40)\n      tag_126\n      swap5\n      swap4\n      swap3\n      swap2\n      swap1\n      tag_127\n      jump\t// in\n    tag_126:\n      0x20\n      mload(0x40)\n      0x20\n      dup2\n      sub\n      swap1\n      dup1\n      dup5\n      sub\n      swap1\n      dup6\n      gas\n      staticcall\n      iszero\n      dup1\n      iszero\n      tag_129\n      jumpi\n      returndatasize\n      0x00\n      dup1\n      returndatacopy\n      revert(0x00, returndatasize)\n    tag_129:\n      pop\n      pop\n      pop\n      mload(sub(mload(0x40), 0x20))\n        /* \"Day 19/EventEntry.sol\":2678:2726  return ecrecover(_ethSignedMessageHash, v, r, s) */\n      swap4\n      pop\n      pop\n      pop\n      pop\n        /* \"Day 19/EventEntry.sol\":2094:2734  function recoverSigner(... */\n      swap3\n      swap2\n      pop\n      pop\n      jump\t// out\n        /* \"Day 19/EventEntry.sol\":249:274  bool public isEventActive */\n    tag_59:\n      0x05\n      0x00\n      swap1\n      sload\n      swap1\n      0x0100\n      exp\n      swap1\n      div\n      0xff\n      and\n      dup2\n      jump\t// out\n        /* \"Day 19/EventEntry.sol\":283:326  mapping(address => bool) public hasAttended */\n    tag_63:\n      mstore(0x20, 0x06)\n      dup1\n      0x00\n      mstore\n      keccak256(0x00, 0x40)\n      0x00\n      swap2\n      pop\n      sload\n      swap1\n      0x0100\n      exp\n      swap1\n      div\n      0xff\n      and\n      dup2\n      jump\t// out\n        /* \"Day 19/EventEntry.sol\":214:242  uint256 public attendeeCount */\n    tag_66:\n      sload(0x04)\n      dup2\n      jump\t// out\n        /* \"Day 19/EventEntry.sol\":1425:1735  function getEthSignedMessageHash(... */\n    tag_71:\n        /* \"Day 19/EventEntry.sol\":1517:1524  bytes32 */\n      0x00\n        /* \"Day 19/EventEntry.sol\":1681:1693  _messageHash */\n      dup2\n        /* \"Day 19/EventEntry.sol\":1585:1712  abi.encodePacked(... */\n      add(0x20, mload(0x40))\n      tag_131\n      swap2\n      swap1\n      tag_132\n      jump\t// in\n    tag_131:\n      mload(0x40)\n      0x20\n      dup2\n      dup4\n      sub\n      sub\n      dup2\n      mstore\n      swap1\n      0x40\n      mstore\n        /* \"Day 19/EventEntry.sol\":1557:1727  keccak256(... */\n      dup1\n      mload\n      swap1\n      0x20\n      add\n      keccak256\n        /* \"Day 19/EventEntry.sol\":1537:1727  return... */\n      swap1\n      pop\n        /* \"Day 19/EventEntry.sol\":1425:1735  function getEthSignedMessageHash(... */\n      swap2\n      swap1\n      pop\n      jump\t// out\n        /* \"#utility.yul\":7:82   */\n    tag_133:\n        /* \"#utility.yul\":40:46   */\n      0x00\n        /* \"#utility.yul\":73:75   */\n      0x40\n        /* \"#utility.yul\":67:76   */\n      mload\n        /* \"#utility.yul\":57:76   */\n      swap1\n      pop\n        /* \"#utility.yul\":7:82   */\n      swap1\n      jump\t// out\n        /* \"#utility.yul\":88:205   */\n    tag_134:\n        /* \"#utility.yul\":197:198   */\n      0x00\n        /* \"#utility.yul\":194:195   */\n      dup1\n        /* \"#utility.yul\":187:199   */\n      revert\n        /* \"#utility.yul\":211:328   */\n    tag_135:\n        /* \"#utility.yul\":320:321   */\n      0x00\n        /* \"#utility.yul\":317:318   */\n      dup1\n        /* \"#utility.yul\":310:322   */\n      revert\n        /* \"#utility.yul\":334:460   */\n    tag_136:\n        /* \"#utility.yul\":371:378   */\n      0x00\n        /* \"#utility.yul\":411:453   */\n      0xffffffffffffffffffffffffffffffffffffffff\n        /* \"#utility.yul\":404:409   */\n      dup3\n        /* \"#utility.yul\":400:454   */\n      and\n        /* \"#utility.yul\":389:454   */\n      swap1\n      pop\n        /* \"#utility.yul\":334:460   */\n      swap2\n      swap1\n      pop\n      jump\t// out\n        /* \"#utility.yul\":466:562   */\n    tag_137:\n        /* \"#utility.yul\":503:510   */\n      0x00\n        /* \"#utility.yul\":532:556   */\n      tag_202\n        /* \"#utility.yul\":550:555   */\n      dup3\n        /* \"#utility.yul\":532:556   */\n      tag_136\n      jump\t// in\n    tag_202:\n        /* \"#utility.yul\":521:556   */\n      swap1\n      pop\n        /* \"#utility.yul\":466:562   */\n      swap2\n      swap1\n      pop\n      jump\t// out\n        /* \"#utility.yul\":568:690   */\n    tag_138:\n        /* \"#utility.yul\":641:665   */\n      tag_204\n        /* \"#utility.yul\":659:664   */\n      dup2\n        /* \"#utility.yul\":641:665   */\n      tag_137\n      jump\t// in\n    tag_204:\n        /* \"#utility.yul\":634:639   */\n      dup2\n        /* \"#utility.yul\":631:666   */\n      eq\n        /* \"#utility.yul\":621:684   */\n      tag_205\n      jumpi\n        /* \"#utility.yul\":680:681   */\n      0x00\n        /* \"#utility.yul\":677:678   */\n      dup1\n        /* \"#utility.yul\":670:682   */\n      revert\n        /* \"#utility.yul\":621:684   */\n    tag_205:\n        /* \"#utility.yul\":568:690   */\n      pop\n      jump\t// out\n        /* \"#utility.yul\":696:835   */\n    tag_139:\n        /* \"#utility.yul\":742:747   */\n      0x00\n        /* \"#utility.yul\":780:786   */\n      dup2\n        /* \"#utility.yul\":767:787   */\n      calldataload\n        /* \"#utility.yul\":758:787   */\n      swap1\n      pop\n        /* \"#utility.yul\":796:829   */\n      tag_207\n        /* \"#utility.yul\":823:828   */\n      dup2\n        /* \"#utility.yul\":796:829   */\n      tag_138\n      jump\t// in\n    tag_207:\n        /* \"#utility.yul\":696:835   */\n      swap3\n      swap2\n      pop\n      pop\n      jump\t// out\n        /* \"#utility.yul\":841:1170   */\n    tag_20:\n        /* \"#utility.yul\":900:906   */\n      0x00\n        /* \"#utility.yul\":949:951   */\n      0x20\n        /* \"#utility.yul\":937:946   */\n      dup3\n        /* \"#utility.yul\":928:935   */\n      dup5\n        /* \"#utility.yul\":924:947   */\n      sub\n        /* \"#utility.yul\":920:952   */\n      slt\n        /* \"#utility.yul\":917:1036   */\n      iszero\n      tag_209\n      jumpi\n        /* \"#utility.yul\":955:1034   */\n      tag_210\n      tag_134\n      jump\t// in\n    tag_210:\n        /* \"#utility.yul\":917:1036   */\n    tag_209:\n        /* \"#utility.yul\":1075:1076   */\n      0x00\n        /* \"#utility.yul\":1100:1153   */\n      tag_211\n        /* \"#utility.yul\":1145:1152   */\n      dup5\n        /* \"#utility.yul\":1136:1142   */\n      dup3\n        /* \"#utility.yul\":1125:1134   */\n      dup6\n        /* \"#utility.yul\":1121:1143   */\n      add\n        /* \"#utility.yul\":1100:1153   */\n      tag_139\n      jump\t// in\n    tag_211:\n        /* \"#utility.yul\":1090:1153   */\n      swap2\n      pop\n        /* \"#utility.yul\":1046:1163   */\n      pop\n        /* \"#utility.yul\":841:1170   */\n      swap3\n      swap2\n      pop\n      pop\n      jump\t// out\n        /* \"#utility.yul\":1176:1253   */\n    tag_140:\n        /* \"#utility.yul\":1213:1220   */\n      0x00\n        /* \"#utility.yul\":1242:1247   */\n      dup2\n        /* \"#utility.yul\":1231:1247   */\n      swap1\n      pop\n        /* \"#utility.yul\":1176:1253   */\n      swap2\n      swap1\n      pop\n      jump\t// out\n        /* \"#utility.yul\":1259:1377   */\n    tag_141:\n        /* \"#utility.yul\":1346:1370   */\n      tag_214\n        /* \"#utility.yul\":1364:1369   */\n      dup2\n        /* \"#utility.yul\":1346:1370   */\n      tag_140\n      jump\t// in\n    tag_214:\n        /* \"#utility.yul\":1341:1344   */\n      dup3\n        /* \"#utility.yul\":1334:1371   */\n      mstore\n        /* \"#utility.yul\":1259:1377   */\n      pop\n      pop\n      jump\t// out\n        /* \"#utility.yul\":1383:1605   */\n    tag_23:\n        /* \"#utility.yul\":1476:1480   */\n      0x00\n        /* \"#utility.yul\":1514:1516   */\n      0x20\n        /* \"#utility.yul\":1503:1512   */\n      dup3\n        /* \"#utility.yul\":1499:1517   */\n      add\n        /* \"#utility.yul\":1491:1517   */\n      swap1\n      pop\n        /* \"#utility.yul\":1527:1598   */\n      tag_216\n        /* \"#utility.yul\":1595:1596   */\n      0x00\n        /* \"#utility.yul\":1584:1593   */\n      dup4\n        /* \"#utility.yul\":1580:1597   */\n      add\n        /* \"#utility.yul\":1571:1577   */\n      dup5\n        /* \"#utility.yul\":1527:1598   */\n      tag_141\n      jump\t// in\n    tag_216:\n        /* \"#utility.yul\":1383:1605   */\n      swap3\n      swap2\n      pop\n      pop\n      jump\t// out\n        /* \"#utility.yul\":1611:1728   */\n    tag_142:\n        /* \"#utility.yul\":1720:1721   */\n      0x00\n        /* \"#utility.yul\":1717:1718   */\n      dup1\n        /* \"#utility.yul\":1710:1722   */\n      revert\n        /* \"#utility.yul\":1734:1851   */\n    tag_143:\n        /* \"#utility.yul\":1843:1844   */\n      0x00\n        /* \"#utility.yul\":1840:1841   */\n      dup1\n        /* \"#utility.yul\":1833:1845   */\n      revert\n        /* \"#utility.yul\":1857:1959   */\n    tag_144:\n        /* \"#utility.yul\":1898:1904   */\n      0x00\n        /* \"#utility.yul\":1949:1951   */\n      0x1f\n        /* \"#utility.yul\":1945:1952   */\n      not\n        /* \"#utility.yul\":1940:1942   */\n      0x1f\n        /* \"#utility.yul\":1933:1938   */\n      dup4\n        /* \"#utility.yul\":1929:1943   */\n      add\n        /* \"#utility.yul\":1925:1953   */\n      and\n        /* \"#utility.yul\":1915:1953   */\n      swap1\n      pop\n        /* \"#utility.yul\":1857:1959   */\n      swap2\n      swap1\n      pop\n      jump\t// out\n        /* \"#utility.yul\":1965:2145   */\n    tag_145:\n        /* \"#utility.yul\":2013:2090   */\n      0x4e487b7100000000000000000000000000000000000000000000000000000000\n        /* \"#utility.yul\":2010:2011   */\n      0x00\n        /* \"#utility.yul\":2003:2091   */\n      mstore\n        /* \"#utility.yul\":2110:2114   */\n      0x41\n        /* \"#utility.yul\":2107:2108   */\n      0x04\n        /* \"#utility.yul\":2100:2115   */\n      mstore\n        /* \"#utility.yul\":2134:2138   */\n      0x24\n        /* \"#utility.yul\":2131:2132   */\n      0x00\n        /* \"#utility.yul\":2124:2139   */\n      revert\n        /* \"#utility.yul\":2151:2432   */\n    tag_146:\n        /* \"#utility.yul\":2234:2261   */\n      tag_222\n        /* \"#utility.yul\":2256:2260   */\n      dup3\n        /* \"#utility.yul\":2234:2261   */\n      tag_144\n      jump\t// in\n    tag_222:\n        /* \"#utility.yul\":2226:2232   */\n      dup2\n        /* \"#utility.yul\":2222:2262   */\n      add\n        /* \"#utility.yul\":2364:2370   */\n      dup2\n        /* \"#utility.yul\":2352:2362   */\n      dup2\n        /* \"#utility.yul\":2349:2371   */\n      lt\n        /* \"#utility.yul\":2328:2346   */\n      0xffffffffffffffff\n        /* \"#utility.yul\":2316:2326   */\n      dup3\n        /* \"#utility.yul\":2313:2347   */\n      gt\n        /* \"#utility.yul\":2310:2372   */\n      or\n        /* \"#utility.yul\":2307:2395   */\n      iszero\n      tag_223\n      jumpi\n        /* \"#utility.yul\":2375:2393   */\n      tag_224\n      tag_145\n      jump\t// in\n    tag_224:\n        /* \"#utility.yul\":2307:2395   */\n    tag_223:\n        /* \"#utility.yul\":2415:2425   */\n      dup1\n        /* \"#utility.yul\":2411:2413   */\n      0x40\n        /* \"#utility.yul\":2404:2426   */\n      mstore\n        /* \"#utility.yul\":2194:2432   */\n      pop\n        /* \"#utility.yul\":2151:2432   */\n      pop\n      pop\n      jump\t// out\n        /* \"#utility.yul\":2438:2567   */\n    tag_147:\n        /* \"#utility.yul\":2472:2478   */\n      0x00\n        /* \"#utility.yul\":2499:2519   */\n      tag_226\n      tag_133\n      jump\t// in\n    tag_226:\n        /* \"#utility.yul\":2489:2519   */\n      swap1\n      pop\n        /* \"#utility.yul\":2528:2561   */\n      tag_227\n        /* \"#utility.yul\":2556:2560   */\n      dup3\n        /* \"#utility.yul\":2548:2554   */\n      dup3\n        /* \"#utility.yul\":2528:2561   */\n      tag_146\n      jump\t// in\n    tag_227:\n        /* \"#utility.yul\":2438:2567   */\n      swap2\n      swap1\n      pop\n      jump\t// out\n        /* \"#utility.yul\":2573:2880   */\n    tag_148:\n        /* \"#utility.yul\":2634:2638   */\n      0x00\n        /* \"#utility.yul\":2724:2742   */\n      0xffffffffffffffff\n        /* \"#utility.yul\":2716:2722   */\n      dup3\n        /* \"#utility.yul\":2713:2743   */\n      gt\n        /* \"#utility.yul\":2710:2766   */\n      iszero\n      tag_229\n      jumpi\n        /* \"#utility.yul\":2746:2764   */\n      tag_230\n      tag_145\n      jump\t// in\n    tag_230:\n        /* \"#utility.yul\":2710:2766   */\n    tag_229:\n        /* \"#utility.yul\":2784:2813   */\n      tag_231\n        /* \"#utility.yul\":2806:2812   */\n      dup3\n        /* \"#utility.yul\":2784:2813   */\n      tag_144\n      jump\t// in\n    tag_231:\n        /* \"#utility.yul\":2776:2813   */\n      swap1\n      pop\n        /* \"#utility.yul\":2868:2872   */\n      0x20\n        /* \"#utility.yul\":2862:2866   */\n      dup2\n        /* \"#utility.yul\":2858:2873   */\n      add\n        /* \"#utility.yul\":2850:2873   */\n      swap1\n      pop\n        /* \"#utility.yul\":2573:2880   */\n      swap2\n      swap1\n      pop\n      jump\t// out\n        /* \"#utility.yul\":2886:3032   */\n    tag_149:\n        /* \"#utility.yul\":2983:2989   */\n      dup3\n        /* \"#utility.yul\":2978:2981   */\n      dup2\n        /* \"#utility.yul\":2973:2976   */\n      dup4\n        /* \"#utility.yul\":2960:2990   */\n      calldatacopy\n        /* \"#utility.yul\":3024:3025   */\n      0x00\n        /* \"#utility.yul\":3015:3021   */\n      dup4\n        /* \"#utility.yul\":3010:3013   */\n      dup4\n        /* \"#utility.yul\":3006:3022   */\n      add\n        /* \"#utility.yul\":2999:3026   */\n      mstore\n        /* \"#utility.yul\":2886:3032   */\n      pop\n      pop\n      pop\n      jump\t// out\n        /* \"#utility.yul\":3038:3461   */\n    tag_150:\n        /* \"#utility.yul\":3115:3120   */\n      0x00\n        /* \"#utility.yul\":3140:3205   */\n      tag_234\n        /* \"#utility.yul\":3156:3204   */\n      tag_235\n        /* \"#utility.yul\":3197:3203   */\n      dup5\n        /* \"#utility.yul\":3156:3204   */\n      tag_148\n      jump\t// in\n    tag_235:\n        /* \"#utility.yul\":3140:3205   */\n      tag_147\n      jump\t// in\n    tag_234:\n        /* \"#utility.yul\":3131:3205   */\n      swap1\n      pop\n        /* \"#utility.yul\":3228:3234   */\n      dup3\n        /* \"#utility.yul\":3221:3226   */\n      dup2\n        /* \"#utility.yul\":3214:3235   */\n      mstore\n        /* \"#utility.yul\":3266:3270   */\n      0x20\n        /* \"#utility.yul\":3259:3264   */\n      dup2\n        /* \"#utility.yul\":3255:3271   */\n      add\n        /* \"#utility.yul\":3304:3307   */\n      dup5\n        /* \"#utility.yul\":3295:3301   */\n      dup5\n        /* \"#utility.yul\":3290:3293   */\n      dup5\n        /* \"#utility.yul\":3286:3302   */\n      add\n        /* \"#utility.yul\":3283:3308   */\n      gt\n        /* \"#utility.yul\":3280:3392   */\n      iszero\n      tag_236\n      jumpi\n        /* \"#utility.yul\":3311:3390   */\n      tag_237\n      tag_143\n      jump\t// in\n    tag_237:\n        /* \"#utility.yul\":3280:3392   */\n    tag_236:\n        /* \"#utility.yul\":3401:3455   */\n      tag_238\n        /* \"#utility.yul\":3448:3454   */\n      dup5\n        /* \"#utility.yul\":3443:3446   */\n      dup3\n        /* \"#utility.yul\":3438:3441   */\n      dup6\n        /* \"#utility.yul\":3401:3455   */\n      tag_149\n      jump\t// in\n    tag_238:\n        /* \"#utility.yul\":3121:3461   */\n      pop\n        /* \"#utility.yul\":3038:3461   */\n      swap4\n      swap3\n      pop\n      pop\n      pop\n      jump\t// out\n        /* \"#utility.yul\":3480:3818   */\n    tag_151:\n        /* \"#utility.yul\":3535:3540   */\n      0x00\n        /* \"#utility.yul\":3584:3587   */\n      dup3\n        /* \"#utility.yul\":3577:3581   */\n      0x1f\n        /* \"#utility.yul\":3569:3575   */\n      dup4\n        /* \"#utility.yul\":3565:3582   */\n      add\n        /* \"#utility.yul\":3561:3588   */\n      slt\n        /* \"#utility.yul\":3551:3673   */\n      tag_240\n      jumpi\n        /* \"#utility.yul\":3592:3671   */\n      tag_241\n      tag_142\n      jump\t// in\n    tag_241:\n        /* \"#utility.yul\":3551:3673   */\n    tag_240:\n        /* \"#utility.yul\":3709:3715   */\n      dup2\n        /* \"#utility.yul\":3696:3716   */\n      calldataload\n        /* \"#utility.yul\":3734:3812   */\n      tag_242\n        /* \"#utility.yul\":3808:3811   */\n      dup5\n        /* \"#utility.yul\":3800:3806   */\n      dup3\n        /* \"#utility.yul\":3793:3797   */\n      0x20\n        /* \"#utility.yul\":3785:3791   */\n      dup7\n        /* \"#utility.yul\":3781:3798   */\n      add\n        /* \"#utility.yul\":3734:3812   */\n      tag_150\n      jump\t// in\n    tag_242:\n        /* \"#utility.yul\":3725:3812   */\n      swap2\n      pop\n        /* \"#utility.yul\":3541:3818   */\n      pop\n        /* \"#utility.yul\":3480:3818   */\n      swap3\n      swap2\n      pop\n      pop\n      jump\t// out\n        /* \"#utility.yul\":3824:4476   */\n    tag_26:\n        /* \"#utility.yul\":3901:3907   */\n      0x00\n        /* \"#utility.yul\":3909:3915   */\n      dup1\n        /* \"#utility.yul\":3958:3960   */\n      0x40\n        /* \"#utility.yul\":3946:3955   */\n      dup4\n        /* \"#utility.yul\":3937:3944   */\n      dup6\n        /* \"#utility.yul\":3933:3956   */\n      sub\n        /* \"#utility.yul\":3929:3961   */\n      slt\n        /* \"#utility.yul\":3926:4045   */\n      iszero\n      tag_244\n      jumpi\n        /* \"#utility.yul\":3964:4043   */\n      tag_245\n      tag_134\n      jump\t// in\n    tag_245:\n        /* \"#utility.yul\":3926:4045   */\n    tag_244:\n        /* \"#utility.yul\":4084:4085   */\n      0x00\n        /* \"#utility.yul\":4109:4162   */\n      tag_246\n        /* \"#utility.yul\":4154:4161   */\n      dup6\n        /* \"#utility.yul\":4145:4151   */\n      dup3\n        /* \"#utility.yul\":4134:4143   */\n      dup7\n        /* \"#utility.yul\":4130:4152   */\n      add\n        /* \"#utility.yul\":4109:4162   */\n      tag_139\n      jump\t// in\n    tag_246:\n        /* \"#utility.yul\":4099:4162   */\n      swap3\n      pop\n        /* \"#utility.yul\":4055:4172   */\n      pop\n        /* \"#utility.yul\":4239:4241   */\n      0x20\n        /* \"#utility.yul\":4228:4237   */\n      dup4\n        /* \"#utility.yul\":4224:4242   */\n      add\n        /* \"#utility.yul\":4211:4243   */\n      calldataload\n        /* \"#utility.yul\":4270:4288   */\n      0xffffffffffffffff\n        /* \"#utility.yul\":4262:4268   */\n      dup2\n        /* \"#utility.yul\":4259:4289   */\n      gt\n        /* \"#utility.yul\":4256:4373   */\n      iszero\n      tag_247\n      jumpi\n        /* \"#utility.yul\":4292:4371   */\n      tag_248\n      tag_135\n      jump\t// in\n    tag_248:\n        /* \"#utility.yul\":4256:4373   */\n    tag_247:\n        /* \"#utility.yul\":4397:4459   */\n      tag_249\n        /* \"#utility.yul\":4451:4458   */\n      dup6\n        /* \"#utility.yul\":4442:4448   */\n      dup3\n        /* \"#utility.yul\":4431:4440   */\n      dup7\n        /* \"#utility.yul\":4427:4449   */\n      add\n        /* \"#utility.yul\":4397:4459   */\n      tag_151\n      jump\t// in\n    tag_249:\n        /* \"#utility.yul\":4387:4459   */\n      swap2\n      pop\n        /* \"#utility.yul\":4182:4469   */\n      pop\n        /* \"#utility.yul\":3824:4476   */\n      swap3\n      pop\n      swap3\n      swap1\n      pop\n      jump\t// out\n        /* \"#utility.yul\":4482:4572   */\n    tag_152:\n        /* \"#utility.yul\":4516:4523   */\n      0x00\n        /* \"#utility.yul\":4559:4564   */\n      dup2\n        /* \"#utility.yul\":4552:4565   */\n      iszero\n        /* \"#utility.yul\":4545:4566   */\n      iszero\n        /* \"#utility.yul\":4534:4566   */\n      swap1\n      pop\n        /* \"#utility.yul\":4482:4572   */\n      swap2\n      swap1\n      pop\n      jump\t// out\n        /* \"#utility.yul\":4578:4687   */\n    tag_153:\n        /* \"#utility.yul\":4659:4680   */\n      tag_252\n        /* \"#utility.yul\":4674:4679   */\n      dup2\n        /* \"#utility.yul\":4659:4680   */\n      tag_152\n      jump\t// in\n    tag_252:\n        /* \"#utility.yul\":4654:4657   */\n      dup3\n        /* \"#utility.yul\":4647:4681   */\n      mstore\n        /* \"#utility.yul\":4578:4687   */\n      pop\n      pop\n      jump\t// out\n        /* \"#utility.yul\":4693:4903   */\n    tag_29:\n        /* \"#utility.yul\":4780:4784   */\n      0x00\n        /* \"#utility.yul\":4818:4820   */\n      0x20\n        /* \"#utility.yul\":4807:4816   */\n      dup3\n        /* \"#utility.yul\":4803:4821   */\n      add\n        /* \"#utility.yul\":4795:4821   */\n      swap1\n      pop\n        /* \"#utility.yul\":4831:4896   */\n      tag_254\n        /* \"#utility.yul\":4893:4894   */\n      0x00\n        /* \"#utility.yul\":4882:4891   */\n      dup4\n        /* \"#utility.yul\":4878:4895   */\n      add\n        /* \"#utility.yul\":4869:4875   */\n      dup5\n        /* \"#utility.yul\":4831:4896   */\n      tag_153\n      jump\t// in\n    tag_254:\n        /* \"#utility.yul\":4693:4903   */\n      swap3\n      swap2\n      pop\n      pop\n      jump\t// out\n        /* \"#utility.yul\":4909:5416   */\n    tag_32:\n        /* \"#utility.yul\":4977:4983   */\n      0x00\n        /* \"#utility.yul\":5026:5028   */\n      0x20\n        /* \"#utility.yul\":5014:5023   */\n      dup3\n        /* \"#utility.yul\":5005:5012   */\n      dup5\n        /* \"#utility.yul\":5001:5024   */\n      sub\n        /* \"#utility.yul\":4997:5029   */\n      slt\n        /* \"#utility.yul\":4994:5113   */\n      iszero\n      tag_256\n      jumpi\n        /* \"#utility.yul\":5032:5111   */\n      tag_257\n      tag_134\n      jump\t// in\n    tag_257:\n        /* \"#utility.yul\":4994:5113   */\n    tag_256:\n        /* \"#utility.yul\":5180:5181   */\n      0x00\n        /* \"#utility.yul\":5169:5178   */\n      dup3\n        /* \"#utility.yul\":5165:5182   */\n      add\n        /* \"#utility.yul\":5152:5183   */\n      calldataload\n        /* \"#utility.yul\":5210:5228   */\n      0xffffffffffffffff\n        /* \"#utility.yul\":5202:5208   */\n      dup2\n        /* \"#utility.yul\":5199:5229   */\n      gt\n        /* \"#utility.yul\":5196:5313   */\n      iszero\n      tag_258\n      jumpi\n        /* \"#utility.yul\":5232:5311   */\n      tag_259\n      tag_135\n      jump\t// in\n    tag_259:\n        /* \"#utility.yul\":5196:5313   */\n    tag_258:\n        /* \"#utility.yul\":5337:5399   */\n      tag_260\n        /* \"#utility.yul\":5391:5398   */\n      dup5\n        /* \"#utility.yul\":5382:5388   */\n      dup3\n        /* \"#utility.yul\":5371:5380   */\n      dup6\n        /* \"#utility.yul\":5367:5389   */\n      add\n        /* \"#utility.yul\":5337:5399   */\n      tag_151\n      jump\t// in\n    tag_260:\n        /* \"#utility.yul\":5327:5399   */\n      swap2\n      pop\n        /* \"#utility.yul\":5123:5409   */\n      pop\n        /* \"#utility.yul\":4909:5416   */\n      swap3\n      swap2\n      pop\n      pop\n      jump\t// out\n        /* \"#utility.yul\":5422:5499   */\n    tag_154:\n        /* \"#utility.yul\":5459:5466   */\n      0x00\n        /* \"#utility.yul\":5488:5493   */\n      dup2\n        /* \"#utility.yul\":5477:5493   */\n      swap1\n      pop\n        /* \"#utility.yul\":5422:5499   */\n      swap2\n      swap1\n      pop\n      jump\t// out\n        /* \"#utility.yul\":5505:5623   */\n    tag_155:\n        /* \"#utility.yul\":5592:5616   */\n      tag_263\n        /* \"#utility.yul\":5610:5615   */\n      dup2\n        /* \"#utility.yul\":5592:5616   */\n      tag_154\n      jump\t// in\n    tag_263:\n        /* \"#utility.yul\":5587:5590   */\n      dup3\n        /* \"#utility.yul\":5580:5617   */\n      mstore\n        /* \"#utility.yul\":5505:5623   */\n      pop\n      pop\n      jump\t// out\n        /* \"#utility.yul\":5629:5851   */\n    tag_37:\n        /* \"#utility.yul\":5722:5726   */\n      0x00\n        /* \"#utility.yul\":5760:5762   */\n      0x20\n        /* \"#utility.yul\":5749:5758   */\n      dup3\n        /* \"#utility.yul\":5745:5763   */\n      add\n        /* \"#utility.yul\":5737:5763   */\n      swap1\n      pop\n        /* \"#utility.yul\":5773:5844   */\n      tag_265\n        /* \"#utility.yul\":5841:5842   */\n      0x00\n        /* \"#utility.yul\":5830:5839   */\n      dup4\n        /* \"#utility.yul\":5826:5843   */\n      add\n        /* \"#utility.yul\":5817:5823   */\n      dup5\n        /* \"#utility.yul\":5773:5844   */\n      tag_155\n      jump\t// in\n    tag_265:\n        /* \"#utility.yul\":5629:5851   */\n      swap3\n      swap2\n      pop\n      pop\n      jump\t// out\n        /* \"#utility.yul\":5857:5975   */\n    tag_156:\n        /* \"#utility.yul\":5944:5968   */\n      tag_267\n        /* \"#utility.yul\":5962:5967   */\n      dup2\n        /* \"#utility.yul\":5944:5968   */\n      tag_137\n      jump\t// in\n    tag_267:\n        /* \"#utility.yul\":5939:5942   */\n      dup3\n        /* \"#utility.yul\":5932:5969   */\n      mstore\n        /* \"#utility.yul\":5857:5975   */\n      pop\n      pop\n      jump\t// out\n        /* \"#utility.yul\":5981:6203   */\n    tag_44:\n        /* \"#utility.yul\":6074:6078   */\n      0x00\n        /* \"#utility.yul\":6112:6114   */\n      0x20\n        /* \"#utility.yul\":6101:6110   */\n      dup3\n        /* \"#utility.yul\":6097:6115   */\n      add\n        /* \"#utility.yul\":6089:6115   */\n      swap1\n      pop\n        /* \"#utility.yul\":6125:6196   */\n      tag_269\n        /* \"#utility.yul\":6193:6194   */\n      0x00\n        /* \"#utility.yul\":6182:6191   */\n      dup4\n        /* \"#utility.yul\":6178:6195   */\n      add\n        /* \"#utility.yul\":6169:6175   */\n      dup5\n        /* \"#utility.yul\":6125:6196   */\n      tag_156\n      jump\t// in\n    tag_269:\n        /* \"#utility.yul\":5981:6203   */\n      swap3\n      swap2\n      pop\n      pop\n      jump\t// out\n        /* \"#utility.yul\":6209:6325   */\n    tag_157:\n        /* \"#utility.yul\":6279:6300   */\n      tag_271\n        /* \"#utility.yul\":6294:6299   */\n      dup2\n        /* \"#utility.yul\":6279:6300   */\n      tag_152\n      jump\t// in\n    tag_271:\n        /* \"#utility.yul\":6272:6277   */\n      dup2\n        /* \"#utility.yul\":6269:6301   */\n      eq\n        /* \"#utility.yul\":6259:6319   */\n      tag_272\n      jumpi\n        /* \"#utility.yul\":6315:6316   */\n      0x00\n        /* \"#utility.yul\":6312:6313   */\n      dup1\n        /* \"#utility.yul\":6305:6317   */\n      revert\n        /* \"#utility.yul\":6259:6319   */\n    tag_272:\n        /* \"#utility.yul\":6209:6325   */\n      pop\n      jump\t// out\n        /* \"#utility.yul\":6331:6464   */\n    tag_158:\n        /* \"#utility.yul\":6374:6379   */\n      0x00\n        /* \"#utility.yul\":6412:6418   */\n      dup2\n        /* \"#utility.yul\":6399:6419   */\n      calldataload\n        /* \"#utility.yul\":6390:6419   */\n      swap1\n      pop\n        /* \"#utility.yul\":6428:6458   */\n      tag_274\n        /* \"#utility.yul\":6452:6457   */\n      dup2\n        /* \"#utility.yul\":6428:6458   */\n      tag_157\n      jump\t// in\n    tag_274:\n        /* \"#utility.yul\":6331:6464   */\n      swap3\n      swap2\n      pop\n      pop\n      jump\t// out\n        /* \"#utility.yul\":6470:6793   */\n    tag_47:\n        /* \"#utility.yul\":6526:6532   */\n      0x00\n        /* \"#utility.yul\":6575:6577   */\n      0x20\n        /* \"#utility.yul\":6563:6572   */\n      dup3\n        /* \"#utility.yul\":6554:6561   */\n      dup5\n        /* \"#utility.yul\":6550:6573   */\n      sub\n        /* \"#utility.yul\":6546:6578   */\n      slt\n        /* \"#utility.yul\":6543:6662   */\n      iszero\n      tag_276\n      jumpi\n        /* \"#utility.yul\":6581:6660   */\n      tag_277\n      tag_134\n      jump\t// in\n    tag_277:\n        /* \"#utility.yul\":6543:6662   */\n    tag_276:\n        /* \"#utility.yul\":6701:6702   */\n      0x00\n        /* \"#utility.yul\":6726:6776   */\n      tag_278\n        /* \"#utility.yul\":6768:6775   */\n      dup5\n        /* \"#utility.yul\":6759:6765   */\n      dup3\n        /* \"#utility.yul\":6748:6757   */\n      dup6\n        /* \"#utility.yul\":6744:6766   */\n      add\n        /* \"#utility.yul\":6726:6776   */\n      tag_158\n      jump\t// in\n    tag_278:\n        /* \"#utility.yul\":6716:6776   */\n      swap2\n      pop\n        /* \"#utility.yul\":6672:6786   */\n      pop\n        /* \"#utility.yul\":6470:6793   */\n      swap3\n      swap2\n      pop\n      pop\n      jump\t// out\n        /* \"#utility.yul\":6799:6898   */\n    tag_159:\n        /* \"#utility.yul\":6851:6857   */\n      0x00\n        /* \"#utility.yul\":6885:6890   */\n      dup2\n        /* \"#utility.yul\":6879:6891   */\n      mload\n        /* \"#utility.yul\":6869:6891   */\n      swap1\n      pop\n        /* \"#utility.yul\":6799:6898   */\n      swap2\n      swap1\n      pop\n      jump\t// out\n        /* \"#utility.yul\":6904:7073   */\n    tag_160:\n        /* \"#utility.yul\":6988:6999   */\n      0x00\n        /* \"#utility.yul\":7022:7028   */\n      dup3\n        /* \"#utility.yul\":7017:7020   */\n      dup3\n        /* \"#utility.yul\":7010:7029   */\n      mstore\n        /* \"#utility.yul\":7062:7066   */\n      0x20\n        /* \"#utility.yul\":7057:7060   */\n      dup3\n        /* \"#utility.yul\":7053:7067   */\n      add\n        /* \"#utility.yul\":7038:7067   */\n      swap1\n      pop\n        /* \"#utility.yul\":6904:7073   */\n      swap3\n      swap2\n      pop\n      pop\n      jump\t// out\n        /* \"#utility.yul\":7079:7325   */\n    tag_161:\n        /* \"#utility.yul\":7160:7161   */\n      0x00\n        /* \"#utility.yul\":7170:7283   */\n    tag_282:\n        /* \"#utility.yul\":7184:7190   */\n      dup4\n        /* \"#utility.yul\":7181:7182   */\n      dup2\n        /* \"#utility.yul\":7178:7191   */\n      lt\n        /* \"#utility.yul\":7170:7283   */\n      iszero\n      tag_284\n      jumpi\n        /* \"#utility.yul\":7269:7270   */\n      dup1\n        /* \"#utility.yul\":7264:7267   */\n      dup3\n        /* \"#utility.yul\":7260:7271   */\n      add\n        /* \"#utility.yul\":7254:7272   */\n      mload\n        /* \"#utility.yul\":7250:7251   */\n      dup2\n        /* \"#utility.yul\":7245:7248   */\n      dup5\n        /* \"#utility.yul\":7241:7252   */\n      add\n        /* \"#utility.yul\":7234:7273   */\n      mstore\n        /* \"#utility.yul\":7206:7208   */\n      0x20\n        /* \"#utility.yul\":7203:7204   */\n      dup2\n        /* \"#utility.yul\":7199:7209   */\n      add\n        /* \"#utility.yul\":7194:7209   */\n      swap1\n      pop\n        /* \"#utility.yul\":7170:7283   */\n      jump(tag_282)\n    tag_284:\n        /* \"#utility.yul\":7317:7318   */\n      0x00\n        /* \"#utility.yul\":7308:7314   */\n      dup5\n        /* \"#utility.yul\":7303:7306   */\n      dup5\n        /* \"#utility.yul\":7299:7315   */\n      add\n        /* \"#utility.yul\":7292:7319   */\n      mstore\n        /* \"#utility.yul\":7141:7325   */\n      pop\n        /* \"#utility.yul\":7079:7325   */\n      pop\n      pop\n      pop\n      jump\t// out\n        /* \"#utility.yul\":7331:7708   */\n    tag_162:\n        /* \"#utility.yul\":7419:7422   */\n      0x00\n        /* \"#utility.yul\":7447:7486   */\n      tag_286\n        /* \"#utility.yul\":7480:7485   */\n      dup3\n        /* \"#utility.yul\":7447:7486   */\n      tag_159\n      jump\t// in\n    tag_286:\n        /* \"#utility.yul\":7502:7573   */\n      tag_287\n        /* \"#utility.yul\":7566:7572   */\n      dup2\n        /* \"#utility.yul\":7561:7564   */\n      dup6\n        /* \"#utility.yul\":7502:7573   */\n      tag_160\n      jump\t// in\n    tag_287:\n        /* \"#utility.yul\":7495:7573   */\n      swap4\n      pop\n        /* \"#utility.yul\":7582:7647   */\n      tag_288\n        /* \"#utility.yul\":7640:7646   */\n      dup2\n        /* \"#utility.yul\":7635:7638   */\n      dup6\n        /* \"#utility.yul\":7628:7632   */\n      0x20\n        /* \"#utility.yul\":7621:7626   */\n      dup7\n        /* \"#utility.yul\":7617:7633   */\n      add\n        /* \"#utility.yul\":7582:7647   */\n      tag_161\n      jump\t// in\n    tag_288:\n        /* \"#utility.yul\":7672:7701   */\n      tag_289\n        /* \"#utility.yul\":7694:7700   */\n      dup2\n        /* \"#utility.yul\":7672:7701   */\n      tag_144\n      jump\t// in\n    tag_289:\n        /* \"#utility.yul\":7667:7670   */\n      dup5\n        /* \"#utility.yul\":7663:7702   */\n      add\n        /* \"#utility.yul\":7656:7702   */\n      swap2\n      pop\n        /* \"#utility.yul\":7423:7708   */\n      pop\n        /* \"#utility.yul\":7331:7708   */\n      swap3\n      swap2\n      pop\n      pop\n      jump\t// out\n        /* \"#utility.yul\":7714:8027   */\n    tag_52:\n        /* \"#utility.yul\":7827:7831   */\n      0x00\n        /* \"#utility.yul\":7865:7867   */\n      0x20\n        /* \"#utility.yul\":7854:7863   */\n      dup3\n        /* \"#utility.yul\":7850:7868   */\n      add\n        /* \"#utility.yul\":7842:7868   */\n      swap1\n      pop\n        /* \"#utility.yul\":7914:7923   */\n      dup2\n        /* \"#utility.yul\":7908:7912   */\n      dup2\n        /* \"#utility.yul\":7904:7924   */\n      sub\n        /* \"#utility.yul\":7900:7901   */\n      0x00\n        /* \"#utility.yul\":7889:7898   */\n      dup4\n        /* \"#utility.yul\":7885:7902   */\n      add\n        /* \"#utility.yul\":7878:7925   */\n      mstore\n        /* \"#utility.yul\":7942:8020   */\n      tag_291\n        /* \"#utility.yul\":8015:8019   */\n      dup2\n        /* \"#utility.yul\":8006:8012   */\n      dup5\n        /* \"#utility.yul\":7942:8020   */\n      tag_162\n      jump\t// in\n    tag_291:\n        /* \"#utility.yul\":7934:8020   */\n      swap1\n      pop\n        /* \"#utility.yul\":7714:8027   */\n      swap3\n      swap2\n      pop\n      pop\n      jump\t// out\n        /* \"#utility.yul\":8033:8155   */\n    tag_163:\n        /* \"#utility.yul\":8106:8130   */\n      tag_293\n        /* \"#utility.yul\":8124:8129   */\n      dup2\n        /* \"#utility.yul\":8106:8130   */\n      tag_140\n      jump\t// in\n    tag_293:\n        /* \"#utility.yul\":8099:8104   */\n      dup2\n        /* \"#utility.yul\":8096:8131   */\n      eq\n        /* \"#utility.yul\":8086:8149   */\n      tag_294\n      jumpi\n        /* \"#utility.yul\":8145:8146   */\n      0x00\n        /* \"#utility.yul\":8142:8143   */\n      dup1\n        /* \"#utility.yul\":8135:8147   */\n      revert\n        /* \"#utility.yul\":8086:8149   */\n    tag_294:\n        /* \"#utility.yul\":8033:8155   */\n      pop\n      jump\t// out\n        /* \"#utility.yul\":8161:8300   */\n    tag_164:\n        /* \"#utility.yul\":8207:8212   */\n      0x00\n        /* \"#utility.yul\":8245:8251   */\n      dup2\n        /* \"#utility.yul\":8232:8252   */\n      calldataload\n        /* \"#utility.yul\":8223:8252   */\n      swap1\n      pop\n        /* \"#utility.yul\":8261:8294   */\n      tag_296\n        /* \"#utility.yul\":8288:8293   */\n      dup2\n        /* \"#utility.yul\":8261:8294   */\n      tag_163\n      jump\t// in\n    tag_296:\n        /* \"#utility.yul\":8161:8300   */\n      swap3\n      swap2\n      pop\n      pop\n      jump\t// out\n        /* \"#utility.yul\":8306:8958   */\n    tag_55:\n        /* \"#utility.yul\":8383:8389   */\n      0x00\n        /* \"#utility.yul\":8391:8397   */\n      dup1\n        /* \"#utility.yul\":8440:8442   */\n      0x40\n        /* \"#utility.yul\":8428:8437   */\n      dup4\n        /* \"#utility.yul\":8419:8426   */\n      dup6\n        /* \"#utility.yul\":8415:8438   */\n      sub\n        /* \"#utility.yul\":8411:8443   */\n      slt\n        /* \"#utility.yul\":8408:8527   */\n      iszero\n      tag_298\n      jumpi\n        /* \"#utility.yul\":8446:8525   */\n      tag_299\n      tag_134\n      jump\t// in\n    tag_299:\n        /* \"#utility.yul\":8408:8527   */\n    tag_298:\n        /* \"#utility.yul\":8566:8567   */\n      0x00\n        /* \"#utility.yul\":8591:8644   */\n      tag_300\n        /* \"#utility.yul\":8636:8643   */\n      dup6\n        /* \"#utility.yul\":8627:8633   */\n      dup3\n        /* \"#utility.yul\":8616:8625   */\n      dup7\n        /* \"#utility.yul\":8612:8634   */\n      add\n        /* \"#utility.yul\":8591:8644   */\n      tag_164\n      jump\t// in\n    tag_300:\n        /* \"#utility.yul\":8581:8644   */\n      swap3\n      pop\n        /* \"#utility.yul\":8537:8654   */\n      pop\n        /* \"#utility.yul\":8721:8723   */\n      0x20\n        /* \"#utility.yul\":8710:8719   */\n      dup4\n        /* \"#utility.yul\":8706:8724   */\n      add\n        /* \"#utility.yul\":8693:8725   */\n      calldataload\n        /* \"#utility.yul\":8752:8770   */\n      0xffffffffffffffff\n        /* \"#utility.yul\":8744:8750   */\n      dup2\n        /* \"#utility.yul\":8741:8771   */\n      gt\n        /* \"#utility.yul\":8738:8855   */\n      iszero\n      tag_301\n      jumpi\n        /* \"#utility.yul\":8774:8853   */\n      tag_302\n      tag_135\n      jump\t// in\n    tag_302:\n        /* \"#utility.yul\":8738:8855   */\n    tag_301:\n        /* \"#utility.yul\":8879:8941   */\n      tag_303\n        /* \"#utility.yul\":8933:8940   */\n      dup6\n        /* \"#utility.yul\":8924:8930   */\n      dup3\n        /* \"#utility.yul\":8913:8922   */\n      dup7\n        /* \"#utility.yul\":8909:8931   */\n      add\n        /* \"#utility.yul\":8879:8941   */\n      tag_151\n      jump\t// in\n    tag_303:\n        /* \"#utility.yul\":8869:8941   */\n      swap2\n      pop\n        /* \"#utility.yul\":8664:8951   */\n      pop\n        /* \"#utility.yul\":8306:8958   */\n      swap3\n      pop\n      swap3\n      swap1\n      pop\n      jump\t// out\n        /* \"#utility.yul\":8964:9293   */\n    tag_70:\n        /* \"#utility.yul\":9023:9029   */\n      0x00\n        /* \"#utility.yul\":9072:9074   */\n      0x20\n        /* \"#utility.yul\":9060:9069   */\n      dup3\n        /* \"#utility.yul\":9051:9058   */\n      dup5\n        /* \"#utility.yul\":9047:9070   */\n      sub\n        /* \"#utility.yul\":9043:9075   */\n      slt\n        /* \"#utility.yul\":9040:9159   */\n      iszero\n      tag_305\n      jumpi\n        /* \"#utility.yul\":9078:9157   */\n      tag_306\n      tag_134\n      jump\t// in\n    tag_306:\n        /* \"#utility.yul\":9040:9159   */\n    tag_305:\n        /* \"#utility.yul\":9198:9199   */\n      0x00\n        /* \"#utility.yul\":9223:9276   */\n      tag_307\n        /* \"#utility.yul\":9268:9275   */\n      dup5\n        /* \"#utility.yul\":9259:9265   */\n      dup3\n        /* \"#utility.yul\":9248:9257   */\n      dup6\n        /* \"#utility.yul\":9244:9266   */\n      add\n        /* \"#utility.yul\":9223:9276   */\n      tag_164\n      jump\t// in\n    tag_307:\n        /* \"#utility.yul\":9213:9276   */\n      swap2\n      pop\n        /* \"#utility.yul\":9169:9286   */\n      pop\n        /* \"#utility.yul\":8964:9293   */\n      swap3\n      swap2\n      pop\n      pop\n      jump\t// out\n        /* \"#utility.yul\":9299:9393   */\n    tag_165:\n        /* \"#utility.yul\":9332:9340   */\n      0x00\n        /* \"#utility.yul\":9380:9385   */\n      dup2\n        /* \"#utility.yul\":9376:9378   */\n      0x60\n        /* \"#utility.yul\":9372:9386   */\n      shl\n        /* \"#utility.yul\":9351:9386   */\n      swap1\n      pop\n        /* \"#utility.yul\":9299:9393   */\n      swap2\n      swap1\n      pop\n      jump\t// out\n        /* \"#utility.yul\":9399:9493   */\n    tag_166:\n        /* \"#utility.yul\":9438:9445   */\n      0x00\n        /* \"#utility.yul\":9467:9487   */\n      tag_310\n        /* \"#utility.yul\":9481:9486   */\n      dup3\n        /* \"#utility.yul\":9467:9487   */\n      tag_165\n      jump\t// in\n    tag_310:\n        /* \"#utility.yul\":9456:9487   */\n      swap1\n      pop\n        /* \"#utility.yul\":9399:9493   */\n      swap2\n      swap1\n      pop\n      jump\t// out\n        /* \"#utility.yul\":9499:9599   */\n    tag_167:\n        /* \"#utility.yul\":9538:9545   */\n      0x00\n        /* \"#utility.yul\":9567:9593   */\n      tag_312\n        /* \"#utility.yul\":9587:9592   */\n      dup3\n        /* \"#utility.yul\":9567:9593   */\n      tag_166\n      jump\t// in\n    tag_312:\n        /* \"#utility.yul\":9556:9593   */\n      swap1\n      pop\n        /* \"#utility.yul\":9499:9599   */\n      swap2\n      swap1\n      pop\n      jump\t// out\n        /* \"#utility.yul\":9605:9762   */\n    tag_168:\n        /* \"#utility.yul\":9710:9755   */\n      tag_314\n        /* \"#utility.yul\":9730:9754   */\n      tag_315\n        /* \"#utility.yul\":9748:9753   */\n      dup3\n        /* \"#utility.yul\":9730:9754   */\n      tag_137\n      jump\t// in\n    tag_315:\n        /* \"#utility.yul\":9710:9755   */\n      tag_167\n      jump\t// in\n    tag_314:\n        /* \"#utility.yul\":9705:9708   */\n      dup3\n        /* \"#utility.yul\":9698:9756   */\n      mstore\n        /* \"#utility.yul\":9605:9762   */\n      pop\n      pop\n      jump\t// out\n        /* \"#utility.yul\":9768:9948   */\n    tag_169:\n        /* \"#utility.yul\":9816:9893   */\n      0x4e487b7100000000000000000000000000000000000000000000000000000000\n        /* \"#utility.yul\":9813:9814   */\n      0x00\n        /* \"#utility.yul\":9806:9894   */\n      mstore\n        /* \"#utility.yul\":9913:9917   */\n      0x22\n        /* \"#utility.yul\":9910:9911   */\n      0x04\n        /* \"#utility.yul\":9903:9918   */\n      mstore\n        /* \"#utility.yul\":9937:9941   */\n      0x24\n        /* \"#utility.yul\":9934:9935   */\n      0x00\n        /* \"#utility.yul\":9927:9942   */\n      revert\n        /* \"#utility.yul\":9954:10274   */\n    tag_110:\n        /* \"#utility.yul\":9998:10004   */\n      0x00\n        /* \"#utility.yul\":10035:10036   */\n      0x02\n        /* \"#utility.yul\":10029:10033   */\n      dup3\n        /* \"#utility.yul\":10025:10037   */\n      div\n        /* \"#utility.yul\":10015:10037   */\n      swap1\n      pop\n        /* \"#utility.yul\":10082:10083   */\n      0x01\n        /* \"#utility.yul\":10076:10080   */\n      dup3\n        /* \"#utility.yul\":10072:10084   */\n      and\n        /* \"#utility.yul\":10103:10121   */\n      dup1\n        /* \"#utility.yul\":10093:10174   */\n      tag_318\n      jumpi\n        /* \"#utility.yul\":10159:10163   */\n      0x7f\n        /* \"#utility.yul\":10151:10157   */\n      dup3\n        /* \"#utility.yul\":10147:10164   */\n      and\n        /* \"#utility.yul\":10137:10164   */\n      swap2\n      pop\n        /* \"#utility.yul\":10093:10174   */\n    tag_318:\n        /* \"#utility.yul\":10221:10223   */\n      0x20\n        /* \"#utility.yul\":10213:10219   */\n      dup3\n        /* \"#utility.yul\":10210:10224   */\n      lt\n        /* \"#utility.yul\":10190:10208   */\n      dup2\n        /* \"#utility.yul\":10187:10225   */\n      sub\n        /* \"#utility.yul\":10184:10268   */\n      tag_319\n      jumpi\n        /* \"#utility.yul\":10240:10258   */\n      tag_320\n      tag_169\n      jump\t// in\n    tag_320:\n        /* \"#utility.yul\":10184:10268   */\n    tag_319:\n        /* \"#utility.yul\":10005:10274   */\n      pop\n        /* \"#utility.yul\":9954:10274   */\n      swap2\n      swap1\n      pop\n      jump\t// out\n        /* \"#utility.yul\":10280:10428   */\n    tag_170:\n        /* \"#utility.yul\":10382:10393   */\n      0x00\n        /* \"#utility.yul\":10419:10422   */\n      dup2\n        /* \"#utility.yul\":10404:10422   */\n      swap1\n      pop\n        /* \"#utility.yul\":10280:10428   */\n      swap3\n      swap2\n      pop\n      pop\n      jump\t// out\n        /* \"#utility.yul\":10434:10575   */\n    tag_171:\n        /* \"#utility.yul\":10483:10487   */\n      0x00\n        /* \"#utility.yul\":10506:10509   */\n      dup2\n        /* \"#utility.yul\":10498:10509   */\n      swap1\n      pop\n        /* \"#utility.yul\":10529:10532   */\n      dup2\n        /* \"#utility.yul\":10526:10527   */\n      0x00\n        /* \"#utility.yul\":10519:10533   */\n      mstore\n        /* \"#utility.yul\":10563:10567   */\n      0x20\n        /* \"#utility.yul\":10560:10561   */\n      0x00\n        /* \"#utility.yul\":10550:10568   */\n      keccak256\n        /* \"#utility.yul\":10542:10568   */\n      swap1\n      pop\n        /* \"#utility.yul\":10434:10575   */\n      swap2\n      swap1\n      pop\n      jump\t// out\n        /* \"#utility.yul\":10605:11479   */\n    tag_172:\n        /* \"#utility.yul\":10708:10711   */\n      0x00\n        /* \"#utility.yul\":10745:10750   */\n      dup2\n        /* \"#utility.yul\":10739:10751   */\n      sload\n        /* \"#utility.yul\":10774:10810   */\n      tag_324\n        /* \"#utility.yul\":10800:10809   */\n      dup2\n        /* \"#utility.yul\":10774:10810   */\n      tag_110\n      jump\t// in\n    tag_324:\n        /* \"#utility.yul\":10826:10915   */\n      tag_325\n        /* \"#utility.yul\":10908:10914   */\n      dup2\n        /* \"#utility.yul\":10903:10906   */\n      dup7\n        /* \"#utility.yul\":10826:10915   */\n      tag_170\n      jump\t// in\n    tag_325:\n        /* \"#utility.yul\":10819:10915   */\n      swap5\n      pop\n        /* \"#utility.yul\":10946:10947   */\n      0x01\n        /* \"#utility.yul\":10935:10944   */\n      dup3\n        /* \"#utility.yul\":10931:10948   */\n      and\n        /* \"#utility.yul\":10962:10963   */\n      0x00\n        /* \"#utility.yul\":10957:11123   */\n      dup2\n      eq\n      tag_327\n      jumpi\n        /* \"#utility.yul\":11137:11138   */\n      0x01\n        /* \"#utility.yul\":11132:11473   */\n      dup2\n      eq\n      tag_328\n      jumpi\n        /* \"#utility.yul\":10924:11473   */\n      jump(tag_326)\n        /* \"#utility.yul\":10957:11123   */\n    tag_327:\n        /* \"#utility.yul\":11041:11045   */\n      0xff\n        /* \"#utility.yul\":11037:11046   */\n      not\n        /* \"#utility.yul\":11026:11035   */\n      dup4\n        /* \"#utility.yul\":11022:11047   */\n      and\n        /* \"#utility.yul\":11017:11020   */\n      dup7\n        /* \"#utility.yul\":11010:11048   */\n      mstore\n        /* \"#utility.yul\":11103:11109   */\n      dup2\n        /* \"#utility.yul\":11096:11110   */\n      iszero\n        /* \"#utility.yul\":11089:11111   */\n      iszero\n        /* \"#utility.yul\":11081:11087   */\n      dup3\n        /* \"#utility.yul\":11077:11112   */\n      mul\n        /* \"#utility.yul\":11072:11075   */\n      dup7\n        /* \"#utility.yul\":11068:11113   */\n      add\n        /* \"#utility.yul\":11061:11113   */\n      swap4\n      pop\n        /* \"#utility.yul\":10957:11123   */\n      jump(tag_326)\n        /* \"#utility.yul\":11132:11473   */\n    tag_328:\n        /* \"#utility.yul\":11199:11237   */\n      tag_329\n        /* \"#utility.yul\":11231:11236   */\n      dup6\n        /* \"#utility.yul\":11199:11237   */\n      tag_171\n      jump\t// in\n    tag_329:\n        /* \"#utility.yul\":11259:11260   */\n      0x00\n        /* \"#utility.yul\":11273:11427   */\n    tag_330:\n        /* \"#utility.yul\":11287:11293   */\n      dup4\n        /* \"#utility.yul\":11284:11285   */\n      dup2\n        /* \"#utility.yul\":11281:11294   */\n      lt\n        /* \"#utility.yul\":11273:11427   */\n      iszero\n      tag_332\n      jumpi\n        /* \"#utility.yul\":11361:11368   */\n      dup2\n        /* \"#utility.yul\":11355:11369   */\n      sload\n        /* \"#utility.yul\":11351:11352   */\n      dup2\n        /* \"#utility.yul\":11346:11349   */\n      dup10\n        /* \"#utility.yul\":11342:11353   */\n      add\n        /* \"#utility.yul\":11335:11370   */\n      mstore\n        /* \"#utility.yul\":11411:11412   */\n      0x01\n        /* \"#utility.yul\":11402:11409   */\n      dup3\n        /* \"#utility.yul\":11398:11413   */\n      add\n        /* \"#utility.yul\":11387:11413   */\n      swap2\n      pop\n        /* \"#utility.yul\":11309:11313   */\n      0x20\n        /* \"#utility.yul\":11306:11307   */\n      dup2\n        /* \"#utility.yul\":11302:11314   */\n      add\n        /* \"#utility.yul\":11297:11314   */\n      swap1\n      pop\n        /* \"#utility.yul\":11273:11427   */\n      jump(tag_330)\n    tag_332:\n        /* \"#utility.yul\":11456:11462   */\n      dup4\n        /* \"#utility.yul\":11451:11454   */\n      dup9\n        /* \"#utility.yul\":11447:11463   */\n      add\n        /* \"#utility.yul\":11440:11463   */\n      swap6\n      pop\n        /* \"#utility.yul\":11139:11473   */\n      pop\n      pop\n        /* \"#utility.yul\":10924:11473   */\n    tag_326:\n      pop\n        /* \"#utility.yul\":10712:11479   */\n      pop\n      pop\n        /* \"#utility.yul\":10605:11479   */\n      swap3\n      swap2\n      pop\n      pop\n      jump\t// out\n        /* \"#utility.yul\":11485:12036   */\n    tag_75:\n        /* \"#utility.yul\":11670:11673   */\n      0x00\n        /* \"#utility.yul\":11685:11760   */\n      tag_334\n        /* \"#utility.yul\":11756:11759   */\n      dup3\n        /* \"#utility.yul\":11747:11753   */\n      dup7\n        /* \"#utility.yul\":11685:11760   */\n      tag_168\n      jump\t// in\n    tag_334:\n        /* \"#utility.yul\":11785:11787   */\n      0x14\n        /* \"#utility.yul\":11780:11783   */\n      dup3\n        /* \"#utility.yul\":11776:11788   */\n      add\n        /* \"#utility.yul\":11769:11788   */\n      swap2\n      pop\n        /* \"#utility.yul\":11805:11897   */\n      tag_335\n        /* \"#utility.yul\":11893:11896   */\n      dup3\n        /* \"#utility.yul\":11884:11890   */\n      dup6\n        /* \"#utility.yul\":11805:11897   */\n      tag_172\n      jump\t// in\n    tag_335:\n        /* \"#utility.yul\":11798:11897   */\n      swap2\n      pop\n        /* \"#utility.yul\":11907:11982   */\n      tag_336\n        /* \"#utility.yul\":11978:11981   */\n      dup3\n        /* \"#utility.yul\":11969:11975   */\n      dup5\n        /* \"#utility.yul\":11907:11982   */\n      tag_168\n      jump\t// in\n    tag_336:\n        /* \"#utility.yul\":12007:12009   */\n      0x14\n        /* \"#utility.yul\":12002:12005   */\n      dup3\n        /* \"#utility.yul\":11998:12010   */\n      add\n        /* \"#utility.yul\":11991:12010   */\n      swap2\n      pop\n        /* \"#utility.yul\":12027:12030   */\n      dup2\n        /* \"#utility.yul\":12020:12030   */\n      swap1\n      pop\n        /* \"#utility.yul\":11485:12036   */\n      swap5\n      swap4\n      pop\n      pop\n      pop\n      pop\n      jump\t// out\n        /* \"#utility.yul\":12042:12211   */\n    tag_173:\n        /* \"#utility.yul\":12182:12203   */\n      0x4576656e74206973206e6f742061637469766500000000000000000000000000\n        /* \"#utility.yul\":12178:12179   */\n      0x00\n        /* \"#utility.yul\":12170:12176   */\n      dup3\n        /* \"#utility.yul\":12166:12180   */\n      add\n        /* \"#utility.yul\":12159:12204   */\n      mstore\n        /* \"#utility.yul\":12042:12211   */\n      pop\n      jump\t// out\n        /* \"#utility.yul\":12217:12583   */\n    tag_174:\n        /* \"#utility.yul\":12359:12362   */\n      0x00\n        /* \"#utility.yul\":12380:12447   */\n      tag_339\n        /* \"#utility.yul\":12444:12446   */\n      0x13\n        /* \"#utility.yul\":12439:12442   */\n      dup4\n        /* \"#utility.yul\":12380:12447   */\n      tag_160\n      jump\t// in\n    tag_339:\n        /* \"#utility.yul\":12373:12447   */\n      swap2\n      pop\n        /* \"#utility.yul\":12456:12549   */\n      tag_340\n        /* \"#utility.yul\":12545:12548   */\n      dup3\n        /* \"#utility.yul\":12456:12549   */\n      tag_173\n      jump\t// in\n    tag_340:\n        /* \"#utility.yul\":12574:12576   */\n      0x20\n        /* \"#utility.yul\":12569:12572   */\n      dup3\n        /* \"#utility.yul\":12565:12577   */\n      add\n        /* \"#utility.yul\":12558:12577   */\n      swap1\n      pop\n        /* \"#utility.yul\":12217:12583   */\n      swap2\n      swap1\n      pop\n      jump\t// out\n        /* \"#utility.yul\":12589:13008   */\n    tag_83:\n        /* \"#utility.yul\":12755:12759   */\n      0x00\n        /* \"#utility.yul\":12793:12795   */\n      0x20\n        /* \"#utility.yul\":12782:12791   */\n      dup3\n        /* \"#utility.yul\":12778:12796   */\n      add\n        /* \"#utility.yul\":12770:12796   */\n      swap1\n      pop\n        /* \"#utility.yul\":12842:12851   */\n      dup2\n        /* \"#utility.yul\":12836:12840   */\n      dup2\n        /* \"#utility.yul\":12832:12852   */\n      sub\n        /* \"#utility.yul\":12828:12829   */\n      0x00\n        /* \"#utility.yul\":12817:12826   */\n      dup4\n        /* \"#utility.yul\":12813:12830   */\n      add\n        /* \"#utility.yul\":12806:12853   */\n      mstore\n        /* \"#utility.yul\":12870:13001   */\n      tag_342\n        /* \"#utility.yul\":12996:13000   */\n      dup2\n        /* \"#utility.yul\":12870:13001   */\n      tag_174\n      jump\t// in\n    tag_342:\n        /* \"#utility.yul\":12862:13001   */\n      swap1\n      pop\n        /* \"#utility.yul\":12589:13008   */\n      swap2\n      swap1\n      pop\n      jump\t// out\n        /* \"#utility.yul\":13014:13194   */\n    tag_175:\n        /* \"#utility.yul\":13062:13139   */\n      0x4e487b7100000000000000000000000000000000000000000000000000000000\n        /* \"#utility.yul\":13059:13060   */\n      0x00\n        /* \"#utility.yul\":13052:13140   */\n      mstore\n        /* \"#utility.yul\":13159:13163   */\n      0x11\n        /* \"#utility.yul\":13156:13157   */\n      0x04\n        /* \"#utility.yul\":13149:13164   */\n      mstore\n        /* \"#utility.yul\":13183:13187   */\n      0x24\n        /* \"#utility.yul\":13180:13181   */\n      0x00\n        /* \"#utility.yul\":13173:13188   */\n      revert\n        /* \"#utility.yul\":13200:13391   */\n    tag_85:\n        /* \"#utility.yul\":13240:13243   */\n      0x00\n        /* \"#utility.yul\":13259:13279   */\n      tag_345\n        /* \"#utility.yul\":13277:13278   */\n      dup3\n        /* \"#utility.yul\":13259:13279   */\n      tag_154\n      jump\t// in\n    tag_345:\n        /* \"#utility.yul\":13254:13279   */\n      swap2\n      pop\n        /* \"#utility.yul\":13293:13313   */\n      tag_346\n        /* \"#utility.yul\":13311:13312   */\n      dup4\n        /* \"#utility.yul\":13293:13313   */\n      tag_154\n      jump\t// in\n    tag_346:\n        /* \"#utility.yul\":13288:13313   */\n      swap3\n      pop\n        /* \"#utility.yul\":13336:13337   */\n      dup3\n        /* \"#utility.yul\":13333:13334   */\n      dup3\n        /* \"#utility.yul\":13329:13338   */\n      add\n        /* \"#utility.yul\":13322:13338   */\n      swap1\n      pop\n        /* \"#utility.yul\":13357:13360   */\n      dup1\n        /* \"#utility.yul\":13354:13355   */\n      dup3\n        /* \"#utility.yul\":13351:13361   */\n      gt\n        /* \"#utility.yul\":13348:13384   */\n      iszero\n      tag_347\n      jumpi\n        /* \"#utility.yul\":13364:13382   */\n      tag_348\n      tag_175\n      jump\t// in\n    tag_348:\n        /* \"#utility.yul\":13348:13384   */\n    tag_347:\n        /* \"#utility.yul\":13200:13391   */\n      swap3\n      swap2\n      pop\n      pop\n      jump\t// out\n        /* \"#utility.yul\":13397:13562   */\n    tag_176:\n        /* \"#utility.yul\":13537:13554   */\n      0x4576656e742068617320656e6465640000000000000000000000000000000000\n        /* \"#utility.yul\":13533:13534   */\n      0x00\n        /* \"#utility.yul\":13525:13531   */\n      dup3\n        /* \"#utility.yul\":13521:13535   */\n      add\n        /* \"#utility.yul\":13514:13555   */\n      mstore\n        /* \"#utility.yul\":13397:13562   */\n      pop\n      jump\t// out\n        /* \"#utility.yul\":13568:13934   */\n    tag_177:\n        /* \"#utility.yul\":13710:13713   */\n      0x00\n        /* \"#utility.yul\":13731:13798   */\n      tag_351\n        /* \"#utility.yul\":13795:13797   */\n      0x0f\n        /* \"#utility.yul\":13790:13793   */\n      dup4\n        /* \"#utility.yul\":13731:13798   */\n      tag_160\n      jump\t// in\n    tag_351:\n        /* \"#utility.yul\":13724:13798   */\n      swap2\n      pop\n        /* \"#utility.yul\":13807:13900   */\n      tag_352\n        /* \"#utility.yul\":13896:13899   */\n      dup3\n        /* \"#utility.yul\":13807:13900   */\n      tag_176\n      jump\t// in\n    tag_352:\n        /* \"#utility.yul\":13925:13927   */\n      0x20\n        /* \"#utility.yul\":13920:13923   */\n      dup3\n        /* \"#utility.yul\":13916:13928   */\n      add\n        /* \"#utility.yul\":13909:13928   */\n      swap1\n      pop\n        /* \"#utility.yul\":13568:13934   */\n      swap2\n      swap1\n      pop\n      jump\t// out\n        /* \"#utility.yul\":13940:14359   */\n    tag_88:\n        /* \"#utility.yul\":14106:14110   */\n      0x00\n        /* \"#utility.yul\":14144:14146   */\n      0x20\n        /* \"#utility.yul\":14133:14142   */\n      dup3\n        /* \"#utility.yul\":14129:14147   */\n      add\n        /* \"#utility.yul\":14121:14147   */\n      swap1\n      pop\n        /* \"#utility.yul\":14193:14202   */\n      dup2\n        /* \"#utility.yul\":14187:14191   */\n      dup2\n        /* \"#utility.yul\":14183:14203   */\n      sub\n        /* \"#utility.yul\":14179:14180   */\n      0x00\n        /* \"#utility.yul\":14168:14177   */\n      dup4\n        /* \"#utility.yul\":14164:14181   */\n      add\n        /* \"#utility.yul\":14157:14204   */\n      mstore\n        /* \"#utility.yul\":14221:14352   */\n      tag_354\n        /* \"#utility.yul\":14347:14351   */\n      dup2\n        /* \"#utility.yul\":14221:14352   */\n      tag_177\n      jump\t// in\n    tag_354:\n        /* \"#utility.yul\":14213:14352   */\n      swap1\n      pop\n        /* \"#utility.yul\":13940:14359   */\n      swap2\n      swap1\n      pop\n      jump\t// out\n        /* \"#utility.yul\":14365:14546   */\n    tag_178:\n        /* \"#utility.yul\":14505:14538   */\n      0x417474656e6465652068617320616c726561647920636865636b656420696e00\n        /* \"#utility.yul\":14501:14502   */\n      0x00\n        /* \"#utility.yul\":14493:14499   */\n      dup3\n        /* \"#utility.yul\":14489:14503   */\n      add\n        /* \"#utility.yul\":14482:14539   */\n      mstore\n        /* \"#utility.yul\":14365:14546   */\n      pop\n      jump\t// out\n        /* \"#utility.yul\":14552:14918   */\n    tag_179:\n        /* \"#utility.yul\":14694:14697   */\n      0x00\n        /* \"#utility.yul\":14715:14782   */\n      tag_357\n        /* \"#utility.yul\":14779:14781   */\n      0x1f\n        /* \"#utility.yul\":14774:14777   */\n      dup4\n        /* \"#utility.yul\":14715:14782   */\n      tag_160\n      jump\t// in\n    tag_357:\n        /* \"#utility.yul\":14708:14782   */\n      swap2\n      pop\n        /* \"#utility.yul\":14791:14884   */\n      tag_358\n        /* \"#utility.yul\":14880:14883   */\n      dup3\n        /* \"#utility.yul\":14791:14884   */\n      tag_178\n      jump\t// in\n    tag_358:\n        /* \"#utility.yul\":14909:14911   */\n      0x20\n        /* \"#utility.yul\":14904:14907   */\n      dup3\n        /* \"#utility.yul\":14900:14912   */\n      add\n        /* \"#utility.yul\":14893:14912   */\n      swap1\n      pop\n        /* \"#utility.yul\":14552:14918   */\n      swap2\n      swap1\n      pop\n      jump\t// out\n        /* \"#utility.yul\":14924:15343   */\n    tag_91:\n        /* \"#utility.yul\":15090:15094   */\n      0x00\n        /* \"#utility.yul\":15128:15130   */\n      0x20\n        /* \"#utility.yul\":15117:15126   */\n      dup3\n        /* \"#utility.yul\":15113:15131   */\n      add\n        /* \"#utility.yul\":15105:15131   */\n      swap1\n      pop\n        /* \"#utility.yul\":15177:15186   */\n      dup2\n        /* \"#utility.yul\":15171:15175   */\n      dup2\n        /* \"#utility.yul\":15167:15187   */\n      sub\n        /* \"#utility.yul\":15163:15164   */\n      0x00\n        /* \"#utility.yul\":15152:15161   */\n      dup4\n        /* \"#utility.yul\":15148:15165   */\n      add\n        /* \"#utility.yul\":15141:15188   */\n      mstore\n        /* \"#utility.yul\":15205:15336   */\n      tag_360\n        /* \"#utility.yul\":15331:15335   */\n      dup2\n        /* \"#utility.yul\":15205:15336   */\n      tag_179\n      jump\t// in\n    tag_360:\n        /* \"#utility.yul\":15197:15336   */\n      swap1\n      pop\n        /* \"#utility.yul\":14924:15343   */\n      swap2\n      swap1\n      pop\n      jump\t// out\n        /* \"#utility.yul\":15349:15524   */\n    tag_180:\n        /* \"#utility.yul\":15489:15516   */\n      0x4d6178696d756d20617474656e64656573207265616368656400000000000000\n        /* \"#utility.yul\":15485:15486   */\n      0x00\n        /* \"#utility.yul\":15477:15483   */\n      dup3\n        /* \"#utility.yul\":15473:15487   */\n      add\n        /* \"#utility.yul\":15466:15517   */\n      mstore\n        /* \"#utility.yul\":15349:15524   */\n      pop\n      jump\t// out\n        /* \"#utility.yul\":15530:15896   */\n    tag_181:\n        /* \"#utility.yul\":15672:15675   */\n      0x00\n        /* \"#utility.yul\":15693:15760   */\n      tag_363\n        /* \"#utility.yul\":15757:15759   */\n      0x19\n        /* \"#utility.yul\":15752:15755   */\n      dup4\n        /* \"#utility.yul\":15693:15760   */\n      tag_160\n      jump\t// in\n    tag_363:\n        /* \"#utility.yul\":15686:15760   */\n      swap2\n      pop\n        /* \"#utility.yul\":15769:15862   */\n      tag_364\n        /* \"#utility.yul\":15858:15861   */\n      dup3\n        /* \"#utility.yul\":15769:15862   */\n      tag_180\n      jump\t// in\n    tag_364:\n        /* \"#utility.yul\":15887:15889   */\n      0x20\n        /* \"#utility.yul\":15882:15885   */\n      dup3\n        /* \"#utility.yul\":15878:15890   */\n      add\n        /* \"#utility.yul\":15871:15890   */\n      swap1\n      pop\n        /* \"#utility.yul\":15530:15896   */\n      swap2\n      swap1\n      pop\n      jump\t// out\n        /* \"#utility.yul\":15902:16321   */\n    tag_94:\n        /* \"#utility.yul\":16068:16072   */\n      0x00\n        /* \"#utility.yul\":16106:16108   */\n      0x20\n        /* \"#utility.yul\":16095:16104   */\n      dup3\n        /* \"#utility.yul\":16091:16109   */\n      add\n        /* \"#utility.yul\":16083:16109   */\n      swap1\n      pop\n        /* \"#utility.yul\":16155:16164   */\n      dup2\n        /* \"#utility.yul\":16149:16153   */\n      dup2\n        /* \"#utility.yul\":16145:16165   */\n      sub\n        /* \"#utility.yul\":16141:16142   */\n      0x00\n        /* \"#utility.yul\":16130:16139   */\n      dup4\n        /* \"#utility.yul\":16126:16143   */\n      add\n        /* \"#utility.yul\":16119:16166   */\n      mstore\n        /* \"#utility.yul\":16183:16314   */\n      tag_366\n        /* \"#utility.yul\":16309:16313   */\n      dup2\n        /* \"#utility.yul\":16183:16314   */\n      tag_181\n      jump\t// in\n    tag_366:\n        /* \"#utility.yul\":16175:16314   */\n      swap1\n      pop\n        /* \"#utility.yul\":15902:16321   */\n      swap2\n      swap1\n      pop\n      jump\t// out\n        /* \"#utility.yul\":16327:16494   */\n    tag_182:\n        /* \"#utility.yul\":16467:16486   */\n      0x496e76616c6964207369676e6174757265000000000000000000000000000000\n        /* \"#utility.yul\":16463:16464   */\n      0x00\n        /* \"#utility.yul\":16455:16461   */\n      dup3\n        /* \"#utility.yul\":16451:16465   */\n      add\n        /* \"#utility.yul\":16444:16487   */\n      mstore\n        /* \"#utility.yul\":16327:16494   */\n      pop\n      jump\t// out\n        /* \"#utility.yul\":16500:16866   */\n    tag_183:\n        /* \"#utility.yul\":16642:16645   */\n      0x00\n        /* \"#utility.yul\":16663:16730   */\n      tag_369\n        /* \"#utility.yul\":16727:16729   */\n      0x11\n        /* \"#utility.yul\":16722:16725   */\n      dup4\n        /* \"#utility.yul\":16663:16730   */\n      tag_160\n      jump\t// in\n    tag_369:\n        /* \"#utility.yul\":16656:16730   */\n      swap2\n      pop\n        /* \"#utility.yul\":16739:16832   */\n      tag_370\n        /* \"#utility.yul\":16828:16831   */\n      dup3\n        /* \"#utility.yul\":16739:16832   */\n      tag_182\n      jump\t// in\n    tag_370:\n        /* \"#utility.yul\":16857:16859   */\n      0x20\n        /* \"#utility.yul\":16852:16855   */\n      dup3\n        /* \"#utility.yul\":16848:16860   */\n      add\n        /* \"#utility.yul\":16841:16860   */\n      swap1\n      pop\n        /* \"#utility.yul\":16500:16866   */\n      swap2\n      swap1\n      pop\n      jump\t// out\n        /* \"#utility.yul\":16872:17291   */\n    tag_98:\n        /* \"#utility.yul\":17038:17042   */\n      0x00\n        /* \"#utility.yul\":17076:17078   */\n      0x20\n        /* \"#utility.yul\":17065:17074   */\n      dup3\n        /* \"#utility.yul\":17061:17079   */\n      add\n        /* \"#utility.yul\":17053:17079   */\n      swap1\n      pop\n        /* \"#utility.yul\":17125:17134   */\n      dup2\n        /* \"#utility.yul\":17119:17123   */\n      dup2\n        /* \"#utility.yul\":17115:17135   */\n      sub\n        /* \"#utility.yul\":17111:17112   */\n      0x00\n        /* \"#utility.yul\":17100:17109   */\n      dup4\n        /* \"#utility.yul\":17096:17113   */\n      add\n        /* \"#utility.yul\":17089:17136   */\n      mstore\n        /* \"#utility.yul\":17153:17284   */\n      tag_372\n        /* \"#utility.yul\":17279:17283   */\n      dup2\n        /* \"#utility.yul\":17153:17284   */\n      tag_183\n      jump\t// in\n    tag_372:\n        /* \"#utility.yul\":17145:17284   */\n      swap1\n      pop\n        /* \"#utility.yul\":16872:17291   */\n      swap2\n      swap1\n      pop\n      jump\t// out\n        /* \"#utility.yul\":17297:17530   */\n    tag_100:\n        /* \"#utility.yul\":17336:17339   */\n      0x00\n        /* \"#utility.yul\":17359:17383   */\n      tag_374\n        /* \"#utility.yul\":17377:17382   */\n      dup3\n        /* \"#utility.yul\":17359:17383   */\n      tag_154\n      jump\t// in\n    tag_374:\n        /* \"#utility.yul\":17350:17383   */\n      swap2\n      pop\n        /* \"#utility.yul\":17405:17471   */\n      0xffffffffffffffffffffffffffffffffffffffffffffffffffffffffffffffff\n        /* \"#utility.yul\":17398:17403   */\n      dup3\n        /* \"#utility.yul\":17395:17472   */\n      sub\n        /* \"#utility.yul\":17392:17495   */\n      tag_375\n      jumpi\n        /* \"#utility.yul\":17475:17493   */\n      tag_376\n      tag_175\n      jump\t// in\n    tag_376:\n        /* \"#utility.yul\":17392:17495   */\n    tag_375:\n        /* \"#utility.yul\":17522:17523   */\n      0x01\n        /* \"#utility.yul\":17515:17520   */\n      dup3\n        /* \"#utility.yul\":17511:17524   */\n      add\n        /* \"#utility.yul\":17504:17524   */\n      swap1\n      pop\n        /* \"#utility.yul\":17297:17530   */\n      swap2\n      swap1\n      pop\n      jump\t// out\n        /* \"#utility.yul\":17536:17868   */\n    tag_102:\n        /* \"#utility.yul\":17657:17661   */\n      0x00\n        /* \"#utility.yul\":17695:17697   */\n      0x40\n        /* \"#utility.yul\":17684:17693   */\n      dup3\n        /* \"#utility.yul\":17680:17698   */\n      add\n        /* \"#utility.yul\":17672:17698   */\n      swap1\n      pop\n        /* \"#utility.yul\":17708:17779   */\n      tag_378\n        /* \"#utility.yul\":17776:17777   */\n      0x00\n        /* \"#utility.yul\":17765:17774   */\n      dup4\n        /* \"#utility.yul\":17761:17778   */\n      add\n        /* \"#utility.yul\":17752:17758   */\n      dup6\n        /* \"#utility.yul\":17708:17779   */\n      tag_156\n      jump\t// in\n    tag_378:\n        /* \"#utility.yul\":17789:17861   */\n      tag_379\n        /* \"#utility.yul\":17857:17859   */\n      0x20\n        /* \"#utility.yul\":17846:17855   */\n      dup4\n        /* \"#utility.yul\":17842:17860   */\n      add\n        /* \"#utility.yul\":17833:17839   */\n      dup5\n        /* \"#utility.yul\":17789:17861   */\n      tag_155\n      jump\t// in\n    tag_379:\n        /* \"#utility.yul\":17536:17868   */\n      swap4\n      swap3\n      pop\n      pop\n      pop\n      jump\t// out\n        /* \"#utility.yul\":17874:18108   */\n    tag_184:\n        /* \"#utility.yul\":18014:18048   */\n      0x4f6e6c7920746865206576656e74206f7267616e697a65722063616e2063616c\n        /* \"#utility.yul\":18010:18011   */\n      0x00\n        /* \"#utility.yul\":18002:18008   */\n      dup3\n        /* \"#utility.yul\":17998:18012   */\n      add\n        /* \"#utility.yul\":17991:18049   */\n      mstore\n        /* \"#utility.yul\":18083:18100   */\n      0x6c20746869732066756e6374696f6e0000000000000000000000000000000000\n        /* \"#utility.yul\":18078:18080   */\n      0x20\n        /* \"#utility.yul\":18070:18076   */\n      dup3\n        /* \"#utility.yul\":18066:18081   */\n      add\n        /* \"#utility.yul\":18059:18101   */\n      mstore\n        /* \"#utility.yul\":17874:18108   */\n      pop\n      jump\t// out\n        /* \"#utility.yul\":18114:18480   */\n    tag_185:\n        /* \"#utility.yul\":18256:18259   */\n      0x00\n        /* \"#utility.yul\":18277:18344   */\n      tag_382\n        /* \"#utility.yul\":18341:18343   */\n      0x2f\n        /* \"#utility.yul\":18336:18339   */\n      dup4\n        /* \"#utility.yul\":18277:18344   */\n      tag_160\n      jump\t// in\n    tag_382:\n        /* \"#utility.yul\":18270:18344   */\n      swap2\n      pop\n        /* \"#utility.yul\":18353:18446   */\n      tag_383\n        /* \"#utility.yul\":18442:18445   */\n      dup3\n        /* \"#utility.yul\":18353:18446   */\n      tag_184\n      jump\t// in\n    tag_383:\n        /* \"#utility.yul\":18471:18473   */\n      0x40\n        /* \"#utility.yul\":18466:18469   */\n      dup3\n        /* \"#utility.yul\":18462:18474   */\n      add\n        /* \"#utility.yul\":18455:18474   */\n      swap1\n      pop\n        /* \"#utility.yul\":18114:18480   */\n      swap2\n      swap1\n      pop\n      jump\t// out\n        /* \"#utility.yul\":18486:18905   */\n    tag_106:\n        /* \"#utility.yul\":18652:18656   */\n      0x00\n        /* \"#utility.yul\":18690:18692   */\n      0x20\n        /* \"#utility.yul\":18679:18688   */\n      dup3\n        /* \"#utility.yul\":18675:18693   */\n      add\n        /* \"#utility.yul\":18667:18693   */\n      swap1\n      pop\n        /* \"#utility.yul\":18739:18748   */\n      dup2\n        /* \"#utility.yul\":18733:18737   */\n      dup2\n        /* \"#utility.yul\":18729:18749   */\n      sub\n        /* \"#utility.yul\":18725:18726   */\n      0x00\n        /* \"#utility.yul\":18714:18723   */\n      dup4\n        /* \"#utility.yul\":18710:18727   */\n      add\n        /* \"#utility.yul\":18703:18750   */\n      mstore\n        /* \"#utility.yul\":18767:18898   */\n      tag_385\n        /* \"#utility.yul\":18893:18897   */\n      dup2\n        /* \"#utility.yul\":18767:18898   */\n      tag_185\n      jump\t// in\n    tag_385:\n        /* \"#utility.yul\":18759:18898   */\n      swap1\n      pop\n        /* \"#utility.yul\":18486:18905   */\n      swap2\n      swap1\n      pop\n      jump\t// out\n        /* \"#utility.yul\":18911:19085   */\n    tag_186:\n        /* \"#utility.yul\":19051:19077   */\n      0x496e76616c6964207369676e6174757265206c656e6774680000000000000000\n        /* \"#utility.yul\":19047:19048   */\n      0x00\n        /* \"#utility.yul\":19039:19045   */\n      dup3\n        /* \"#utility.yul\":19035:19049   */\n      add\n        /* \"#utility.yul\":19028:19078   */\n      mstore\n        /* \"#utility.yul\":18911:19085   */\n      pop\n      jump\t// out\n        /* \"#utility.yul\":19091:19457   */\n    tag_187:\n        /* \"#utility.yul\":19233:19236   */\n      0x00\n        /* \"#utility.yul\":19254:19321   */\n      tag_388\n        /* \"#utility.yul\":19318:19320   */\n      0x18\n        /* \"#utility.yul\":19313:19316   */\n      dup4\n        /* \"#utility.yul\":19254:19321   */\n      tag_160\n      jump\t// in\n    tag_388:\n        /* \"#utility.yul\":19247:19321   */\n      swap2\n      pop\n        /* \"#utility.yul\":19330:19423   */\n      tag_389\n        /* \"#utility.yul\":19419:19422   */\n      dup3\n        /* \"#utility.yul\":19330:19423   */\n      tag_186\n      jump\t// in\n    tag_389:\n        /* \"#utility.yul\":19448:19450   */\n      0x20\n        /* \"#utility.yul\":19443:19446   */\n      dup3\n        /* \"#utility.yul\":19439:19451   */\n      add\n        /* \"#utility.yul\":19432:19451   */\n      swap1\n      pop\n        /* \"#utility.yul\":19091:19457   */\n      swap2\n      swap1\n      pop\n      jump\t// out\n        /* \"#utility.yul\":19463:19882   */\n    tag_118:\n        /* \"#utility.yul\":19629:19633   */\n      0x00\n        /* \"#utility.yul\":19667:19669   */\n      0x20\n        /* \"#utility.yul\":19656:19665   */\n      dup3\n        /* \"#utility.yul\":19652:19670   */\n      add\n        /* \"#utility.yul\":19644:19670   */\n      swap1\n      pop\n        /* \"#utility.yul\":19716:19725   */\n      dup2\n        /* \"#utility.yul\":19710:19714   */\n      dup2\n        /* \"#utility.yul\":19706:19726   */\n      sub\n        /* \"#utility.yul\":19702:19703   */\n      0x00\n        /* \"#utility.yul\":19691:19700   */\n      dup4\n        /* \"#utility.yul\":19687:19704   */\n      add\n        /* \"#utility.yul\":19680:19727   */\n      mstore\n        /* \"#utility.yul\":19744:19875   */\n      tag_391\n        /* \"#utility.yul\":19870:19874   */\n      dup2\n        /* \"#utility.yul\":19744:19875   */\n      tag_187\n      jump\t// in\n    tag_391:\n        /* \"#utility.yul\":19736:19875   */\n      swap1\n      pop\n        /* \"#utility.yul\":19463:19882   */\n      swap2\n      swap1\n      pop\n      jump\t// out\n        /* \"#utility.yul\":19888:19974   */\n    tag_188:\n        /* \"#utility.yul\":19923:19930   */\n      0x00\n        /* \"#utility.yul\":19963:19967   */\n      0xff\n        /* \"#utility.yul\":19956:19961   */\n      dup3\n        /* \"#utility.yul\":19952:19968   */\n      and\n        /* \"#utility.yul\":19941:19968   */\n      swap1\n      pop\n        /* \"#utility.yul\":19888:19974   */\n      swap2\n      swap1\n      pop\n      jump\t// out\n        /* \"#utility.yul\":19980:20168   */\n    tag_121:\n        /* \"#utility.yul\":20018:20021   */\n      0x00\n        /* \"#utility.yul\":20037:20055   */\n      tag_394\n        /* \"#utility.yul\":20053:20054   */\n      dup3\n        /* \"#utility.yul\":20037:20055   */\n      tag_188\n      jump\t// in\n    tag_394:\n        /* \"#utility.yul\":20032:20055   */\n      swap2\n      pop\n        /* \"#utility.yul\":20069:20087   */\n      tag_395\n        /* \"#utility.yul\":20085:20086   */\n      dup4\n        /* \"#utility.yul\":20069:20087   */\n      tag_188\n      jump\t// in\n    tag_395:\n        /* \"#utility.yul\":20064:20087   */\n      swap3\n      pop\n        /* \"#utility.yul\":20110:20111   */\n      dup3\n        /* \"#utility.yul\":20107:20108   */\n      dup3\n        /* \"#utility.yul\":20103:20112   */\n      add\n        /* \"#utility.yul\":20096:20112   */\n      swap1\n      pop\n        /* \"#utility.yul\":20133:20137   */\n      0xff\n        /* \"#utility.yul\":20128:20131   */\n      dup2\n        /* \"#utility.yul\":20125:20138   */\n      gt\n        /* \"#utility.yul\":20122:20161   */\n      iszero\n      tag_396\n      jumpi\n        /* \"#utility.yul\":20141:20159   */\n      tag_397\n      tag_175\n      jump\t// in\n    tag_397:\n        /* \"#utility.yul\":20122:20161   */\n    tag_396:\n        /* \"#utility.yul\":19980:20168   */\n      swap3\n      swap2\n      pop\n      pop\n      jump\t// out\n        /* \"#utility.yul\":20174:20351   */\n    tag_189:\n        /* \"#utility.yul\":20314:20343   */\n      0x496e76616c6964207369676e6174757265202776272076616c75650000000000\n        /* \"#utility.yul\":20310:20311   */\n      0x00\n        /* \"#utility.yul\":20302:20308   */\n      dup3\n        /* \"#utility.yul\":20298:20312   */\n      add\n        /* \"#utility.yul\":20291:20344   */\n      mstore\n        /* \"#utility.yul\":20174:20351   */\n      pop\n      jump\t// out\n        /* \"#utility.yul\":20357:20723   */\n    tag_190:\n        /* \"#utility.yul\":20499:20502   */\n      0x00\n        /* \"#utility.yul\":20520:20587   */\n      tag_400\n        /* \"#utility.yul\":20584:20586   */\n      0x1b\n        /* \"#utility.yul\":20579:20582   */\n      dup4\n        /* \"#utility.yul\":20520:20587   */\n      tag_160\n      jump\t// in\n    tag_400:\n        /* \"#utility.yul\":20513:20587   */\n      swap2\n      pop\n        /* \"#utility.yul\":20596:20689   */\n      tag_401\n        /* \"#utility.yul\":20685:20688   */\n      dup3\n        /* \"#utility.yul\":20596:20689   */\n      tag_189\n      jump\t// in\n    tag_401:\n        /* \"#utility.yul\":20714:20716   */\n      0x20\n        /* \"#utility.yul\":20709:20712   */\n      dup3\n        /* \"#utility.yul\":20705:20717   */\n      add\n        /* \"#utility.yul\":20698:20717   */\n      swap1\n      pop\n        /* \"#utility.yul\":20357:20723   */\n      swap2\n      swap1\n      pop\n      jump\t// out\n        /* \"#utility.yul\":20729:21148   */\n    tag_125:\n        /* \"#utility.yul\":20895:20899   */\n      0x00\n        /* \"#utility.yul\":20933:20935   */\n      0x20\n        /* \"#utility.yul\":20922:20931   */\n      dup3\n        /* \"#utility.yul\":20918:20936   */\n      add\n        /* \"#utility.yul\":20910:20936   */\n      swap1\n      pop\n        /* \"#utility.yul\":20982:20991   */\n      dup2\n        /* \"#utility.yul\":20976:20980   */\n      dup2\n        /* \"#utility.yul\":20972:20992   */\n      sub\n        /* \"#utility.yul\":20968:20969   */\n      0x00\n        /* \"#utility.yul\":20957:20966   */\n      dup4\n        /* \"#utility.yul\":20953:20970   */\n      add\n        /* \"#utility.yul\":20946:20993   */\n      mstore\n        /* \"#utility.yul\":21010:21141   */\n      tag_403\n        /* \"#utility.yul\":21136:21140   */\n      dup2\n        /* \"#utility.yul\":21010:21141   */\n      tag_190\n      jump\t// in\n    tag_403:\n        /* \"#utility.yul\":21002:21141   */\n      swap1\n      pop\n        /* \"#utility.yul\":20729:21148   */\n      swap2\n      swap1\n      pop\n      jump\t// out\n        /* \"#utility.yul\":21154:21266   */\n    tag_191:\n        /* \"#utility.yul\":21237:21259   */\n      tag_405\n        /* \"#utility.yul\":21253:21258   */\n      dup2\n        /* \"#utility.yul\":21237:21259   */\n      tag_188\n      jump\t// in\n    tag_405:\n        /* \"#utility.yul\":21232:21235   */\n      dup3\n        /* \"#utility.yul\":21225:21260   */\n      mstore\n        /* \"#utility.yul\":21154:21266   */\n      pop\n      pop\n      jump\t// out\n        /* \"#utility.yul\":21272:21817   */\n    tag_127:\n        /* \"#utility.yul\":21445:21449   */\n      0x00\n        /* \"#utility.yul\":21483:21486   */\n      0x80\n        /* \"#utility.yul\":21472:21481   */\n      dup3\n        /* \"#utility.yul\":21468:21487   */\n      add\n        /* \"#utility.yul\":21460:21487   */\n      swap1\n      pop\n        /* \"#utility.yul\":21497:21568   */\n      tag_407\n        /* \"#utility.yul\":21565:21566   */\n      0x00\n        /* \"#utility.yul\":21554:21563   */\n      dup4\n        /* \"#utility.yul\":21550:21567   */\n      add\n        /* \"#utility.yul\":21541:21547   */\n      dup8\n        /* \"#utility.yul\":21497:21568   */\n      tag_141\n      jump\t// in\n    tag_407:\n        /* \"#utility.yul\":21578:21646   */\n      tag_408\n        /* \"#utility.yul\":21642:21644   */\n      0x20\n        /* \"#utility.yul\":21631:21640   */\n      dup4\n        /* \"#utility.yul\":21627:21645   */\n      add\n        /* \"#utility.yul\":21618:21624   */\n      dup7\n        /* \"#utility.yul\":21578:21646   */\n      tag_191\n      jump\t// in\n    tag_408:\n        /* \"#utility.yul\":21656:21728   */\n      tag_409\n        /* \"#utility.yul\":21724:21726   */\n      0x40\n        /* \"#utility.yul\":21713:21722   */\n      dup4\n        /* \"#utility.yul\":21709:21727   */\n      add\n        /* \"#utility.yul\":21700:21706   */\n      dup6\n        /* \"#utility.yul\":21656:21728   */\n      tag_141\n      jump\t// in\n    tag_409:\n        /* \"#utility.yul\":21738:21810   */\n      tag_410\n        /* \"#utility.yul\":21806:21808   */\n      0x60\n        /* \"#utility.yul\":21795:21804   */\n      dup4\n        /* \"#utility.yul\":21791:21809   */\n      add\n        /* \"#utility.yul\":21782:21788   */\n      dup5\n        /* \"#utility.yul\":21738:21810   */\n      tag_141\n      jump\t// in\n    tag_410:\n        /* \"#utility.yul\":21272:21817   */\n      swap6\n      swap5\n      pop\n      pop\n      pop\n      pop\n      pop\n      jump\t// out\n        /* \"#utility.yul\":21823:22037   */\n    tag_192:\n        /* \"#utility.yul\":21963:22029   */\n      0x19457468657265756d205369676e6564204d6573736167653a0a333200000000\n        /* \"#utility.yul\":21959:21960   */\n      0x00\n        /* \"#utility.yul\":21951:21957   */\n      dup3\n        /* \"#utility.yul\":21947:21961   */\n      add\n        /* \"#utility.yul\":21940:22030   */\n      mstore\n        /* \"#utility.yul\":21823:22037   */\n      pop\n      jump\t// out\n        /* \"#utility.yul\":22043:22445   */\n    tag_193:\n        /* \"#utility.yul\":22203:22206   */\n      0x00\n        /* \"#utility.yul\":22224:22309   */\n      tag_413\n        /* \"#utility.yul\":22306:22308   */\n      0x1c\n        /* \"#utility.yul\":22301:22304   */\n      dup4\n        /* \"#utility.yul\":22224:22309   */\n      tag_170\n      jump\t// in\n    tag_413:\n        /* \"#utility.yul\":22217:22309   */\n      swap2\n      pop\n        /* \"#utility.yul\":22318:22411   */\n      tag_414\n        /* \"#utility.yul\":22407:22410   */\n      dup3\n        /* \"#utility.yul\":22318:22411   */\n      tag_192\n      jump\t// in\n    tag_414:\n        /* \"#utility.yul\":22436:22438   */\n      0x1c\n        /* \"#utility.yul\":22431:22434   */\n      dup3\n        /* \"#utility.yul\":22427:22439   */\n      add\n        /* \"#utility.yul\":22420:22439   */\n      swap1\n      pop\n        /* \"#utility.yul\":22043:22445   */\n      swap2\n      swap1\n      pop\n      jump\t// out\n        /* \"#utility.yul\":22451:22530   */\n    tag_194:\n        /* \"#utility.yul\":22490:22497   */\n      0x00\n        /* \"#utility.yul\":22519:22524   */\n      dup2\n        /* \"#utility.yul\":22508:22524   */\n      swap1\n      pop\n        /* \"#utility.yul\":22451:22530   */\n      swap2\n      swap1\n      pop\n      jump\t// out\n        /* \"#utility.yul\":22536:22693   */\n    tag_195:\n        /* \"#utility.yul\":22641:22686   */\n      tag_417\n        /* \"#utility.yul\":22661:22685   */\n      tag_418\n        /* \"#utility.yul\":22679:22684   */\n      dup3\n        /* \"#utility.yul\":22661:22685   */\n      tag_140\n      jump\t// in\n    tag_418:\n        /* \"#utility.yul\":22641:22686   */\n      tag_194\n      jump\t// in\n    tag_417:\n        /* \"#utility.yul\":22636:22639   */\n      dup3\n        /* \"#utility.yul\":22629:22687   */\n      mstore\n        /* \"#utility.yul\":22536:22693   */\n      pop\n      pop\n      jump\t// out\n        /* \"#utility.yul\":22699:23221   */\n    tag_132:\n        /* \"#utility.yul\":22912:22915   */\n      0x00\n        /* \"#utility.yul\":22934:23082   */\n      tag_420\n        /* \"#utility.yul\":23078:23081   */\n      dup3\n        /* \"#utility.yul\":22934:23082   */\n      tag_193\n      jump\t// in\n    tag_420:\n        /* \"#utility.yul\":22927:23082   */\n      swap2\n      pop\n        /* \"#utility.yul\":23092:23167   */\n      tag_421\n        /* \"#utility.yul\":23163:23166   */\n      dup3\n        /* \"#utility.yul\":23154:23160   */\n      dup5\n        /* \"#utility.yul\":23092:23167   */\n      tag_195\n      jump\t// in\n    tag_421:\n        /* \"#utility.yul\":23192:23194   */\n      0x20\n        /* \"#utility.yul\":23187:23190   */\n      dup3\n        /* \"#utility.yul\":23183:23195   */\n      add\n        /* \"#utility.yul\":23176:23195   */\n      swap2\n      pop\n        /* \"#utility.yul\":23212:23215   */\n      dup2\n        /* \"#utility.yul\":23205:23215   */\n      swap1\n      pop\n        /* \"#utility.yul\":22699:23221   */\n      swap3\n      swap2\n      pop\n      pop\n      jump\t// out\n\n    auxdata: 0xa264697066735822122076ae74ca20bc1a6bfa060c55ae7e173179139be2bb3dec9221b148e904ddf21764736f6c63430008180033\n}\n",
				"bytecode": {
					"linkReferences": {},
					"object": "608060405234801562000010575f80fd5b5060405162001ba238038062001ba28339818101604052810190620000369190620002b2565b825f908162000046919062000558565b5081600281905550806003819055503360015f6101000a81548173ffffffffffffffffffffffffffffffffffffffff021916908373ffffffffffffffffffffffffffffffffffffffff160217905550600160055f6101000a81548160ff0219169083151502179055507fef361a1e306446b9c7b03355ef7fbc9ea7cbdc417a1fd436d496c6d5523a48db838383604051620000e4939291906200069d565b60405180910390a1505050620006df565b5f604051905090565b5f80fd5b5f80fd5b5f80fd5b5f80fd5b5f601f19601f8301169050919050565b7f4e487b71000000000000000000000000000000000000000000000000000000005f52604160045260245ffd5b62000156826200010e565b810181811067ffffffffffffffff821117156200017857620001776200011e565b5b80604052505050565b5f6200018c620000f5565b90506200019a82826200014b565b919050565b5f67ffffffffffffffff821115620001bc57620001bb6200011e565b5b620001c7826200010e565b9050602081019050919050565b5f5b83811015620001f3578082015181840152602081019050620001d6565b5f8484015250505050565b5f620002146200020e846200019f565b62000181565b9050828152602081018484840111156200023357620002326200010a565b5b62000240848285620001d4565b509392505050565b5f82601f8301126200025f576200025e62000106565b5b815162000271848260208601620001fe565b91505092915050565b5f819050919050565b6200028e816200027a565b811462000299575f80fd5b50565b5f81519050620002ac8162000283565b92915050565b5f805f60608486031215620002cc57620002cb620000fe565b5b5f84015167ffffffffffffffff811115620002ec57620002eb62000102565b5b620002fa8682870162000248565b93505060206200030d868287016200029c565b925050604062000320868287016200029c565b9150509250925092565b5f81519050919050565b7f4e487b71000000000000000000000000000000000000000000000000000000005f52602260045260245ffd5b5f60028204905060018216806200037957607f821691505b6020821081036200038f576200038e62000334565b5b50919050565b5f819050815f5260205f209050919050565b5f6020601f8301049050919050565b5f82821b905092915050565b5f60088302620003f37fffffffffffffffffffffffffffffffffffffffffffffffffffffffffffffffff82620003b6565b620003ff8683620003b6565b95508019841693508086168417925050509392505050565b5f819050919050565b5f620004406200043a62000434846200027a565b62000417565b6200027a565b9050919050565b5f819050919050565b6200045b8362000420565b620004736200046a8262000447565b848454620003c2565b825550505050565b5f90565b620004896200047b565b6200049681848462000450565b505050565b5b81811015620004bd57620004b15f826200047f565b6001810190506200049c565b5050565b601f8211156200050c57620004d68162000395565b620004e184620003a7565b81016020851015620004f1578190505b620005096200050085620003a7565b8301826200049b565b50505b505050565b5f82821c905092915050565b5f6200052e5f198460080262000511565b1980831691505092915050565b5f6200054883836200051d565b9150826002028217905092915050565b62000563826200032a565b67ffffffffffffffff8111156200057f576200057e6200011e565b5b6200058b825462000361565b62000598828285620004c1565b5f60209050601f831160018114620005ce575f8415620005b9578287015190505b620005c585826200053b565b86555062000634565b601f198416620005de8662000395565b5f5b828110156200060757848901518255600182019150602085019450602081019050620005e0565b8683101562000627578489015162000623601f8916826200051d565b8355505b6001600288020188555050505b505050505050565b5f82825260208201905092915050565b5f62000658826200032a565b6200066481856200063c565b935062000676818560208601620001d4565b62000681816200010e565b840191505092915050565b62000697816200027a565b82525050565b5f6060820190508181035f830152620006b781866200064c565b9050620006c860208301856200068c565b620006d760408301846200068c565b949350505050565b6114b580620006ed5f395ff3fe608060405234801561000f575f80fd5b50600436106100cd575f3560e01c8063665983ec1161008a578063cc54bcf211610064578063cc54bcf214610211578063d866b0b61461022f578063f1adda471461025f578063fa5408011461027d576100cd565b8063665983ec146101a75780638043c9c0146101c357806397aba7f9146101e1576100cd565b80631f5ac1b2146100d1578063258c1ef514610101578063304c44d1146101315780634bfbe5df1461014d5780635f3d7fa11461016b5780636120326514610189575b5f80fd5b6100eb60048036038101906100e69190610951565b6102ad565b6040516100f89190610994565b60405180910390f35b61011b60048036038101906101169190610ae9565b6102e0565b6040516101289190610b5d565b60405180910390f35b61014b60048036038101906101469190610b76565b61035c565b005b6101556105be565b6040516101629190610bd5565b60405180910390f35b6101736105c4565b6040516101809190610bd5565b60405180910390f35b6101916105ca565b60405161019e9190610bfd565b60405180910390f35b6101c160048036038101906101bc9190610c40565b6105ef565b005b6101cb6106d1565b6040516101d89190610ce5565b60405180910390f35b6101fb60048036038101906101f69190610d2f565b61075c565b6040516102089190610bfd565b60405180910390f35b610219610882565b6040516102269190610b5d565b60405180910390f35b61024960048036038101906102449190610951565b610894565b6040516102569190610b5d565b60405180910390f35b6102676108b1565b6040516102749190610bd5565b60405180910390f35b61029760048036038101906102929190610d89565b6108b7565b6040516102a49190610994565b60405180910390f35b5f305f836040516020016102c393929190610ef2565b604051602081830303815290604052805190602001209050919050565b5f806102eb846102ad565b90505f6102f7826108b7565b905060015f9054906101000a900473ffffffffffffffffffffffffffffffffffffffff1673ffffffffffffffffffffffffffffffffffffffff1661033b828661075c565b73ffffffffffffffffffffffffffffffffffffffff16149250505092915050565b60055f9054906101000a900460ff166103aa576040517f08c379a00000000000000000000000000000000000000000000000000000000081526004016103a190610f74565b60405180910390fd5b620151806002546103bb9190610fbf565b4211156103fd576040517f08c379a00000000000000000000000000000000000000000000000000000000081526004016103f49061103c565b60405180910390fd5b60065f3373ffffffffffffffffffffffffffffffffffffffff1673ffffffffffffffffffffffffffffffffffffffff1681526020019081526020015f205f9054906101000a900460ff1615610487576040517f08c379a000000000000000000000000000000000000000000000000000000000815260040161047e906110a4565b60405180910390fd5b600354600454106104cd576040517f08c379a00000000000000000000000000000000000000000000000000000000081526004016104c49061110c565b60405180910390fd5b6104d733826102e0565b610516576040517f08c379a000000000000000000000000000000000000000000000000000000000815260040161050d90611174565b60405180910390fd5b600160065f3373ffffffffffffffffffffffffffffffffffffffff1673ffffffffffffffffffffffffffffffffffffffff1681526020019081526020015f205f6101000a81548160ff02191690831515021790555060045f81548092919061057d90611192565b91905055507fc4b6af862e5edf86b47bbd28434015dfdddfc6ce20ea8f6146df2972b54db5d533426040516105b39291906111d9565b60405180910390a150565b60025481565b60035481565b60015f9054906101000a900473ffffffffffffffffffffffffffffffffffffffff1681565b60015f9054906101000a900473ffffffffffffffffffffffffffffffffffffffff1673ffffffffffffffffffffffffffffffffffffffff163373ffffffffffffffffffffffffffffffffffffffff161461067e576040517f08c379a000000000000000000000000000000000000000000000000000000000815260040161067590611270565b60405180910390fd5b8060055f6101000a81548160ff0219169083151502179055507f3b2459d109ea4ebe9f621a02c3324d4b06bcbb121b32094e9210c57575e2f150816040516106c69190610b5d565b60405180910390a150565b5f80546106dd90610e26565b80601f016020809104026020016040519081016040528092919081815260200182805461070990610e26565b80156107545780601f1061072b57610100808354040283529160200191610754565b820191905f5260205f20905b81548152906001019060200180831161073757829003601f168201915b505050505081565b5f60418251146107a1576040517f08c379a0000000000000000000000000000000000000000000000000000000008152600401610798906112d8565b60405180910390fd5b5f805f602085015192506040850151915060608501515f1a9050601b8160ff1610156107d757601b816107d49190611302565b90505b601b8160ff1614806107ec5750601c8160ff16145b61082b576040517f08c379a000000000000000000000000000000000000000000000000000000000815260040161082290611380565b60405180910390fd5b6001868285856040515f815260200160405260405161084d94939291906113ad565b6020604051602081039080840390855afa15801561086d573d5f803e3d5ffd5b50505060206040510351935050505092915050565b60055f9054906101000a900460ff1681565b6006602052805f5260405f205f915054906101000a900460ff1681565b60045481565b5f816040516020016108c9919061145a565b604051602081830303815290604052805190602001209050919050565b5f604051905090565b5f80fd5b5f80fd5b5f73ffffffffffffffffffffffffffffffffffffffff82169050919050565b5f610920826108f7565b9050919050565b61093081610916565b811461093a575f80fd5b50565b5f8135905061094b81610927565b92915050565b5f60208284031215610966576109656108ef565b5b5f6109738482850161093d565b91505092915050565b5f819050919050565b61098e8161097c565b82525050565b5f6020820190506109a75f830184610985565b92915050565b5f80fd5b5f80fd5b5f601f19601f8301169050919050565b7f4e487b71000000000000000000000000000000000000000000000000000000005f52604160045260245ffd5b6109fb826109b5565b810181811067ffffffffffffffff82111715610a1a57610a196109c5565b5b80604052505050565b5f610a2c6108e6565b9050610a3882826109f2565b919050565b5f67ffffffffffffffff821115610a5757610a566109c5565b5b610a60826109b5565b9050602081019050919050565b828183375f83830152505050565b5f610a8d610a8884610a3d565b610a23565b905082815260208101848484011115610aa957610aa86109b1565b5b610ab4848285610a6d565b509392505050565b5f82601f830112610ad057610acf6109ad565b5b8135610ae0848260208601610a7b565b91505092915050565b5f8060408385031215610aff57610afe6108ef565b5b5f610b0c8582860161093d565b925050602083013567ffffffffffffffff811115610b2d57610b2c6108f3565b5b610b3985828601610abc565b9150509250929050565b5f8115159050919050565b610b5781610b43565b82525050565b5f602082019050610b705f830184610b4e565b92915050565b5f60208284031215610b8b57610b8a6108ef565b5b5f82013567ffffffffffffffff811115610ba857610ba76108f3565b5b610bb484828501610abc565b91505092915050565b5f819050919050565b610bcf81610bbd565b82525050565b5f602082019050610be85f830184610bc6565b92915050565b610bf781610916565b82525050565b5f602082019050610c105f830184610bee565b92915050565b610c1f81610b43565b8114610c29575f80fd5b50565b5f81359050610c3a81610c16565b92915050565b5f60208284031215610c5557610c546108ef565b5b5f610c6284828501610c2c565b91505092915050565b5f81519050919050565b5f82825260208201905092915050565b5f5b83811015610ca2578082015181840152602081019050610c87565b5f8484015250505050565b5f610cb782610c6b565b610cc18185610c75565b9350610cd1818560208601610c85565b610cda816109b5565b840191505092915050565b5f6020820190508181035f830152610cfd8184610cad565b905092915050565b610d0e8161097c565b8114610d18575f80fd5b50565b5f81359050610d2981610d05565b92915050565b5f8060408385031215610d4557610d446108ef565b5b5f610d5285828601610d1b565b925050602083013567ffffffffffffffff811115610d7357610d726108f3565b5b610d7f85828601610abc565b9150509250929050565b5f60208284031215610d9e57610d9d6108ef565b5b5f610dab84828501610d1b565b91505092915050565b5f8160601b9050919050565b5f610dca82610db4565b9050919050565b5f610ddb82610dc0565b9050919050565b610df3610dee82610916565b610dd1565b82525050565b7f4e487b71000000000000000000000000000000000000000000000000000000005f52602260045260245ffd5b5f6002820490506001821680610e3d57607f821691505b602082108103610e5057610e4f610df9565b5b50919050565b5f81905092915050565b5f819050815f5260205f209050919050565b5f8154610e7e81610e26565b610e888186610e56565b9450600182165f8114610ea25760018114610eb757610ee9565b60ff1983168652811515820286019350610ee9565b610ec085610e60565b5f5b83811015610ee157815481890152600182019150602081019050610ec2565b838801955050505b50505092915050565b5f610efd8286610de2565b601482019150610f0d8285610e72565b9150610f198284610de2565b601482019150819050949350505050565b7f4576656e74206973206e6f7420616374697665000000000000000000000000005f82015250565b5f610f5e601383610c75565b9150610f6982610f2a565b602082019050919050565b5f6020820190508181035f830152610f8b81610f52565b9050919050565b7f4e487b71000000000000000000000000000000000000000000000000000000005f52601160045260245ffd5b5f610fc982610bbd565b9150610fd483610bbd565b9250828201905080821115610fec57610feb610f92565b5b92915050565b7f4576656e742068617320656e64656400000000000000000000000000000000005f82015250565b5f611026600f83610c75565b915061103182610ff2565b602082019050919050565b5f6020820190508181035f8301526110538161101a565b9050919050565b7f417474656e6465652068617320616c726561647920636865636b656420696e005f82015250565b5f61108e601f83610c75565b91506110998261105a565b602082019050919050565b5f6020820190508181035f8301526110bb81611082565b9050919050565b7f4d6178696d756d20617474656e646565732072656163686564000000000000005f82015250565b5f6110f6601983610c75565b9150611101826110c2565b602082019050919050565b5f6020820190508181035f830152611123816110ea565b9050919050565b7f496e76616c6964207369676e61747572650000000000000000000000000000005f82015250565b5f61115e601183610c75565b91506111698261112a565b602082019050919050565b5f6020820190508181035f83015261118b81611152565b9050919050565b5f61119c82610bbd565b91507fffffffffffffffffffffffffffffffffffffffffffffffffffffffffffffffff82036111ce576111cd610f92565b5b600182019050919050565b5f6040820190506111ec5f830185610bee565b6111f96020830184610bc6565b9392505050565b7f4f6e6c7920746865206576656e74206f7267616e697a65722063616e2063616c5f8201527f6c20746869732066756e6374696f6e0000000000000000000000000000000000602082015250565b5f61125a602f83610c75565b915061126582611200565b604082019050919050565b5f6020820190508181035f8301526112878161124e565b9050919050565b7f496e76616c6964207369676e6174757265206c656e67746800000000000000005f82015250565b5f6112c2601883610c75565b91506112cd8261128e565b602082019050919050565b5f6020820190508181035f8301526112ef816112b6565b9050919050565b5f60ff82169050919050565b5f61130c826112f6565b9150611317836112f6565b9250828201905060ff8111156113305761132f610f92565b5b92915050565b7f496e76616c6964207369676e6174757265202776272076616c756500000000005f82015250565b5f61136a601b83610c75565b915061137582611336565b602082019050919050565b5f6020820190508181035f8301526113978161135e565b9050919050565b6113a7816112f6565b82525050565b5f6080820190506113c05f830187610985565b6113cd602083018661139e565b6113da6040830185610985565b6113e76060830184610985565b95945050505050565b7f19457468657265756d205369676e6564204d6573736167653a0a3332000000005f82015250565b5f611424601c83610e56565b915061142f826113f0565b601c82019050919050565b5f819050919050565b61145461144f8261097c565b61143a565b82525050565b5f61146482611418565b91506114708284611443565b6020820191508190509291505056fea264697066735822122076ae74ca20bc1a6bfa060c55ae7e173179139be2bb3dec9221b148e904ddf21764736f6c63430008180033",
					"opcodes": "PUSH1 0x80 PUSH1 0x40 MSTORE CALLVALUE DUP1 ISZERO PUSH3 0x10 JUMPI PUSH0 DUP1 REVERT JUMPDEST POP PUSH1 0x40 MLOAD PUSH3 0x1BA2 CODESIZE SUB DUP1 PUSH3 0x1BA2 DUP4 CODECOPY DUP2 DUP2 ADD PUSH1 0x40 MSTORE DUP2 ADD SWAP1 PUSH3 0x36 SWAP2 SWAP1 PUSH3 0x2B2 JUMP JUMPDEST DUP3 PUSH0 SWAP1 DUP2 PUSH3 0x46 SWAP2 SWAP1 PUSH3 0x558 JUMP JUMPDEST POP DUP2 PUSH1 0x2 DUP2 SWAP1 SSTORE POP DUP1 PUSH1 0x3 DUP2 SWAP1 SSTORE POP CALLER PUSH1 0x1 PUSH0 PUSH2 0x100 EXP DUP2 SLOAD DUP2 PUSH20 0xFFFFFFFFFFFFFFFFFFFFFFFFFFFFFFFFFFFFFFFF MUL NOT AND SWAP1 DUP4 PUSH20 0xFFFFFFFFFFFFFFFFFFFFFFFFFFFFFFFFFFFFFFFF AND MUL OR SWAP1 SSTORE POP PUSH1 0x1 PUSH1 0x5 PUSH0 PUSH2 0x100 EXP DUP2 SLOAD DUP2 PUSH1 0xFF MUL NOT AND SWAP1 DUP4 ISZERO ISZERO MUL OR SWAP1 SSTORE POP PUSH32 0xEF361A1E306446B9C7B03355EF7FBC9EA7CBDC417A1FD436D496C6D5523A48DB DUP4 DUP4 DUP4 PUSH1 0x40 MLOAD PUSH3 0xE4 SWAP4 SWAP3 SWAP2 SWAP1 PUSH3 0x69D JUMP JUMPDEST PUSH1 0x40 MLOAD DUP1 SWAP2 SUB SWAP1 LOG1 POP POP POP PUSH3 0x6DF JUMP JUMPDEST PUSH0 PUSH1 0x40 MLOAD SWAP1 POP SWAP1 JUMP JUMPDEST PUSH0 DUP1 REVERT JUMPDEST PUSH0 DUP1 REVERT JUMPDEST PUSH0 DUP1 REVERT JUMPDEST PUSH0 DUP1 REVERT JUMPDEST PUSH0 PUSH1 0x1F NOT PUSH1 0x1F DUP4 ADD AND SWAP1 POP SWAP2 SWAP1 POP JUMP JUMPDEST PUSH32 0x4E487B7100000000000000000000000000000000000000000000000000000000 PUSH0 MSTORE PUSH1 0x41 PUSH1 0x4 MSTORE PUSH1 0x24 PUSH0 REVERT JUMPDEST PUSH3 0x156 DUP3 PUSH3 0x10E JUMP JUMPDEST DUP2 ADD DUP2 DUP2 LT PUSH8 0xFFFFFFFFFFFFFFFF DUP3 GT OR ISZERO PUSH3 0x178 JUMPI PUSH3 0x177 PUSH3 0x11E JUMP JUMPDEST JUMPDEST DUP1 PUSH1 0x40 MSTORE POP POP POP JUMP JUMPDEST PUSH0 PUSH3 0x18C PUSH3 0xF5 JUMP JUMPDEST SWAP1 POP PUSH3 0x19A DUP3 DUP3 PUSH3 0x14B JUMP JUMPDEST SWAP2 SWAP1 POP JUMP JUMPDEST PUSH0 PUSH8 0xFFFFFFFFFFFFFFFF DUP3 GT ISZERO PUSH3 0x1BC JUMPI PUSH3 0x1BB PUSH3 0x11E JUMP JUMPDEST JUMPDEST PUSH3 0x1C7 DUP3 PUSH3 0x10E JUMP JUMPDEST SWAP1 POP PUSH1 0x20 DUP2 ADD SWAP1 POP SWAP2 SWAP1 POP JUMP JUMPDEST PUSH0 JUMPDEST DUP4 DUP2 LT ISZERO PUSH3 0x1F3 JUMPI DUP1 DUP3 ADD MLOAD DUP2 DUP5 ADD MSTORE PUSH1 0x20 DUP2 ADD SWAP1 POP PUSH3 0x1D6 JUMP JUMPDEST PUSH0 DUP5 DUP5 ADD MSTORE POP POP POP POP JUMP JUMPDEST PUSH0 PUSH3 0x214 PUSH3 0x20E DUP5 PUSH3 0x19F JUMP JUMPDEST PUSH3 0x181 JUMP JUMPDEST SWAP1 POP DUP3 DUP2 MSTORE PUSH1 0x20 DUP2 ADD DUP5 DUP5 DUP5 ADD GT ISZERO PUSH3 0x233 JUMPI PUSH3 0x232 PUSH3 0x10A JUMP JUMPDEST JUMPDEST PUSH3 0x240 DUP5 DUP3 DUP6 PUSH3 0x1D4 JUMP JUMPDEST POP SWAP4 SWAP3 POP POP POP JUMP JUMPDEST PUSH0 DUP3 PUSH1 0x1F DUP4 ADD SLT PUSH3 0x25F JUMPI PUSH3 0x25E PUSH3 0x106 JUMP JUMPDEST JUMPDEST DUP2 MLOAD PUSH3 0x271 DUP5 DUP3 PUSH1 0x20 DUP7 ADD PUSH3 0x1FE JUMP JUMPDEST SWAP2 POP POP SWAP3 SWAP2 POP POP JUMP JUMPDEST PUSH0 DUP2 SWAP1 POP SWAP2 SWAP1 POP JUMP JUMPDEST PUSH3 0x28E DUP2 PUSH3 0x27A JUMP JUMPDEST DUP2 EQ PUSH3 0x299 JUMPI PUSH0 DUP1 REVERT JUMPDEST POP JUMP JUMPDEST PUSH0 DUP2 MLOAD SWAP1 POP PUSH3 0x2AC DUP2 PUSH3 0x283 JUMP JUMPDEST SWAP3 SWAP2 POP POP JUMP JUMPDEST PUSH0 DUP1 PUSH0 PUSH1 0x60 DUP5 DUP7 SUB SLT ISZERO PUSH3 0x2CC JUMPI PUSH3 0x2CB PUSH3 0xFE JUMP JUMPDEST JUMPDEST PUSH0 DUP5 ADD MLOAD PUSH8 0xFFFFFFFFFFFFFFFF DUP2 GT ISZERO PUSH3 0x2EC JUMPI PUSH3 0x2EB PUSH3 0x102 JUMP JUMPDEST JUMPDEST PUSH3 0x2FA DUP7 DUP3 DUP8 ADD PUSH3 0x248 JUMP JUMPDEST SWAP4 POP POP PUSH1 0x20 PUSH3 0x30D DUP7 DUP3 DUP8 ADD PUSH3 0x29C JUMP JUMPDEST SWAP3 POP POP PUSH1 0x40 PUSH3 0x320 DUP7 DUP3 DUP8 ADD PUSH3 0x29C JUMP JUMPDEST SWAP2 POP POP SWAP3 POP SWAP3 POP SWAP3 JUMP JUMPDEST PUSH0 DUP2 MLOAD SWAP1 POP SWAP2 SWAP1 POP JUMP JUMPDEST PUSH32 0x4E487B7100000000000000000000000000000000000000000000000000000000 PUSH0 MSTORE PUSH1 0x22 PUSH1 0x4 MSTORE PUSH1 0x24 PUSH0 REVERT JUMPDEST PUSH0 PUSH1 0x2 DUP3 DIV SWAP1 POP PUSH1 0x1 DUP3 AND DUP1 PUSH3 0x379 JUMPI PUSH1 0x7F DUP3 AND SWAP2 POP JUMPDEST PUSH1 0x20 DUP3 LT DUP2 SUB PUSH3 0x38F JUMPI PUSH3 0x38E PUSH3 0x334 JUMP JUMPDEST JUMPDEST POP SWAP2 SWAP1 POP JUMP JUMPDEST PUSH0 DUP2 SWAP1 POP DUP2 PUSH0 MSTORE PUSH1 0x20 PUSH0 KECCAK256 SWAP1 POP SWAP2 SWAP1 POP JUMP JUMPDEST PUSH0 PUSH1 0x20 PUSH1 0x1F DUP4 ADD DIV SWAP1 POP SWAP2 SWAP1 POP JUMP JUMPDEST PUSH0 DUP3 DUP3 SHL SWAP1 POP SWAP3 SWAP2 POP POP JUMP JUMPDEST PUSH0 PUSH1 0x8 DUP4 MUL PUSH3 0x3F3 PUSH32 0xFFFFFFFFFFFFFFFFFFFFFFFFFFFFFFFFFFFFFFFFFFFFFFFFFFFFFFFFFFFFFFFF DUP3 PUSH3 0x3B6 JUMP JUMPDEST PUSH3 0x3FF DUP7 DUP4 PUSH3 0x3B6 JUMP JUMPDEST SWAP6 POP DUP1 NOT DUP5 AND SWAP4 POP DUP1 DUP7 AND DUP5 OR SWAP3 POP POP POP SWAP4 SWAP3 POP POP POP JUMP JUMPDEST PUSH0 DUP2 SWAP1 POP SWAP2 SWAP1 POP JUMP JUMPDEST PUSH0 PUSH3 0x440 PUSH3 0x43A PUSH3 0x434 DUP5 PUSH3 0x27A JUMP JUMPDEST PUSH3 0x417 JUMP JUMPDEST PUSH3 0x27A JUMP JUMPDEST SWAP1 POP SWAP2 SWAP1 POP JUMP JUMPDEST PUSH0 DUP2 SWAP1 POP SWAP2 SWAP1 POP JUMP JUMPDEST PUSH3 0x45B DUP4 PUSH3 0x420 JUMP JUMPDEST PUSH3 0x473 PUSH3 0x46A DUP3 PUSH3 0x447 JUMP JUMPDEST DUP5 DUP5 SLOAD PUSH3 0x3C2 JUMP JUMPDEST DUP3 SSTORE POP POP POP POP JUMP JUMPDEST PUSH0 SWAP1 JUMP JUMPDEST PUSH3 0x489 PUSH3 0x47B JUMP JUMPDEST PUSH3 0x496 DUP2 DUP5 DUP5 PUSH3 0x450 JUMP JUMPDEST POP POP POP JUMP JUMPDEST JUMPDEST DUP2 DUP2 LT ISZERO PUSH3 0x4BD JUMPI PUSH3 0x4B1 PUSH0 DUP3 PUSH3 0x47F JUMP JUMPDEST PUSH1 0x1 DUP2 ADD SWAP1 POP PUSH3 0x49C JUMP JUMPDEST POP POP JUMP JUMPDEST PUSH1 0x1F DUP3 GT ISZERO PUSH3 0x50C JUMPI PUSH3 0x4D6 DUP2 PUSH3 0x395 JUMP JUMPDEST PUSH3 0x4E1 DUP5 PUSH3 0x3A7 JUMP JUMPDEST DUP2 ADD PUSH1 0x20 DUP6 LT ISZERO PUSH3 0x4F1 JUMPI DUP2 SWAP1 POP JUMPDEST PUSH3 0x509 PUSH3 0x500 DUP6 PUSH3 0x3A7 JUMP JUMPDEST DUP4 ADD DUP3 PUSH3 0x49B JUMP JUMPDEST POP POP JUMPDEST POP POP POP JUMP JUMPDEST PUSH0 DUP3 DUP3 SHR SWAP1 POP SWAP3 SWAP2 POP POP JUMP JUMPDEST PUSH0 PUSH3 0x52E PUSH0 NOT DUP5 PUSH1 0x8 MUL PUSH3 0x511 JUMP JUMPDEST NOT DUP1 DUP4 AND SWAP2 POP POP SWAP3 SWAP2 POP POP JUMP JUMPDEST PUSH0 PUSH3 0x548 DUP4 DUP4 PUSH3 0x51D JUMP JUMPDEST SWAP2 POP DUP3 PUSH1 0x2 MUL DUP3 OR SWAP1 POP SWAP3 SWAP2 POP POP JUMP JUMPDEST PUSH3 0x563 DUP3 PUSH3 0x32A JUMP JUMPDEST PUSH8 0xFFFFFFFFFFFFFFFF DUP2 GT ISZERO PUSH3 0x57F JUMPI PUSH3 0x57E PUSH3 0x11E JUMP JUMPDEST JUMPDEST PUSH3 0x58B DUP3 SLOAD PUSH3 0x361 JUMP JUMPDEST PUSH3 0x598 DUP3 DUP3 DUP6 PUSH3 0x4C1 JUMP JUMPDEST PUSH0 PUSH1 0x20 SWAP1 POP PUSH1 0x1F DUP4 GT PUSH1 0x1 DUP2 EQ PUSH3 0x5CE JUMPI PUSH0 DUP5 ISZERO PUSH3 0x5B9 JUMPI DUP3 DUP8 ADD MLOAD SWAP1 POP JUMPDEST PUSH3 0x5C5 DUP6 DUP3 PUSH3 0x53B JUMP JUMPDEST DUP7 SSTORE POP PUSH3 0x634 JUMP JUMPDEST PUSH1 0x1F NOT DUP5 AND PUSH3 0x5DE DUP7 PUSH3 0x395 JUMP JUMPDEST PUSH0 JUMPDEST DUP3 DUP2 LT ISZERO PUSH3 0x607 JUMPI DUP5 DUP10 ADD MLOAD DUP3 SSTORE PUSH1 0x1 DUP3 ADD SWAP2 POP PUSH1 0x20 DUP6 ADD SWAP5 POP PUSH1 0x20 DUP2 ADD SWAP1 POP PUSH3 0x5E0 JUMP JUMPDEST DUP7 DUP4 LT ISZERO PUSH3 0x627 JUMPI DUP5 DUP10 ADD MLOAD PUSH3 0x623 PUSH1 0x1F DUP10 AND DUP3 PUSH3 0x51D JUMP JUMPDEST DUP4 SSTORE POP JUMPDEST PUSH1 0x1 PUSH1 0x2 DUP9 MUL ADD DUP9 SSTORE POP POP POP JUMPDEST POP POP POP POP POP POP JUMP JUMPDEST PUSH0 DUP3 DUP3 MSTORE PUSH1 0x20 DUP3 ADD SWAP1 POP SWAP3 SWAP2 POP POP JUMP JUMPDEST PUSH0 PUSH3 0x658 DUP3 PUSH3 0x32A JUMP JUMPDEST PUSH3 0x664 DUP2 DUP6 PUSH3 0x63C JUMP JUMPDEST SWAP4 POP PUSH3 0x676 DUP2 DUP6 PUSH1 0x20 DUP7 ADD PUSH3 0x1D4 JUMP JUMPDEST PUSH3 0x681 DUP2 PUSH3 0x10E JUMP JUMPDEST DUP5 ADD SWAP2 POP POP SWAP3 SWAP2 POP POP JUMP JUMPDEST PUSH3 0x697 DUP2 PUSH3 0x27A JUMP JUMPDEST DUP3 MSTORE POP POP JUMP JUMPDEST PUSH0 PUSH1 0x60 DUP3 ADD SWAP1 POP DUP2 DUP2 SUB PUSH0 DUP4 ADD MSTORE PUSH3 0x6B7 DUP2 DUP7 PUSH3 0x64C JUMP JUMPDEST SWAP1 POP PUSH3 0x6C8 PUSH1 0x20 DUP4 ADD DUP6 PUSH3 0x68C JUMP JUMPDEST PUSH3 0x6D7 PUSH1 0x40 DUP4 ADD DUP5 PUSH3 0x68C JUMP JUMPDEST SWAP5 SWAP4 POP POP POP POP JUMP JUMPDEST PUSH2 0x14B5 DUP1 PUSH3 0x6ED PUSH0 CODECOPY PUSH0 RETURN INVALID PUSH1 0x80 PUSH1 0x40 MSTORE CALLVALUE DUP1 ISZERO PUSH2 0xF JUMPI PUSH0 DUP1 REVERT JUMPDEST POP PUSH1 0x4 CALLDATASIZE LT PUSH2 0xCD JUMPI PUSH0 CALLDATALOAD PUSH1 0xE0 SHR DUP1 PUSH4 0x665983EC GT PUSH2 0x8A JUMPI DUP1 PUSH4 0xCC54BCF2 GT PUSH2 0x64 JUMPI DUP1 PUSH4 0xCC54BCF2 EQ PUSH2 0x211 JUMPI DUP1 PUSH4 0xD866B0B6 EQ PUSH2 0x22F JUMPI DUP1 PUSH4 0xF1ADDA47 EQ PUSH2 0x25F JUMPI DUP1 PUSH4 0xFA540801 EQ PUSH2 0x27D JUMPI PUSH2 0xCD JUMP JUMPDEST DUP1 PUSH4 0x665983EC EQ PUSH2 0x1A7 JUMPI DUP1 PUSH4 0x8043C9C0 EQ PUSH2 0x1C3 JUMPI DUP1 PUSH4 0x97ABA7F9 EQ PUSH2 0x1E1 JUMPI PUSH2 0xCD JUMP JUMPDEST DUP1 PUSH4 0x1F5AC1B2 EQ PUSH2 0xD1 JUMPI DUP1 PUSH4 0x258C1EF5 EQ PUSH2 0x101 JUMPI DUP1 PUSH4 0x304C44D1 EQ PUSH2 0x131 JUMPI DUP1 PUSH4 0x4BFBE5DF EQ PUSH2 0x14D JUMPI DUP1 PUSH4 0x5F3D7FA1 EQ PUSH2 0x16B JUMPI DUP1 PUSH4 0x61203265 EQ PUSH2 0x189 JUMPI JUMPDEST PUSH0 DUP1 REVERT JUMPDEST PUSH2 0xEB PUSH1 0x4 DUP1 CALLDATASIZE SUB DUP2 ADD SWAP1 PUSH2 0xE6 SWAP2 SWAP1 PUSH2 0x951 JUMP JUMPDEST PUSH2 0x2AD JUMP JUMPDEST PUSH1 0x40 MLOAD PUSH2 0xF8 SWAP2 SWAP1 PUSH2 0x994 JUMP JUMPDEST PUSH1 0x40 MLOAD DUP1 SWAP2 SUB SWAP1 RETURN JUMPDEST PUSH2 0x11B PUSH1 0x4 DUP1 CALLDATASIZE SUB DUP2 ADD SWAP1 PUSH2 0x116 SWAP2 SWAP1 PUSH2 0xAE9 JUMP JUMPDEST PUSH2 0x2E0 JUMP JUMPDEST PUSH1 0x40 MLOAD PUSH2 0x128 SWAP2 SWAP1 PUSH2 0xB5D JUMP JUMPDEST PUSH1 0x40 MLOAD DUP1 SWAP2 SUB SWAP1 RETURN JUMPDEST PUSH2 0x14B PUSH1 0x4 DUP1 CALLDATASIZE SUB DUP2 ADD SWAP1 PUSH2 0x146 SWAP2 SWAP1 PUSH2 0xB76 JUMP JUMPDEST PUSH2 0x35C JUMP JUMPDEST STOP JUMPDEST PUSH2 0x155 PUSH2 0x5BE JUMP JUMPDEST PUSH1 0x40 MLOAD PUSH2 0x162 SWAP2 SWAP1 PUSH2 0xBD5 JUMP JUMPDEST PUSH1 0x40 MLOAD DUP1 SWAP2 SUB SWAP1 RETURN JUMPDEST PUSH2 0x173 PUSH2 0x5C4 JUMP JUMPDEST PUSH1 0x40 MLOAD PUSH2 0x180 SWAP2 SWAP1 PUSH2 0xBD5 JUMP JUMPDEST PUSH1 0x40 MLOAD DUP1 SWAP2 SUB SWAP1 RETURN JUMPDEST PUSH2 0x191 PUSH2 0x5CA JUMP JUMPDEST PUSH1 0x40 MLOAD PUSH2 0x19E SWAP2 SWAP1 PUSH2 0xBFD JUMP JUMPDEST PUSH1 0x40 MLOAD DUP1 SWAP2 SUB SWAP1 RETURN JUMPDEST PUSH2 0x1C1 PUSH1 0x4 DUP1 CALLDATASIZE SUB DUP2 ADD SWAP1 PUSH2 0x1BC SWAP2 SWAP1 PUSH2 0xC40 JUMP JUMPDEST PUSH2 0x5EF JUMP JUMPDEST STOP JUMPDEST PUSH2 0x1CB PUSH2 0x6D1 JUMP JUMPDEST PUSH1 0x40 MLOAD PUSH2 0x1D8 SWAP2 SWAP1 PUSH2 0xCE5 JUMP JUMPDEST PUSH1 0x40 MLOAD DUP1 SWAP2 SUB SWAP1 RETURN JUMPDEST PUSH2 0x1FB PUSH1 0x4 DUP1 CALLDATASIZE SUB DUP2 ADD SWAP1 PUSH2 0x1F6 SWAP2 SWAP1 PUSH2 0xD2F JUMP JUMPDEST PUSH2 0x75C JUMP JUMPDEST PUSH1 0x40 MLOAD PUSH2 0x208 SWAP2 SWAP1 PUSH2 0xBFD JUMP JUMPDEST PUSH1 0x40 MLOAD DUP1 SWAP2 SUB SWAP1 RETURN JUMPDEST PUSH2 0x219 PUSH2 0x882 JUMP JUMPDEST PUSH1 0x40 MLOAD PUSH2 0x226 SWAP2 SWAP1 PUSH2 0xB5D JUMP JUMPDEST PUSH1 0x40 MLOAD DUP1 SWAP2 SUB SWAP1 RETURN JUMPDEST PUSH2 0x249 PUSH1 0x4 DUP1 CALLDATASIZE SUB DUP2 ADD SWAP1 PUSH2 0x244 SWAP2 SWAP1 PUSH2 0x951 JUMP JUMPDEST PUSH2 0x894 JUMP JUMPDEST PUSH1 0x40 MLOAD PUSH2 0x256 SWAP2 SWAP1 PUSH2 0xB5D JUMP JUMPDEST PUSH1 0x40 MLOAD DUP1 SWAP2 SUB SWAP1 RETURN JUMPDEST PUSH2 0x267 PUSH2 0x8B1 JUMP JUMPDEST PUSH1 0x40 MLOAD PUSH2 0x274 SWAP2 SWAP1 PUSH2 0xBD5 JUMP JUMPDEST PUSH1 0x40 MLOAD DUP1 SWAP2 SUB SWAP1 RETURN JUMPDEST PUSH2 0x297 PUSH1 0x4 DUP1 CALLDATASIZE SUB DUP2 ADD SWAP1 PUSH2 0x292 SWAP2 SWAP1 PUSH2 0xD89 JUMP JUMPDEST PUSH2 0x8B7 JUMP JUMPDEST PUSH1 0x40 MLOAD PUSH2 0x2A4 SWAP2 SWAP1 PUSH2 0x994 JUMP JUMPDEST PUSH1 0x40 MLOAD DUP1 SWAP2 SUB SWAP1 RETURN JUMPDEST PUSH0 ADDRESS PUSH0 DUP4 PUSH1 0x40 MLOAD PUSH1 0x20 ADD PUSH2 0x2C3 SWAP4 SWAP3 SWAP2 SWAP1 PUSH2 0xEF2 JUMP JUMPDEST PUSH1 0x40 MLOAD PUSH1 0x20 DUP2 DUP4 SUB SUB DUP2 MSTORE SWAP1 PUSH1 0x40 MSTORE DUP1 MLOAD SWAP1 PUSH1 0x20 ADD KECCAK256 SWAP1 POP SWAP2 SWAP1 POP JUMP JUMPDEST PUSH0 DUP1 PUSH2 0x2EB DUP5 PUSH2 0x2AD JUMP JUMPDEST SWAP1 POP PUSH0 PUSH2 0x2F7 DUP3 PUSH2 0x8B7 JUMP JUMPDEST SWAP1 POP PUSH1 0x1 PUSH0 SWAP1 SLOAD SWAP1 PUSH2 0x100 EXP SWAP1 DIV PUSH20 0xFFFFFFFFFFFFFFFFFFFFFFFFFFFFFFFFFFFFFFFF AND PUSH20 0xFFFFFFFFFFFFFFFFFFFFFFFFFFFFFFFFFFFFFFFF AND PUSH2 0x33B DUP3 DUP7 PUSH2 0x75C JUMP JUMPDEST PUSH20 0xFFFFFFFFFFFFFFFFFFFFFFFFFFFFFFFFFFFFFFFF AND EQ SWAP3 POP POP POP SWAP3 SWAP2 POP POP JUMP JUMPDEST PUSH1 0x5 PUSH0 SWAP1 SLOAD SWAP1 PUSH2 0x100 EXP SWAP1 DIV PUSH1 0xFF AND PUSH2 0x3AA JUMPI PUSH1 0x40 MLOAD PUSH32 0x8C379A000000000000000000000000000000000000000000000000000000000 DUP2 MSTORE PUSH1 0x4 ADD PUSH2 0x3A1 SWAP1 PUSH2 0xF74 JUMP JUMPDEST PUSH1 0x40 MLOAD DUP1 SWAP2 SUB SWAP1 REVERT JUMPDEST PUSH3 0x15180 PUSH1 0x2 SLOAD PUSH2 0x3BB SWAP2 SWAP1 PUSH2 0xFBF JUMP JUMPDEST TIMESTAMP GT ISZERO PUSH2 0x3FD JUMPI PUSH1 0x40 MLOAD PUSH32 0x8C379A000000000000000000000000000000000000000000000000000000000 DUP2 MSTORE PUSH1 0x4 ADD PUSH2 0x3F4 SWAP1 PUSH2 0x103C JUMP JUMPDEST PUSH1 0x40 MLOAD DUP1 SWAP2 SUB SWAP1 REVERT JUMPDEST PUSH1 0x6 PUSH0 CALLER PUSH20 0xFFFFFFFFFFFFFFFFFFFFFFFFFFFFFFFFFFFFFFFF AND PUSH20 0xFFFFFFFFFFFFFFFFFFFFFFFFFFFFFFFFFFFFFFFF AND DUP2 MSTORE PUSH1 0x20 ADD SWAP1 DUP2 MSTORE PUSH1 0x20 ADD PUSH0 KECCAK256 PUSH0 SWAP1 SLOAD SWAP1 PUSH2 0x100 EXP SWAP1 DIV PUSH1 0xFF AND ISZERO PUSH2 0x487 JUMPI PUSH1 0x40 MLOAD PUSH32 0x8C379A000000000000000000000000000000000000000000000000000000000 DUP2 MSTORE PUSH1 0x4 ADD PUSH2 0x47E SWAP1 PUSH2 0x10A4 JUMP JUMPDEST PUSH1 0x40 MLOAD DUP1 SWAP2 SUB SWAP1 REVERT JUMPDEST PUSH1 0x3 SLOAD PUSH1 0x4 SLOAD LT PUSH2 0x4CD JUMPI PUSH1 0x40 MLOAD PUSH32 0x8C379A000000000000000000000000000000000000000000000000000000000 DUP2 MSTORE PUSH1 0x4 ADD PUSH2 0x4C4 SWAP1 PUSH2 0x110C JUMP JUMPDEST PUSH1 0x40 MLOAD DUP1 SWAP2 SUB SWAP1 REVERT JUMPDEST PUSH2 0x4D7 CALLER DUP3 PUSH2 0x2E0 JUMP JUMPDEST PUSH2 0x516 JUMPI PUSH1 0x40 MLOAD PUSH32 0x8C379A000000000000000000000000000000000000000000000000000000000 DUP2 MSTORE PUSH1 0x4 ADD PUSH2 0x50D SWAP1 PUSH2 0x1174 JUMP JUMPDEST PUSH1 0x40 MLOAD DUP1 SWAP2 SUB SWAP1 REVERT JUMPDEST PUSH1 0x1 PUSH1 0x6 PUSH0 CALLER PUSH20 0xFFFFFFFFFFFFFFFFFFFFFFFFFFFFFFFFFFFFFFFF AND PUSH20 0xFFFFFFFFFFFFFFFFFFFFFFFFFFFFFFFFFFFFFFFF AND DUP2 MSTORE PUSH1 0x20 ADD SWAP1 DUP2 MSTORE PUSH1 0x20 ADD PUSH0 KECCAK256 PUSH0 PUSH2 0x100 EXP DUP2 SLOAD DUP2 PUSH1 0xFF MUL NOT AND SWAP1 DUP4 ISZERO ISZERO MUL OR SWAP1 SSTORE POP PUSH1 0x4 PUSH0 DUP2 SLOAD DUP1 SWAP3 SWAP2 SWAP1 PUSH2 0x57D SWAP1 PUSH2 0x1192 JUMP JUMPDEST SWAP2 SWAP1 POP SSTORE POP PUSH32 0xC4B6AF862E5EDF86B47BBD28434015DFDDDFC6CE20EA8F6146DF2972B54DB5D5 CALLER TIMESTAMP PUSH1 0x40 MLOAD PUSH2 0x5B3 SWAP3 SWAP2 SWAP1 PUSH2 0x11D9 JUMP JUMPDEST PUSH1 0x40 MLOAD DUP1 SWAP2 SUB SWAP1 LOG1 POP JUMP JUMPDEST PUSH1 0x2 SLOAD DUP2 JUMP JUMPDEST PUSH1 0x3 SLOAD DUP2 JUMP JUMPDEST PUSH1 0x1 PUSH0 SWAP1 SLOAD SWAP1 PUSH2 0x100 EXP SWAP1 DIV PUSH20 0xFFFFFFFFFFFFFFFFFFFFFFFFFFFFFFFFFFFFFFFF AND DUP2 JUMP JUMPDEST PUSH1 0x1 PUSH0 SWAP1 SLOAD SWAP1 PUSH2 0x100 EXP SWAP1 DIV PUSH20 0xFFFFFFFFFFFFFFFFFFFFFFFFFFFFFFFFFFFFFFFF AND PUSH20 0xFFFFFFFFFFFFFFFFFFFFFFFFFFFFFFFFFFFFFFFF AND CALLER PUSH20 0xFFFFFFFFFFFFFFFFFFFFFFFFFFFFFFFFFFFFFFFF AND EQ PUSH2 0x67E JUMPI PUSH1 0x40 MLOAD PUSH32 0x8C379A000000000000000000000000000000000000000000000000000000000 DUP2 MSTORE PUSH1 0x4 ADD PUSH2 0x675 SWAP1 PUSH2 0x1270 JUMP JUMPDEST PUSH1 0x40 MLOAD DUP1 SWAP2 SUB SWAP1 REVERT JUMPDEST DUP1 PUSH1 0x5 PUSH0 PUSH2 0x100 EXP DUP2 SLOAD DUP2 PUSH1 0xFF MUL NOT AND SWAP1 DUP4 ISZERO ISZERO MUL OR SWAP1 SSTORE POP PUSH32 0x3B2459D109EA4EBE9F621A02C3324D4B06BCBB121B32094E9210C57575E2F150 DUP2 PUSH1 0x40 MLOAD PUSH2 0x6C6 SWAP2 SWAP1 PUSH2 0xB5D JUMP JUMPDEST PUSH1 0x40 MLOAD DUP1 SWAP2 SUB SWAP1 LOG1 POP JUMP JUMPDEST PUSH0 DUP1 SLOAD PUSH2 0x6DD SWAP1 PUSH2 0xE26 JUMP JUMPDEST DUP1 PUSH1 0x1F ADD PUSH1 0x20 DUP1 SWAP2 DIV MUL PUSH1 0x20 ADD PUSH1 0x40 MLOAD SWAP1 DUP2 ADD PUSH1 0x40 MSTORE DUP1 SWAP3 SWAP2 SWAP1 DUP2 DUP2 MSTORE PUSH1 0x20 ADD DUP3 DUP1 SLOAD PUSH2 0x709 SWAP1 PUSH2 0xE26 JUMP JUMPDEST DUP1 ISZERO PUSH2 0x754 JUMPI DUP1 PUSH1 0x1F LT PUSH2 0x72B JUMPI PUSH2 0x100 DUP1 DUP4 SLOAD DIV MUL DUP4 MSTORE SWAP2 PUSH1 0x20 ADD SWAP2 PUSH2 0x754 JUMP JUMPDEST DUP3 ADD SWAP2 SWAP1 PUSH0 MSTORE PUSH1 0x20 PUSH0 KECCAK256 SWAP1 JUMPDEST DUP2 SLOAD DUP2 MSTORE SWAP1 PUSH1 0x1 ADD SWAP1 PUSH1 0x20 ADD DUP1 DUP4 GT PUSH2 0x737 JUMPI DUP3 SWAP1 SUB PUSH1 0x1F AND DUP3 ADD SWAP2 JUMPDEST POP POP POP POP POP DUP2 JUMP JUMPDEST PUSH0 PUSH1 0x41 DUP3 MLOAD EQ PUSH2 0x7A1 JUMPI PUSH1 0x40 MLOAD PUSH32 0x8C379A000000000000000000000000000000000000000000000000000000000 DUP2 MSTORE PUSH1 0x4 ADD PUSH2 0x798 SWAP1 PUSH2 0x12D8 JUMP JUMPDEST PUSH1 0x40 MLOAD DUP1 SWAP2 SUB SWAP1 REVERT JUMPDEST PUSH0 DUP1 PUSH0 PUSH1 0x20 DUP6 ADD MLOAD SWAP3 POP PUSH1 0x40 DUP6 ADD MLOAD SWAP2 POP PUSH1 0x60 DUP6 ADD MLOAD PUSH0 BYTE SWAP1 POP PUSH1 0x1B DUP2 PUSH1 0xFF AND LT ISZERO PUSH2 0x7D7 JUMPI PUSH1 0x1B DUP2 PUSH2 0x7D4 SWAP2 SWAP1 PUSH2 0x1302 JUMP JUMPDEST SWAP1 POP JUMPDEST PUSH1 0x1B DUP2 PUSH1 0xFF AND EQ DUP1 PUSH2 0x7EC JUMPI POP PUSH1 0x1C DUP2 PUSH1 0xFF AND EQ JUMPDEST PUSH2 0x82B JUMPI PUSH1 0x40 MLOAD PUSH32 0x8C379A000000000000000000000000000000000000000000000000000000000 DUP2 MSTORE PUSH1 0x4 ADD PUSH2 0x822 SWAP1 PUSH2 0x1380 JUMP JUMPDEST PUSH1 0x40 MLOAD DUP1 SWAP2 SUB SWAP1 REVERT JUMPDEST PUSH1 0x1 DUP7 DUP3 DUP6 DUP6 PUSH1 0x40 MLOAD PUSH0 DUP2 MSTORE PUSH1 0x20 ADD PUSH1 0x40 MSTORE PUSH1 0x40 MLOAD PUSH2 0x84D SWAP5 SWAP4 SWAP3 SWAP2 SWAP1 PUSH2 0x13AD JUMP JUMPDEST PUSH1 0x20 PUSH1 0x40 MLOAD PUSH1 0x20 DUP2 SUB SWAP1 DUP1 DUP5 SUB SWAP1 DUP6 GAS STATICCALL ISZERO DUP1 ISZERO PUSH2 0x86D JUMPI RETURNDATASIZE PUSH0 DUP1 RETURNDATACOPY RETURNDATASIZE PUSH0 REVERT JUMPDEST POP POP POP PUSH1 0x20 PUSH1 0x40 MLOAD SUB MLOAD SWAP4 POP POP POP POP SWAP3 SWAP2 POP POP JUMP JUMPDEST PUSH1 0x5 PUSH0 SWAP1 SLOAD SWAP1 PUSH2 0x100 EXP SWAP1 DIV PUSH1 0xFF AND DUP2 JUMP JUMPDEST PUSH1 0x6 PUSH1 0x20 MSTORE DUP1 PUSH0 MSTORE PUSH1 0x40 PUSH0 KECCAK256 PUSH0 SWAP2 POP SLOAD SWAP1 PUSH2 0x100 EXP SWAP1 DIV PUSH1 0xFF AND DUP2 JUMP JUMPDEST PUSH1 0x4 SLOAD DUP2 JUMP JUMPDEST PUSH0 DUP2 PUSH1 0x40 MLOAD PUSH1 0x20 ADD PUSH2 0x8C9 SWAP2 SWAP1 PUSH2 0x145A JUMP JUMPDEST PUSH1 0x40 MLOAD PUSH1 0x20 DUP2 DUP4 SUB SUB DUP2 MSTORE SWAP1 PUSH1 0x40 MSTORE DUP1 MLOAD SWAP1 PUSH1 0x20 ADD KECCAK256 SWAP1 POP SWAP2 SWAP1 POP JUMP JUMPDEST PUSH0 PUSH1 0x40 MLOAD SWAP1 POP SWAP1 JUMP JUMPDEST PUSH0 DUP1 REVERT JUMPDEST PUSH0 DUP1 REVERT JUMPDEST PUSH0 PUSH20 0xFFFFFFFFFFFFFFFFFFFFFFFFFFFFFFFFFFFFFFFF DUP3 AND SWAP1 POP SWAP2 SWAP1 POP JUMP JUMPDEST PUSH0 PUSH2 0x920 DUP3 PUSH2 0x8F7 JUMP JUMPDEST SWAP1 POP SWAP2 SWAP1 POP JUMP JUMPDEST PUSH2 0x930 DUP2 PUSH2 0x916 JUMP JUMPDEST DUP2 EQ PUSH2 0x93A JUMPI PUSH0 DUP1 REVERT JUMPDEST POP JUMP JUMPDEST PUSH0 DUP2 CALLDATALOAD SWAP1 POP PUSH2 0x94B DUP2 PUSH2 0x927 JUMP JUMPDEST SWAP3 SWAP2 POP POP JUMP JUMPDEST PUSH0 PUSH1 0x20 DUP3 DUP5 SUB SLT ISZERO PUSH2 0x966 JUMPI PUSH2 0x965 PUSH2 0x8EF JUMP JUMPDEST JUMPDEST PUSH0 PUSH2 0x973 DUP5 DUP3 DUP6 ADD PUSH2 0x93D JUMP JUMPDEST SWAP2 POP POP SWAP3 SWAP2 POP POP JUMP JUMPDEST PUSH0 DUP2 SWAP1 POP SWAP2 SWAP1 POP JUMP JUMPDEST PUSH2 0x98E DUP2 PUSH2 0x97C JUMP JUMPDEST DUP3 MSTORE POP POP JUMP JUMPDEST PUSH0 PUSH1 0x20 DUP3 ADD SWAP1 POP PUSH2 0x9A7 PUSH0 DUP4 ADD DUP5 PUSH2 0x985 JUMP JUMPDEST SWAP3 SWAP2 POP POP JUMP JUMPDEST PUSH0 DUP1 REVERT JUMPDEST PUSH0 DUP1 REVERT JUMPDEST PUSH0 PUSH1 0x1F NOT PUSH1 0x1F DUP4 ADD AND SWAP1 POP SWAP2 SWAP1 POP JUMP JUMPDEST PUSH32 0x4E487B7100000000000000000000000000000000000000000000000000000000 PUSH0 MSTORE PUSH1 0x41 PUSH1 0x4 MSTORE PUSH1 0x24 PUSH0 REVERT JUMPDEST PUSH2 0x9FB DUP3 PUSH2 0x9B5 JUMP JUMPDEST DUP2 ADD DUP2 DUP2 LT PUSH8 0xFFFFFFFFFFFFFFFF DUP3 GT OR ISZERO PUSH2 0xA1A JUMPI PUSH2 0xA19 PUSH2 0x9C5 JUMP JUMPDEST JUMPDEST DUP1 PUSH1 0x40 MSTORE POP POP POP JUMP JUMPDEST PUSH0 PUSH2 0xA2C PUSH2 0x8E6 JUMP JUMPDEST SWAP1 POP PUSH2 0xA38 DUP3 DUP3 PUSH2 0x9F2 JUMP JUMPDEST SWAP2 SWAP1 POP JUMP JUMPDEST PUSH0 PUSH8 0xFFFFFFFFFFFFFFFF DUP3 GT ISZERO PUSH2 0xA57 JUMPI PUSH2 0xA56 PUSH2 0x9C5 JUMP JUMPDEST JUMPDEST PUSH2 0xA60 DUP3 PUSH2 0x9B5 JUMP JUMPDEST SWAP1 POP PUSH1 0x20 DUP2 ADD SWAP1 POP SWAP2 SWAP1 POP JUMP JUMPDEST DUP3 DUP2 DUP4 CALLDATACOPY PUSH0 DUP4 DUP4 ADD MSTORE POP POP POP JUMP JUMPDEST PUSH0 PUSH2 0xA8D PUSH2 0xA88 DUP5 PUSH2 0xA3D JUMP JUMPDEST PUSH2 0xA23 JUMP JUMPDEST SWAP1 POP DUP3 DUP2 MSTORE PUSH1 0x20 DUP2 ADD DUP5 DUP5 DUP5 ADD GT ISZERO PUSH2 0xAA9 JUMPI PUSH2 0xAA8 PUSH2 0x9B1 JUMP JUMPDEST JUMPDEST PUSH2 0xAB4 DUP5 DUP3 DUP6 PUSH2 0xA6D JUMP JUMPDEST POP SWAP4 SWAP3 POP POP POP JUMP JUMPDEST PUSH0 DUP3 PUSH1 0x1F DUP4 ADD SLT PUSH2 0xAD0 JUMPI PUSH2 0xACF PUSH2 0x9AD JUMP JUMPDEST JUMPDEST DUP2 CALLDATALOAD PUSH2 0xAE0 DUP5 DUP3 PUSH1 0x20 DUP7 ADD PUSH2 0xA7B JUMP JUMPDEST SWAP2 POP POP SWAP3 SWAP2 POP POP JUMP JUMPDEST PUSH0 DUP1 PUSH1 0x40 DUP4 DUP6 SUB SLT ISZERO PUSH2 0xAFF JUMPI PUSH2 0xAFE PUSH2 0x8EF JUMP JUMPDEST JUMPDEST PUSH0 PUSH2 0xB0C DUP6 DUP3 DUP7 ADD PUSH2 0x93D JUMP JUMPDEST SWAP3 POP POP PUSH1 0x20 DUP4 ADD CALLDATALOAD PUSH8 0xFFFFFFFFFFFFFFFF DUP2 GT ISZERO PUSH2 0xB2D JUMPI PUSH2 0xB2C PUSH2 0x8F3 JUMP JUMPDEST JUMPDEST PUSH2 0xB39 DUP6 DUP3 DUP7 ADD PUSH2 0xABC JUMP JUMPDEST SWAP2 POP POP SWAP3 POP SWAP3 SWAP1 POP JUMP JUMPDEST PUSH0 DUP2 ISZERO ISZERO SWAP1 POP SWAP2 SWAP1 POP JUMP JUMPDEST PUSH2 0xB57 DUP2 PUSH2 0xB43 JUMP JUMPDEST DUP3 MSTORE POP POP JUMP JUMPDEST PUSH0 PUSH1 0x20 DUP3 ADD SWAP1 POP PUSH2 0xB70 PUSH0 DUP4 ADD DUP5 PUSH2 0xB4E JUMP JUMPDEST SWAP3 SWAP2 POP POP JUMP JUMPDEST PUSH0 PUSH1 0x20 DUP3 DUP5 SUB SLT ISZERO PUSH2 0xB8B JUMPI PUSH2 0xB8A PUSH2 0x8EF JUMP JUMPDEST JUMPDEST PUSH0 DUP3 ADD CALLDATALOAD PUSH8 0xFFFFFFFFFFFFFFFF DUP2 GT ISZERO PUSH2 0xBA8 JUMPI PUSH2 0xBA7 PUSH2 0x8F3 JUMP JUMPDEST JUMPDEST PUSH2 0xBB4 DUP5 DUP3 DUP6 ADD PUSH2 0xABC JUMP JUMPDEST SWAP2 POP POP SWAP3 SWAP2 POP POP JUMP JUMPDEST PUSH0 DUP2 SWAP1 POP SWAP2 SWAP1 POP JUMP JUMPDEST PUSH2 0xBCF DUP2 PUSH2 0xBBD JUMP JUMPDEST DUP3 MSTORE POP POP JUMP JUMPDEST PUSH0 PUSH1 0x20 DUP3 ADD SWAP1 POP PUSH2 0xBE8 PUSH0 DUP4 ADD DUP5 PUSH2 0xBC6 JUMP JUMPDEST SWAP3 SWAP2 POP POP JUMP JUMPDEST PUSH2 0xBF7 DUP2 PUSH2 0x916 JUMP JUMPDEST DUP3 MSTORE POP POP JUMP JUMPDEST PUSH0 PUSH1 0x20 DUP3 ADD SWAP1 POP PUSH2 0xC10 PUSH0 DUP4 ADD DUP5 PUSH2 0xBEE JUMP JUMPDEST SWAP3 SWAP2 POP POP JUMP JUMPDEST PUSH2 0xC1F DUP2 PUSH2 0xB43 JUMP JUMPDEST DUP2 EQ PUSH2 0xC29 JUMPI PUSH0 DUP1 REVERT JUMPDEST POP JUMP JUMPDEST PUSH0 DUP2 CALLDATALOAD SWAP1 POP PUSH2 0xC3A DUP2 PUSH2 0xC16 JUMP JUMPDEST SWAP3 SWAP2 POP POP JUMP JUMPDEST PUSH0 PUSH1 0x20 DUP3 DUP5 SUB SLT ISZERO PUSH2 0xC55 JUMPI PUSH2 0xC54 PUSH2 0x8EF JUMP JUMPDEST JUMPDEST PUSH0 PUSH2 0xC62 DUP5 DUP3 DUP6 ADD PUSH2 0xC2C JUMP JUMPDEST SWAP2 POP POP SWAP3 SWAP2 POP POP JUMP JUMPDEST PUSH0 DUP2 MLOAD SWAP1 POP SWAP2 SWAP1 POP JUMP JUMPDEST PUSH0 DUP3 DUP3 MSTORE PUSH1 0x20 DUP3 ADD SWAP1 POP SWAP3 SWAP2 POP POP JUMP JUMPDEST PUSH0 JUMPDEST DUP4 DUP2 LT ISZERO PUSH2 0xCA2 JUMPI DUP1 DUP3 ADD MLOAD DUP2 DUP5 ADD MSTORE PUSH1 0x20 DUP2 ADD SWAP1 POP PUSH2 0xC87 JUMP JUMPDEST PUSH0 DUP5 DUP5 ADD MSTORE POP POP POP POP JUMP JUMPDEST PUSH0 PUSH2 0xCB7 DUP3 PUSH2 0xC6B JUMP JUMPDEST PUSH2 0xCC1 DUP2 DUP6 PUSH2 0xC75 JUMP JUMPDEST SWAP4 POP PUSH2 0xCD1 DUP2 DUP6 PUSH1 0x20 DUP7 ADD PUSH2 0xC85 JUMP JUMPDEST PUSH2 0xCDA DUP2 PUSH2 0x9B5 JUMP JUMPDEST DUP5 ADD SWAP2 POP POP SWAP3 SWAP2 POP POP JUMP JUMPDEST PUSH0 PUSH1 0x20 DUP3 ADD SWAP1 POP DUP2 DUP2 SUB PUSH0 DUP4 ADD MSTORE PUSH2 0xCFD DUP2 DUP5 PUSH2 0xCAD JUMP JUMPDEST SWAP1 POP SWAP3 SWAP2 POP POP JUMP JUMPDEST PUSH2 0xD0E DUP2 PUSH2 0x97C JUMP JUMPDEST DUP2 EQ PUSH2 0xD18 JUMPI PUSH0 DUP1 REVERT JUMPDEST POP JUMP JUMPDEST PUSH0 DUP2 CALLDATALOAD SWAP1 POP PUSH2 0xD29 DUP2 PUSH2 0xD05 JUMP JUMPDEST SWAP3 SWAP2 POP POP JUMP JUMPDEST PUSH0 DUP1 PUSH1 0x40 DUP4 DUP6 SUB SLT ISZERO PUSH2 0xD45 JUMPI PUSH2 0xD44 PUSH2 0x8EF JUMP JUMPDEST JUMPDEST PUSH0 PUSH2 0xD52 DUP6 DUP3 DUP7 ADD PUSH2 0xD1B JUMP JUMPDEST SWAP3 POP POP PUSH1 0x20 DUP4 ADD CALLDATALOAD PUSH8 0xFFFFFFFFFFFFFFFF DUP2 GT ISZERO PUSH2 0xD73 JUMPI PUSH2 0xD72 PUSH2 0x8F3 JUMP JUMPDEST JUMPDEST PUSH2 0xD7F DUP6 DUP3 DUP7 ADD PUSH2 0xABC JUMP JUMPDEST SWAP2 POP POP SWAP3 POP SWAP3 SWAP1 POP JUMP JUMPDEST PUSH0 PUSH1 0x20 DUP3 DUP5 SUB SLT ISZERO PUSH2 0xD9E JUMPI PUSH2 0xD9D PUSH2 0x8EF JUMP JUMPDEST JUMPDEST PUSH0 PUSH2 0xDAB DUP5 DUP3 DUP6 ADD PUSH2 0xD1B JUMP JUMPDEST SWAP2 POP POP SWAP3 SWAP2 POP POP JUMP JUMPDEST PUSH0 DUP2 PUSH1 0x60 SHL SWAP1 POP SWAP2 SWAP1 POP JUMP JUMPDEST PUSH0 PUSH2 0xDCA DUP3 PUSH2 0xDB4 JUMP JUMPDEST SWAP1 POP SWAP2 SWAP1 POP JUMP JUMPDEST PUSH0 PUSH2 0xDDB DUP3 PUSH2 0xDC0 JUMP JUMPDEST SWAP1 POP SWAP2 SWAP1 POP JUMP JUMPDEST PUSH2 0xDF3 PUSH2 0xDEE DUP3 PUSH2 0x916 JUMP JUMPDEST PUSH2 0xDD1 JUMP JUMPDEST DUP3 MSTORE POP POP JUMP JUMPDEST PUSH32 0x4E487B7100000000000000000000000000000000000000000000000000000000 PUSH0 MSTORE PUSH1 0x22 PUSH1 0x4 MSTORE PUSH1 0x24 PUSH0 REVERT JUMPDEST PUSH0 PUSH1 0x2 DUP3 DIV SWAP1 POP PUSH1 0x1 DUP3 AND DUP1 PUSH2 0xE3D JUMPI PUSH1 0x7F DUP3 AND SWAP2 POP JUMPDEST PUSH1 0x20 DUP3 LT DUP2 SUB PUSH2 0xE50 JUMPI PUSH2 0xE4F PUSH2 0xDF9 JUMP JUMPDEST JUMPDEST POP SWAP2 SWAP1 POP JUMP JUMPDEST PUSH0 DUP2 SWAP1 POP SWAP3 SWAP2 POP POP JUMP JUMPDEST PUSH0 DUP2 SWAP1 POP DUP2 PUSH0 MSTORE PUSH1 0x20 PUSH0 KECCAK256 SWAP1 POP SWAP2 SWAP1 POP JUMP JUMPDEST PUSH0 DUP2 SLOAD PUSH2 0xE7E DUP2 PUSH2 0xE26 JUMP JUMPDEST PUSH2 0xE88 DUP2 DUP7 PUSH2 0xE56 JUMP JUMPDEST SWAP5 POP PUSH1 0x1 DUP3 AND PUSH0 DUP2 EQ PUSH2 0xEA2 JUMPI PUSH1 0x1 DUP2 EQ PUSH2 0xEB7 JUMPI PUSH2 0xEE9 JUMP JUMPDEST PUSH1 0xFF NOT DUP4 AND DUP7 MSTORE DUP2 ISZERO ISZERO DUP3 MUL DUP7 ADD SWAP4 POP PUSH2 0xEE9 JUMP JUMPDEST PUSH2 0xEC0 DUP6 PUSH2 0xE60 JUMP JUMPDEST PUSH0 JUMPDEST DUP4 DUP2 LT ISZERO PUSH2 0xEE1 JUMPI DUP2 SLOAD DUP2 DUP10 ADD MSTORE PUSH1 0x1 DUP3 ADD SWAP2 POP PUSH1 0x20 DUP2 ADD SWAP1 POP PUSH2 0xEC2 JUMP JUMPDEST DUP4 DUP9 ADD SWAP6 POP POP POP JUMPDEST POP POP POP SWAP3 SWAP2 POP POP JUMP JUMPDEST PUSH0 PUSH2 0xEFD DUP3 DUP7 PUSH2 0xDE2 JUMP JUMPDEST PUSH1 0x14 DUP3 ADD SWAP2 POP PUSH2 0xF0D DUP3 DUP6 PUSH2 0xE72 JUMP JUMPDEST SWAP2 POP PUSH2 0xF19 DUP3 DUP5 PUSH2 0xDE2 JUMP JUMPDEST PUSH1 0x14 DUP3 ADD SWAP2 POP DUP2 SWAP1 POP SWAP5 SWAP4 POP POP POP POP JUMP JUMPDEST PUSH32 0x4576656E74206973206E6F742061637469766500000000000000000000000000 PUSH0 DUP3 ADD MSTORE POP JUMP JUMPDEST PUSH0 PUSH2 0xF5E PUSH1 0x13 DUP4 PUSH2 0xC75 JUMP JUMPDEST SWAP2 POP PUSH2 0xF69 DUP3 PUSH2 0xF2A JUMP JUMPDEST PUSH1 0x20 DUP3 ADD SWAP1 POP SWAP2 SWAP1 POP JUMP JUMPDEST PUSH0 PUSH1 0x20 DUP3 ADD SWAP1 POP DUP2 DUP2 SUB PUSH0 DUP4 ADD MSTORE PUSH2 0xF8B DUP2 PUSH2 0xF52 JUMP JUMPDEST SWAP1 POP SWAP2 SWAP1 POP JUMP JUMPDEST PUSH32 0x4E487B7100000000000000000000000000000000000000000000000000000000 PUSH0 MSTORE PUSH1 0x11 PUSH1 0x4 MSTORE PUSH1 0x24 PUSH0 REVERT JUMPDEST PUSH0 PUSH2 0xFC9 DUP3 PUSH2 0xBBD JUMP JUMPDEST SWAP2 POP PUSH2 0xFD4 DUP4 PUSH2 0xBBD JUMP JUMPDEST SWAP3 POP DUP3 DUP3 ADD SWAP1 POP DUP1 DUP3 GT ISZERO PUSH2 0xFEC JUMPI PUSH2 0xFEB PUSH2 0xF92 JUMP JUMPDEST JUMPDEST SWAP3 SWAP2 POP POP JUMP JUMPDEST PUSH32 0x4576656E742068617320656E6465640000000000000000000000000000000000 PUSH0 DUP3 ADD MSTORE POP JUMP JUMPDEST PUSH0 PUSH2 0x1026 PUSH1 0xF DUP4 PUSH2 0xC75 JUMP JUMPDEST SWAP2 POP PUSH2 0x1031 DUP3 PUSH2 0xFF2 JUMP JUMPDEST PUSH1 0x20 DUP3 ADD SWAP1 POP SWAP2 SWAP1 POP JUMP JUMPDEST PUSH0 PUSH1 0x20 DUP3 ADD SWAP1 POP DUP2 DUP2 SUB PUSH0 DUP4 ADD MSTORE PUSH2 0x1053 DUP2 PUSH2 0x101A JUMP JUMPDEST SWAP1 POP SWAP2 SWAP1 POP JUMP JUMPDEST PUSH32 0x417474656E6465652068617320616C726561647920636865636B656420696E00 PUSH0 DUP3 ADD MSTORE POP JUMP JUMPDEST PUSH0 PUSH2 0x108E PUSH1 0x1F DUP4 PUSH2 0xC75 JUMP JUMPDEST SWAP2 POP PUSH2 0x1099 DUP3 PUSH2 0x105A JUMP JUMPDEST PUSH1 0x20 DUP3 ADD SWAP1 POP SWAP2 SWAP1 POP JUMP JUMPDEST PUSH0 PUSH1 0x20 DUP3 ADD SWAP1 POP DUP2 DUP2 SUB PUSH0 DUP4 ADD MSTORE PUSH2 0x10BB DUP2 PUSH2 0x1082 JUMP JUMPDEST SWAP1 POP SWAP2 SWAP1 POP JUMP JUMPDEST PUSH32 0x4D6178696D756D20617474656E64656573207265616368656400000000000000 PUSH0 DUP3 ADD MSTORE POP JUMP JUMPDEST PUSH0 PUSH2 0x10F6 PUSH1 0x19 DUP4 PUSH2 0xC75 JUMP JUMPDEST SWAP2 POP PUSH2 0x1101 DUP3 PUSH2 0x10C2 JUMP JUMPDEST PUSH1 0x20 DUP3 ADD SWAP1 POP SWAP2 SWAP1 POP JUMP JUMPDEST PUSH0 PUSH1 0x20 DUP3 ADD SWAP1 POP DUP2 DUP2 SUB PUSH0 DUP4 ADD MSTORE PUSH2 0x1123 DUP2 PUSH2 0x10EA JUMP JUMPDEST SWAP1 POP SWAP2 SWAP1 POP JUMP JUMPDEST PUSH32 0x496E76616C6964207369676E6174757265000000000000000000000000000000 PUSH0 DUP3 ADD MSTORE POP JUMP JUMPDEST PUSH0 PUSH2 0x115E PUSH1 0x11 DUP4 PUSH2 0xC75 JUMP JUMPDEST SWAP2 POP PUSH2 0x1169 DUP3 PUSH2 0x112A JUMP JUMPDEST PUSH1 0x20 DUP3 ADD SWAP1 POP SWAP2 SWAP1 POP JUMP JUMPDEST PUSH0 PUSH1 0x20 DUP3 ADD SWAP1 POP DUP2 DUP2 SUB PUSH0 DUP4 ADD MSTORE PUSH2 0x118B DUP2 PUSH2 0x1152 JUMP JUMPDEST SWAP1 POP SWAP2 SWAP1 POP JUMP JUMPDEST PUSH0 PUSH2 0x119C DUP3 PUSH2 0xBBD JUMP JUMPDEST SWAP2 POP PUSH32 0xFFFFFFFFFFFFFFFFFFFFFFFFFFFFFFFFFFFFFFFFFFFFFFFFFFFFFFFFFFFFFFFF DUP3 SUB PUSH2 0x11CE JUMPI PUSH2 0x11CD PUSH2 0xF92 JUMP JUMPDEST JUMPDEST PUSH1 0x1 DUP3 ADD SWAP1 POP SWAP2 SWAP1 POP JUMP JUMPDEST PUSH0 PUSH1 0x40 DUP3 ADD SWAP1 POP PUSH2 0x11EC PUSH0 DUP4 ADD DUP6 PUSH2 0xBEE JUMP JUMPDEST PUSH2 0x11F9 PUSH1 0x20 DUP4 ADD DUP5 PUSH2 0xBC6 JUMP JUMPDEST SWAP4 SWAP3 POP POP POP JUMP JUMPDEST PUSH32 0x4F6E6C7920746865206576656E74206F7267616E697A65722063616E2063616C PUSH0 DUP3 ADD MSTORE PUSH32 0x6C20746869732066756E6374696F6E0000000000000000000000000000000000 PUSH1 0x20 DUP3 ADD MSTORE POP JUMP JUMPDEST PUSH0 PUSH2 0x125A PUSH1 0x2F DUP4 PUSH2 0xC75 JUMP JUMPDEST SWAP2 POP PUSH2 0x1265 DUP3 PUSH2 0x1200 JUMP JUMPDEST PUSH1 0x40 DUP3 ADD SWAP1 POP SWAP2 SWAP1 POP JUMP JUMPDEST PUSH0 PUSH1 0x20 DUP3 ADD SWAP1 POP DUP2 DUP2 SUB PUSH0 DUP4 ADD MSTORE PUSH2 0x1287 DUP2 PUSH2 0x124E JUMP JUMPDEST SWAP1 POP SWAP2 SWAP1 POP JUMP JUMPDEST PUSH32 0x496E76616C6964207369676E6174757265206C656E6774680000000000000000 PUSH0 DUP3 ADD MSTORE POP JUMP JUMPDEST PUSH0 PUSH2 0x12C2 PUSH1 0x18 DUP4 PUSH2 0xC75 JUMP JUMPDEST SWAP2 POP PUSH2 0x12CD DUP3 PUSH2 0x128E JUMP JUMPDEST PUSH1 0x20 DUP3 ADD SWAP1 POP SWAP2 SWAP1 POP JUMP JUMPDEST PUSH0 PUSH1 0x20 DUP3 ADD SWAP1 POP DUP2 DUP2 SUB PUSH0 DUP4 ADD MSTORE PUSH2 0x12EF DUP2 PUSH2 0x12B6 JUMP JUMPDEST SWAP1 POP SWAP2 SWAP1 POP JUMP JUMPDEST PUSH0 PUSH1 0xFF DUP3 AND SWAP1 POP SWAP2 SWAP1 POP JUMP JUMPDEST PUSH0 PUSH2 0x130C DUP3 PUSH2 0x12F6 JUMP JUMPDEST SWAP2 POP PUSH2 0x1317 DUP4 PUSH2 0x12F6 JUMP JUMPDEST SWAP3 POP DUP3 DUP3 ADD SWAP1 POP PUSH1 0xFF DUP2 GT ISZERO PUSH2 0x1330 JUMPI PUSH2 0x132F PUSH2 0xF92 JUMP JUMPDEST JUMPDEST SWAP3 SWAP2 POP POP JUMP JUMPDEST PUSH32 0x496E76616C6964207369676E6174757265202776272076616C75650000000000 PUSH0 DUP3 ADD MSTORE POP JUMP JUMPDEST PUSH0 PUSH2 0x136A PUSH1 0x1B DUP4 PUSH2 0xC75 JUMP JUMPDEST SWAP2 POP PUSH2 0x1375 DUP3 PUSH2 0x1336 JUMP JUMPDEST PUSH1 0x20 DUP3 ADD SWAP1 POP SWAP2 SWAP1 POP JUMP JUMPDEST PUSH0 PUSH1 0x20 DUP3 ADD SWAP1 POP DUP2 DUP2 SUB PUSH0 DUP4 ADD MSTORE PUSH2 0x1397 DUP2 PUSH2 0x135E JUMP JUMPDEST SWAP1 POP SWAP2 SWAP1 POP JUMP JUMPDEST PUSH2 0x13A7 DUP2 PUSH2 0x12F6 JUMP JUMPDEST DUP3 MSTORE POP POP JUMP JUMPDEST PUSH0 PUSH1 0x80 DUP3 ADD SWAP1 POP PUSH2 0x13C0 PUSH0 DUP4 ADD DUP8 PUSH2 0x985 JUMP JUMPDEST PUSH2 0x13CD PUSH1 0x20 DUP4 ADD DUP7 PUSH2 0x139E JUMP JUMPDEST PUSH2 0x13DA PUSH1 0x40 DUP4 ADD DUP6 PUSH2 0x985 JUMP JUMPDEST PUSH2 0x13E7 PUSH1 0x60 DUP4 ADD DUP5 PUSH2 0x985 JUMP JUMPDEST SWAP6 SWAP5 POP POP POP POP POP JUMP JUMPDEST PUSH32 0x19457468657265756D205369676E6564204D6573736167653A0A333200000000 PUSH0 DUP3 ADD MSTORE POP JUMP JUMPDEST PUSH0 PUSH2 0x1424 PUSH1 0x1C DUP4 PUSH2 0xE56 JUMP JUMPDEST SWAP2 POP PUSH2 0x142F DUP3 PUSH2 0x13F0 JUMP JUMPDEST PUSH1 0x1C DUP3 ADD SWAP1 POP SWAP2 SWAP1 POP JUMP JUMPDEST PUSH0 DUP2 SWAP1 POP SWAP2 SWAP1 POP JUMP JUMPDEST PUSH2 0x1454 PUSH2 0x144F DUP3 PUSH2 0x97C JUMP JUMPDEST PUSH2 0x143A JUMP JUMPDEST DUP3 MSTORE POP POP JUMP JUMPDEST PUSH0 PUSH2 0x1464 DUP3 PUSH2 0x1418 JUMP JUMPDEST SWAP2 POP PUSH2 0x1470 DUP3 DUP5 PUSH2 0x1443 JUMP JUMPDEST PUSH1 0x20 DUP3 ADD SWAP2 POP DUP2 SWAP1 POP SWAP3 SWAP2 POP POP JUMP INVALID LOG2 PUSH5 0x6970667358 0x22 SLT KECCAK256 PUSH23 0xAE74CA20BC1A6BFA060C55AE7E173179139BE2BB3DEC92 0x21 0xB1 BASEFEE 0xE9 DIV 0xDD CALLCODE OR PUSH5 0x736F6C6343 STOP ADDMOD XOR STOP CALLER "
				},
				"gasEstimates": {
					"creation": {
						"codeDepositCost": "1060200",
						"executionCost": "infinite",
						"totalCost": "infinite"
					},
					"external": {
						"attendeeCount()": "2491",
						"checkIn(bytes)": "infinite",
						"eventDate()": "2492",
						"eventName()": "infinite",
						"getEthSignedMessageHash(bytes32)": "infinite",
						"getMessageHash(address)": "infinite",
						"hasAttended(address)": "2877",
						"isEventActive()": "2488",
						"maxAttendees()": "2514",
						"organizer()": "2619",
						"recoverSigner(bytes32,bytes)": "infinite",
						"setEventStatus(bool)": "infinite",
						"verifySignature(address,bytes)": "infinite"
					}
				},
				"methodIdentifiers": {
					"attendeeCount()": "f1adda47",
					"checkIn(bytes)": "304c44d1",
					"eventDate()": "4bfbe5df",
					"eventName()": "8043c9c0",
					"getEthSignedMessageHash(bytes32)": "fa540801",
					"getMessageHash(address)": "1f5ac1b2",
					"hasAttended(address)": "d866b0b6",
					"isEventActive()": "cc54bcf2",
					"maxAttendees()": "5f3d7fa1",
					"organizer()": "61203265",
					"recoverSigner(bytes32,bytes)": "97aba7f9",
					"setEventStatus(bool)": "665983ec",
					"verifySignature(address,bytes)": "258c1ef5"
				}
			},
			"storageLayout": {
				"storage": [
					{
						"astId": 3,
						"contract": "Day 19/EventEntry.sol:EventEntry",
						"label": "eventName",
						"offset": 0,
						"slot": "0",
						"type": "t_string_storage"
					},
					{
						"astId": 5,
						"contract": "Day 19/EventEntry.sol:EventEntry",
						"label": "organizer",
						"offset": 0,
						"slot": "1",
						"type": "t_address"
					},
					{
						"astId": 7,
						"contract": "Day 19/EventEntry.sol:EventEntry",
						"label": "eventDate",
						"offset": 0,
						"slot": "2",
						"type": "t_uint256"
					},
					{
						"astId": 9,
						"contract": "Day 19/EventEntry.sol:EventEntry",
						"label": "maxAttendees",
						"offset": 0,
						"slot": "3",
						"type": "t_uint256"
					},
					{
						"astId": 11,
						"contract": "Day 19/EventEntry.sol:EventEntry",
						"label": "attendeeCount",
						"offset": 0,
						"slot": "4",
						"type": "t_uint256"
					},
					{
						"astId": 13,
						"contract": "Day 19/EventEntry.sol:EventEntry",
						"label": "isEventActive",
						"offset": 0,
						"slot": "5",
						"type": "t_bool"
					},
					{
						"astId": 17,
						"contract": "Day 19/EventEntry.sol:EventEntry",
						"label": "hasAttended",
						"offset": 0,
						"slot": "6",
						"type": "t_mapping(t_address,t_bool)"
					}
				],
				"types": {
					"t_address": {
						"encoding": "inplace",
						"label": "address",
						"numberOfBytes": "20"
					},
					"t_bool": {
						"encoding": "inplace",
						"label": "bool",
						"numberOfBytes": "1"
					},
					"t_mapping(t_address,t_bool)": {
						"encoding": "mapping",
						"key": "t_address",
						"label": "mapping(address => bool)",
						"numberOfBytes": "32",
						"value": "t_bool"
					},
					"t_string_storage": {
						"encoding": "bytes",
						"label": "string",
						"numberOfBytes": "32"
					},
					"t_uint256": {
						"encoding": "inplace",
						"label": "uint256",
						"numberOfBytes": "32"
					}
				}
			},
			"userdoc": {
				"kind": "user",
				"methods": {},
				"version": 1
			}
		}
	}
}