{
	"Day 21/SimpleNft.sol": {
		"SimpleNFT": {
			"abi": [
				{
					"inputs": [
						{
							"internalType": "string",
							"name": "name_",
							"type": "string"
						},
						{
							"internalType": "string",
							"name": "symbol_",
							"type": "string"
						}
					],
					"stateMutability": "nonpayable",
					"type": "constructor"
				},
				{
					"anonymous": false,
					"inputs": [
						{
							"indexed": true,
							"internalType": "address",
							"name": "owner",
							"type": "address"
						},
						{
							"indexed": true,
							"internalType": "address",
							"name": "approved",
							"type": "address"
						},
						{
							"indexed": true,
							"internalType": "uint256",
							"name": "tokenId",
							"type": "uint256"
						}
					],
					"name": "Approval",
					"type": "event"
				},
				{
					"anonymous": false,
					"inputs": [
						{
							"indexed": true,
							"internalType": "address",
							"name": "owner",
							"type": "address"
						},
						{
							"indexed": true,
							"internalType": "address",
							"name": "operator",
							"type": "address"
						},
						{
							"indexed": false,
							"internalType": "bool",
							"name": "approved",
							"type": "bool"
						}
					],
					"name": "ApprovalForAll",
					"type": "event"
				},
				{
					"anonymous": false,
					"inputs": [
						{
							"indexed": true,
							"internalType": "address",
							"name": "from",
							"type": "address"
						},
						{
							"indexed": true,
							"internalType": "address",
							"name": "to",
							"type": "address"
						},
						{
							"indexed": true,
							"internalType": "uint256",
							"name": "tokenId",
							"type": "uint256"
						}
					],
					"name": "Transfer",
					"type": "event"
				},
				{
					"inputs": [
						{
							"internalType": "address",
							"name": "to",
							"type": "address"
						},
						{
							"internalType": "uint256",
							"name": "tokenId",
							"type": "uint256"
						}
					],
					"name": "approve",
					"outputs": [],
					"stateMutability": "nonpayable",
					"type": "function"
				},
				{
					"inputs": [
						{
							"internalType": "address",
							"name": "owner",
							"type": "address"
						}
					],
					"name": "balanceOf",
					"outputs": [
						{
							"internalType": "uint256",
							"name": "",
							"type": "uint256"
						}
					],
					"stateMutability": "view",
					"type": "function"
				},
				{
					"inputs": [
						{
							"internalType": "uint256",
							"name": "tokenId",
							"type": "uint256"
						}
					],
					"name": "getApproved",
					"outputs": [
						{
							"internalType": "address",
							"name": "",
							"type": "address"
						}
					],
					"stateMutability": "view",
					"type": "function"
				},
				{
					"inputs": [
						{
							"internalType": "address",
							"name": "owner",
							"type": "address"
						},
						{
							"internalType": "address",
							"name": "operator",
							"type": "address"
						}
					],
					"name": "isApprovedForAll",
					"outputs": [
						{
							"internalType": "bool",
							"name": "",
							"type": "bool"
						}
					],
					"stateMutability": "view",
					"type": "function"
				},
				{
					"inputs": [
						{
							"internalType": "address",
							"name": "to",
							"type": "address"
						},
						{
							"internalType": "string",
							"name": "uri",
							"type": "string"
						}
					],
					"name": "mint",
					"outputs": [],
					"stateMutability": "nonpayable",
					"type": "function"
				},
				{
					"inputs": [],
					"name": "name",
					"outputs": [
						{
							"internalType": "string",
							"name": "",
							"type": "string"
						}
					],
					"stateMutability": "view",
					"type": "function"
				},
				{
					"inputs": [
						{
							"internalType": "uint256",
							"name": "tokenId",
							"type": "uint256"
						}
					],
					"name": "ownerOf",
					"outputs": [
						{
							"internalType": "address",
							"name": "",
							"type": "address"
						}
					],
					"stateMutability": "view",
					"type": "function"
				},
				{
					"inputs": [
						{
							"internalType": "address",
							"name": "from",
							"type": "address"
						},
						{
							"internalType": "address",
							"name": "to",
							"type": "address"
						},
						{
							"internalType": "uint256",
							"name": "tokenId",
							"type": "uint256"
						}
					],
					"name": "safeTransferFrom",
					"outputs": [],
					"stateMutability": "nonpayable",
					"type": "function"
				},
				{
					"inputs": [
						{
							"internalType": "address",
							"name": "from",
							"type": "address"
						},
						{
							"internalType": "address",
							"name": "to",
							"type": "address"
						},
						{
							"internalType": "uint256",
							"name": "tokenId",
							"type": "uint256"
						},
						{
							"internalType": "bytes",
							"name": "data",
							"type": "bytes"
						}
					],
					"name": "safeTransferFrom",
					"outputs": [],
					"stateMutability": "nonpayable",
					"type": "function"
				},
				{
					"inputs": [
						{
							"internalType": "address",
							"name": "operator",
							"type": "address"
						},
						{
							"internalType": "bool",
							"name": "approved",
							"type": "bool"
						}
					],
					"name": "setApprovalForAll",
					"outputs": [],
					"stateMutability": "nonpayable",
					"type": "function"
				},
				{
					"inputs": [],
					"name": "symbol",
					"outputs": [
						{
							"internalType": "string",
							"name": "",
							"type": "string"
						}
					],
					"stateMutability": "view",
					"type": "function"
				},
				{
					"inputs": [
						{
							"internalType": "uint256",
							"name": "tokenId",
							"type": "uint256"
						}
					],
					"name": "tokenURI",
					"outputs": [
						{
							"internalType": "string",
							"name": "",
							"type": "string"
						}
					],
					"stateMutability": "view",
					"type": "function"
				},
				{
					"inputs": [
						{
							"internalType": "address",
							"name": "from",
							"type": "address"
						},
						{
							"internalType": "address",
							"name": "to",
							"type": "address"
						},
						{
							"internalType": "uint256",
							"name": "tokenId",
							"type": "uint256"
						}
					],
					"name": "transferFrom",
					"outputs": [],
					"stateMutability": "nonpayable",
					"type": "function"
				}
			],
			"devdoc": {
				"kind": "dev",
				"methods": {},
				"version": 1
			},
			"evm": {
				"assembly": "    /* \"Day 21/SimpleNft.sol\":1250:5632  contract SimpleNFT is IERC721 {... */\n  mstore(0x40, 0x80)\n    /* \"Day 21/SimpleNft.sol\":1375:1376  1 */\n  0x01\n    /* \"Day 21/SimpleNft.sol\":1341:1376  uint256 private _tokenIdCounter = 1 */\n  0x02\n  sstore\n    /* \"Day 21/SimpleNft.sol\":1677:1791  constructor(string memory name_, string memory symbol_) {... */\n  callvalue\n  dup1\n  iszero\n  tag_1\n  jumpi\n  0x00\n  dup1\n  revert\ntag_1:\n  pop\n  mload(0x40)\n  sub(codesize, bytecodeSize)\n  dup1\n  bytecodeSize\n  dup4\n  codecopy\n  dup2\n  dup2\n  add\n  0x40\n  mstore\n  dup2\n  add\n  swap1\n  tag_2\n  swap2\n  swap1\n  tag_3\n  jump\t// in\ntag_2:\n    /* \"Day 21/SimpleNft.sol\":1751:1756  name_ */\n  dup2\n    /* \"Day 21/SimpleNft.sol\":1744:1748  name */\n  0x00\n    /* \"Day 21/SimpleNft.sol\":1744:1756  name = name_ */\n  swap1\n  dup2\n  tag_6\n  swap2\n  swap1\n  tag_7\n  jump\t// in\ntag_6:\n  pop\n    /* \"Day 21/SimpleNft.sol\":1776:1783  symbol_ */\n  dup1\n    /* \"Day 21/SimpleNft.sol\":1767:1773  symbol */\n  0x01\n    /* \"Day 21/SimpleNft.sol\":1767:1783  symbol = symbol_ */\n  swap1\n  dup2\n  tag_8\n  swap2\n  swap1\n  tag_7\n  jump\t// in\ntag_8:\n  pop\n    /* \"Day 21/SimpleNft.sol\":1677:1791  constructor(string memory name_, string memory symbol_) {... */\n  pop\n  pop\n    /* \"Day 21/SimpleNft.sol\":1250:5632  contract SimpleNFT is IERC721 {... */\n  jump(tag_9)\n    /* \"#utility.yul\":7:82   */\ntag_10:\n    /* \"#utility.yul\":40:46   */\n  0x00\n    /* \"#utility.yul\":73:75   */\n  0x40\n    /* \"#utility.yul\":67:76   */\n  mload\n    /* \"#utility.yul\":57:76   */\n  swap1\n  pop\n    /* \"#utility.yul\":7:82   */\n  swap1\n  jump\t// out\n    /* \"#utility.yul\":88:205   */\ntag_11:\n    /* \"#utility.yul\":197:198   */\n  0x00\n    /* \"#utility.yul\":194:195   */\n  dup1\n    /* \"#utility.yul\":187:199   */\n  revert\n    /* \"#utility.yul\":211:328   */\ntag_12:\n    /* \"#utility.yul\":320:321   */\n  0x00\n    /* \"#utility.yul\":317:318   */\n  dup1\n    /* \"#utility.yul\":310:322   */\n  revert\n    /* \"#utility.yul\":334:451   */\ntag_13:\n    /* \"#utility.yul\":443:444   */\n  0x00\n    /* \"#utility.yul\":440:441   */\n  dup1\n    /* \"#utility.yul\":433:445   */\n  revert\n    /* \"#utility.yul\":457:574   */\ntag_14:\n    /* \"#utility.yul\":566:567   */\n  0x00\n    /* \"#utility.yul\":563:564   */\n  dup1\n    /* \"#utility.yul\":556:568   */\n  revert\n    /* \"#utility.yul\":580:682   */\ntag_15:\n    /* \"#utility.yul\":621:627   */\n  0x00\n    /* \"#utility.yul\":672:674   */\n  0x1f\n    /* \"#utility.yul\":668:675   */\n  not\n    /* \"#utility.yul\":663:665   */\n  0x1f\n    /* \"#utility.yul\":656:661   */\n  dup4\n    /* \"#utility.yul\":652:666   */\n  add\n    /* \"#utility.yul\":648:676   */\n  and\n    /* \"#utility.yul\":638:676   */\n  swap1\n  pop\n    /* \"#utility.yul\":580:682   */\n  swap2\n  swap1\n  pop\n  jump\t// out\n    /* \"#utility.yul\":688:868   */\ntag_16:\n    /* \"#utility.yul\":736:813   */\n  0x4e487b7100000000000000000000000000000000000000000000000000000000\n    /* \"#utility.yul\":733:734   */\n  0x00\n    /* \"#utility.yul\":726:814   */\n  mstore\n    /* \"#utility.yul\":833:837   */\n  0x41\n    /* \"#utility.yul\":830:831   */\n  0x04\n    /* \"#utility.yul\":823:838   */\n  mstore\n    /* \"#utility.yul\":857:861   */\n  0x24\n    /* \"#utility.yul\":854:855   */\n  0x00\n    /* \"#utility.yul\":847:862   */\n  revert\n    /* \"#utility.yul\":874:1155   */\ntag_17:\n    /* \"#utility.yul\":957:984   */\n  tag_51\n    /* \"#utility.yul\":979:983   */\n  dup3\n    /* \"#utility.yul\":957:984   */\n  tag_15\n  jump\t// in\ntag_51:\n    /* \"#utility.yul\":949:955   */\n  dup2\n    /* \"#utility.yul\":945:985   */\n  add\n    /* \"#utility.yul\":1087:1093   */\n  dup2\n    /* \"#utility.yul\":1075:1085   */\n  dup2\n    /* \"#utility.yul\":1072:1094   */\n  lt\n    /* \"#utility.yul\":1051:1069   */\n  0xffffffffffffffff\n    /* \"#utility.yul\":1039:1049   */\n  dup3\n    /* \"#utility.yul\":1036:1070   */\n  gt\n    /* \"#utility.yul\":1033:1095   */\n  or\n    /* \"#utility.yul\":1030:1118   */\n  iszero\n  tag_52\n  jumpi\n    /* \"#utility.yul\":1098:1116   */\n  tag_53\n  tag_16\n  jump\t// in\ntag_53:\n    /* \"#utility.yul\":1030:1118   */\ntag_52:\n    /* \"#utility.yul\":1138:1148   */\n  dup1\n    /* \"#utility.yul\":1134:1136   */\n  0x40\n    /* \"#utility.yul\":1127:1149   */\n  mstore\n    /* \"#utility.yul\":917:1155   */\n  pop\n    /* \"#utility.yul\":874:1155   */\n  pop\n  pop\n  jump\t// out\n    /* \"#utility.yul\":1161:1290   */\ntag_18:\n    /* \"#utility.yul\":1195:1201   */\n  0x00\n    /* \"#utility.yul\":1222:1242   */\n  tag_55\n  tag_10\n  jump\t// in\ntag_55:\n    /* \"#utility.yul\":1212:1242   */\n  swap1\n  pop\n    /* \"#utility.yul\":1251:1284   */\n  tag_56\n    /* \"#utility.yul\":1279:1283   */\n  dup3\n    /* \"#utility.yul\":1271:1277   */\n  dup3\n    /* \"#utility.yul\":1251:1284   */\n  tag_17\n  jump\t// in\ntag_56:\n    /* \"#utility.yul\":1161:1290   */\n  swap2\n  swap1\n  pop\n  jump\t// out\n    /* \"#utility.yul\":1296:1604   */\ntag_19:\n    /* \"#utility.yul\":1358:1362   */\n  0x00\n    /* \"#utility.yul\":1448:1466   */\n  0xffffffffffffffff\n    /* \"#utility.yul\":1440:1446   */\n  dup3\n    /* \"#utility.yul\":1437:1467   */\n  gt\n    /* \"#utility.yul\":1434:1490   */\n  iszero\n  tag_58\n  jumpi\n    /* \"#utility.yul\":1470:1488   */\n  tag_59\n  tag_16\n  jump\t// in\ntag_59:\n    /* \"#utility.yul\":1434:1490   */\ntag_58:\n    /* \"#utility.yul\":1508:1537   */\n  tag_60\n    /* \"#utility.yul\":1530:1536   */\n  dup3\n    /* \"#utility.yul\":1508:1537   */\n  tag_15\n  jump\t// in\ntag_60:\n    /* \"#utility.yul\":1500:1537   */\n  swap1\n  pop\n    /* \"#utility.yul\":1592:1596   */\n  0x20\n    /* \"#utility.yul\":1586:1590   */\n  dup2\n    /* \"#utility.yul\":1582:1597   */\n  add\n    /* \"#utility.yul\":1574:1597   */\n  swap1\n  pop\n    /* \"#utility.yul\":1296:1604   */\n  swap2\n  swap1\n  pop\n  jump\t// out\n    /* \"#utility.yul\":1610:1856   */\ntag_20:\n    /* \"#utility.yul\":1691:1692   */\n  0x00\n    /* \"#utility.yul\":1701:1814   */\ntag_62:\n    /* \"#utility.yul\":1715:1721   */\n  dup4\n    /* \"#utility.yul\":1712:1713   */\n  dup2\n    /* \"#utility.yul\":1709:1722   */\n  lt\n    /* \"#utility.yul\":1701:1814   */\n  iszero\n  tag_64\n  jumpi\n    /* \"#utility.yul\":1800:1801   */\n  dup1\n    /* \"#utility.yul\":1795:1798   */\n  dup3\n    /* \"#utility.yul\":1791:1802   */\n  add\n    /* \"#utility.yul\":1785:1803   */\n  mload\n    /* \"#utility.yul\":1781:1782   */\n  dup2\n    /* \"#utility.yul\":1776:1779   */\n  dup5\n    /* \"#utility.yul\":1772:1783   */\n  add\n    /* \"#utility.yul\":1765:1804   */\n  mstore\n    /* \"#utility.yul\":1737:1739   */\n  0x20\n    /* \"#utility.yul\":1734:1735   */\n  dup2\n    /* \"#utility.yul\":1730:1740   */\n  add\n    /* \"#utility.yul\":1725:1740   */\n  swap1\n  pop\n    /* \"#utility.yul\":1701:1814   */\n  jump(tag_62)\ntag_64:\n    /* \"#utility.yul\":1848:1849   */\n  0x00\n    /* \"#utility.yul\":1839:1845   */\n  dup5\n    /* \"#utility.yul\":1834:1837   */\n  dup5\n    /* \"#utility.yul\":1830:1846   */\n  add\n    /* \"#utility.yul\":1823:1850   */\n  mstore\n    /* \"#utility.yul\":1672:1856   */\n  pop\n    /* \"#utility.yul\":1610:1856   */\n  pop\n  pop\n  pop\n  jump\t// out\n    /* \"#utility.yul\":1862:2296   */\ntag_21:\n    /* \"#utility.yul\":1951:1956   */\n  0x00\n    /* \"#utility.yul\":1976:2042   */\n  tag_66\n    /* \"#utility.yul\":1992:2041   */\n  tag_67\n    /* \"#utility.yul\":2034:2040   */\n  dup5\n    /* \"#utility.yul\":1992:2041   */\n  tag_19\n  jump\t// in\ntag_67:\n    /* \"#utility.yul\":1976:2042   */\n  tag_18\n  jump\t// in\ntag_66:\n    /* \"#utility.yul\":1967:2042   */\n  swap1\n  pop\n    /* \"#utility.yul\":2065:2071   */\n  dup3\n    /* \"#utility.yul\":2058:2063   */\n  dup2\n    /* \"#utility.yul\":2051:2072   */\n  mstore\n    /* \"#utility.yul\":2103:2107   */\n  0x20\n    /* \"#utility.yul\":2096:2101   */\n  dup2\n    /* \"#utility.yul\":2092:2108   */\n  add\n    /* \"#utility.yul\":2141:2144   */\n  dup5\n    /* \"#utility.yul\":2132:2138   */\n  dup5\n    /* \"#utility.yul\":2127:2130   */\n  dup5\n    /* \"#utility.yul\":2123:2139   */\n  add\n    /* \"#utility.yul\":2120:2145   */\n  gt\n    /* \"#utility.yul\":2117:2229   */\n  iszero\n  tag_68\n  jumpi\n    /* \"#utility.yul\":2148:2227   */\n  tag_69\n  tag_14\n  jump\t// in\ntag_69:\n    /* \"#utility.yul\":2117:2229   */\ntag_68:\n    /* \"#utility.yul\":2238:2290   */\n  tag_70\n    /* \"#utility.yul\":2283:2289   */\n  dup5\n    /* \"#utility.yul\":2278:2281   */\n  dup3\n    /* \"#utility.yul\":2273:2276   */\n  dup6\n    /* \"#utility.yul\":2238:2290   */\n  tag_20\n  jump\t// in\ntag_70:\n    /* \"#utility.yul\":1957:2296   */\n  pop\n    /* \"#utility.yul\":1862:2296   */\n  swap4\n  swap3\n  pop\n  pop\n  pop\n  jump\t// out\n    /* \"#utility.yul\":2316:2671   */\ntag_22:\n    /* \"#utility.yul\":2383:2388   */\n  0x00\n    /* \"#utility.yul\":2432:2435   */\n  dup3\n    /* \"#utility.yul\":2425:2429   */\n  0x1f\n    /* \"#utility.yul\":2417:2423   */\n  dup4\n    /* \"#utility.yul\":2413:2430   */\n  add\n    /* \"#utility.yul\":2409:2436   */\n  slt\n    /* \"#utility.yul\":2399:2521   */\n  tag_72\n  jumpi\n    /* \"#utility.yul\":2440:2519   */\n  tag_73\n  tag_13\n  jump\t// in\ntag_73:\n    /* \"#utility.yul\":2399:2521   */\ntag_72:\n    /* \"#utility.yul\":2550:2556   */\n  dup2\n    /* \"#utility.yul\":2544:2557   */\n  mload\n    /* \"#utility.yul\":2575:2665   */\n  tag_74\n    /* \"#utility.yul\":2661:2664   */\n  dup5\n    /* \"#utility.yul\":2653:2659   */\n  dup3\n    /* \"#utility.yul\":2646:2650   */\n  0x20\n    /* \"#utility.yul\":2638:2644   */\n  dup7\n    /* \"#utility.yul\":2634:2651   */\n  add\n    /* \"#utility.yul\":2575:2665   */\n  tag_21\n  jump\t// in\ntag_74:\n    /* \"#utility.yul\":2566:2665   */\n  swap2\n  pop\n    /* \"#utility.yul\":2389:2671   */\n  pop\n    /* \"#utility.yul\":2316:2671   */\n  swap3\n  swap2\n  pop\n  pop\n  jump\t// out\n    /* \"#utility.yul\":2677:3530   */\ntag_3:\n    /* \"#utility.yul\":2776:2782   */\n  0x00\n    /* \"#utility.yul\":2784:2790   */\n  dup1\n    /* \"#utility.yul\":2833:2835   */\n  0x40\n    /* \"#utility.yul\":2821:2830   */\n  dup4\n    /* \"#utility.yul\":2812:2819   */\n  dup6\n    /* \"#utility.yul\":2808:2831   */\n  sub\n    /* \"#utility.yul\":2804:2836   */\n  slt\n    /* \"#utility.yul\":2801:2920   */\n  iszero\n  tag_76\n  jumpi\n    /* \"#utility.yul\":2839:2918   */\n  tag_77\n  tag_11\n  jump\t// in\ntag_77:\n    /* \"#utility.yul\":2801:2920   */\ntag_76:\n    /* \"#utility.yul\":2980:2981   */\n  0x00\n    /* \"#utility.yul\":2969:2978   */\n  dup4\n    /* \"#utility.yul\":2965:2982   */\n  add\n    /* \"#utility.yul\":2959:2983   */\n  mload\n    /* \"#utility.yul\":3010:3028   */\n  0xffffffffffffffff\n    /* \"#utility.yul\":3002:3008   */\n  dup2\n    /* \"#utility.yul\":2999:3029   */\n  gt\n    /* \"#utility.yul\":2996:3113   */\n  iszero\n  tag_78\n  jumpi\n    /* \"#utility.yul\":3032:3111   */\n  tag_79\n  tag_12\n  jump\t// in\ntag_79:\n    /* \"#utility.yul\":2996:3113   */\ntag_78:\n    /* \"#utility.yul\":3137:3211   */\n  tag_80\n    /* \"#utility.yul\":3203:3210   */\n  dup6\n    /* \"#utility.yul\":3194:3200   */\n  dup3\n    /* \"#utility.yul\":3183:3192   */\n  dup7\n    /* \"#utility.yul\":3179:3201   */\n  add\n    /* \"#utility.yul\":3137:3211   */\n  tag_22\n  jump\t// in\ntag_80:\n    /* \"#utility.yul\":3127:3211   */\n  swap3\n  pop\n    /* \"#utility.yul\":2930:3221   */\n  pop\n    /* \"#utility.yul\":3281:3283   */\n  0x20\n    /* \"#utility.yul\":3270:3279   */\n  dup4\n    /* \"#utility.yul\":3266:3284   */\n  add\n    /* \"#utility.yul\":3260:3285   */\n  mload\n    /* \"#utility.yul\":3312:3330   */\n  0xffffffffffffffff\n    /* \"#utility.yul\":3304:3310   */\n  dup2\n    /* \"#utility.yul\":3301:3331   */\n  gt\n    /* \"#utility.yul\":3298:3415   */\n  iszero\n  tag_81\n  jumpi\n    /* \"#utility.yul\":3334:3413   */\n  tag_82\n  tag_12\n  jump\t// in\ntag_82:\n    /* \"#utility.yul\":3298:3415   */\ntag_81:\n    /* \"#utility.yul\":3439:3513   */\n  tag_83\n    /* \"#utility.yul\":3505:3512   */\n  dup6\n    /* \"#utility.yul\":3496:3502   */\n  dup3\n    /* \"#utility.yul\":3485:3494   */\n  dup7\n    /* \"#utility.yul\":3481:3503   */\n  add\n    /* \"#utility.yul\":3439:3513   */\n  tag_22\n  jump\t// in\ntag_83:\n    /* \"#utility.yul\":3429:3513   */\n  swap2\n  pop\n    /* \"#utility.yul\":3231:3523   */\n  pop\n    /* \"#utility.yul\":2677:3530   */\n  swap3\n  pop\n  swap3\n  swap1\n  pop\n  jump\t// out\n    /* \"#utility.yul\":3536:3635   */\ntag_23:\n    /* \"#utility.yul\":3588:3594   */\n  0x00\n    /* \"#utility.yul\":3622:3627   */\n  dup2\n    /* \"#utility.yul\":3616:3628   */\n  mload\n    /* \"#utility.yul\":3606:3628   */\n  swap1\n  pop\n    /* \"#utility.yul\":3536:3635   */\n  swap2\n  swap1\n  pop\n  jump\t// out\n    /* \"#utility.yul\":3641:3821   */\ntag_24:\n    /* \"#utility.yul\":3689:3766   */\n  0x4e487b7100000000000000000000000000000000000000000000000000000000\n    /* \"#utility.yul\":3686:3687   */\n  0x00\n    /* \"#utility.yul\":3679:3767   */\n  mstore\n    /* \"#utility.yul\":3786:3790   */\n  0x22\n    /* \"#utility.yul\":3783:3784   */\n  0x04\n    /* \"#utility.yul\":3776:3791   */\n  mstore\n    /* \"#utility.yul\":3810:3814   */\n  0x24\n    /* \"#utility.yul\":3807:3808   */\n  0x00\n    /* \"#utility.yul\":3800:3815   */\n  revert\n    /* \"#utility.yul\":3827:4147   */\ntag_25:\n    /* \"#utility.yul\":3871:3877   */\n  0x00\n    /* \"#utility.yul\":3908:3909   */\n  0x02\n    /* \"#utility.yul\":3902:3906   */\n  dup3\n    /* \"#utility.yul\":3898:3910   */\n  div\n    /* \"#utility.yul\":3888:3910   */\n  swap1\n  pop\n    /* \"#utility.yul\":3955:3956   */\n  0x01\n    /* \"#utility.yul\":3949:3953   */\n  dup3\n    /* \"#utility.yul\":3945:3957   */\n  and\n    /* \"#utility.yul\":3976:3994   */\n  dup1\n    /* \"#utility.yul\":3966:4047   */\n  tag_87\n  jumpi\n    /* \"#utility.yul\":4032:4036   */\n  0x7f\n    /* \"#utility.yul\":4024:4030   */\n  dup3\n    /* \"#utility.yul\":4020:4037   */\n  and\n    /* \"#utility.yul\":4010:4037   */\n  swap2\n  pop\n    /* \"#utility.yul\":3966:4047   */\ntag_87:\n    /* \"#utility.yul\":4094:4096   */\n  0x20\n    /* \"#utility.yul\":4086:4092   */\n  dup3\n    /* \"#utility.yul\":4083:4097   */\n  lt\n    /* \"#utility.yul\":4063:4081   */\n  dup2\n    /* \"#utility.yul\":4060:4098   */\n  sub\n    /* \"#utility.yul\":4057:4141   */\n  tag_88\n  jumpi\n    /* \"#utility.yul\":4113:4131   */\n  tag_89\n  tag_24\n  jump\t// in\ntag_89:\n    /* \"#utility.yul\":4057:4141   */\ntag_88:\n    /* \"#utility.yul\":3878:4147   */\n  pop\n    /* \"#utility.yul\":3827:4147   */\n  swap2\n  swap1\n  pop\n  jump\t// out\n    /* \"#utility.yul\":4153:4294   */\ntag_26:\n    /* \"#utility.yul\":4202:4206   */\n  0x00\n    /* \"#utility.yul\":4225:4228   */\n  dup2\n    /* \"#utility.yul\":4217:4228   */\n  swap1\n  pop\n    /* \"#utility.yul\":4248:4251   */\n  dup2\n    /* \"#utility.yul\":4245:4246   */\n  0x00\n    /* \"#utility.yul\":4238:4252   */\n  mstore\n    /* \"#utility.yul\":4282:4286   */\n  0x20\n    /* \"#utility.yul\":4279:4280   */\n  0x00\n    /* \"#utility.yul\":4269:4287   */\n  keccak256\n    /* \"#utility.yul\":4261:4287   */\n  swap1\n  pop\n    /* \"#utility.yul\":4153:4294   */\n  swap2\n  swap1\n  pop\n  jump\t// out\n    /* \"#utility.yul\":4300:4393   */\ntag_27:\n    /* \"#utility.yul\":4337:4343   */\n  0x00\n    /* \"#utility.yul\":4384:4386   */\n  0x20\n    /* \"#utility.yul\":4379:4381   */\n  0x1f\n    /* \"#utility.yul\":4372:4377   */\n  dup4\n    /* \"#utility.yul\":4368:4382   */\n  add\n    /* \"#utility.yul\":4364:4387   */\n  div\n    /* \"#utility.yul\":4354:4387   */\n  swap1\n  pop\n    /* \"#utility.yul\":4300:4393   */\n  swap2\n  swap1\n  pop\n  jump\t// out\n    /* \"#utility.yul\":4399:4506   */\ntag_28:\n    /* \"#utility.yul\":4443:4451   */\n  0x00\n    /* \"#utility.yul\":4493:4498   */\n  dup3\n    /* \"#utility.yul\":4487:4491   */\n  dup3\n    /* \"#utility.yul\":4483:4499   */\n  shl\n    /* \"#utility.yul\":4462:4499   */\n  swap1\n  pop\n    /* \"#utility.yul\":4399:4506   */\n  swap3\n  swap2\n  pop\n  pop\n  jump\t// out\n    /* \"#utility.yul\":4512:4905   */\ntag_29:\n    /* \"#utility.yul\":4581:4587   */\n  0x00\n    /* \"#utility.yul\":4631:4632   */\n  0x08\n    /* \"#utility.yul\":4619:4629   */\n  dup4\n    /* \"#utility.yul\":4615:4633   */\n  mul\n    /* \"#utility.yul\":4654:4751   */\n  tag_94\n    /* \"#utility.yul\":4684:4750   */\n  0xffffffffffffffffffffffffffffffffffffffffffffffffffffffffffffffff\n    /* \"#utility.yul\":4673:4682   */\n  dup3\n    /* \"#utility.yul\":4654:4751   */\n  tag_28\n  jump\t// in\ntag_94:\n    /* \"#utility.yul\":4772:4811   */\n  tag_95\n    /* \"#utility.yul\":4802:4810   */\n  dup7\n    /* \"#utility.yul\":4791:4800   */\n  dup4\n    /* \"#utility.yul\":4772:4811   */\n  tag_28\n  jump\t// in\ntag_95:\n    /* \"#utility.yul\":4760:4811   */\n  swap6\n  pop\n    /* \"#utility.yul\":4844:4848   */\n  dup1\n    /* \"#utility.yul\":4840:4849   */\n  not\n    /* \"#utility.yul\":4833:4838   */\n  dup5\n    /* \"#utility.yul\":4829:4850   */\n  and\n    /* \"#utility.yul\":4820:4850   */\n  swap4\n  pop\n    /* \"#utility.yul\":4893:4897   */\n  dup1\n    /* \"#utility.yul\":4883:4891   */\n  dup7\n    /* \"#utility.yul\":4879:4898   */\n  and\n    /* \"#utility.yul\":4872:4877   */\n  dup5\n    /* \"#utility.yul\":4869:4899   */\n  or\n    /* \"#utility.yul\":4859:4899   */\n  swap3\n  pop\n    /* \"#utility.yul\":4588:4905   */\n  pop\n  pop\n    /* \"#utility.yul\":4512:4905   */\n  swap4\n  swap3\n  pop\n  pop\n  pop\n  jump\t// out\n    /* \"#utility.yul\":4911:4988   */\ntag_30:\n    /* \"#utility.yul\":4948:4955   */\n  0x00\n    /* \"#utility.yul\":4977:4982   */\n  dup2\n    /* \"#utility.yul\":4966:4982   */\n  swap1\n  pop\n    /* \"#utility.yul\":4911:4988   */\n  swap2\n  swap1\n  pop\n  jump\t// out\n    /* \"#utility.yul\":4994:5054   */\ntag_31:\n    /* \"#utility.yul\":5022:5025   */\n  0x00\n    /* \"#utility.yul\":5043:5048   */\n  dup2\n    /* \"#utility.yul\":5036:5048   */\n  swap1\n  pop\n    /* \"#utility.yul\":4994:5054   */\n  swap2\n  swap1\n  pop\n  jump\t// out\n    /* \"#utility.yul\":5060:5202   */\ntag_32:\n    /* \"#utility.yul\":5110:5119   */\n  0x00\n    /* \"#utility.yul\":5143:5196   */\n  tag_99\n    /* \"#utility.yul\":5161:5195   */\n  tag_100\n    /* \"#utility.yul\":5170:5194   */\n  tag_101\n    /* \"#utility.yul\":5188:5193   */\n  dup5\n    /* \"#utility.yul\":5170:5194   */\n  tag_30\n  jump\t// in\ntag_101:\n    /* \"#utility.yul\":5161:5195   */\n  tag_31\n  jump\t// in\ntag_100:\n    /* \"#utility.yul\":5143:5196   */\n  tag_30\n  jump\t// in\ntag_99:\n    /* \"#utility.yul\":5130:5196   */\n  swap1\n  pop\n    /* \"#utility.yul\":5060:5202   */\n  swap2\n  swap1\n  pop\n  jump\t// out\n    /* \"#utility.yul\":5208:5283   */\ntag_33:\n    /* \"#utility.yul\":5251:5254   */\n  0x00\n    /* \"#utility.yul\":5272:5277   */\n  dup2\n    /* \"#utility.yul\":5265:5277   */\n  swap1\n  pop\n    /* \"#utility.yul\":5208:5283   */\n  swap2\n  swap1\n  pop\n  jump\t// out\n    /* \"#utility.yul\":5289:5558   */\ntag_34:\n    /* \"#utility.yul\":5399:5438   */\n  tag_104\n    /* \"#utility.yul\":5430:5437   */\n  dup4\n    /* \"#utility.yul\":5399:5438   */\n  tag_32\n  jump\t// in\ntag_104:\n    /* \"#utility.yul\":5460:5551   */\n  tag_105\n    /* \"#utility.yul\":5509:5550   */\n  tag_106\n    /* \"#utility.yul\":5533:5549   */\n  dup3\n    /* \"#utility.yul\":5509:5550   */\n  tag_33\n  jump\t// in\ntag_106:\n    /* \"#utility.yul\":5501:5507   */\n  dup5\n    /* \"#utility.yul\":5494:5498   */\n  dup5\n    /* \"#utility.yul\":5488:5499   */\n  sload\n    /* \"#utility.yul\":5460:5551   */\n  tag_29\n  jump\t// in\ntag_105:\n    /* \"#utility.yul\":5454:5458   */\n  dup3\n    /* \"#utility.yul\":5447:5552   */\n  sstore\n    /* \"#utility.yul\":5365:5558   */\n  pop\n    /* \"#utility.yul\":5289:5558   */\n  pop\n  pop\n  pop\n  jump\t// out\n    /* \"#utility.yul\":5564:5637   */\ntag_35:\n    /* \"#utility.yul\":5609:5612   */\n  0x00\n    /* \"#utility.yul\":5564:5637   */\n  swap1\n  jump\t// out\n    /* \"#utility.yul\":5643:5832   */\ntag_36:\n    /* \"#utility.yul\":5720:5752   */\n  tag_109\n  tag_35\n  jump\t// in\ntag_109:\n    /* \"#utility.yul\":5761:5826   */\n  tag_110\n    /* \"#utility.yul\":5819:5825   */\n  dup2\n    /* \"#utility.yul\":5811:5817   */\n  dup5\n    /* \"#utility.yul\":5805:5809   */\n  dup5\n    /* \"#utility.yul\":5761:5826   */\n  tag_34\n  jump\t// in\ntag_110:\n    /* \"#utility.yul\":5696:5832   */\n  pop\n    /* \"#utility.yul\":5643:5832   */\n  pop\n  pop\n  jump\t// out\n    /* \"#utility.yul\":5838:6024   */\ntag_37:\n    /* \"#utility.yul\":5898:6018   */\ntag_112:\n    /* \"#utility.yul\":5915:5918   */\n  dup2\n    /* \"#utility.yul\":5908:5913   */\n  dup2\n    /* \"#utility.yul\":5905:5919   */\n  lt\n    /* \"#utility.yul\":5898:6018   */\n  iszero\n  tag_114\n  jumpi\n    /* \"#utility.yul\":5969:6008   */\n  tag_115\n    /* \"#utility.yul\":6006:6007   */\n  0x00\n    /* \"#utility.yul\":5999:6004   */\n  dup3\n    /* \"#utility.yul\":5969:6008   */\n  tag_36\n  jump\t// in\ntag_115:\n    /* \"#utility.yul\":5942:5943   */\n  0x01\n    /* \"#utility.yul\":5935:5940   */\n  dup2\n    /* \"#utility.yul\":5931:5944   */\n  add\n    /* \"#utility.yul\":5922:5944   */\n  swap1\n  pop\n    /* \"#utility.yul\":5898:6018   */\n  jump(tag_112)\ntag_114:\n    /* \"#utility.yul\":5838:6024   */\n  pop\n  pop\n  jump\t// out\n    /* \"#utility.yul\":6030:6573   */\ntag_38:\n    /* \"#utility.yul\":6131:6133   */\n  0x1f\n    /* \"#utility.yul\":6126:6129   */\n  dup3\n    /* \"#utility.yul\":6123:6134   */\n  gt\n    /* \"#utility.yul\":6120:6566   */\n  iszero\n  tag_117\n  jumpi\n    /* \"#utility.yul\":6165:6203   */\n  tag_118\n    /* \"#utility.yul\":6197:6202   */\n  dup2\n    /* \"#utility.yul\":6165:6203   */\n  tag_26\n  jump\t// in\ntag_118:\n    /* \"#utility.yul\":6249:6278   */\n  tag_119\n    /* \"#utility.yul\":6267:6277   */\n  dup5\n    /* \"#utility.yul\":6249:6278   */\n  tag_27\n  jump\t// in\ntag_119:\n    /* \"#utility.yul\":6239:6247   */\n  dup2\n    /* \"#utility.yul\":6235:6279   */\n  add\n    /* \"#utility.yul\":6432:6434   */\n  0x20\n    /* \"#utility.yul\":6420:6430   */\n  dup6\n    /* \"#utility.yul\":6417:6435   */\n  lt\n    /* \"#utility.yul\":6414:6463   */\n  iszero\n  tag_120\n  jumpi\n    /* \"#utility.yul\":6453:6461   */\n  dup2\n    /* \"#utility.yul\":6438:6461   */\n  swap1\n  pop\n    /* \"#utility.yul\":6414:6463   */\ntag_120:\n    /* \"#utility.yul\":6476:6556   */\n  tag_121\n    /* \"#utility.yul\":6532:6554   */\n  tag_122\n    /* \"#utility.yul\":6550:6553   */\n  dup6\n    /* \"#utility.yul\":6532:6554   */\n  tag_27\n  jump\t// in\ntag_122:\n    /* \"#utility.yul\":6522:6530   */\n  dup4\n    /* \"#utility.yul\":6518:6555   */\n  add\n    /* \"#utility.yul\":6505:6516   */\n  dup3\n    /* \"#utility.yul\":6476:6556   */\n  tag_37\n  jump\t// in\ntag_121:\n    /* \"#utility.yul\":6135:6566   */\n  pop\n  pop\n    /* \"#utility.yul\":6120:6566   */\ntag_117:\n    /* \"#utility.yul\":6030:6573   */\n  pop\n  pop\n  pop\n  jump\t// out\n    /* \"#utility.yul\":6579:6696   */\ntag_39:\n    /* \"#utility.yul\":6633:6641   */\n  0x00\n    /* \"#utility.yul\":6683:6688   */\n  dup3\n    /* \"#utility.yul\":6677:6681   */\n  dup3\n    /* \"#utility.yul\":6673:6689   */\n  shr\n    /* \"#utility.yul\":6652:6689   */\n  swap1\n  pop\n    /* \"#utility.yul\":6579:6696   */\n  swap3\n  swap2\n  pop\n  pop\n  jump\t// out\n    /* \"#utility.yul\":6702:6871   */\ntag_40:\n    /* \"#utility.yul\":6746:6752   */\n  0x00\n    /* \"#utility.yul\":6779:6830   */\n  tag_125\n    /* \"#utility.yul\":6827:6828   */\n  0x00\n    /* \"#utility.yul\":6823:6829   */\n  not\n    /* \"#utility.yul\":6815:6820   */\n  dup5\n    /* \"#utility.yul\":6812:6813   */\n  0x08\n    /* \"#utility.yul\":6808:6821   */\n  mul\n    /* \"#utility.yul\":6779:6830   */\n  tag_39\n  jump\t// in\ntag_125:\n    /* \"#utility.yul\":6775:6831   */\n  not\n    /* \"#utility.yul\":6860:6864   */\n  dup1\n    /* \"#utility.yul\":6854:6858   */\n  dup4\n    /* \"#utility.yul\":6850:6865   */\n  and\n    /* \"#utility.yul\":6840:6865   */\n  swap2\n  pop\n    /* \"#utility.yul\":6753:6871   */\n  pop\n    /* \"#utility.yul\":6702:6871   */\n  swap3\n  swap2\n  pop\n  pop\n  jump\t// out\n    /* \"#utility.yul\":6876:7171   */\ntag_41:\n    /* \"#utility.yul\":6952:6956   */\n  0x00\n    /* \"#utility.yul\":7098:7127   */\n  tag_127\n    /* \"#utility.yul\":7123:7126   */\n  dup4\n    /* \"#utility.yul\":7117:7121   */\n  dup4\n    /* \"#utility.yul\":7098:7127   */\n  tag_40\n  jump\t// in\ntag_127:\n    /* \"#utility.yul\":7090:7127   */\n  swap2\n  pop\n    /* \"#utility.yul\":7160:7163   */\n  dup3\n    /* \"#utility.yul\":7157:7158   */\n  0x02\n    /* \"#utility.yul\":7153:7164   */\n  mul\n    /* \"#utility.yul\":7147:7151   */\n  dup3\n    /* \"#utility.yul\":7144:7165   */\n  or\n    /* \"#utility.yul\":7136:7165   */\n  swap1\n  pop\n    /* \"#utility.yul\":6876:7171   */\n  swap3\n  swap2\n  pop\n  pop\n  jump\t// out\n    /* \"#utility.yul\":7176:8571   */\ntag_7:\n    /* \"#utility.yul\":7293:7330   */\n  tag_129\n    /* \"#utility.yul\":7326:7329   */\n  dup3\n    /* \"#utility.yul\":7293:7330   */\n  tag_23\n  jump\t// in\ntag_129:\n    /* \"#utility.yul\":7395:7413   */\n  0xffffffffffffffff\n    /* \"#utility.yul\":7387:7393   */\n  dup2\n    /* \"#utility.yul\":7384:7414   */\n  gt\n    /* \"#utility.yul\":7381:7437   */\n  iszero\n  tag_130\n  jumpi\n    /* \"#utility.yul\":7417:7435   */\n  tag_131\n  tag_16\n  jump\t// in\ntag_131:\n    /* \"#utility.yul\":7381:7437   */\ntag_130:\n    /* \"#utility.yul\":7461:7499   */\n  tag_132\n    /* \"#utility.yul\":7493:7497   */\n  dup3\n    /* \"#utility.yul\":7487:7498   */\n  sload\n    /* \"#utility.yul\":7461:7499   */\n  tag_25\n  jump\t// in\ntag_132:\n    /* \"#utility.yul\":7546:7613   */\n  tag_133\n    /* \"#utility.yul\":7606:7612   */\n  dup3\n    /* \"#utility.yul\":7598:7604   */\n  dup3\n    /* \"#utility.yul\":7592:7596   */\n  dup6\n    /* \"#utility.yul\":7546:7613   */\n  tag_38\n  jump\t// in\ntag_133:\n    /* \"#utility.yul\":7640:7641   */\n  0x00\n    /* \"#utility.yul\":7664:7668   */\n  0x20\n    /* \"#utility.yul\":7651:7668   */\n  swap1\n  pop\n    /* \"#utility.yul\":7696:7698   */\n  0x1f\n    /* \"#utility.yul\":7688:7694   */\n  dup4\n    /* \"#utility.yul\":7685:7699   */\n  gt\n    /* \"#utility.yul\":7713:7714   */\n  0x01\n    /* \"#utility.yul\":7708:8326   */\n  dup2\n  eq\n  tag_135\n  jumpi\n    /* \"#utility.yul\":8370:8371   */\n  0x00\n    /* \"#utility.yul\":8387:8393   */\n  dup5\n    /* \"#utility.yul\":8384:8461   */\n  iszero\n  tag_136\n  jumpi\n    /* \"#utility.yul\":8436:8445   */\n  dup3\n    /* \"#utility.yul\":8431:8434   */\n  dup8\n    /* \"#utility.yul\":8427:8446   */\n  add\n    /* \"#utility.yul\":8421:8447   */\n  mload\n    /* \"#utility.yul\":8412:8447   */\n  swap1\n  pop\n    /* \"#utility.yul\":8384:8461   */\ntag_136:\n    /* \"#utility.yul\":8487:8554   */\n  tag_137\n    /* \"#utility.yul\":8547:8553   */\n  dup6\n    /* \"#utility.yul\":8540:8545   */\n  dup3\n    /* \"#utility.yul\":8487:8554   */\n  tag_41\n  jump\t// in\ntag_137:\n    /* \"#utility.yul\":8481:8485   */\n  dup7\n    /* \"#utility.yul\":8474:8555   */\n  sstore\n    /* \"#utility.yul\":8343:8565   */\n  pop\n    /* \"#utility.yul\":7678:8565   */\n  jump(tag_134)\n    /* \"#utility.yul\":7708:8326   */\ntag_135:\n    /* \"#utility.yul\":7760:7764   */\n  0x1f\n    /* \"#utility.yul\":7756:7765   */\n  not\n    /* \"#utility.yul\":7748:7754   */\n  dup5\n    /* \"#utility.yul\":7744:7766   */\n  and\n    /* \"#utility.yul\":7794:7831   */\n  tag_138\n    /* \"#utility.yul\":7826:7830   */\n  dup7\n    /* \"#utility.yul\":7794:7831   */\n  tag_26\n  jump\t// in\ntag_138:\n    /* \"#utility.yul\":7853:7854   */\n  0x00\n    /* \"#utility.yul\":7867:8075   */\ntag_139:\n    /* \"#utility.yul\":7881:7888   */\n  dup3\n    /* \"#utility.yul\":7878:7879   */\n  dup2\n    /* \"#utility.yul\":7875:7889   */\n  lt\n    /* \"#utility.yul\":7867:8075   */\n  iszero\n  tag_141\n  jumpi\n    /* \"#utility.yul\":7960:7969   */\n  dup5\n    /* \"#utility.yul\":7955:7958   */\n  dup10\n    /* \"#utility.yul\":7951:7970   */\n  add\n    /* \"#utility.yul\":7945:7971   */\n  mload\n    /* \"#utility.yul\":7937:7943   */\n  dup3\n    /* \"#utility.yul\":7930:7972   */\n  sstore\n    /* \"#utility.yul\":8011:8012   */\n  0x01\n    /* \"#utility.yul\":8003:8009   */\n  dup3\n    /* \"#utility.yul\":7999:8013   */\n  add\n    /* \"#utility.yul\":7989:8013   */\n  swap2\n  pop\n    /* \"#utility.yul\":8058:8060   */\n  0x20\n    /* \"#utility.yul\":8047:8056   */\n  dup6\n    /* \"#utility.yul\":8043:8061   */\n  add\n    /* \"#utility.yul\":8030:8061   */\n  swap5\n  pop\n    /* \"#utility.yul\":7904:7908   */\n  0x20\n    /* \"#utility.yul\":7901:7902   */\n  dup2\n    /* \"#utility.yul\":7897:7909   */\n  add\n    /* \"#utility.yul\":7892:7909   */\n  swap1\n  pop\n    /* \"#utility.yul\":7867:8075   */\n  jump(tag_139)\ntag_141:\n    /* \"#utility.yul\":8103:8109   */\n  dup7\n    /* \"#utility.yul\":8094:8101   */\n  dup4\n    /* \"#utility.yul\":8091:8110   */\n  lt\n    /* \"#utility.yul\":8088:8267   */\n  iszero\n  tag_142\n  jumpi\n    /* \"#utility.yul\":8161:8170   */\n  dup5\n    /* \"#utility.yul\":8156:8159   */\n  dup10\n    /* \"#utility.yul\":8152:8171   */\n  add\n    /* \"#utility.yul\":8146:8172   */\n  mload\n    /* \"#utility.yul\":8204:8252   */\n  tag_143\n    /* \"#utility.yul\":8246:8250   */\n  0x1f\n    /* \"#utility.yul\":8238:8244   */\n  dup10\n    /* \"#utility.yul\":8234:8251   */\n  and\n    /* \"#utility.yul\":8223:8232   */\n  dup3\n    /* \"#utility.yul\":8204:8252   */\n  tag_40\n  jump\t// in\ntag_143:\n    /* \"#utility.yul\":8196:8202   */\n  dup4\n    /* \"#utility.yul\":8189:8253   */\n  sstore\n    /* \"#utility.yul\":8111:8267   */\n  pop\n    /* \"#utility.yul\":8088:8267   */\ntag_142:\n    /* \"#utility.yul\":8313:8314   */\n  0x01\n    /* \"#utility.yul\":8309:8310   */\n  0x02\n    /* \"#utility.yul\":8301:8307   */\n  dup9\n    /* \"#utility.yul\":8297:8311   */\n  mul\n    /* \"#utility.yul\":8293:8315   */\n  add\n    /* \"#utility.yul\":8287:8291   */\n  dup9\n    /* \"#utility.yul\":8280:8316   */\n  sstore\n    /* \"#utility.yul\":7715:8326   */\n  pop\n  pop\n  pop\n    /* \"#utility.yul\":7678:8565   */\ntag_134:\n  pop\n    /* \"#utility.yul\":7268:8571   */\n  pop\n  pop\n  pop\n    /* \"#utility.yul\":7176:8571   */\n  pop\n  pop\n  jump\t// out\n    /* \"Day 21/SimpleNft.sol\":1250:5632  contract SimpleNFT is IERC721 {... */\ntag_9:\n  dataSize(sub_0)\n  dup1\n  dataOffset(sub_0)\n  0x00\n  codecopy\n  0x00\n  return\nstop\n\nsub_0: assembly {\n        /* \"Day 21/SimpleNft.sol\":1250:5632  contract SimpleNFT is IERC721 {... */\n      mstore(0x40, 0x80)\n      callvalue\n      dup1\n      iszero\n      tag_1\n      jumpi\n      0x00\n      dup1\n      revert\n    tag_1:\n      pop\n      jumpi(tag_2, lt(calldatasize, 0x04))\n      shr(0xe0, calldataload(0x00))\n      dup1\n      0x70a08231\n      gt\n      tag_16\n      jumpi\n      dup1\n      0xb88d4fde\n      gt\n      tag_17\n      jumpi\n      dup1\n      0xb88d4fde\n      eq\n      tag_12\n      jumpi\n      dup1\n      0xc87b56dd\n      eq\n      tag_13\n      jumpi\n      dup1\n      0xd0def521\n      eq\n      tag_14\n      jumpi\n      dup1\n      0xe985e9c5\n      eq\n      tag_15\n      jumpi\n      jump(tag_2)\n    tag_17:\n      dup1\n      0x70a08231\n      eq\n      tag_9\n      jumpi\n      dup1\n      0x95d89b41\n      eq\n      tag_10\n      jumpi\n      dup1\n      0xa22cb465\n      eq\n      tag_11\n      jumpi\n      jump(tag_2)\n    tag_16:\n      dup1\n      0x06fdde03\n      eq\n      tag_3\n      jumpi\n      dup1\n      0x081812fc\n      eq\n      tag_4\n      jumpi\n      dup1\n      0x095ea7b3\n      eq\n      tag_5\n      jumpi\n      dup1\n      0x23b872dd\n      eq\n      tag_6\n      jumpi\n      dup1\n      0x42842e0e\n      eq\n      tag_7\n      jumpi\n      dup1\n      0x6352211e\n      eq\n      tag_8\n      jumpi\n    tag_2:\n      0x00\n      dup1\n      revert\n        /* \"Day 21/SimpleNft.sol\":1287:1305  string public name */\n    tag_3:\n      tag_18\n      tag_19\n      jump\t// in\n    tag_18:\n      mload(0x40)\n      tag_20\n      swap2\n      swap1\n      tag_21\n      jump\t// in\n    tag_20:\n      mload(0x40)\n      dup1\n      swap2\n      sub\n      swap1\n      return\n        /* \"Day 21/SimpleNft.sol\":2545:2745  function getApproved(uint256 tokenId) public view override returns (address) {... */\n    tag_4:\n      tag_22\n      0x04\n      dup1\n      calldatasize\n      sub\n      dup2\n      add\n      swap1\n      tag_23\n      swap2\n      swap1\n      tag_24\n      jump\t// in\n    tag_23:\n      tag_25\n      jump\t// in\n    tag_22:\n      mload(0x40)\n      tag_26\n      swap2\n      swap1\n      tag_27\n      jump\t// in\n    tag_26:\n      mload(0x40)\n      dup1\n      swap2\n      sub\n      swap1\n      return\n        /* \"Day 21/SimpleNft.sol\":2194:2537  function approve(address to, uint256 tokenId) public override {... */\n    tag_5:\n      tag_28\n      0x04\n      dup1\n      calldatasize\n      sub\n      dup2\n      add\n      swap1\n      tag_29\n      swap2\n      swap1\n      tag_30\n      jump\t// in\n    tag_29:\n      tag_31\n      jump\t// in\n    tag_28:\n      stop\n        /* \"Day 21/SimpleNft.sol\":3192:3397  function transferFrom(address from, address to, uint256 tokenId) public override {... */\n    tag_6:\n      tag_32\n      0x04\n      dup1\n      calldatasize\n      sub\n      dup2\n      add\n      swap1\n      tag_33\n      swap2\n      swap1\n      tag_34\n      jump\t// in\n    tag_33:\n      tag_35\n      jump\t// in\n    tag_32:\n      stop\n        /* \"Day 21/SimpleNft.sol\":3405:3548  function safeTransferFrom(address from, address to, uint256 tokenId) public override {... */\n    tag_7:\n      tag_36\n      0x04\n      dup1\n      calldatasize\n      sub\n      dup2\n      add\n      swap1\n      tag_37\n      swap2\n      swap1\n      tag_34\n      jump\t// in\n    tag_37:\n      tag_38\n      jump\t// in\n    tag_36:\n      stop\n        /* \"Day 21/SimpleNft.sol\":1977:2186  function ownerOf(uint256 tokenId) public view override returns (address) {... */\n    tag_8:\n      tag_39\n      0x04\n      dup1\n      calldatasize\n      sub\n      dup2\n      add\n      swap1\n      tag_40\n      swap2\n      swap1\n      tag_24\n      jump\t// in\n    tag_40:\n      tag_41\n      jump\t// in\n    tag_39:\n      mload(0x40)\n      tag_42\n      swap2\n      swap1\n      tag_27\n      jump\t// in\n    tag_42:\n      mload(0x40)\n      dup1\n      swap2\n      sub\n      swap1\n      return\n        /* \"Day 21/SimpleNft.sol\":1799:1969  function balanceOf(address owner) public view override returns (uint256) {... */\n    tag_9:\n      tag_43\n      0x04\n      dup1\n      calldatasize\n      sub\n      dup2\n      add\n      swap1\n      tag_44\n      swap2\n      swap1\n      tag_45\n      jump\t// in\n    tag_44:\n      tag_46\n      jump\t// in\n    tag_43:\n      mload(0x40)\n      tag_47\n      swap2\n      swap1\n      tag_48\n      jump\t// in\n    tag_47:\n      mload(0x40)\n      dup1\n      swap2\n      sub\n      swap1\n      return\n        /* \"Day 21/SimpleNft.sol\":1312:1332  string public symbol */\n    tag_10:\n      tag_49\n      tag_50\n      jump\t// in\n    tag_49:\n      mload(0x40)\n      tag_51\n      swap2\n      swap1\n      tag_21\n      jump\t// in\n    tag_51:\n      mload(0x40)\n      dup1\n      swap2\n      sub\n      swap1\n      return\n        /* \"Day 21/SimpleNft.sol\":2753:3020  function setApprovalForAll(address operator, bool approved) public override {... */\n    tag_11:\n      tag_52\n      0x04\n      dup1\n      calldatasize\n      sub\n      dup2\n      add\n      swap1\n      tag_53\n      swap2\n      swap1\n      tag_54\n      jump\t// in\n    tag_53:\n      tag_55\n      jump\t// in\n    tag_52:\n      stop\n        /* \"Day 21/SimpleNft.sol\":3556:3794  function safeTransferFrom(address from, address to, uint256 tokenId, bytes memory data) public override {... */\n    tag_12:\n      tag_56\n      0x04\n      dup1\n      calldatasize\n      sub\n      dup2\n      add\n      swap1\n      tag_57\n      swap2\n      swap1\n      tag_58\n      jump\t// in\n    tag_57:\n      tag_59\n      jump\t// in\n    tag_56:\n      stop\n        /* \"Day 21/SimpleNft.sol\":4092:4281  function tokenURI(uint256 tokenId) public view returns (string memory) {... */\n    tag_13:\n      tag_60\n      0x04\n      dup1\n      calldatasize\n      sub\n      dup2\n      add\n      swap1\n      tag_61\n      swap2\n      swap1\n      tag_24\n      jump\t// in\n    tag_61:\n      tag_62\n      jump\t// in\n    tag_60:\n      mload(0x40)\n      tag_63\n      swap2\n      swap1\n      tag_21\n      jump\t// in\n    tag_63:\n      mload(0x40)\n      dup1\n      swap2\n      sub\n      swap1\n      return\n        /* \"Day 21/SimpleNft.sol\":3802:4084  function mint(address to, string memory uri) public {... */\n    tag_14:\n      tag_64\n      0x04\n      dup1\n      calldatasize\n      sub\n      dup2\n      add\n      swap1\n      tag_65\n      swap2\n      swap1\n      tag_66\n      jump\t// in\n    tag_65:\n      tag_67\n      jump\t// in\n    tag_64:\n      stop\n        /* \"Day 21/SimpleNft.sol\":3028:3184  function isApprovedForAll(address owner, address operator) public view override returns (bool) {... */\n    tag_15:\n      tag_68\n      0x04\n      dup1\n      calldatasize\n      sub\n      dup2\n      add\n      swap1\n      tag_69\n      swap2\n      swap1\n      tag_70\n      jump\t// in\n    tag_69:\n      tag_71\n      jump\t// in\n    tag_68:\n      mload(0x40)\n      tag_72\n      swap2\n      swap1\n      tag_73\n      jump\t// in\n    tag_72:\n      mload(0x40)\n      dup1\n      swap2\n      sub\n      swap1\n      return\n        /* \"Day 21/SimpleNft.sol\":1287:1305  string public name */\n    tag_19:\n      0x00\n      dup1\n      sload\n      tag_74\n      swap1\n      tag_75\n      jump\t// in\n    tag_74:\n      dup1\n      0x1f\n      add\n      0x20\n      dup1\n      swap2\n      div\n      mul\n      0x20\n      add\n      mload(0x40)\n      swap1\n      dup2\n      add\n      0x40\n      mstore\n      dup1\n      swap3\n      swap2\n      swap1\n      dup2\n      dup2\n      mstore\n      0x20\n      add\n      dup3\n      dup1\n      sload\n      tag_76\n      swap1\n      tag_75\n      jump\t// in\n    tag_76:\n      dup1\n      iszero\n      tag_77\n      jumpi\n      dup1\n      0x1f\n      lt\n      tag_78\n      jumpi\n      0x0100\n      dup1\n      dup4\n      sload\n      div\n      mul\n      dup4\n      mstore\n      swap2\n      0x20\n      add\n      swap2\n      jump(tag_77)\n    tag_78:\n      dup3\n      add\n      swap2\n      swap1\n      0x00\n      mstore\n      keccak256(0x00, 0x20)\n      swap1\n    tag_79:\n      dup2\n      sload\n      dup2\n      mstore\n      swap1\n      0x01\n      add\n      swap1\n      0x20\n      add\n      dup1\n      dup4\n      gt\n      tag_79\n      jumpi\n      dup3\n      swap1\n      sub\n      0x1f\n      and\n      dup3\n      add\n      swap2\n    tag_77:\n      pop\n      pop\n      pop\n      pop\n      pop\n      dup2\n      jump\t// out\n        /* \"Day 21/SimpleNft.sol\":2545:2745  function getApproved(uint256 tokenId) public view override returns (address) {... */\n    tag_25:\n        /* \"Day 21/SimpleNft.sol\":2613:2620  address */\n      0x00\n        /* \"Day 21/SimpleNft.sol\":2669:2670  0 */\n      dup1\n        /* \"Day 21/SimpleNft.sol\":2641:2671  _owners[tokenId] != address(0) */\n      0xffffffffffffffffffffffffffffffffffffffff\n      and\n        /* \"Day 21/SimpleNft.sol\":2641:2648  _owners */\n      0x03\n        /* \"Day 21/SimpleNft.sol\":2641:2657  _owners[tokenId] */\n      0x00\n        /* \"Day 21/SimpleNft.sol\":2649:2656  tokenId */\n      dup5\n        /* \"Day 21/SimpleNft.sol\":2641:2657  _owners[tokenId] */\n      dup2\n      mstore\n      0x20\n      add\n      swap1\n      dup2\n      mstore\n      0x20\n      add\n      0x00\n      keccak256\n      0x00\n      swap1\n      sload\n      swap1\n      0x0100\n      exp\n      swap1\n      div\n      0xffffffffffffffffffffffffffffffffffffffff\n      and\n        /* \"Day 21/SimpleNft.sol\":2641:2671  _owners[tokenId] != address(0) */\n      0xffffffffffffffffffffffffffffffffffffffff\n      and\n      sub\n        /* \"Day 21/SimpleNft.sol\":2633:2695  require(_owners[tokenId] != address(0), \"Token doesn't exist\") */\n      tag_81\n      jumpi\n      mload(0x40)\n      0x08c379a000000000000000000000000000000000000000000000000000000000\n      dup2\n      mstore\n      0x04\n      add\n      tag_82\n      swap1\n      tag_83\n      jump\t// in\n    tag_82:\n      mload(0x40)\n      dup1\n      swap2\n      sub\n      swap1\n      revert\n    tag_81:\n        /* \"Day 21/SimpleNft.sol\":2713:2728  _tokenApprovals */\n      0x05\n        /* \"Day 21/SimpleNft.sol\":2713:2737  _tokenApprovals[tokenId] */\n      0x00\n        /* \"Day 21/SimpleNft.sol\":2729:2736  tokenId */\n      dup4\n        /* \"Day 21/SimpleNft.sol\":2713:2737  _tokenApprovals[tokenId] */\n      dup2\n      mstore\n      0x20\n      add\n      swap1\n      dup2\n      mstore\n      0x20\n      add\n      0x00\n      keccak256\n      0x00\n      swap1\n      sload\n      swap1\n      0x0100\n      exp\n      swap1\n      div\n      0xffffffffffffffffffffffffffffffffffffffff\n      and\n        /* \"Day 21/SimpleNft.sol\":2706:2737  return _tokenApprovals[tokenId] */\n      swap1\n      pop\n        /* \"Day 21/SimpleNft.sol\":2545:2745  function getApproved(uint256 tokenId) public view override returns (address) {... */\n      swap2\n      swap1\n      pop\n      jump\t// out\n        /* \"Day 21/SimpleNft.sol\":2194:2537  function approve(address to, uint256 tokenId) public override {... */\n    tag_31:\n        /* \"Day 21/SimpleNft.sol\":2267:2280  address owner */\n      0x00\n        /* \"Day 21/SimpleNft.sol\":2283:2299  ownerOf(tokenId) */\n      tag_85\n        /* \"Day 21/SimpleNft.sol\":2291:2298  tokenId */\n      dup3\n        /* \"Day 21/SimpleNft.sol\":2283:2290  ownerOf */\n      tag_41\n        /* \"Day 21/SimpleNft.sol\":2283:2299  ownerOf(tokenId) */\n      jump\t// in\n    tag_85:\n        /* \"Day 21/SimpleNft.sol\":2267:2299  address owner = ownerOf(tokenId) */\n      swap1\n      pop\n        /* \"Day 21/SimpleNft.sol\":2324:2329  owner */\n      dup1\n        /* \"Day 21/SimpleNft.sol\":2318:2329  to != owner */\n      0xffffffffffffffffffffffffffffffffffffffff\n      and\n        /* \"Day 21/SimpleNft.sol\":2318:2320  to */\n      dup4\n        /* \"Day 21/SimpleNft.sol\":2318:2329  to != owner */\n      0xffffffffffffffffffffffffffffffffffffffff\n      and\n      sub\n        /* \"Day 21/SimpleNft.sol\":2310:2347  require(to != owner, \"Already owner\") */\n      tag_86\n      jumpi\n      mload(0x40)\n      0x08c379a000000000000000000000000000000000000000000000000000000000\n      dup2\n      mstore\n      0x04\n      add\n      tag_87\n      swap1\n      tag_88\n      jump\t// in\n    tag_87:\n      mload(0x40)\n      dup1\n      swap2\n      sub\n      swap1\n      revert\n    tag_86:\n        /* \"Day 21/SimpleNft.sol\":2380:2385  owner */\n      dup1\n        /* \"Day 21/SimpleNft.sol\":2366:2385  msg.sender == owner */\n      0xffffffffffffffffffffffffffffffffffffffff\n      and\n        /* \"Day 21/SimpleNft.sol\":2366:2376  msg.sender */\n      caller\n        /* \"Day 21/SimpleNft.sol\":2366:2385  msg.sender == owner */\n      0xffffffffffffffffffffffffffffffffffffffff\n      and\n      eq\n        /* \"Day 21/SimpleNft.sol\":2366:2424  msg.sender == owner || isApprovedForAll(owner, msg.sender) */\n      dup1\n      tag_89\n      jumpi\n      pop\n        /* \"Day 21/SimpleNft.sol\":2389:2424  isApprovedForAll(owner, msg.sender) */\n      tag_90\n        /* \"Day 21/SimpleNft.sol\":2406:2411  owner */\n      dup2\n        /* \"Day 21/SimpleNft.sol\":2413:2423  msg.sender */\n      caller\n        /* \"Day 21/SimpleNft.sol\":2389:2405  isApprovedForAll */\n      tag_71\n        /* \"Day 21/SimpleNft.sol\":2389:2424  isApprovedForAll(owner, msg.sender) */\n      jump\t// in\n    tag_90:\n        /* \"Day 21/SimpleNft.sol\":2366:2424  msg.sender == owner || isApprovedForAll(owner, msg.sender) */\n    tag_89:\n        /* \"Day 21/SimpleNft.sol\":2358:2443  require(msg.sender == owner || isApprovedForAll(owner, msg.sender), \"Not authorized\") */\n      tag_91\n      jumpi\n      mload(0x40)\n      0x08c379a000000000000000000000000000000000000000000000000000000000\n      dup2\n      mstore\n      0x04\n      add\n      tag_92\n      swap1\n      tag_93\n      jump\t// in\n    tag_92:\n      mload(0x40)\n      dup1\n      swap2\n      sub\n      swap1\n      revert\n    tag_91:\n        /* \"Day 21/SimpleNft.sol\":2483:2485  to */\n      dup3\n        /* \"Day 21/SimpleNft.sol\":2456:2471  _tokenApprovals */\n      0x05\n        /* \"Day 21/SimpleNft.sol\":2456:2480  _tokenApprovals[tokenId] */\n      0x00\n        /* \"Day 21/SimpleNft.sol\":2472:2479  tokenId */\n      dup5\n        /* \"Day 21/SimpleNft.sol\":2456:2480  _tokenApprovals[tokenId] */\n      dup2\n      mstore\n      0x20\n      add\n      swap1\n      dup2\n      mstore\n      0x20\n      add\n      0x00\n      keccak256\n      0x00\n        /* \"Day 21/SimpleNft.sol\":2456:2485  _tokenApprovals[tokenId] = to */\n      0x0100\n      exp\n      dup2\n      sload\n      dup2\n      0xffffffffffffffffffffffffffffffffffffffff\n      mul\n      not\n      and\n      swap1\n      dup4\n      0xffffffffffffffffffffffffffffffffffffffff\n      and\n      mul\n      or\n      swap1\n      sstore\n      pop\n        /* \"Day 21/SimpleNft.sol\":2521:2528  tokenId */\n      dup2\n        /* \"Day 21/SimpleNft.sol\":2517:2519  to */\n      dup4\n        /* \"Day 21/SimpleNft.sol\":2501:2529  Approval(owner, to, tokenId) */\n      0xffffffffffffffffffffffffffffffffffffffff\n      and\n        /* \"Day 21/SimpleNft.sol\":2510:2515  owner */\n      dup3\n        /* \"Day 21/SimpleNft.sol\":2501:2529  Approval(owner, to, tokenId) */\n      0xffffffffffffffffffffffffffffffffffffffff\n      and\n      0x8c5be1e5ebec7d5bd14f71427d1e84f3dd0314c0f7b2291e5b200ac8c7c3b925\n      mload(0x40)\n      mload(0x40)\n      dup1\n      swap2\n      sub\n      swap1\n      log4\n        /* \"Day 21/SimpleNft.sol\":2256:2537  {... */\n      pop\n        /* \"Day 21/SimpleNft.sol\":2194:2537  function approve(address to, uint256 tokenId) public override {... */\n      pop\n      pop\n      jump\t// out\n        /* \"Day 21/SimpleNft.sol\":3192:3397  function transferFrom(address from, address to, uint256 tokenId) public override {... */\n    tag_35:\n        /* \"Day 21/SimpleNft.sol\":3292:3331  _isApprovedOrOwner(msg.sender, tokenId) */\n      tag_95\n        /* \"Day 21/SimpleNft.sol\":3311:3321  msg.sender */\n      caller\n        /* \"Day 21/SimpleNft.sol\":3323:3330  tokenId */\n      dup3\n        /* \"Day 21/SimpleNft.sol\":3292:3310  _isApprovedOrOwner */\n      tag_96\n        /* \"Day 21/SimpleNft.sol\":3292:3331  _isApprovedOrOwner(msg.sender, tokenId) */\n      jump\t// in\n    tag_95:\n        /* \"Day 21/SimpleNft.sol\":3284:3350  require(_isApprovedOrOwner(msg.sender, tokenId), \"Not authorized\") */\n      tag_97\n      jumpi\n      mload(0x40)\n      0x08c379a000000000000000000000000000000000000000000000000000000000\n      dup2\n      mstore\n      0x04\n      add\n      tag_98\n      swap1\n      tag_93\n      jump\t// in\n    tag_98:\n      mload(0x40)\n      dup1\n      swap2\n      sub\n      swap1\n      revert\n    tag_97:\n        /* \"Day 21/SimpleNft.sol\":3361:3389  _transfer(from, to, tokenId) */\n      tag_99\n        /* \"Day 21/SimpleNft.sol\":3371:3375  from */\n      dup4\n        /* \"Day 21/SimpleNft.sol\":3377:3379  to */\n      dup4\n        /* \"Day 21/SimpleNft.sol\":3381:3388  tokenId */\n      dup4\n        /* \"Day 21/SimpleNft.sol\":3361:3370  _transfer */\n      tag_100\n        /* \"Day 21/SimpleNft.sol\":3361:3389  _transfer(from, to, tokenId) */\n      jump\t// in\n    tag_99:\n        /* \"Day 21/SimpleNft.sol\":3192:3397  function transferFrom(address from, address to, uint256 tokenId) public override {... */\n      pop\n      pop\n      pop\n      jump\t// out\n        /* \"Day 21/SimpleNft.sol\":3405:3548  function safeTransferFrom(address from, address to, uint256 tokenId) public override {... */\n    tag_38:\n        /* \"Day 21/SimpleNft.sol\":3501:3540  safeTransferFrom(from, to, tokenId, \"\") */\n      tag_102\n        /* \"Day 21/SimpleNft.sol\":3518:3522  from */\n      dup4\n        /* \"Day 21/SimpleNft.sol\":3524:3526  to */\n      dup4\n        /* \"Day 21/SimpleNft.sol\":3528:3535  tokenId */\n      dup4\n        /* \"Day 21/SimpleNft.sol\":3501:3540  safeTransferFrom(from, to, tokenId, \"\") */\n      mload(0x40)\n      dup1\n      0x20\n      add\n      0x40\n      mstore\n      dup1\n      0x00\n      dup2\n      mstore\n      pop\n        /* \"Day 21/SimpleNft.sol\":3501:3517  safeTransferFrom */\n      tag_59\n        /* \"Day 21/SimpleNft.sol\":3501:3540  safeTransferFrom(from, to, tokenId, \"\") */\n      jump\t// in\n    tag_102:\n        /* \"Day 21/SimpleNft.sol\":3405:3548  function safeTransferFrom(address from, address to, uint256 tokenId) public override {... */\n      pop\n      pop\n      pop\n      jump\t// out\n        /* \"Day 21/SimpleNft.sol\":1977:2186  function ownerOf(uint256 tokenId) public view override returns (address) {... */\n    tag_41:\n        /* \"Day 21/SimpleNft.sol\":2041:2048  address */\n      0x00\n        /* \"Day 21/SimpleNft.sol\":2061:2074  address owner */\n      dup1\n        /* \"Day 21/SimpleNft.sol\":2077:2084  _owners */\n      0x03\n        /* \"Day 21/SimpleNft.sol\":2077:2093  _owners[tokenId] */\n      0x00\n        /* \"Day 21/SimpleNft.sol\":2085:2092  tokenId */\n      dup5\n        /* \"Day 21/SimpleNft.sol\":2077:2093  _owners[tokenId] */\n      dup2\n      mstore\n      0x20\n      add\n      swap1\n      dup2\n      mstore\n      0x20\n      add\n      0x00\n      keccak256\n      0x00\n      swap1\n      sload\n      swap1\n      0x0100\n      exp\n      swap1\n      div\n      0xffffffffffffffffffffffffffffffffffffffff\n      and\n        /* \"Day 21/SimpleNft.sol\":2061:2093  address owner = _owners[tokenId] */\n      swap1\n      pop\n        /* \"Day 21/SimpleNft.sol\":2129:2130  0 */\n      0x00\n        /* \"Day 21/SimpleNft.sol\":2112:2131  owner != address(0) */\n      0xffffffffffffffffffffffffffffffffffffffff\n      and\n        /* \"Day 21/SimpleNft.sol\":2112:2117  owner */\n      dup2\n        /* \"Day 21/SimpleNft.sol\":2112:2131  owner != address(0) */\n      0xffffffffffffffffffffffffffffffffffffffff\n      and\n      sub\n        /* \"Day 21/SimpleNft.sol\":2104:2155  require(owner != address(0), \"Token doesn't exist\") */\n      tag_104\n      jumpi\n      mload(0x40)\n      0x08c379a000000000000000000000000000000000000000000000000000000000\n      dup2\n      mstore\n      0x04\n      add\n      tag_105\n      swap1\n      tag_83\n      jump\t// in\n    tag_105:\n      mload(0x40)\n      dup1\n      swap2\n      sub\n      swap1\n      revert\n    tag_104:\n        /* \"Day 21/SimpleNft.sol\":2173:2178  owner */\n      dup1\n        /* \"Day 21/SimpleNft.sol\":2166:2178  return owner */\n      swap2\n      pop\n      pop\n        /* \"Day 21/SimpleNft.sol\":1977:2186  function ownerOf(uint256 tokenId) public view override returns (address) {... */\n      swap2\n      swap1\n      pop\n      jump\t// out\n        /* \"Day 21/SimpleNft.sol\":1799:1969  function balanceOf(address owner) public view override returns (uint256) {... */\n    tag_46:\n        /* \"Day 21/SimpleNft.sol\":1863:1870  uint256 */\n      0x00\n        /* \"Day 21/SimpleNft.sol\":1908:1909  0 */\n      dup1\n        /* \"Day 21/SimpleNft.sol\":1891:1910  owner != address(0) */\n      0xffffffffffffffffffffffffffffffffffffffff\n      and\n        /* \"Day 21/SimpleNft.sol\":1891:1896  owner */\n      dup3\n        /* \"Day 21/SimpleNft.sol\":1891:1910  owner != address(0) */\n      0xffffffffffffffffffffffffffffffffffffffff\n      and\n      sub\n        /* \"Day 21/SimpleNft.sol\":1883:1927  require(owner != address(0), \"Zero address\") */\n      tag_107\n      jumpi\n      mload(0x40)\n      0x08c379a000000000000000000000000000000000000000000000000000000000\n      dup2\n      mstore\n      0x04\n      add\n      tag_108\n      swap1\n      tag_109\n      jump\t// in\n    tag_108:\n      mload(0x40)\n      dup1\n      swap2\n      sub\n      swap1\n      revert\n    tag_107:\n        /* \"Day 21/SimpleNft.sol\":1945:1954  _balances */\n      0x04\n        /* \"Day 21/SimpleNft.sol\":1945:1961  _balances[owner] */\n      0x00\n        /* \"Day 21/SimpleNft.sol\":1955:1960  owner */\n      dup4\n        /* \"Day 21/SimpleNft.sol\":1945:1961  _balances[owner] */\n      0xffffffffffffffffffffffffffffffffffffffff\n      and\n      0xffffffffffffffffffffffffffffffffffffffff\n      and\n      dup2\n      mstore\n      0x20\n      add\n      swap1\n      dup2\n      mstore\n      0x20\n      add\n      0x00\n      keccak256\n      sload\n        /* \"Day 21/SimpleNft.sol\":1938:1961  return _balances[owner] */\n      swap1\n      pop\n        /* \"Day 21/SimpleNft.sol\":1799:1969  function balanceOf(address owner) public view override returns (uint256) {... */\n      swap2\n      swap1\n      pop\n      jump\t// out\n        /* \"Day 21/SimpleNft.sol\":1312:1332  string public symbol */\n    tag_50:\n      0x01\n      dup1\n      sload\n      tag_110\n      swap1\n      tag_75\n      jump\t// in\n    tag_110:\n      dup1\n      0x1f\n      add\n      0x20\n      dup1\n      swap2\n      div\n      mul\n      0x20\n      add\n      mload(0x40)\n      swap1\n      dup2\n      add\n      0x40\n      mstore\n      dup1\n      swap3\n      swap2\n      swap1\n      dup2\n      dup2\n      mstore\n      0x20\n      add\n      dup3\n      dup1\n      sload\n      tag_111\n      swap1\n      tag_75\n      jump\t// in\n    tag_111:\n      dup1\n      iszero\n      tag_112\n      jumpi\n      dup1\n      0x1f\n      lt\n      tag_113\n      jumpi\n      0x0100\n      dup1\n      dup4\n      sload\n      div\n      mul\n      dup4\n      mstore\n      swap2\n      0x20\n      add\n      swap2\n      jump(tag_112)\n    tag_113:\n      dup3\n      add\n      swap2\n      swap1\n      0x00\n      mstore\n      keccak256(0x00, 0x20)\n      swap1\n    tag_114:\n      dup2\n      sload\n      dup2\n      mstore\n      swap1\n      0x01\n      add\n      swap1\n      0x20\n      add\n      dup1\n      dup4\n      gt\n      tag_114\n      jumpi\n      dup3\n      swap1\n      sub\n      0x1f\n      and\n      dup3\n      add\n      swap2\n    tag_112:\n      pop\n      pop\n      pop\n      pop\n      pop\n      dup2\n      jump\t// out\n        /* \"Day 21/SimpleNft.sol\":2753:3020  function setApprovalForAll(address operator, bool approved) public override {... */\n    tag_55:\n        /* \"Day 21/SimpleNft.sol\":2860:2870  msg.sender */\n      caller\n        /* \"Day 21/SimpleNft.sol\":2848:2870  operator != msg.sender */\n      0xffffffffffffffffffffffffffffffffffffffff\n      and\n        /* \"Day 21/SimpleNft.sol\":2848:2856  operator */\n      dup3\n        /* \"Day 21/SimpleNft.sol\":2848:2870  operator != msg.sender */\n      0xffffffffffffffffffffffffffffffffffffffff\n      and\n      sub\n        /* \"Day 21/SimpleNft.sol\":2840:2888  require(operator != msg.sender, \"Self approval\") */\n      tag_116\n      jumpi\n      mload(0x40)\n      0x08c379a000000000000000000000000000000000000000000000000000000000\n      dup2\n      mstore\n      0x04\n      add\n      tag_117\n      swap1\n      tag_118\n      jump\t// in\n    tag_117:\n      mload(0x40)\n      dup1\n      swap2\n      sub\n      swap1\n      revert\n    tag_116:\n        /* \"Day 21/SimpleNft.sol\":2942:2950  approved */\n      dup1\n        /* \"Day 21/SimpleNft.sol\":2899:2917  _operatorApprovals */\n      0x06\n        /* \"Day 21/SimpleNft.sol\":2899:2929  _operatorApprovals[msg.sender] */\n      0x00\n        /* \"Day 21/SimpleNft.sol\":2918:2928  msg.sender */\n      caller\n        /* \"Day 21/SimpleNft.sol\":2899:2929  _operatorApprovals[msg.sender] */\n      0xffffffffffffffffffffffffffffffffffffffff\n      and\n      0xffffffffffffffffffffffffffffffffffffffff\n      and\n      dup2\n      mstore\n      0x20\n      add\n      swap1\n      dup2\n      mstore\n      0x20\n      add\n      0x00\n      keccak256\n        /* \"Day 21/SimpleNft.sol\":2899:2939  _operatorApprovals[msg.sender][operator] */\n      0x00\n        /* \"Day 21/SimpleNft.sol\":2930:2938  operator */\n      dup5\n        /* \"Day 21/SimpleNft.sol\":2899:2939  _operatorApprovals[msg.sender][operator] */\n      0xffffffffffffffffffffffffffffffffffffffff\n      and\n      0xffffffffffffffffffffffffffffffffffffffff\n      and\n      dup2\n      mstore\n      0x20\n      add\n      swap1\n      dup2\n      mstore\n      0x20\n      add\n      0x00\n      keccak256\n      0x00\n        /* \"Day 21/SimpleNft.sol\":2899:2950  _operatorApprovals[msg.sender][operator] = approved */\n      0x0100\n      exp\n      dup2\n      sload\n      dup2\n      0xff\n      mul\n      not\n      and\n      swap1\n      dup4\n      iszero\n      iszero\n      mul\n      or\n      swap1\n      sstore\n      pop\n        /* \"Day 21/SimpleNft.sol\":2993:3001  operator */\n      dup2\n        /* \"Day 21/SimpleNft.sol\":2966:3012  ApprovalForAll(msg.sender, operator, approved) */\n      0xffffffffffffffffffffffffffffffffffffffff\n      and\n        /* \"Day 21/SimpleNft.sol\":2981:2991  msg.sender */\n      caller\n        /* \"Day 21/SimpleNft.sol\":2966:3012  ApprovalForAll(msg.sender, operator, approved) */\n      0xffffffffffffffffffffffffffffffffffffffff\n      and\n      0x17307eab39ab6107e8899845ad3d59bd9653f200f220920489ca2b5937696c31\n        /* \"Day 21/SimpleNft.sol\":3003:3011  approved */\n      dup4\n        /* \"Day 21/SimpleNft.sol\":2966:3012  ApprovalForAll(msg.sender, operator, approved) */\n      mload(0x40)\n      tag_119\n      swap2\n      swap1\n      tag_73\n      jump\t// in\n    tag_119:\n      mload(0x40)\n      dup1\n      swap2\n      sub\n      swap1\n      log3\n        /* \"Day 21/SimpleNft.sol\":2753:3020  function setApprovalForAll(address operator, bool approved) public override {... */\n      pop\n      pop\n      jump\t// out\n        /* \"Day 21/SimpleNft.sol\":3556:3794  function safeTransferFrom(address from, address to, uint256 tokenId, bytes memory data) public override {... */\n    tag_59:\n        /* \"Day 21/SimpleNft.sol\":3679:3718  _isApprovedOrOwner(msg.sender, tokenId) */\n      tag_121\n        /* \"Day 21/SimpleNft.sol\":3698:3708  msg.sender */\n      caller\n        /* \"Day 21/SimpleNft.sol\":3710:3717  tokenId */\n      dup4\n        /* \"Day 21/SimpleNft.sol\":3679:3697  _isApprovedOrOwner */\n      tag_96\n        /* \"Day 21/SimpleNft.sol\":3679:3718  _isApprovedOrOwner(msg.sender, tokenId) */\n      jump\t// in\n    tag_121:\n        /* \"Day 21/SimpleNft.sol\":3671:3737  require(_isApprovedOrOwner(msg.sender, tokenId), \"Not authorized\") */\n      tag_122\n      jumpi\n      mload(0x40)\n      0x08c379a000000000000000000000000000000000000000000000000000000000\n      dup2\n      mstore\n      0x04\n      add\n      tag_123\n      swap1\n      tag_93\n      jump\t// in\n    tag_123:\n      mload(0x40)\n      dup1\n      swap2\n      sub\n      swap1\n      revert\n    tag_122:\n        /* \"Day 21/SimpleNft.sol\":3748:3786  _safeTransfer(from, to, tokenId, data) */\n      tag_124\n        /* \"Day 21/SimpleNft.sol\":3762:3766  from */\n      dup5\n        /* \"Day 21/SimpleNft.sol\":3768:3770  to */\n      dup5\n        /* \"Day 21/SimpleNft.sol\":3772:3779  tokenId */\n      dup5\n        /* \"Day 21/SimpleNft.sol\":3781:3785  data */\n      dup5\n        /* \"Day 21/SimpleNft.sol\":3748:3761  _safeTransfer */\n      tag_125\n        /* \"Day 21/SimpleNft.sol\":3748:3786  _safeTransfer(from, to, tokenId, data) */\n      jump\t// in\n    tag_124:\n        /* \"Day 21/SimpleNft.sol\":3556:3794  function safeTransferFrom(address from, address to, uint256 tokenId, bytes memory data) public override {... */\n      pop\n      pop\n      pop\n      pop\n      jump\t// out\n        /* \"Day 21/SimpleNft.sol\":4092:4281  function tokenURI(uint256 tokenId) public view returns (string memory) {... */\n    tag_62:\n        /* \"Day 21/SimpleNft.sol\":4148:4161  string memory */\n      0x60\n        /* \"Day 21/SimpleNft.sol\":4210:4211  0 */\n      0x00\n        /* \"Day 21/SimpleNft.sol\":4182:4212  _owners[tokenId] != address(0) */\n      0xffffffffffffffffffffffffffffffffffffffff\n      and\n        /* \"Day 21/SimpleNft.sol\":4182:4189  _owners */\n      0x03\n        /* \"Day 21/SimpleNft.sol\":4182:4198  _owners[tokenId] */\n      0x00\n        /* \"Day 21/SimpleNft.sol\":4190:4197  tokenId */\n      dup5\n        /* \"Day 21/SimpleNft.sol\":4182:4198  _owners[tokenId] */\n      dup2\n      mstore\n      0x20\n      add\n      swap1\n      dup2\n      mstore\n      0x20\n      add\n      0x00\n      keccak256\n      0x00\n      swap1\n      sload\n      swap1\n      0x0100\n      exp\n      swap1\n      div\n      0xffffffffffffffffffffffffffffffffffffffff\n      and\n        /* \"Day 21/SimpleNft.sol\":4182:4212  _owners[tokenId] != address(0) */\n      0xffffffffffffffffffffffffffffffffffffffff\n      and\n      sub\n        /* \"Day 21/SimpleNft.sol\":4174:4236  require(_owners[tokenId] != address(0), \"Token doesn't exist\") */\n      tag_127\n      jumpi\n      mload(0x40)\n      0x08c379a000000000000000000000000000000000000000000000000000000000\n      dup2\n      mstore\n      0x04\n      add\n      tag_128\n      swap1\n      tag_83\n      jump\t// in\n    tag_128:\n      mload(0x40)\n      dup1\n      swap2\n      sub\n      swap1\n      revert\n    tag_127:\n        /* \"Day 21/SimpleNft.sol\":4254:4264  _tokenURIs */\n      0x07\n        /* \"Day 21/SimpleNft.sol\":4254:4273  _tokenURIs[tokenId] */\n      0x00\n        /* \"Day 21/SimpleNft.sol\":4265:4272  tokenId */\n      dup4\n        /* \"Day 21/SimpleNft.sol\":4254:4273  _tokenURIs[tokenId] */\n      dup2\n      mstore\n      0x20\n      add\n      swap1\n      dup2\n      mstore\n      0x20\n      add\n      0x00\n      keccak256\n        /* \"Day 21/SimpleNft.sol\":4247:4273  return _tokenURIs[tokenId] */\n      dup1\n      sload\n      tag_129\n      swap1\n      tag_75\n      jump\t// in\n    tag_129:\n      dup1\n      0x1f\n      add\n      0x20\n      dup1\n      swap2\n      div\n      mul\n      0x20\n      add\n      mload(0x40)\n      swap1\n      dup2\n      add\n      0x40\n      mstore\n      dup1\n      swap3\n      swap2\n      swap1\n      dup2\n      dup2\n      mstore\n      0x20\n      add\n      dup3\n      dup1\n      sload\n      tag_130\n      swap1\n      tag_75\n      jump\t// in\n    tag_130:\n      dup1\n      iszero\n      tag_131\n      jumpi\n      dup1\n      0x1f\n      lt\n      tag_132\n      jumpi\n      0x0100\n      dup1\n      dup4\n      sload\n      div\n      mul\n      dup4\n      mstore\n      swap2\n      0x20\n      add\n      swap2\n      jump(tag_131)\n    tag_132:\n      dup3\n      add\n      swap2\n      swap1\n      0x00\n      mstore\n      keccak256(0x00, 0x20)\n      swap1\n    tag_133:\n      dup2\n      sload\n      dup2\n      mstore\n      swap1\n      0x01\n      add\n      swap1\n      0x20\n      add\n      dup1\n      dup4\n      gt\n      tag_133\n      jumpi\n      dup3\n      swap1\n      sub\n      0x1f\n      and\n      dup3\n      add\n      swap2\n    tag_131:\n      pop\n      pop\n      pop\n      pop\n      pop\n      swap1\n      pop\n        /* \"Day 21/SimpleNft.sol\":4092:4281  function tokenURI(uint256 tokenId) public view returns (string memory) {... */\n      swap2\n      swap1\n      pop\n      jump\t// out\n        /* \"Day 21/SimpleNft.sol\":3802:4084  function mint(address to, string memory uri) public {... */\n    tag_67:\n        /* \"Day 21/SimpleNft.sol\":3865:3880  uint256 tokenId */\n      0x00\n        /* \"Day 21/SimpleNft.sol\":3883:3898  _tokenIdCounter */\n      sload(0x02)\n        /* \"Day 21/SimpleNft.sol\":3865:3898  uint256 tokenId = _tokenIdCounter */\n      swap1\n      pop\n        /* \"Day 21/SimpleNft.sol\":3909:3924  _tokenIdCounter */\n      0x02\n      0x00\n        /* \"Day 21/SimpleNft.sol\":3909:3926  _tokenIdCounter++ */\n      dup2\n      sload\n      dup1\n      swap3\n      swap2\n      swap1\n      tag_135\n      swap1\n      tag_136\n      jump\t// in\n    tag_135:\n      swap2\n      swap1\n      pop\n      sstore\n      pop\n        /* \"Day 21/SimpleNft.sol\":3958:3960  to */\n      dup3\n        /* \"Day 21/SimpleNft.sol\":3939:3946  _owners */\n      0x03\n        /* \"Day 21/SimpleNft.sol\":3939:3955  _owners[tokenId] */\n      0x00\n        /* \"Day 21/SimpleNft.sol\":3947:3954  tokenId */\n      dup4\n        /* \"Day 21/SimpleNft.sol\":3939:3955  _owners[tokenId] */\n      dup2\n      mstore\n      0x20\n      add\n      swap1\n      dup2\n      mstore\n      0x20\n      add\n      0x00\n      keccak256\n      0x00\n        /* \"Day 21/SimpleNft.sol\":3939:3960  _owners[tokenId] = to */\n      0x0100\n      exp\n      dup2\n      sload\n      dup2\n      0xffffffffffffffffffffffffffffffffffffffff\n      mul\n      not\n      and\n      swap1\n      dup4\n      0xffffffffffffffffffffffffffffffffffffffff\n      and\n      mul\n      or\n      swap1\n      sstore\n      pop\n        /* \"Day 21/SimpleNft.sol\":3988:3989  1 */\n      0x01\n        /* \"Day 21/SimpleNft.sol\":3971:3980  _balances */\n      0x04\n        /* \"Day 21/SimpleNft.sol\":3971:3984  _balances[to] */\n      0x00\n        /* \"Day 21/SimpleNft.sol\":3981:3983  to */\n      dup6\n        /* \"Day 21/SimpleNft.sol\":3971:3984  _balances[to] */\n      0xffffffffffffffffffffffffffffffffffffffff\n      and\n      0xffffffffffffffffffffffffffffffffffffffff\n      and\n      dup2\n      mstore\n      0x20\n      add\n      swap1\n      dup2\n      mstore\n      0x20\n      add\n      0x00\n      keccak256\n      0x00\n        /* \"Day 21/SimpleNft.sol\":3971:3989  _balances[to] += 1 */\n      dup3\n      dup3\n      sload\n      tag_137\n      swap2\n      swap1\n      tag_138\n      jump\t// in\n    tag_137:\n      swap3\n      pop\n      pop\n      dup2\n      swap1\n      sstore\n      pop\n        /* \"Day 21/SimpleNft.sol\":4022:4025  uri */\n      dup2\n        /* \"Day 21/SimpleNft.sol\":4000:4010  _tokenURIs */\n      0x07\n        /* \"Day 21/SimpleNft.sol\":4000:4019  _tokenURIs[tokenId] */\n      0x00\n        /* \"Day 21/SimpleNft.sol\":4011:4018  tokenId */\n      dup4\n        /* \"Day 21/SimpleNft.sol\":4000:4019  _tokenURIs[tokenId] */\n      dup2\n      mstore\n      0x20\n      add\n      swap1\n      dup2\n      mstore\n      0x20\n      add\n      0x00\n      keccak256\n        /* \"Day 21/SimpleNft.sol\":4000:4025  _tokenURIs[tokenId] = uri */\n      swap1\n      dup2\n      tag_139\n      swap2\n      swap1\n      tag_140\n      jump\t// in\n    tag_139:\n      pop\n        /* \"Day 21/SimpleNft.sol\":4068:4075  tokenId */\n      dup1\n        /* \"Day 21/SimpleNft.sol\":4064:4066  to */\n      dup4\n        /* \"Day 21/SimpleNft.sol\":4043:4076  Transfer(address(0), to, tokenId) */\n      0xffffffffffffffffffffffffffffffffffffffff\n      and\n        /* \"Day 21/SimpleNft.sol\":4060:4061  0 */\n      0x00\n        /* \"Day 21/SimpleNft.sol\":4043:4076  Transfer(address(0), to, tokenId) */\n      0xffffffffffffffffffffffffffffffffffffffff\n      and\n      0xddf252ad1be2c89b69c2b068fc378daa952ba7f163c4a11628f55a4df523b3ef\n      mload(0x40)\n      mload(0x40)\n      dup1\n      swap2\n      sub\n      swap1\n      log4\n        /* \"Day 21/SimpleNft.sol\":3854:4084  {... */\n      pop\n        /* \"Day 21/SimpleNft.sol\":3802:4084  function mint(address to, string memory uri) public {... */\n      pop\n      pop\n      jump\t// out\n        /* \"Day 21/SimpleNft.sol\":3028:3184  function isApprovedForAll(address owner, address operator) public view override returns (bool) {... */\n    tag_71:\n        /* \"Day 21/SimpleNft.sol\":3117:3121  bool */\n      0x00\n        /* \"Day 21/SimpleNft.sol\":3141:3159  _operatorApprovals */\n      0x06\n        /* \"Day 21/SimpleNft.sol\":3141:3166  _operatorApprovals[owner] */\n      0x00\n        /* \"Day 21/SimpleNft.sol\":3160:3165  owner */\n      dup5\n        /* \"Day 21/SimpleNft.sol\":3141:3166  _operatorApprovals[owner] */\n      0xffffffffffffffffffffffffffffffffffffffff\n      and\n      0xffffffffffffffffffffffffffffffffffffffff\n      and\n      dup2\n      mstore\n      0x20\n      add\n      swap1\n      dup2\n      mstore\n      0x20\n      add\n      0x00\n      keccak256\n        /* \"Day 21/SimpleNft.sol\":3141:3176  _operatorApprovals[owner][operator] */\n      0x00\n        /* \"Day 21/SimpleNft.sol\":3167:3175  operator */\n      dup4\n        /* \"Day 21/SimpleNft.sol\":3141:3176  _operatorApprovals[owner][operator] */\n      0xffffffffffffffffffffffffffffffffffffffff\n      and\n      0xffffffffffffffffffffffffffffffffffffffff\n      and\n      dup2\n      mstore\n      0x20\n      add\n      swap1\n      dup2\n      mstore\n      0x20\n      add\n      0x00\n      keccak256\n      0x00\n      swap1\n      sload\n      swap1\n      0x0100\n      exp\n      swap1\n      div\n      0xff\n      and\n        /* \"Day 21/SimpleNft.sol\":3134:3176  return _operatorApprovals[owner][operator] */\n      swap1\n      pop\n        /* \"Day 21/SimpleNft.sol\":3028:3184  function isApprovedForAll(address owner, address operator) public view override returns (bool) {... */\n      swap3\n      swap2\n      pop\n      pop\n      jump\t// out\n        /* \"Day 21/SimpleNft.sol\":4920:5169  function _isApprovedOrOwner(address spender, uint256 tokenId) internal view returns (bool) {... */\n    tag_96:\n        /* \"Day 21/SimpleNft.sol\":5005:5009  bool */\n      0x00\n        /* \"Day 21/SimpleNft.sol\":5022:5035  address owner */\n      dup1\n        /* \"Day 21/SimpleNft.sol\":5038:5054  ownerOf(tokenId) */\n      tag_143\n        /* \"Day 21/SimpleNft.sol\":5046:5053  tokenId */\n      dup4\n        /* \"Day 21/SimpleNft.sol\":5038:5045  ownerOf */\n      tag_41\n        /* \"Day 21/SimpleNft.sol\":5038:5054  ownerOf(tokenId) */\n      jump\t// in\n    tag_143:\n        /* \"Day 21/SimpleNft.sol\":5022:5054  address owner = ownerOf(tokenId) */\n      swap1\n      pop\n        /* \"Day 21/SimpleNft.sol\":5084:5089  owner */\n      dup1\n        /* \"Day 21/SimpleNft.sol\":5073:5089  spender == owner */\n      0xffffffffffffffffffffffffffffffffffffffff\n      and\n        /* \"Day 21/SimpleNft.sol\":5073:5080  spender */\n      dup5\n        /* \"Day 21/SimpleNft.sol\":5073:5089  spender == owner */\n      0xffffffffffffffffffffffffffffffffffffffff\n      and\n      eq\n        /* \"Day 21/SimpleNft.sol\":5073:5124  spender == owner || getApproved(tokenId) == spender */\n      dup1\n      tag_144\n      jumpi\n      pop\n        /* \"Day 21/SimpleNft.sol\":5117:5124  spender */\n      dup4\n        /* \"Day 21/SimpleNft.sol\":5093:5124  getApproved(tokenId) == spender */\n      0xffffffffffffffffffffffffffffffffffffffff\n      and\n        /* \"Day 21/SimpleNft.sol\":5093:5113  getApproved(tokenId) */\n      tag_145\n        /* \"Day 21/SimpleNft.sol\":5105:5112  tokenId */\n      dup5\n        /* \"Day 21/SimpleNft.sol\":5093:5104  getApproved */\n      tag_25\n        /* \"Day 21/SimpleNft.sol\":5093:5113  getApproved(tokenId) */\n      jump\t// in\n    tag_145:\n        /* \"Day 21/SimpleNft.sol\":5093:5124  getApproved(tokenId) == spender */\n      0xffffffffffffffffffffffffffffffffffffffff\n      and\n      eq\n        /* \"Day 21/SimpleNft.sol\":5073:5124  spender == owner || getApproved(tokenId) == spender */\n    tag_144:\n        /* \"Day 21/SimpleNft.sol\":5073:5160  spender == owner || getApproved(tokenId) == spender || isApprovedForAll(owner, spender) */\n      dup1\n      tag_146\n      jumpi\n      pop\n        /* \"Day 21/SimpleNft.sol\":5128:5160  isApprovedForAll(owner, spender) */\n      tag_147\n        /* \"Day 21/SimpleNft.sol\":5145:5150  owner */\n      dup2\n        /* \"Day 21/SimpleNft.sol\":5152:5159  spender */\n      dup6\n        /* \"Day 21/SimpleNft.sol\":5128:5144  isApprovedForAll */\n      tag_71\n        /* \"Day 21/SimpleNft.sol\":5128:5160  isApprovedForAll(owner, spender) */\n      jump\t// in\n    tag_147:\n        /* \"Day 21/SimpleNft.sol\":5073:5160  spender == owner || getApproved(tokenId) == spender || isApprovedForAll(owner, spender) */\n    tag_146:\n        /* \"Day 21/SimpleNft.sol\":5065:5161  return (spender == owner || getApproved(tokenId) == spender || isApprovedForAll(owner, spender)) */\n      swap2\n      pop\n      pop\n        /* \"Day 21/SimpleNft.sol\":4920:5169  function _isApprovedOrOwner(address spender, uint256 tokenId) internal view returns (bool) {... */\n      swap3\n      swap2\n      pop\n      pop\n      jump\t// out\n        /* \"Day 21/SimpleNft.sol\":4289:4666  function _transfer(address from, address to, uint256 tokenId) internal virtual {... */\n    tag_100:\n        /* \"Day 21/SimpleNft.sol\":4407:4411  from */\n      dup3\n        /* \"Day 21/SimpleNft.sol\":4387:4411  ownerOf(tokenId) == from */\n      0xffffffffffffffffffffffffffffffffffffffff\n      and\n        /* \"Day 21/SimpleNft.sol\":4387:4403  ownerOf(tokenId) */\n      tag_149\n        /* \"Day 21/SimpleNft.sol\":4395:4402  tokenId */\n      dup3\n        /* \"Day 21/SimpleNft.sol\":4387:4394  ownerOf */\n      tag_41\n        /* \"Day 21/SimpleNft.sol\":4387:4403  ownerOf(tokenId) */\n      jump\t// in\n    tag_149:\n        /* \"Day 21/SimpleNft.sol\":4387:4411  ownerOf(tokenId) == from */\n      0xffffffffffffffffffffffffffffffffffffffff\n      and\n      eq\n        /* \"Day 21/SimpleNft.sol\":4379:4425  require(ownerOf(tokenId) == from, \"Not owner\") */\n      tag_150\n      jumpi\n      mload(0x40)\n      0x08c379a000000000000000000000000000000000000000000000000000000000\n      dup2\n      mstore\n      0x04\n      add\n      tag_151\n      swap1\n      tag_152\n      jump\t// in\n    tag_151:\n      mload(0x40)\n      dup1\n      swap2\n      sub\n      swap1\n      revert\n    tag_150:\n        /* \"Day 21/SimpleNft.sol\":4458:4459  0 */\n      0x00\n        /* \"Day 21/SimpleNft.sol\":4444:4460  to != address(0) */\n      0xffffffffffffffffffffffffffffffffffffffff\n      and\n        /* \"Day 21/SimpleNft.sol\":4444:4446  to */\n      dup3\n        /* \"Day 21/SimpleNft.sol\":4444:4460  to != address(0) */\n      0xffffffffffffffffffffffffffffffffffffffff\n      and\n      sub\n        /* \"Day 21/SimpleNft.sol\":4436:4477  require(to != address(0), \"Zero address\") */\n      tag_153\n      jumpi\n      mload(0x40)\n      0x08c379a000000000000000000000000000000000000000000000000000000000\n      dup2\n      mstore\n      0x04\n      add\n      tag_154\n      swap1\n      tag_109\n      jump\t// in\n    tag_154:\n      mload(0x40)\n      dup1\n      swap2\n      sub\n      swap1\n      revert\n    tag_153:\n        /* \"Day 21/SimpleNft.sol\":4509:4510  1 */\n      0x01\n        /* \"Day 21/SimpleNft.sol\":4490:4499  _balances */\n      0x04\n        /* \"Day 21/SimpleNft.sol\":4490:4505  _balances[from] */\n      0x00\n        /* \"Day 21/SimpleNft.sol\":4500:4504  from */\n      dup6\n        /* \"Day 21/SimpleNft.sol\":4490:4505  _balances[from] */\n      0xffffffffffffffffffffffffffffffffffffffff\n      and\n      0xffffffffffffffffffffffffffffffffffffffff\n      and\n      dup2\n      mstore\n      0x20\n      add\n      swap1\n      dup2\n      mstore\n      0x20\n      add\n      0x00\n      keccak256\n      0x00\n        /* \"Day 21/SimpleNft.sol\":4490:4510  _balances[from] -= 1 */\n      dup3\n      dup3\n      sload\n      tag_155\n      swap2\n      swap1\n      tag_156\n      jump\t// in\n    tag_155:\n      swap3\n      pop\n      pop\n      dup2\n      swap1\n      sstore\n      pop\n        /* \"Day 21/SimpleNft.sol\":4538:4539  1 */\n      0x01\n        /* \"Day 21/SimpleNft.sol\":4521:4530  _balances */\n      0x04\n        /* \"Day 21/SimpleNft.sol\":4521:4534  _balances[to] */\n      0x00\n        /* \"Day 21/SimpleNft.sol\":4531:4533  to */\n      dup5\n        /* \"Day 21/SimpleNft.sol\":4521:4534  _balances[to] */\n      0xffffffffffffffffffffffffffffffffffffffff\n      and\n      0xffffffffffffffffffffffffffffffffffffffff\n      and\n      dup2\n      mstore\n      0x20\n      add\n      swap1\n      dup2\n      mstore\n      0x20\n      add\n      0x00\n      keccak256\n      0x00\n        /* \"Day 21/SimpleNft.sol\":4521:4539  _balances[to] += 1 */\n      dup3\n      dup3\n      sload\n      tag_157\n      swap2\n      swap1\n      tag_138\n      jump\t// in\n    tag_157:\n      swap3\n      pop\n      pop\n      dup2\n      swap1\n      sstore\n      pop\n        /* \"Day 21/SimpleNft.sol\":4569:4571  to */\n      dup2\n        /* \"Day 21/SimpleNft.sol\":4550:4557  _owners */\n      0x03\n        /* \"Day 21/SimpleNft.sol\":4550:4566  _owners[tokenId] */\n      0x00\n        /* \"Day 21/SimpleNft.sol\":4558:4565  tokenId */\n      dup4\n        /* \"Day 21/SimpleNft.sol\":4550:4566  _owners[tokenId] */\n      dup2\n      mstore\n      0x20\n      add\n      swap1\n      dup2\n      mstore\n      0x20\n      add\n      0x00\n      keccak256\n      0x00\n        /* \"Day 21/SimpleNft.sol\":4550:4571  _owners[tokenId] = to */\n      0x0100\n      exp\n      dup2\n      sload\n      dup2\n      0xffffffffffffffffffffffffffffffffffffffff\n      mul\n      not\n      and\n      swap1\n      dup4\n      0xffffffffffffffffffffffffffffffffffffffff\n      and\n      mul\n      or\n      swap1\n      sstore\n      pop\n        /* \"Day 21/SimpleNft.sol\":4591:4606  _tokenApprovals */\n      0x05\n        /* \"Day 21/SimpleNft.sol\":4591:4615  _tokenApprovals[tokenId] */\n      0x00\n        /* \"Day 21/SimpleNft.sol\":4607:4614  tokenId */\n      dup3\n        /* \"Day 21/SimpleNft.sol\":4591:4615  _tokenApprovals[tokenId] */\n      dup2\n      mstore\n      0x20\n      add\n      swap1\n      dup2\n      mstore\n      0x20\n      add\n      0x00\n      keccak256\n      0x00\n        /* \"Day 21/SimpleNft.sol\":4584:4615  delete _tokenApprovals[tokenId] */\n      0x0100\n      exp\n      dup2\n      sload\n      swap1\n      0xffffffffffffffffffffffffffffffffffffffff\n      mul\n      not\n      and\n      swap1\n      sstore\n        /* \"Day 21/SimpleNft.sol\":4650:4657  tokenId */\n      dup1\n        /* \"Day 21/SimpleNft.sol\":4646:4648  to */\n      dup3\n        /* \"Day 21/SimpleNft.sol\":4631:4658  Transfer(from, to, tokenId) */\n      0xffffffffffffffffffffffffffffffffffffffff\n      and\n        /* \"Day 21/SimpleNft.sol\":4640:4644  from */\n      dup5\n        /* \"Day 21/SimpleNft.sol\":4631:4658  Transfer(from, to, tokenId) */\n      0xffffffffffffffffffffffffffffffffffffffff\n      and\n      0xddf252ad1be2c89b69c2b068fc378daa952ba7f163c4a11628f55a4df523b3ef\n      mload(0x40)\n      mload(0x40)\n      dup1\n      swap2\n      sub\n      swap1\n      log4\n        /* \"Day 21/SimpleNft.sol\":4289:4666  function _transfer(address from, address to, uint256 tokenId) internal virtual {... */\n      pop\n      pop\n      pop\n      jump\t// out\n        /* \"Day 21/SimpleNft.sol\":4674:4912  function _safeTransfer(address from, address to, uint256 tokenId, bytes memory data) internal virtual {... */\n    tag_125:\n        /* \"Day 21/SimpleNft.sol\":4787:4815  _transfer(from, to, tokenId) */\n      tag_159\n        /* \"Day 21/SimpleNft.sol\":4797:4801  from */\n      dup5\n        /* \"Day 21/SimpleNft.sol\":4803:4805  to */\n      dup5\n        /* \"Day 21/SimpleNft.sol\":4807:4814  tokenId */\n      dup5\n        /* \"Day 21/SimpleNft.sol\":4787:4796  _transfer */\n      tag_100\n        /* \"Day 21/SimpleNft.sol\":4787:4815  _transfer(from, to, tokenId) */\n      jump\t// in\n    tag_159:\n        /* \"Day 21/SimpleNft.sol\":4834:4881  _checkOnERC721Received(from, to, tokenId, data) */\n      tag_160\n        /* \"Day 21/SimpleNft.sol\":4857:4861  from */\n      dup5\n        /* \"Day 21/SimpleNft.sol\":4863:4865  to */\n      dup5\n        /* \"Day 21/SimpleNft.sol\":4867:4874  tokenId */\n      dup5\n        /* \"Day 21/SimpleNft.sol\":4876:4880  data */\n      dup5\n        /* \"Day 21/SimpleNft.sol\":4834:4856  _checkOnERC721Received */\n      tag_161\n        /* \"Day 21/SimpleNft.sol\":4834:4881  _checkOnERC721Received(from, to, tokenId, data) */\n      jump\t// in\n    tag_160:\n        /* \"Day 21/SimpleNft.sol\":4826:4904  require(_checkOnERC721Received(from, to, tokenId, data), \"Not ERC721Receiver\") */\n      tag_162\n      jumpi\n      mload(0x40)\n      0x08c379a000000000000000000000000000000000000000000000000000000000\n      dup2\n      mstore\n      0x04\n      add\n      tag_163\n      swap1\n      tag_164\n      jump\t// in\n    tag_163:\n      mload(0x40)\n      dup1\n      swap2\n      sub\n      swap1\n      revert\n    tag_162:\n        /* \"Day 21/SimpleNft.sol\":4674:4912  function _safeTransfer(address from, address to, uint256 tokenId, bytes memory data) internal virtual {... */\n      pop\n      pop\n      pop\n      pop\n      jump\t// out\n        /* \"Day 21/SimpleNft.sol\":5177:5629  function _checkOnERC721Received(address from, address to, uint256 tokenId, bytes memory data) private returns (bool) {... */\n    tag_161:\n        /* \"Day 21/SimpleNft.sol\":5288:5292  bool */\n      0x00\n        /* \"Day 21/SimpleNft.sol\":5326:5327  0 */\n      dup1\n        /* \"Day 21/SimpleNft.sol\":5309:5311  to */\n      dup5\n        /* \"Day 21/SimpleNft.sol\":5309:5323  to.code.length */\n      0xffffffffffffffffffffffffffffffffffffffff\n      and\n      extcodesize\n        /* \"Day 21/SimpleNft.sol\":5309:5327  to.code.length > 0 */\n      gt\n        /* \"Day 21/SimpleNft.sol\":5305:5600  if (to.code.length > 0) {... */\n      iszero\n      tag_166\n      jumpi\n        /* \"Day 21/SimpleNft.sol\":5364:5366  to */\n      dup4\n        /* \"Day 21/SimpleNft.sol\":5348:5384  IERC721Receiver(to).onERC721Received */\n      0xffffffffffffffffffffffffffffffffffffffff\n      and\n      0x150b7a02\n        /* \"Day 21/SimpleNft.sol\":5385:5395  msg.sender */\n      caller\n        /* \"Day 21/SimpleNft.sol\":5397:5401  from */\n      dup8\n        /* \"Day 21/SimpleNft.sol\":5403:5410  tokenId */\n      dup7\n        /* \"Day 21/SimpleNft.sol\":5412:5416  data */\n      dup7\n        /* \"Day 21/SimpleNft.sol\":5348:5417  IERC721Receiver(to).onERC721Received(msg.sender, from, tokenId, data) */\n      mload(0x40)\n      dup6\n      0xffffffff\n      and\n      0xe0\n      shl\n      dup2\n      mstore\n      0x04\n      add\n      tag_167\n      swap5\n      swap4\n      swap3\n      swap2\n      swap1\n      tag_168\n      jump\t// in\n    tag_167:\n      0x20\n      mload(0x40)\n      dup1\n      dup4\n      sub\n      dup2\n      0x00\n      dup8\n      gas\n      call\n      swap3\n      pop\n      pop\n      pop\n      dup1\n      iszero\n      tag_169\n      jumpi\n      pop\n      mload(0x40)\n      returndatasize\n      not(0x1f)\n      0x1f\n      dup3\n      add\n      and\n      dup3\n      add\n      dup1\n      0x40\n      mstore\n      pop\n      dup2\n      add\n      swap1\n      tag_170\n      swap2\n      swap1\n      tag_171\n      jump\t// in\n    tag_170:\n      0x01\n    tag_169:\n        /* \"Day 21/SimpleNft.sol\":5344:5589  try IERC721Receiver(to).onERC721Received(msg.sender, from, tokenId, data) returns (bytes4 retval) {... */\n      tag_172\n      jumpi\n        /* \"Day 21/SimpleNft.sol\":5568:5573  false */\n      0x00\n        /* \"Day 21/SimpleNft.sol\":5561:5573  return false */\n      swap1\n      pop\n      jump(tag_165)\n        /* \"Day 21/SimpleNft.sol\":5344:5589  try IERC721Receiver(to).onERC721Received(msg.sender, from, tokenId, data) returns (bytes4 retval) {... */\n    tag_172:\n        /* \"Day 21/SimpleNft.sol\":5478:5519  IERC721Receiver.onERC721Received.selector */\n      shl(0xe0, 0x150b7a02)\n        /* \"Day 21/SimpleNft.sol\":5468:5519  retval == IERC721Receiver.onERC721Received.selector */\n      not(0xffffffffffffffffffffffffffffffffffffffffffffffffffffffff)\n      and\n        /* \"Day 21/SimpleNft.sol\":5468:5474  retval */\n      dup2\n        /* \"Day 21/SimpleNft.sol\":5468:5519  retval == IERC721Receiver.onERC721Received.selector */\n      not(0xffffffffffffffffffffffffffffffffffffffffffffffffffffffff)\n      and\n      eq\n        /* \"Day 21/SimpleNft.sol\":5461:5519  return retval == IERC721Receiver.onERC721Received.selector */\n      swap2\n      pop\n      pop\n      jump(tag_165)\n        /* \"Day 21/SimpleNft.sol\":5305:5600  if (to.code.length > 0) {... */\n    tag_166:\n        /* \"Day 21/SimpleNft.sol\":5617:5621  true */\n      0x01\n        /* \"Day 21/SimpleNft.sol\":5610:5621  return true */\n      swap1\n      pop\n        /* \"Day 21/SimpleNft.sol\":5177:5629  function _checkOnERC721Received(address from, address to, uint256 tokenId, bytes memory data) private returns (bool) {... */\n    tag_165:\n      swap5\n      swap4\n      pop\n      pop\n      pop\n      pop\n      jump\t// out\n        /* \"#utility.yul\":7:106   */\n    tag_177:\n        /* \"#utility.yul\":59:65   */\n      0x00\n        /* \"#utility.yul\":93:98   */\n      dup2\n        /* \"#utility.yul\":87:99   */\n      mload\n        /* \"#utility.yul\":77:99   */\n      swap1\n      pop\n        /* \"#utility.yul\":7:106   */\n      swap2\n      swap1\n      pop\n      jump\t// out\n        /* \"#utility.yul\":112:281   */\n    tag_178:\n        /* \"#utility.yul\":196:207   */\n      0x00\n        /* \"#utility.yul\":230:236   */\n      dup3\n        /* \"#utility.yul\":225:228   */\n      dup3\n        /* \"#utility.yul\":218:237   */\n      mstore\n        /* \"#utility.yul\":270:274   */\n      0x20\n        /* \"#utility.yul\":265:268   */\n      dup3\n        /* \"#utility.yul\":261:275   */\n      add\n        /* \"#utility.yul\":246:275   */\n      swap1\n      pop\n        /* \"#utility.yul\":112:281   */\n      swap3\n      swap2\n      pop\n      pop\n      jump\t// out\n        /* \"#utility.yul\":287:533   */\n    tag_179:\n        /* \"#utility.yul\":368:369   */\n      0x00\n        /* \"#utility.yul\":378:491   */\n    tag_251:\n        /* \"#utility.yul\":392:398   */\n      dup4\n        /* \"#utility.yul\":389:390   */\n      dup2\n        /* \"#utility.yul\":386:399   */\n      lt\n        /* \"#utility.yul\":378:491   */\n      iszero\n      tag_253\n      jumpi\n        /* \"#utility.yul\":477:478   */\n      dup1\n        /* \"#utility.yul\":472:475   */\n      dup3\n        /* \"#utility.yul\":468:479   */\n      add\n        /* \"#utility.yul\":462:480   */\n      mload\n        /* \"#utility.yul\":458:459   */\n      dup2\n        /* \"#utility.yul\":453:456   */\n      dup5\n        /* \"#utility.yul\":449:460   */\n      add\n        /* \"#utility.yul\":442:481   */\n      mstore\n        /* \"#utility.yul\":414:416   */\n      0x20\n        /* \"#utility.yul\":411:412   */\n      dup2\n        /* \"#utility.yul\":407:417   */\n      add\n        /* \"#utility.yul\":402:417   */\n      swap1\n      pop\n        /* \"#utility.yul\":378:491   */\n      jump(tag_251)\n    tag_253:\n        /* \"#utility.yul\":525:526   */\n      0x00\n        /* \"#utility.yul\":516:522   */\n      dup5\n        /* \"#utility.yul\":511:514   */\n      dup5\n        /* \"#utility.yul\":507:523   */\n      add\n        /* \"#utility.yul\":500:527   */\n      mstore\n        /* \"#utility.yul\":349:533   */\n      pop\n        /* \"#utility.yul\":287:533   */\n      pop\n      pop\n      pop\n      jump\t// out\n        /* \"#utility.yul\":539:641   */\n    tag_180:\n        /* \"#utility.yul\":580:586   */\n      0x00\n        /* \"#utility.yul\":631:633   */\n      0x1f\n        /* \"#utility.yul\":627:634   */\n      not\n        /* \"#utility.yul\":622:624   */\n      0x1f\n        /* \"#utility.yul\":615:620   */\n      dup4\n        /* \"#utility.yul\":611:625   */\n      add\n        /* \"#utility.yul\":607:635   */\n      and\n        /* \"#utility.yul\":597:635   */\n      swap1\n      pop\n        /* \"#utility.yul\":539:641   */\n      swap2\n      swap1\n      pop\n      jump\t// out\n        /* \"#utility.yul\":647:1024   */\n    tag_181:\n        /* \"#utility.yul\":735:738   */\n      0x00\n        /* \"#utility.yul\":763:802   */\n      tag_256\n        /* \"#utility.yul\":796:801   */\n      dup3\n        /* \"#utility.yul\":763:802   */\n      tag_177\n      jump\t// in\n    tag_256:\n        /* \"#utility.yul\":818:889   */\n      tag_257\n        /* \"#utility.yul\":882:888   */\n      dup2\n        /* \"#utility.yul\":877:880   */\n      dup6\n        /* \"#utility.yul\":818:889   */\n      tag_178\n      jump\t// in\n    tag_257:\n        /* \"#utility.yul\":811:889   */\n      swap4\n      pop\n        /* \"#utility.yul\":898:963   */\n      tag_258\n        /* \"#utility.yul\":956:962   */\n      dup2\n        /* \"#utility.yul\":951:954   */\n      dup6\n        /* \"#utility.yul\":944:948   */\n      0x20\n        /* \"#utility.yul\":937:942   */\n      dup7\n        /* \"#utility.yul\":933:949   */\n      add\n        /* \"#utility.yul\":898:963   */\n      tag_179\n      jump\t// in\n    tag_258:\n        /* \"#utility.yul\":988:1017   */\n      tag_259\n        /* \"#utility.yul\":1010:1016   */\n      dup2\n        /* \"#utility.yul\":988:1017   */\n      tag_180\n      jump\t// in\n    tag_259:\n        /* \"#utility.yul\":983:986   */\n      dup5\n        /* \"#utility.yul\":979:1018   */\n      add\n        /* \"#utility.yul\":972:1018   */\n      swap2\n      pop\n        /* \"#utility.yul\":739:1024   */\n      pop\n        /* \"#utility.yul\":647:1024   */\n      swap3\n      swap2\n      pop\n      pop\n      jump\t// out\n        /* \"#utility.yul\":1030:1343   */\n    tag_21:\n        /* \"#utility.yul\":1143:1147   */\n      0x00\n        /* \"#utility.yul\":1181:1183   */\n      0x20\n        /* \"#utility.yul\":1170:1179   */\n      dup3\n        /* \"#utility.yul\":1166:1184   */\n      add\n        /* \"#utility.yul\":1158:1184   */\n      swap1\n      pop\n        /* \"#utility.yul\":1230:1239   */\n      dup2\n        /* \"#utility.yul\":1224:1228   */\n      dup2\n        /* \"#utility.yul\":1220:1240   */\n      sub\n        /* \"#utility.yul\":1216:1217   */\n      0x00\n        /* \"#utility.yul\":1205:1214   */\n      dup4\n        /* \"#utility.yul\":1201:1218   */\n      add\n        /* \"#utility.yul\":1194:1241   */\n      mstore\n        /* \"#utility.yul\":1258:1336   */\n      tag_261\n        /* \"#utility.yul\":1331:1335   */\n      dup2\n        /* \"#utility.yul\":1322:1328   */\n      dup5\n        /* \"#utility.yul\":1258:1336   */\n      tag_181\n      jump\t// in\n    tag_261:\n        /* \"#utility.yul\":1250:1336   */\n      swap1\n      pop\n        /* \"#utility.yul\":1030:1343   */\n      swap3\n      swap2\n      pop\n      pop\n      jump\t// out\n        /* \"#utility.yul\":1349:1424   */\n    tag_182:\n        /* \"#utility.yul\":1382:1388   */\n      0x00\n        /* \"#utility.yul\":1415:1417   */\n      0x40\n        /* \"#utility.yul\":1409:1418   */\n      mload\n        /* \"#utility.yul\":1399:1418   */\n      swap1\n      pop\n        /* \"#utility.yul\":1349:1424   */\n      swap1\n      jump\t// out\n        /* \"#utility.yul\":1430:1547   */\n    tag_183:\n        /* \"#utility.yul\":1539:1540   */\n      0x00\n        /* \"#utility.yul\":1536:1537   */\n      dup1\n        /* \"#utility.yul\":1529:1541   */\n      revert\n        /* \"#utility.yul\":1553:1670   */\n    tag_184:\n        /* \"#utility.yul\":1662:1663   */\n      0x00\n        /* \"#utility.yul\":1659:1660   */\n      dup1\n        /* \"#utility.yul\":1652:1664   */\n      revert\n        /* \"#utility.yul\":1676:1753   */\n    tag_185:\n        /* \"#utility.yul\":1713:1720   */\n      0x00\n        /* \"#utility.yul\":1742:1747   */\n      dup2\n        /* \"#utility.yul\":1731:1747   */\n      swap1\n      pop\n        /* \"#utility.yul\":1676:1753   */\n      swap2\n      swap1\n      pop\n      jump\t// out\n        /* \"#utility.yul\":1759:1881   */\n    tag_186:\n        /* \"#utility.yul\":1832:1856   */\n      tag_267\n        /* \"#utility.yul\":1850:1855   */\n      dup2\n        /* \"#utility.yul\":1832:1856   */\n      tag_185\n      jump\t// in\n    tag_267:\n        /* \"#utility.yul\":1825:1830   */\n      dup2\n        /* \"#utility.yul\":1822:1857   */\n      eq\n        /* \"#utility.yul\":1812:1875   */\n      tag_268\n      jumpi\n        /* \"#utility.yul\":1871:1872   */\n      0x00\n        /* \"#utility.yul\":1868:1869   */\n      dup1\n        /* \"#utility.yul\":1861:1873   */\n      revert\n        /* \"#utility.yul\":1812:1875   */\n    tag_268:\n        /* \"#utility.yul\":1759:1881   */\n      pop\n      jump\t// out\n        /* \"#utility.yul\":1887:2026   */\n    tag_187:\n        /* \"#utility.yul\":1933:1938   */\n      0x00\n        /* \"#utility.yul\":1971:1977   */\n      dup2\n        /* \"#utility.yul\":1958:1978   */\n      calldataload\n        /* \"#utility.yul\":1949:1978   */\n      swap1\n      pop\n        /* \"#utility.yul\":1987:2020   */\n      tag_270\n        /* \"#utility.yul\":2014:2019   */\n      dup2\n        /* \"#utility.yul\":1987:2020   */\n      tag_186\n      jump\t// in\n    tag_270:\n        /* \"#utility.yul\":1887:2026   */\n      swap3\n      swap2\n      pop\n      pop\n      jump\t// out\n        /* \"#utility.yul\":2032:2361   */\n    tag_24:\n        /* \"#utility.yul\":2091:2097   */\n      0x00\n        /* \"#utility.yul\":2140:2142   */\n      0x20\n        /* \"#utility.yul\":2128:2137   */\n      dup3\n        /* \"#utility.yul\":2119:2126   */\n      dup5\n        /* \"#utility.yul\":2115:2138   */\n      sub\n        /* \"#utility.yul\":2111:2143   */\n      slt\n        /* \"#utility.yul\":2108:2227   */\n      iszero\n      tag_272\n      jumpi\n        /* \"#utility.yul\":2146:2225   */\n      tag_273\n      tag_183\n      jump\t// in\n    tag_273:\n        /* \"#utility.yul\":2108:2227   */\n    tag_272:\n        /* \"#utility.yul\":2266:2267   */\n      0x00\n        /* \"#utility.yul\":2291:2344   */\n      tag_274\n        /* \"#utility.yul\":2336:2343   */\n      dup5\n        /* \"#utility.yul\":2327:2333   */\n      dup3\n        /* \"#utility.yul\":2316:2325   */\n      dup6\n        /* \"#utility.yul\":2312:2334   */\n      add\n        /* \"#utility.yul\":2291:2344   */\n      tag_187\n      jump\t// in\n    tag_274:\n        /* \"#utility.yul\":2281:2344   */\n      swap2\n      pop\n        /* \"#utility.yul\":2237:2354   */\n      pop\n        /* \"#utility.yul\":2032:2361   */\n      swap3\n      swap2\n      pop\n      pop\n      jump\t// out\n        /* \"#utility.yul\":2367:2493   */\n    tag_188:\n        /* \"#utility.yul\":2404:2411   */\n      0x00\n        /* \"#utility.yul\":2444:2486   */\n      0xffffffffffffffffffffffffffffffffffffffff\n        /* \"#utility.yul\":2437:2442   */\n      dup3\n        /* \"#utility.yul\":2433:2487   */\n      and\n        /* \"#utility.yul\":2422:2487   */\n      swap1\n      pop\n        /* \"#utility.yul\":2367:2493   */\n      swap2\n      swap1\n      pop\n      jump\t// out\n        /* \"#utility.yul\":2499:2595   */\n    tag_189:\n        /* \"#utility.yul\":2536:2543   */\n      0x00\n        /* \"#utility.yul\":2565:2589   */\n      tag_277\n        /* \"#utility.yul\":2583:2588   */\n      dup3\n        /* \"#utility.yul\":2565:2589   */\n      tag_188\n      jump\t// in\n    tag_277:\n        /* \"#utility.yul\":2554:2589   */\n      swap1\n      pop\n        /* \"#utility.yul\":2499:2595   */\n      swap2\n      swap1\n      pop\n      jump\t// out\n        /* \"#utility.yul\":2601:2719   */\n    tag_190:\n        /* \"#utility.yul\":2688:2712   */\n      tag_279\n        /* \"#utility.yul\":2706:2711   */\n      dup2\n        /* \"#utility.yul\":2688:2712   */\n      tag_189\n      jump\t// in\n    tag_279:\n        /* \"#utility.yul\":2683:2686   */\n      dup3\n        /* \"#utility.yul\":2676:2713   */\n      mstore\n        /* \"#utility.yul\":2601:2719   */\n      pop\n      pop\n      jump\t// out\n        /* \"#utility.yul\":2725:2947   */\n    tag_27:\n        /* \"#utility.yul\":2818:2822   */\n      0x00\n        /* \"#utility.yul\":2856:2858   */\n      0x20\n        /* \"#utility.yul\":2845:2854   */\n      dup3\n        /* \"#utility.yul\":2841:2859   */\n      add\n        /* \"#utility.yul\":2833:2859   */\n      swap1\n      pop\n        /* \"#utility.yul\":2869:2940   */\n      tag_281\n        /* \"#utility.yul\":2937:2938   */\n      0x00\n        /* \"#utility.yul\":2926:2935   */\n      dup4\n        /* \"#utility.yul\":2922:2939   */\n      add\n        /* \"#utility.yul\":2913:2919   */\n      dup5\n        /* \"#utility.yul\":2869:2940   */\n      tag_190\n      jump\t// in\n    tag_281:\n        /* \"#utility.yul\":2725:2947   */\n      swap3\n      swap2\n      pop\n      pop\n      jump\t// out\n        /* \"#utility.yul\":2953:3075   */\n    tag_191:\n        /* \"#utility.yul\":3026:3050   */\n      tag_283\n        /* \"#utility.yul\":3044:3049   */\n      dup2\n        /* \"#utility.yul\":3026:3050   */\n      tag_189\n      jump\t// in\n    tag_283:\n        /* \"#utility.yul\":3019:3024   */\n      dup2\n        /* \"#utility.yul\":3016:3051   */\n      eq\n        /* \"#utility.yul\":3006:3069   */\n      tag_284\n      jumpi\n        /* \"#utility.yul\":3065:3066   */\n      0x00\n        /* \"#utility.yul\":3062:3063   */\n      dup1\n        /* \"#utility.yul\":3055:3067   */\n      revert\n        /* \"#utility.yul\":3006:3069   */\n    tag_284:\n        /* \"#utility.yul\":2953:3075   */\n      pop\n      jump\t// out\n        /* \"#utility.yul\":3081:3220   */\n    tag_192:\n        /* \"#utility.yul\":3127:3132   */\n      0x00\n        /* \"#utility.yul\":3165:3171   */\n      dup2\n        /* \"#utility.yul\":3152:3172   */\n      calldataload\n        /* \"#utility.yul\":3143:3172   */\n      swap1\n      pop\n        /* \"#utility.yul\":3181:3214   */\n      tag_286\n        /* \"#utility.yul\":3208:3213   */\n      dup2\n        /* \"#utility.yul\":3181:3214   */\n      tag_191\n      jump\t// in\n    tag_286:\n        /* \"#utility.yul\":3081:3220   */\n      swap3\n      swap2\n      pop\n      pop\n      jump\t// out\n        /* \"#utility.yul\":3226:3700   */\n    tag_30:\n        /* \"#utility.yul\":3294:3300   */\n      0x00\n        /* \"#utility.yul\":3302:3308   */\n      dup1\n        /* \"#utility.yul\":3351:3353   */\n      0x40\n        /* \"#utility.yul\":3339:3348   */\n      dup4\n        /* \"#utility.yul\":3330:3337   */\n      dup6\n        /* \"#utility.yul\":3326:3349   */\n      sub\n        /* \"#utility.yul\":3322:3354   */\n      slt\n        /* \"#utility.yul\":3319:3438   */\n      iszero\n      tag_288\n      jumpi\n        /* \"#utility.yul\":3357:3436   */\n      tag_289\n      tag_183\n      jump\t// in\n    tag_289:\n        /* \"#utility.yul\":3319:3438   */\n    tag_288:\n        /* \"#utility.yul\":3477:3478   */\n      0x00\n        /* \"#utility.yul\":3502:3555   */\n      tag_290\n        /* \"#utility.yul\":3547:3554   */\n      dup6\n        /* \"#utility.yul\":3538:3544   */\n      dup3\n        /* \"#utility.yul\":3527:3536   */\n      dup7\n        /* \"#utility.yul\":3523:3545   */\n      add\n        /* \"#utility.yul\":3502:3555   */\n      tag_192\n      jump\t// in\n    tag_290:\n        /* \"#utility.yul\":3492:3555   */\n      swap3\n      pop\n        /* \"#utility.yul\":3448:3565   */\n      pop\n        /* \"#utility.yul\":3604:3606   */\n      0x20\n        /* \"#utility.yul\":3630:3683   */\n      tag_291\n        /* \"#utility.yul\":3675:3682   */\n      dup6\n        /* \"#utility.yul\":3666:3672   */\n      dup3\n        /* \"#utility.yul\":3655:3664   */\n      dup7\n        /* \"#utility.yul\":3651:3673   */\n      add\n        /* \"#utility.yul\":3630:3683   */\n      tag_187\n      jump\t// in\n    tag_291:\n        /* \"#utility.yul\":3620:3683   */\n      swap2\n      pop\n        /* \"#utility.yul\":3575:3693   */\n      pop\n        /* \"#utility.yul\":3226:3700   */\n      swap3\n      pop\n      swap3\n      swap1\n      pop\n      jump\t// out\n        /* \"#utility.yul\":3706:4325   */\n    tag_34:\n        /* \"#utility.yul\":3783:3789   */\n      0x00\n        /* \"#utility.yul\":3791:3797   */\n      dup1\n        /* \"#utility.yul\":3799:3805   */\n      0x00\n        /* \"#utility.yul\":3848:3850   */\n      0x60\n        /* \"#utility.yul\":3836:3845   */\n      dup5\n        /* \"#utility.yul\":3827:3834   */\n      dup7\n        /* \"#utility.yul\":3823:3846   */\n      sub\n        /* \"#utility.yul\":3819:3851   */\n      slt\n        /* \"#utility.yul\":3816:3935   */\n      iszero\n      tag_293\n      jumpi\n        /* \"#utility.yul\":3854:3933   */\n      tag_294\n      tag_183\n      jump\t// in\n    tag_294:\n        /* \"#utility.yul\":3816:3935   */\n    tag_293:\n        /* \"#utility.yul\":3974:3975   */\n      0x00\n        /* \"#utility.yul\":3999:4052   */\n      tag_295\n        /* \"#utility.yul\":4044:4051   */\n      dup7\n        /* \"#utility.yul\":4035:4041   */\n      dup3\n        /* \"#utility.yul\":4024:4033   */\n      dup8\n        /* \"#utility.yul\":4020:4042   */\n      add\n        /* \"#utility.yul\":3999:4052   */\n      tag_192\n      jump\t// in\n    tag_295:\n        /* \"#utility.yul\":3989:4052   */\n      swap4\n      pop\n        /* \"#utility.yul\":3945:4062   */\n      pop\n        /* \"#utility.yul\":4101:4103   */\n      0x20\n        /* \"#utility.yul\":4127:4180   */\n      tag_296\n        /* \"#utility.yul\":4172:4179   */\n      dup7\n        /* \"#utility.yul\":4163:4169   */\n      dup3\n        /* \"#utility.yul\":4152:4161   */\n      dup8\n        /* \"#utility.yul\":4148:4170   */\n      add\n        /* \"#utility.yul\":4127:4180   */\n      tag_192\n      jump\t// in\n    tag_296:\n        /* \"#utility.yul\":4117:4180   */\n      swap3\n      pop\n        /* \"#utility.yul\":4072:4190   */\n      pop\n        /* \"#utility.yul\":4229:4231   */\n      0x40\n        /* \"#utility.yul\":4255:4308   */\n      tag_297\n        /* \"#utility.yul\":4300:4307   */\n      dup7\n        /* \"#utility.yul\":4291:4297   */\n      dup3\n        /* \"#utility.yul\":4280:4289   */\n      dup8\n        /* \"#utility.yul\":4276:4298   */\n      add\n        /* \"#utility.yul\":4255:4308   */\n      tag_187\n      jump\t// in\n    tag_297:\n        /* \"#utility.yul\":4245:4308   */\n      swap2\n      pop\n        /* \"#utility.yul\":4200:4318   */\n      pop\n        /* \"#utility.yul\":3706:4325   */\n      swap3\n      pop\n      swap3\n      pop\n      swap3\n      jump\t// out\n        /* \"#utility.yul\":4331:4660   */\n    tag_45:\n        /* \"#utility.yul\":4390:4396   */\n      0x00\n        /* \"#utility.yul\":4439:4441   */\n      0x20\n        /* \"#utility.yul\":4427:4436   */\n      dup3\n        /* \"#utility.yul\":4418:4425   */\n      dup5\n        /* \"#utility.yul\":4414:4437   */\n      sub\n        /* \"#utility.yul\":4410:4442   */\n      slt\n        /* \"#utility.yul\":4407:4526   */\n      iszero\n      tag_299\n      jumpi\n        /* \"#utility.yul\":4445:4524   */\n      tag_300\n      tag_183\n      jump\t// in\n    tag_300:\n        /* \"#utility.yul\":4407:4526   */\n    tag_299:\n        /* \"#utility.yul\":4565:4566   */\n      0x00\n        /* \"#utility.yul\":4590:4643   */\n      tag_301\n        /* \"#utility.yul\":4635:4642   */\n      dup5\n        /* \"#utility.yul\":4626:4632   */\n      dup3\n        /* \"#utility.yul\":4615:4624   */\n      dup6\n        /* \"#utility.yul\":4611:4633   */\n      add\n        /* \"#utility.yul\":4590:4643   */\n      tag_192\n      jump\t// in\n    tag_301:\n        /* \"#utility.yul\":4580:4643   */\n      swap2\n      pop\n        /* \"#utility.yul\":4536:4653   */\n      pop\n        /* \"#utility.yul\":4331:4660   */\n      swap3\n      swap2\n      pop\n      pop\n      jump\t// out\n        /* \"#utility.yul\":4666:4784   */\n    tag_193:\n        /* \"#utility.yul\":4753:4777   */\n      tag_303\n        /* \"#utility.yul\":4771:4776   */\n      dup2\n        /* \"#utility.yul\":4753:4777   */\n      tag_185\n      jump\t// in\n    tag_303:\n        /* \"#utility.yul\":4748:4751   */\n      dup3\n        /* \"#utility.yul\":4741:4778   */\n      mstore\n        /* \"#utility.yul\":4666:4784   */\n      pop\n      pop\n      jump\t// out\n        /* \"#utility.yul\":4790:5012   */\n    tag_48:\n        /* \"#utility.yul\":4883:4887   */\n      0x00\n        /* \"#utility.yul\":4921:4923   */\n      0x20\n        /* \"#utility.yul\":4910:4919   */\n      dup3\n        /* \"#utility.yul\":4906:4924   */\n      add\n        /* \"#utility.yul\":4898:4924   */\n      swap1\n      pop\n        /* \"#utility.yul\":4934:5005   */\n      tag_305\n        /* \"#utility.yul\":5002:5003   */\n      0x00\n        /* \"#utility.yul\":4991:5000   */\n      dup4\n        /* \"#utility.yul\":4987:5004   */\n      add\n        /* \"#utility.yul\":4978:4984   */\n      dup5\n        /* \"#utility.yul\":4934:5005   */\n      tag_193\n      jump\t// in\n    tag_305:\n        /* \"#utility.yul\":4790:5012   */\n      swap3\n      swap2\n      pop\n      pop\n      jump\t// out\n        /* \"#utility.yul\":5018:5108   */\n    tag_194:\n        /* \"#utility.yul\":5052:5059   */\n      0x00\n        /* \"#utility.yul\":5095:5100   */\n      dup2\n        /* \"#utility.yul\":5088:5101   */\n      iszero\n        /* \"#utility.yul\":5081:5102   */\n      iszero\n        /* \"#utility.yul\":5070:5102   */\n      swap1\n      pop\n        /* \"#utility.yul\":5018:5108   */\n      swap2\n      swap1\n      pop\n      jump\t// out\n        /* \"#utility.yul\":5114:5230   */\n    tag_195:\n        /* \"#utility.yul\":5184:5205   */\n      tag_308\n        /* \"#utility.yul\":5199:5204   */\n      dup2\n        /* \"#utility.yul\":5184:5205   */\n      tag_194\n      jump\t// in\n    tag_308:\n        /* \"#utility.yul\":5177:5182   */\n      dup2\n        /* \"#utility.yul\":5174:5206   */\n      eq\n        /* \"#utility.yul\":5164:5224   */\n      tag_309\n      jumpi\n        /* \"#utility.yul\":5220:5221   */\n      0x00\n        /* \"#utility.yul\":5217:5218   */\n      dup1\n        /* \"#utility.yul\":5210:5222   */\n      revert\n        /* \"#utility.yul\":5164:5224   */\n    tag_309:\n        /* \"#utility.yul\":5114:5230   */\n      pop\n      jump\t// out\n        /* \"#utility.yul\":5236:5369   */\n    tag_196:\n        /* \"#utility.yul\":5279:5284   */\n      0x00\n        /* \"#utility.yul\":5317:5323   */\n      dup2\n        /* \"#utility.yul\":5304:5324   */\n      calldataload\n        /* \"#utility.yul\":5295:5324   */\n      swap1\n      pop\n        /* \"#utility.yul\":5333:5363   */\n      tag_311\n        /* \"#utility.yul\":5357:5362   */\n      dup2\n        /* \"#utility.yul\":5333:5363   */\n      tag_195\n      jump\t// in\n    tag_311:\n        /* \"#utility.yul\":5236:5369   */\n      swap3\n      swap2\n      pop\n      pop\n      jump\t// out\n        /* \"#utility.yul\":5375:5843   */\n    tag_54:\n        /* \"#utility.yul\":5440:5446   */\n      0x00\n        /* \"#utility.yul\":5448:5454   */\n      dup1\n        /* \"#utility.yul\":5497:5499   */\n      0x40\n        /* \"#utility.yul\":5485:5494   */\n      dup4\n        /* \"#utility.yul\":5476:5483   */\n      dup6\n        /* \"#utility.yul\":5472:5495   */\n      sub\n        /* \"#utility.yul\":5468:5500   */\n      slt\n        /* \"#utility.yul\":5465:5584   */\n      iszero\n      tag_313\n      jumpi\n        /* \"#utility.yul\":5503:5582   */\n      tag_314\n      tag_183\n      jump\t// in\n    tag_314:\n        /* \"#utility.yul\":5465:5584   */\n    tag_313:\n        /* \"#utility.yul\":5623:5624   */\n      0x00\n        /* \"#utility.yul\":5648:5701   */\n      tag_315\n        /* \"#utility.yul\":5693:5700   */\n      dup6\n        /* \"#utility.yul\":5684:5690   */\n      dup3\n        /* \"#utility.yul\":5673:5682   */\n      dup7\n        /* \"#utility.yul\":5669:5691   */\n      add\n        /* \"#utility.yul\":5648:5701   */\n      tag_192\n      jump\t// in\n    tag_315:\n        /* \"#utility.yul\":5638:5701   */\n      swap3\n      pop\n        /* \"#utility.yul\":5594:5711   */\n      pop\n        /* \"#utility.yul\":5750:5752   */\n      0x20\n        /* \"#utility.yul\":5776:5826   */\n      tag_316\n        /* \"#utility.yul\":5818:5825   */\n      dup6\n        /* \"#utility.yul\":5809:5815   */\n      dup3\n        /* \"#utility.yul\":5798:5807   */\n      dup7\n        /* \"#utility.yul\":5794:5816   */\n      add\n        /* \"#utility.yul\":5776:5826   */\n      tag_196\n      jump\t// in\n    tag_316:\n        /* \"#utility.yul\":5766:5826   */\n      swap2\n      pop\n        /* \"#utility.yul\":5721:5836   */\n      pop\n        /* \"#utility.yul\":5375:5843   */\n      swap3\n      pop\n      swap3\n      swap1\n      pop\n      jump\t// out\n        /* \"#utility.yul\":5849:5966   */\n    tag_197:\n        /* \"#utility.yul\":5958:5959   */\n      0x00\n        /* \"#utility.yul\":5955:5956   */\n      dup1\n        /* \"#utility.yul\":5948:5960   */\n      revert\n        /* \"#utility.yul\":5972:6089   */\n    tag_198:\n        /* \"#utility.yul\":6081:6082   */\n      0x00\n        /* \"#utility.yul\":6078:6079   */\n      dup1\n        /* \"#utility.yul\":6071:6083   */\n      revert\n        /* \"#utility.yul\":6095:6275   */\n    tag_199:\n        /* \"#utility.yul\":6143:6220   */\n      0x4e487b7100000000000000000000000000000000000000000000000000000000\n        /* \"#utility.yul\":6140:6141   */\n      0x00\n        /* \"#utility.yul\":6133:6221   */\n      mstore\n        /* \"#utility.yul\":6240:6244   */\n      0x41\n        /* \"#utility.yul\":6237:6238   */\n      0x04\n        /* \"#utility.yul\":6230:6245   */\n      mstore\n        /* \"#utility.yul\":6264:6268   */\n      0x24\n        /* \"#utility.yul\":6261:6262   */\n      0x00\n        /* \"#utility.yul\":6254:6269   */\n      revert\n        /* \"#utility.yul\":6281:6562   */\n    tag_200:\n        /* \"#utility.yul\":6364:6391   */\n      tag_321\n        /* \"#utility.yul\":6386:6390   */\n      dup3\n        /* \"#utility.yul\":6364:6391   */\n      tag_180\n      jump\t// in\n    tag_321:\n        /* \"#utility.yul\":6356:6362   */\n      dup2\n        /* \"#utility.yul\":6352:6392   */\n      add\n        /* \"#utility.yul\":6494:6500   */\n      dup2\n        /* \"#utility.yul\":6482:6492   */\n      dup2\n        /* \"#utility.yul\":6479:6501   */\n      lt\n        /* \"#utility.yul\":6458:6476   */\n      0xffffffffffffffff\n        /* \"#utility.yul\":6446:6456   */\n      dup3\n        /* \"#utility.yul\":6443:6477   */\n      gt\n        /* \"#utility.yul\":6440:6502   */\n      or\n        /* \"#utility.yul\":6437:6525   */\n      iszero\n      tag_322\n      jumpi\n        /* \"#utility.yul\":6505:6523   */\n      tag_323\n      tag_199\n      jump\t// in\n    tag_323:\n        /* \"#utility.yul\":6437:6525   */\n    tag_322:\n        /* \"#utility.yul\":6545:6555   */\n      dup1\n        /* \"#utility.yul\":6541:6543   */\n      0x40\n        /* \"#utility.yul\":6534:6556   */\n      mstore\n        /* \"#utility.yul\":6324:6562   */\n      pop\n        /* \"#utility.yul\":6281:6562   */\n      pop\n      pop\n      jump\t// out\n        /* \"#utility.yul\":6568:6697   */\n    tag_201:\n        /* \"#utility.yul\":6602:6608   */\n      0x00\n        /* \"#utility.yul\":6629:6649   */\n      tag_325\n      tag_182\n      jump\t// in\n    tag_325:\n        /* \"#utility.yul\":6619:6649   */\n      swap1\n      pop\n        /* \"#utility.yul\":6658:6691   */\n      tag_326\n        /* \"#utility.yul\":6686:6690   */\n      dup3\n        /* \"#utility.yul\":6678:6684   */\n      dup3\n        /* \"#utility.yul\":6658:6691   */\n      tag_200\n      jump\t// in\n    tag_326:\n        /* \"#utility.yul\":6568:6697   */\n      swap2\n      swap1\n      pop\n      jump\t// out\n        /* \"#utility.yul\":6703:7010   */\n    tag_202:\n        /* \"#utility.yul\":6764:6768   */\n      0x00\n        /* \"#utility.yul\":6854:6872   */\n      0xffffffffffffffff\n        /* \"#utility.yul\":6846:6852   */\n      dup3\n        /* \"#utility.yul\":6843:6873   */\n      gt\n        /* \"#utility.yul\":6840:6896   */\n      iszero\n      tag_328\n      jumpi\n        /* \"#utility.yul\":6876:6894   */\n      tag_329\n      tag_199\n      jump\t// in\n    tag_329:\n        /* \"#utility.yul\":6840:6896   */\n    tag_328:\n        /* \"#utility.yul\":6914:6943   */\n      tag_330\n        /* \"#utility.yul\":6936:6942   */\n      dup3\n        /* \"#utility.yul\":6914:6943   */\n      tag_180\n      jump\t// in\n    tag_330:\n        /* \"#utility.yul\":6906:6943   */\n      swap1\n      pop\n        /* \"#utility.yul\":6998:7002   */\n      0x20\n        /* \"#utility.yul\":6992:6996   */\n      dup2\n        /* \"#utility.yul\":6988:7003   */\n      add\n        /* \"#utility.yul\":6980:7003   */\n      swap1\n      pop\n        /* \"#utility.yul\":6703:7010   */\n      swap2\n      swap1\n      pop\n      jump\t// out\n        /* \"#utility.yul\":7016:7162   */\n    tag_203:\n        /* \"#utility.yul\":7113:7119   */\n      dup3\n        /* \"#utility.yul\":7108:7111   */\n      dup2\n        /* \"#utility.yul\":7103:7106   */\n      dup4\n        /* \"#utility.yul\":7090:7120   */\n      calldatacopy\n        /* \"#utility.yul\":7154:7155   */\n      0x00\n        /* \"#utility.yul\":7145:7151   */\n      dup4\n        /* \"#utility.yul\":7140:7143   */\n      dup4\n        /* \"#utility.yul\":7136:7152   */\n      add\n        /* \"#utility.yul\":7129:7156   */\n      mstore\n        /* \"#utility.yul\":7016:7162   */\n      pop\n      pop\n      pop\n      jump\t// out\n        /* \"#utility.yul\":7168:7591   */\n    tag_204:\n        /* \"#utility.yul\":7245:7250   */\n      0x00\n        /* \"#utility.yul\":7270:7335   */\n      tag_333\n        /* \"#utility.yul\":7286:7334   */\n      tag_334\n        /* \"#utility.yul\":7327:7333   */\n      dup5\n        /* \"#utility.yul\":7286:7334   */\n      tag_202\n      jump\t// in\n    tag_334:\n        /* \"#utility.yul\":7270:7335   */\n      tag_201\n      jump\t// in\n    tag_333:\n        /* \"#utility.yul\":7261:7335   */\n      swap1\n      pop\n        /* \"#utility.yul\":7358:7364   */\n      dup3\n        /* \"#utility.yul\":7351:7356   */\n      dup2\n        /* \"#utility.yul\":7344:7365   */\n      mstore\n        /* \"#utility.yul\":7396:7400   */\n      0x20\n        /* \"#utility.yul\":7389:7394   */\n      dup2\n        /* \"#utility.yul\":7385:7401   */\n      add\n        /* \"#utility.yul\":7434:7437   */\n      dup5\n        /* \"#utility.yul\":7425:7431   */\n      dup5\n        /* \"#utility.yul\":7420:7423   */\n      dup5\n        /* \"#utility.yul\":7416:7432   */\n      add\n        /* \"#utility.yul\":7413:7438   */\n      gt\n        /* \"#utility.yul\":7410:7522   */\n      iszero\n      tag_335\n      jumpi\n        /* \"#utility.yul\":7441:7520   */\n      tag_336\n      tag_198\n      jump\t// in\n    tag_336:\n        /* \"#utility.yul\":7410:7522   */\n    tag_335:\n        /* \"#utility.yul\":7531:7585   */\n      tag_337\n        /* \"#utility.yul\":7578:7584   */\n      dup5\n        /* \"#utility.yul\":7573:7576   */\n      dup3\n        /* \"#utility.yul\":7568:7571   */\n      dup6\n        /* \"#utility.yul\":7531:7585   */\n      tag_203\n      jump\t// in\n    tag_337:\n        /* \"#utility.yul\":7251:7591   */\n      pop\n        /* \"#utility.yul\":7168:7591   */\n      swap4\n      swap3\n      pop\n      pop\n      pop\n      jump\t// out\n        /* \"#utility.yul\":7610:7948   */\n    tag_205:\n        /* \"#utility.yul\":7665:7670   */\n      0x00\n        /* \"#utility.yul\":7714:7717   */\n      dup3\n        /* \"#utility.yul\":7707:7711   */\n      0x1f\n        /* \"#utility.yul\":7699:7705   */\n      dup4\n        /* \"#utility.yul\":7695:7712   */\n      add\n        /* \"#utility.yul\":7691:7718   */\n      slt\n        /* \"#utility.yul\":7681:7803   */\n      tag_339\n      jumpi\n        /* \"#utility.yul\":7722:7801   */\n      tag_340\n      tag_197\n      jump\t// in\n    tag_340:\n        /* \"#utility.yul\":7681:7803   */\n    tag_339:\n        /* \"#utility.yul\":7839:7845   */\n      dup2\n        /* \"#utility.yul\":7826:7846   */\n      calldataload\n        /* \"#utility.yul\":7864:7942   */\n      tag_341\n        /* \"#utility.yul\":7938:7941   */\n      dup5\n        /* \"#utility.yul\":7930:7936   */\n      dup3\n        /* \"#utility.yul\":7923:7927   */\n      0x20\n        /* \"#utility.yul\":7915:7921   */\n      dup7\n        /* \"#utility.yul\":7911:7928   */\n      add\n        /* \"#utility.yul\":7864:7942   */\n      tag_204\n      jump\t// in\n    tag_341:\n        /* \"#utility.yul\":7855:7942   */\n      swap2\n      pop\n        /* \"#utility.yul\":7671:7948   */\n      pop\n        /* \"#utility.yul\":7610:7948   */\n      swap3\n      swap2\n      pop\n      pop\n      jump\t// out\n        /* \"#utility.yul\":7954:8897   */\n    tag_58:\n        /* \"#utility.yul\":8049:8055   */\n      0x00\n        /* \"#utility.yul\":8057:8063   */\n      dup1\n        /* \"#utility.yul\":8065:8071   */\n      0x00\n        /* \"#utility.yul\":8073:8079   */\n      dup1\n        /* \"#utility.yul\":8122:8125   */\n      0x80\n        /* \"#utility.yul\":8110:8119   */\n      dup6\n        /* \"#utility.yul\":8101:8108   */\n      dup8\n        /* \"#utility.yul\":8097:8120   */\n      sub\n        /* \"#utility.yul\":8093:8126   */\n      slt\n        /* \"#utility.yul\":8090:8210   */\n      iszero\n      tag_343\n      jumpi\n        /* \"#utility.yul\":8129:8208   */\n      tag_344\n      tag_183\n      jump\t// in\n    tag_344:\n        /* \"#utility.yul\":8090:8210   */\n    tag_343:\n        /* \"#utility.yul\":8249:8250   */\n      0x00\n        /* \"#utility.yul\":8274:8327   */\n      tag_345\n        /* \"#utility.yul\":8319:8326   */\n      dup8\n        /* \"#utility.yul\":8310:8316   */\n      dup3\n        /* \"#utility.yul\":8299:8308   */\n      dup9\n        /* \"#utility.yul\":8295:8317   */\n      add\n        /* \"#utility.yul\":8274:8327   */\n      tag_192\n      jump\t// in\n    tag_345:\n        /* \"#utility.yul\":8264:8327   */\n      swap5\n      pop\n        /* \"#utility.yul\":8220:8337   */\n      pop\n        /* \"#utility.yul\":8376:8378   */\n      0x20\n        /* \"#utility.yul\":8402:8455   */\n      tag_346\n        /* \"#utility.yul\":8447:8454   */\n      dup8\n        /* \"#utility.yul\":8438:8444   */\n      dup3\n        /* \"#utility.yul\":8427:8436   */\n      dup9\n        /* \"#utility.yul\":8423:8445   */\n      add\n        /* \"#utility.yul\":8402:8455   */\n      tag_192\n      jump\t// in\n    tag_346:\n        /* \"#utility.yul\":8392:8455   */\n      swap4\n      pop\n        /* \"#utility.yul\":8347:8465   */\n      pop\n        /* \"#utility.yul\":8504:8506   */\n      0x40\n        /* \"#utility.yul\":8530:8583   */\n      tag_347\n        /* \"#utility.yul\":8575:8582   */\n      dup8\n        /* \"#utility.yul\":8566:8572   */\n      dup3\n        /* \"#utility.yul\":8555:8564   */\n      dup9\n        /* \"#utility.yul\":8551:8573   */\n      add\n        /* \"#utility.yul\":8530:8583   */\n      tag_187\n      jump\t// in\n    tag_347:\n        /* \"#utility.yul\":8520:8583   */\n      swap3\n      pop\n        /* \"#utility.yul\":8475:8593   */\n      pop\n        /* \"#utility.yul\":8660:8662   */\n      0x60\n        /* \"#utility.yul\":8649:8658   */\n      dup6\n        /* \"#utility.yul\":8645:8663   */\n      add\n        /* \"#utility.yul\":8632:8664   */\n      calldataload\n        /* \"#utility.yul\":8691:8709   */\n      0xffffffffffffffff\n        /* \"#utility.yul\":8683:8689   */\n      dup2\n        /* \"#utility.yul\":8680:8710   */\n      gt\n        /* \"#utility.yul\":8677:8794   */\n      iszero\n      tag_348\n      jumpi\n        /* \"#utility.yul\":8713:8792   */\n      tag_349\n      tag_184\n      jump\t// in\n    tag_349:\n        /* \"#utility.yul\":8677:8794   */\n    tag_348:\n        /* \"#utility.yul\":8818:8880   */\n      tag_350\n        /* \"#utility.yul\":8872:8879   */\n      dup8\n        /* \"#utility.yul\":8863:8869   */\n      dup3\n        /* \"#utility.yul\":8852:8861   */\n      dup9\n        /* \"#utility.yul\":8848:8870   */\n      add\n        /* \"#utility.yul\":8818:8880   */\n      tag_205\n      jump\t// in\n    tag_350:\n        /* \"#utility.yul\":8808:8880   */\n      swap2\n      pop\n        /* \"#utility.yul\":8603:8890   */\n      pop\n        /* \"#utility.yul\":7954:8897   */\n      swap3\n      swap6\n      swap2\n      swap5\n      pop\n      swap3\n      pop\n      jump\t// out\n        /* \"#utility.yul\":8903:9211   */\n    tag_206:\n        /* \"#utility.yul\":8965:8969   */\n      0x00\n        /* \"#utility.yul\":9055:9073   */\n      0xffffffffffffffff\n        /* \"#utility.yul\":9047:9053   */\n      dup3\n        /* \"#utility.yul\":9044:9074   */\n      gt\n        /* \"#utility.yul\":9041:9097   */\n      iszero\n      tag_352\n      jumpi\n        /* \"#utility.yul\":9077:9095   */\n      tag_353\n      tag_199\n      jump\t// in\n    tag_353:\n        /* \"#utility.yul\":9041:9097   */\n    tag_352:\n        /* \"#utility.yul\":9115:9144   */\n      tag_354\n        /* \"#utility.yul\":9137:9143   */\n      dup3\n        /* \"#utility.yul\":9115:9144   */\n      tag_180\n      jump\t// in\n    tag_354:\n        /* \"#utility.yul\":9107:9144   */\n      swap1\n      pop\n        /* \"#utility.yul\":9199:9203   */\n      0x20\n        /* \"#utility.yul\":9193:9197   */\n      dup2\n        /* \"#utility.yul\":9189:9204   */\n      add\n        /* \"#utility.yul\":9181:9204   */\n      swap1\n      pop\n        /* \"#utility.yul\":8903:9211   */\n      swap2\n      swap1\n      pop\n      jump\t// out\n        /* \"#utility.yul\":9217:9642   */\n    tag_207:\n        /* \"#utility.yul\":9295:9300   */\n      0x00\n        /* \"#utility.yul\":9320:9386   */\n      tag_356\n        /* \"#utility.yul\":9336:9385   */\n      tag_357\n        /* \"#utility.yul\":9378:9384   */\n      dup5\n        /* \"#utility.yul\":9336:9385   */\n      tag_206\n      jump\t// in\n    tag_357:\n        /* \"#utility.yul\":9320:9386   */\n      tag_201\n      jump\t// in\n    tag_356:\n        /* \"#utility.yul\":9311:9386   */\n      swap1\n      pop\n        /* \"#utility.yul\":9409:9415   */\n      dup3\n        /* \"#utility.yul\":9402:9407   */\n      dup2\n        /* \"#utility.yul\":9395:9416   */\n      mstore\n        /* \"#utility.yul\":9447:9451   */\n      0x20\n        /* \"#utility.yul\":9440:9445   */\n      dup2\n        /* \"#utility.yul\":9436:9452   */\n      add\n        /* \"#utility.yul\":9485:9488   */\n      dup5\n        /* \"#utility.yul\":9476:9482   */\n      dup5\n        /* \"#utility.yul\":9471:9474   */\n      dup5\n        /* \"#utility.yul\":9467:9483   */\n      add\n        /* \"#utility.yul\":9464:9489   */\n      gt\n        /* \"#utility.yul\":9461:9573   */\n      iszero\n      tag_358\n      jumpi\n        /* \"#utility.yul\":9492:9571   */\n      tag_359\n      tag_198\n      jump\t// in\n    tag_359:\n        /* \"#utility.yul\":9461:9573   */\n    tag_358:\n        /* \"#utility.yul\":9582:9636   */\n      tag_360\n        /* \"#utility.yul\":9629:9635   */\n      dup5\n        /* \"#utility.yul\":9624:9627   */\n      dup3\n        /* \"#utility.yul\":9619:9622   */\n      dup6\n        /* \"#utility.yul\":9582:9636   */\n      tag_203\n      jump\t// in\n    tag_360:\n        /* \"#utility.yul\":9301:9642   */\n      pop\n        /* \"#utility.yul\":9217:9642   */\n      swap4\n      swap3\n      pop\n      pop\n      pop\n      jump\t// out\n        /* \"#utility.yul\":9662:10002   */\n    tag_208:\n        /* \"#utility.yul\":9718:9723   */\n      0x00\n        /* \"#utility.yul\":9767:9770   */\n      dup3\n        /* \"#utility.yul\":9760:9764   */\n      0x1f\n        /* \"#utility.yul\":9752:9758   */\n      dup4\n        /* \"#utility.yul\":9748:9765   */\n      add\n        /* \"#utility.yul\":9744:9771   */\n      slt\n        /* \"#utility.yul\":9734:9856   */\n      tag_362\n      jumpi\n        /* \"#utility.yul\":9775:9854   */\n      tag_363\n      tag_197\n      jump\t// in\n    tag_363:\n        /* \"#utility.yul\":9734:9856   */\n    tag_362:\n        /* \"#utility.yul\":9892:9898   */\n      dup2\n        /* \"#utility.yul\":9879:9899   */\n      calldataload\n        /* \"#utility.yul\":9917:9996   */\n      tag_364\n        /* \"#utility.yul\":9992:9995   */\n      dup5\n        /* \"#utility.yul\":9984:9990   */\n      dup3\n        /* \"#utility.yul\":9977:9981   */\n      0x20\n        /* \"#utility.yul\":9969:9975   */\n      dup7\n        /* \"#utility.yul\":9965:9982   */\n      add\n        /* \"#utility.yul\":9917:9996   */\n      tag_207\n      jump\t// in\n    tag_364:\n        /* \"#utility.yul\":9908:9996   */\n      swap2\n      pop\n        /* \"#utility.yul\":9724:10002   */\n      pop\n        /* \"#utility.yul\":9662:10002   */\n      swap3\n      swap2\n      pop\n      pop\n      jump\t// out\n        /* \"#utility.yul\":10008:10662   */\n    tag_66:\n        /* \"#utility.yul\":10086:10092   */\n      0x00\n        /* \"#utility.yul\":10094:10100   */\n      dup1\n        /* \"#utility.yul\":10143:10145   */\n      0x40\n        /* \"#utility.yul\":10131:10140   */\n      dup4\n        /* \"#utility.yul\":10122:10129   */\n      dup6\n        /* \"#utility.yul\":10118:10141   */\n      sub\n        /* \"#utility.yul\":10114:10146   */\n      slt\n        /* \"#utility.yul\":10111:10230   */\n      iszero\n      tag_366\n      jumpi\n        /* \"#utility.yul\":10149:10228   */\n      tag_367\n      tag_183\n      jump\t// in\n    tag_367:\n        /* \"#utility.yul\":10111:10230   */\n    tag_366:\n        /* \"#utility.yul\":10269:10270   */\n      0x00\n        /* \"#utility.yul\":10294:10347   */\n      tag_368\n        /* \"#utility.yul\":10339:10346   */\n      dup6\n        /* \"#utility.yul\":10330:10336   */\n      dup3\n        /* \"#utility.yul\":10319:10328   */\n      dup7\n        /* \"#utility.yul\":10315:10337   */\n      add\n        /* \"#utility.yul\":10294:10347   */\n      tag_192\n      jump\t// in\n    tag_368:\n        /* \"#utility.yul\":10284:10347   */\n      swap3\n      pop\n        /* \"#utility.yul\":10240:10357   */\n      pop\n        /* \"#utility.yul\":10424:10426   */\n      0x20\n        /* \"#utility.yul\":10413:10422   */\n      dup4\n        /* \"#utility.yul\":10409:10427   */\n      add\n        /* \"#utility.yul\":10396:10428   */\n      calldataload\n        /* \"#utility.yul\":10455:10473   */\n      0xffffffffffffffff\n        /* \"#utility.yul\":10447:10453   */\n      dup2\n        /* \"#utility.yul\":10444:10474   */\n      gt\n        /* \"#utility.yul\":10441:10558   */\n      iszero\n      tag_369\n      jumpi\n        /* \"#utility.yul\":10477:10556   */\n      tag_370\n      tag_184\n      jump\t// in\n    tag_370:\n        /* \"#utility.yul\":10441:10558   */\n    tag_369:\n        /* \"#utility.yul\":10582:10645   */\n      tag_371\n        /* \"#utility.yul\":10637:10644   */\n      dup6\n        /* \"#utility.yul\":10628:10634   */\n      dup3\n        /* \"#utility.yul\":10617:10626   */\n      dup7\n        /* \"#utility.yul\":10613:10635   */\n      add\n        /* \"#utility.yul\":10582:10645   */\n      tag_208\n      jump\t// in\n    tag_371:\n        /* \"#utility.yul\":10572:10645   */\n      swap2\n      pop\n        /* \"#utility.yul\":10367:10655   */\n      pop\n        /* \"#utility.yul\":10008:10662   */\n      swap3\n      pop\n      swap3\n      swap1\n      pop\n      jump\t// out\n        /* \"#utility.yul\":10668:11142   */\n    tag_70:\n        /* \"#utility.yul\":10736:10742   */\n      0x00\n        /* \"#utility.yul\":10744:10750   */\n      dup1\n        /* \"#utility.yul\":10793:10795   */\n      0x40\n        /* \"#utility.yul\":10781:10790   */\n      dup4\n        /* \"#utility.yul\":10772:10779   */\n      dup6\n        /* \"#utility.yul\":10768:10791   */\n      sub\n        /* \"#utility.yul\":10764:10796   */\n      slt\n        /* \"#utility.yul\":10761:10880   */\n      iszero\n      tag_373\n      jumpi\n        /* \"#utility.yul\":10799:10878   */\n      tag_374\n      tag_183\n      jump\t// in\n    tag_374:\n        /* \"#utility.yul\":10761:10880   */\n    tag_373:\n        /* \"#utility.yul\":10919:10920   */\n      0x00\n        /* \"#utility.yul\":10944:10997   */\n      tag_375\n        /* \"#utility.yul\":10989:10996   */\n      dup6\n        /* \"#utility.yul\":10980:10986   */\n      dup3\n        /* \"#utility.yul\":10969:10978   */\n      dup7\n        /* \"#utility.yul\":10965:10987   */\n      add\n        /* \"#utility.yul\":10944:10997   */\n      tag_192\n      jump\t// in\n    tag_375:\n        /* \"#utility.yul\":10934:10997   */\n      swap3\n      pop\n        /* \"#utility.yul\":10890:11007   */\n      pop\n        /* \"#utility.yul\":11046:11048   */\n      0x20\n        /* \"#utility.yul\":11072:11125   */\n      tag_376\n        /* \"#utility.yul\":11117:11124   */\n      dup6\n        /* \"#utility.yul\":11108:11114   */\n      dup3\n        /* \"#utility.yul\":11097:11106   */\n      dup7\n        /* \"#utility.yul\":11093:11115   */\n      add\n        /* \"#utility.yul\":11072:11125   */\n      tag_192\n      jump\t// in\n    tag_376:\n        /* \"#utility.yul\":11062:11125   */\n      swap2\n      pop\n        /* \"#utility.yul\":11017:11135   */\n      pop\n        /* \"#utility.yul\":10668:11142   */\n      swap3\n      pop\n      swap3\n      swap1\n      pop\n      jump\t// out\n        /* \"#utility.yul\":11148:11257   */\n    tag_209:\n        /* \"#utility.yul\":11229:11250   */\n      tag_378\n        /* \"#utility.yul\":11244:11249   */\n      dup2\n        /* \"#utility.yul\":11229:11250   */\n      tag_194\n      jump\t// in\n    tag_378:\n        /* \"#utility.yul\":11224:11227   */\n      dup3\n        /* \"#utility.yul\":11217:11251   */\n      mstore\n        /* \"#utility.yul\":11148:11257   */\n      pop\n      pop\n      jump\t// out\n        /* \"#utility.yul\":11263:11473   */\n    tag_73:\n        /* \"#utility.yul\":11350:11354   */\n      0x00\n        /* \"#utility.yul\":11388:11390   */\n      0x20\n        /* \"#utility.yul\":11377:11386   */\n      dup3\n        /* \"#utility.yul\":11373:11391   */\n      add\n        /* \"#utility.yul\":11365:11391   */\n      swap1\n      pop\n        /* \"#utility.yul\":11401:11466   */\n      tag_380\n        /* \"#utility.yul\":11463:11464   */\n      0x00\n        /* \"#utility.yul\":11452:11461   */\n      dup4\n        /* \"#utility.yul\":11448:11465   */\n      add\n        /* \"#utility.yul\":11439:11445   */\n      dup5\n        /* \"#utility.yul\":11401:11466   */\n      tag_209\n      jump\t// in\n    tag_380:\n        /* \"#utility.yul\":11263:11473   */\n      swap3\n      swap2\n      pop\n      pop\n      jump\t// out\n        /* \"#utility.yul\":11479:11659   */\n    tag_210:\n        /* \"#utility.yul\":11527:11604   */\n      0x4e487b7100000000000000000000000000000000000000000000000000000000\n        /* \"#utility.yul\":11524:11525   */\n      0x00\n        /* \"#utility.yul\":11517:11605   */\n      mstore\n        /* \"#utility.yul\":11624:11628   */\n      0x22\n        /* \"#utility.yul\":11621:11622   */\n      0x04\n        /* \"#utility.yul\":11614:11629   */\n      mstore\n        /* \"#utility.yul\":11648:11652   */\n      0x24\n        /* \"#utility.yul\":11645:11646   */\n      0x00\n        /* \"#utility.yul\":11638:11653   */\n      revert\n        /* \"#utility.yul\":11665:11985   */\n    tag_75:\n        /* \"#utility.yul\":11709:11715   */\n      0x00\n        /* \"#utility.yul\":11746:11747   */\n      0x02\n        /* \"#utility.yul\":11740:11744   */\n      dup3\n        /* \"#utility.yul\":11736:11748   */\n      div\n        /* \"#utility.yul\":11726:11748   */\n      swap1\n      pop\n        /* \"#utility.yul\":11793:11794   */\n      0x01\n        /* \"#utility.yul\":11787:11791   */\n      dup3\n        /* \"#utility.yul\":11783:11795   */\n      and\n        /* \"#utility.yul\":11814:11832   */\n      dup1\n        /* \"#utility.yul\":11804:11885   */\n      tag_383\n      jumpi\n        /* \"#utility.yul\":11870:11874   */\n      0x7f\n        /* \"#utility.yul\":11862:11868   */\n      dup3\n        /* \"#utility.yul\":11858:11875   */\n      and\n        /* \"#utility.yul\":11848:11875   */\n      swap2\n      pop\n        /* \"#utility.yul\":11804:11885   */\n    tag_383:\n        /* \"#utility.yul\":11932:11934   */\n      0x20\n        /* \"#utility.yul\":11924:11930   */\n      dup3\n        /* \"#utility.yul\":11921:11935   */\n      lt\n        /* \"#utility.yul\":11901:11919   */\n      dup2\n        /* \"#utility.yul\":11898:11936   */\n      sub\n        /* \"#utility.yul\":11895:11979   */\n      tag_384\n      jumpi\n        /* \"#utility.yul\":11951:11969   */\n      tag_385\n      tag_210\n      jump\t// in\n    tag_385:\n        /* \"#utility.yul\":11895:11979   */\n    tag_384:\n        /* \"#utility.yul\":11716:11985   */\n      pop\n        /* \"#utility.yul\":11665:11985   */\n      swap2\n      swap1\n      pop\n      jump\t// out\n        /* \"#utility.yul\":11991:12160   */\n    tag_211:\n        /* \"#utility.yul\":12131:12152   */\n      0x546f6b656e20646f65736e277420657869737400000000000000000000000000\n        /* \"#utility.yul\":12127:12128   */\n      0x00\n        /* \"#utility.yul\":12119:12125   */\n      dup3\n        /* \"#utility.yul\":12115:12129   */\n      add\n        /* \"#utility.yul\":12108:12153   */\n      mstore\n        /* \"#utility.yul\":11991:12160   */\n      pop\n      jump\t// out\n        /* \"#utility.yul\":12166:12532   */\n    tag_212:\n        /* \"#utility.yul\":12308:12311   */\n      0x00\n        /* \"#utility.yul\":12329:12396   */\n      tag_388\n        /* \"#utility.yul\":12393:12395   */\n      0x13\n        /* \"#utility.yul\":12388:12391   */\n      dup4\n        /* \"#utility.yul\":12329:12396   */\n      tag_178\n      jump\t// in\n    tag_388:\n        /* \"#utility.yul\":12322:12396   */\n      swap2\n      pop\n        /* \"#utility.yul\":12405:12498   */\n      tag_389\n        /* \"#utility.yul\":12494:12497   */\n      dup3\n        /* \"#utility.yul\":12405:12498   */\n      tag_211\n      jump\t// in\n    tag_389:\n        /* \"#utility.yul\":12523:12525   */\n      0x20\n        /* \"#utility.yul\":12518:12521   */\n      dup3\n        /* \"#utility.yul\":12514:12526   */\n      add\n        /* \"#utility.yul\":12507:12526   */\n      swap1\n      pop\n        /* \"#utility.yul\":12166:12532   */\n      swap2\n      swap1\n      pop\n      jump\t// out\n        /* \"#utility.yul\":12538:12957   */\n    tag_83:\n        /* \"#utility.yul\":12704:12708   */\n      0x00\n        /* \"#utility.yul\":12742:12744   */\n      0x20\n        /* \"#utility.yul\":12731:12740   */\n      dup3\n        /* \"#utility.yul\":12727:12745   */\n      add\n        /* \"#utility.yul\":12719:12745   */\n      swap1\n      pop\n        /* \"#utility.yul\":12791:12800   */\n      dup2\n        /* \"#utility.yul\":12785:12789   */\n      dup2\n        /* \"#utility.yul\":12781:12801   */\n      sub\n        /* \"#utility.yul\":12777:12778   */\n      0x00\n        /* \"#utility.yul\":12766:12775   */\n      dup4\n        /* \"#utility.yul\":12762:12779   */\n      add\n        /* \"#utility.yul\":12755:12802   */\n      mstore\n        /* \"#utility.yul\":12819:12950   */\n      tag_391\n        /* \"#utility.yul\":12945:12949   */\n      dup2\n        /* \"#utility.yul\":12819:12950   */\n      tag_212\n      jump\t// in\n    tag_391:\n        /* \"#utility.yul\":12811:12950   */\n      swap1\n      pop\n        /* \"#utility.yul\":12538:12957   */\n      swap2\n      swap1\n      pop\n      jump\t// out\n        /* \"#utility.yul\":12963:13126   */\n    tag_213:\n        /* \"#utility.yul\":13103:13118   */\n      0x416c7265616479206f776e657200000000000000000000000000000000000000\n        /* \"#utility.yul\":13099:13100   */\n      0x00\n        /* \"#utility.yul\":13091:13097   */\n      dup3\n        /* \"#utility.yul\":13087:13101   */\n      add\n        /* \"#utility.yul\":13080:13119   */\n      mstore\n        /* \"#utility.yul\":12963:13126   */\n      pop\n      jump\t// out\n        /* \"#utility.yul\":13132:13498   */\n    tag_214:\n        /* \"#utility.yul\":13274:13277   */\n      0x00\n        /* \"#utility.yul\":13295:13362   */\n      tag_394\n        /* \"#utility.yul\":13359:13361   */\n      0x0d\n        /* \"#utility.yul\":13354:13357   */\n      dup4\n        /* \"#utility.yul\":13295:13362   */\n      tag_178\n      jump\t// in\n    tag_394:\n        /* \"#utility.yul\":13288:13362   */\n      swap2\n      pop\n        /* \"#utility.yul\":13371:13464   */\n      tag_395\n        /* \"#utility.yul\":13460:13463   */\n      dup3\n        /* \"#utility.yul\":13371:13464   */\n      tag_213\n      jump\t// in\n    tag_395:\n        /* \"#utility.yul\":13489:13491   */\n      0x20\n        /* \"#utility.yul\":13484:13487   */\n      dup3\n        /* \"#utility.yul\":13480:13492   */\n      add\n        /* \"#utility.yul\":13473:13492   */\n      swap1\n      pop\n        /* \"#utility.yul\":13132:13498   */\n      swap2\n      swap1\n      pop\n      jump\t// out\n        /* \"#utility.yul\":13504:13923   */\n    tag_88:\n        /* \"#utility.yul\":13670:13674   */\n      0x00\n        /* \"#utility.yul\":13708:13710   */\n      0x20\n        /* \"#utility.yul\":13697:13706   */\n      dup3\n        /* \"#utility.yul\":13693:13711   */\n      add\n        /* \"#utility.yul\":13685:13711   */\n      swap1\n      pop\n        /* \"#utility.yul\":13757:13766   */\n      dup2\n        /* \"#utility.yul\":13751:13755   */\n      dup2\n        /* \"#utility.yul\":13747:13767   */\n      sub\n        /* \"#utility.yul\":13743:13744   */\n      0x00\n        /* \"#utility.yul\":13732:13741   */\n      dup4\n        /* \"#utility.yul\":13728:13745   */\n      add\n        /* \"#utility.yul\":13721:13768   */\n      mstore\n        /* \"#utility.yul\":13785:13916   */\n      tag_397\n        /* \"#utility.yul\":13911:13915   */\n      dup2\n        /* \"#utility.yul\":13785:13916   */\n      tag_214\n      jump\t// in\n    tag_397:\n        /* \"#utility.yul\":13777:13916   */\n      swap1\n      pop\n        /* \"#utility.yul\":13504:13923   */\n      swap2\n      swap1\n      pop\n      jump\t// out\n        /* \"#utility.yul\":13929:14093   */\n    tag_215:\n        /* \"#utility.yul\":14069:14085   */\n      0x4e6f7420617574686f72697a6564000000000000000000000000000000000000\n        /* \"#utility.yul\":14065:14066   */\n      0x00\n        /* \"#utility.yul\":14057:14063   */\n      dup3\n        /* \"#utility.yul\":14053:14067   */\n      add\n        /* \"#utility.yul\":14046:14086   */\n      mstore\n        /* \"#utility.yul\":13929:14093   */\n      pop\n      jump\t// out\n        /* \"#utility.yul\":14099:14465   */\n    tag_216:\n        /* \"#utility.yul\":14241:14244   */\n      0x00\n        /* \"#utility.yul\":14262:14329   */\n      tag_400\n        /* \"#utility.yul\":14326:14328   */\n      0x0e\n        /* \"#utility.yul\":14321:14324   */\n      dup4\n        /* \"#utility.yul\":14262:14329   */\n      tag_178\n      jump\t// in\n    tag_400:\n        /* \"#utility.yul\":14255:14329   */\n      swap2\n      pop\n        /* \"#utility.yul\":14338:14431   */\n      tag_401\n        /* \"#utility.yul\":14427:14430   */\n      dup3\n        /* \"#utility.yul\":14338:14431   */\n      tag_215\n      jump\t// in\n    tag_401:\n        /* \"#utility.yul\":14456:14458   */\n      0x20\n        /* \"#utility.yul\":14451:14454   */\n      dup3\n        /* \"#utility.yul\":14447:14459   */\n      add\n        /* \"#utility.yul\":14440:14459   */\n      swap1\n      pop\n        /* \"#utility.yul\":14099:14465   */\n      swap2\n      swap1\n      pop\n      jump\t// out\n        /* \"#utility.yul\":14471:14890   */\n    tag_93:\n        /* \"#utility.yul\":14637:14641   */\n      0x00\n        /* \"#utility.yul\":14675:14677   */\n      0x20\n        /* \"#utility.yul\":14664:14673   */\n      dup3\n        /* \"#utility.yul\":14660:14678   */\n      add\n        /* \"#utility.yul\":14652:14678   */\n      swap1\n      pop\n        /* \"#utility.yul\":14724:14733   */\n      dup2\n        /* \"#utility.yul\":14718:14722   */\n      dup2\n        /* \"#utility.yul\":14714:14734   */\n      sub\n        /* \"#utility.yul\":14710:14711   */\n      0x00\n        /* \"#utility.yul\":14699:14708   */\n      dup4\n        /* \"#utility.yul\":14695:14712   */\n      add\n        /* \"#utility.yul\":14688:14735   */\n      mstore\n        /* \"#utility.yul\":14752:14883   */\n      tag_403\n        /* \"#utility.yul\":14878:14882   */\n      dup2\n        /* \"#utility.yul\":14752:14883   */\n      tag_216\n      jump\t// in\n    tag_403:\n        /* \"#utility.yul\":14744:14883   */\n      swap1\n      pop\n        /* \"#utility.yul\":14471:14890   */\n      swap2\n      swap1\n      pop\n      jump\t// out\n        /* \"#utility.yul\":14896:15058   */\n    tag_217:\n        /* \"#utility.yul\":15036:15050   */\n      0x5a65726f20616464726573730000000000000000000000000000000000000000\n        /* \"#utility.yul\":15032:15033   */\n      0x00\n        /* \"#utility.yul\":15024:15030   */\n      dup3\n        /* \"#utility.yul\":15020:15034   */\n      add\n        /* \"#utility.yul\":15013:15051   */\n      mstore\n        /* \"#utility.yul\":14896:15058   */\n      pop\n      jump\t// out\n        /* \"#utility.yul\":15064:15430   */\n    tag_218:\n        /* \"#utility.yul\":15206:15209   */\n      0x00\n        /* \"#utility.yul\":15227:15294   */\n      tag_406\n        /* \"#utility.yul\":15291:15293   */\n      0x0c\n        /* \"#utility.yul\":15286:15289   */\n      dup4\n        /* \"#utility.yul\":15227:15294   */\n      tag_178\n      jump\t// in\n    tag_406:\n        /* \"#utility.yul\":15220:15294   */\n      swap2\n      pop\n        /* \"#utility.yul\":15303:15396   */\n      tag_407\n        /* \"#utility.yul\":15392:15395   */\n      dup3\n        /* \"#utility.yul\":15303:15396   */\n      tag_217\n      jump\t// in\n    tag_407:\n        /* \"#utility.yul\":15421:15423   */\n      0x20\n        /* \"#utility.yul\":15416:15419   */\n      dup3\n        /* \"#utility.yul\":15412:15424   */\n      add\n        /* \"#utility.yul\":15405:15424   */\n      swap1\n      pop\n        /* \"#utility.yul\":15064:15430   */\n      swap2\n      swap1\n      pop\n      jump\t// out\n        /* \"#utility.yul\":15436:15855   */\n    tag_109:\n        /* \"#utility.yul\":15602:15606   */\n      0x00\n        /* \"#utility.yul\":15640:15642   */\n      0x20\n        /* \"#utility.yul\":15629:15638   */\n      dup3\n        /* \"#utility.yul\":15625:15643   */\n      add\n        /* \"#utility.yul\":15617:15643   */\n      swap1\n      pop\n        /* \"#utility.yul\":15689:15698   */\n      dup2\n        /* \"#utility.yul\":15683:15687   */\n      dup2\n        /* \"#utility.yul\":15679:15699   */\n      sub\n        /* \"#utility.yul\":15675:15676   */\n      0x00\n        /* \"#utility.yul\":15664:15673   */\n      dup4\n        /* \"#utility.yul\":15660:15677   */\n      add\n        /* \"#utility.yul\":15653:15700   */\n      mstore\n        /* \"#utility.yul\":15717:15848   */\n      tag_409\n        /* \"#utility.yul\":15843:15847   */\n      dup2\n        /* \"#utility.yul\":15717:15848   */\n      tag_218\n      jump\t// in\n    tag_409:\n        /* \"#utility.yul\":15709:15848   */\n      swap1\n      pop\n        /* \"#utility.yul\":15436:15855   */\n      swap2\n      swap1\n      pop\n      jump\t// out\n        /* \"#utility.yul\":15861:16024   */\n    tag_219:\n        /* \"#utility.yul\":16001:16016   */\n      0x53656c6620617070726f76616c00000000000000000000000000000000000000\n        /* \"#utility.yul\":15997:15998   */\n      0x00\n        /* \"#utility.yul\":15989:15995   */\n      dup3\n        /* \"#utility.yul\":15985:15999   */\n      add\n        /* \"#utility.yul\":15978:16017   */\n      mstore\n        /* \"#utility.yul\":15861:16024   */\n      pop\n      jump\t// out\n        /* \"#utility.yul\":16030:16396   */\n    tag_220:\n        /* \"#utility.yul\":16172:16175   */\n      0x00\n        /* \"#utility.yul\":16193:16260   */\n      tag_412\n        /* \"#utility.yul\":16257:16259   */\n      0x0d\n        /* \"#utility.yul\":16252:16255   */\n      dup4\n        /* \"#utility.yul\":16193:16260   */\n      tag_178\n      jump\t// in\n    tag_412:\n        /* \"#utility.yul\":16186:16260   */\n      swap2\n      pop\n        /* \"#utility.yul\":16269:16362   */\n      tag_413\n        /* \"#utility.yul\":16358:16361   */\n      dup3\n        /* \"#utility.yul\":16269:16362   */\n      tag_219\n      jump\t// in\n    tag_413:\n        /* \"#utility.yul\":16387:16389   */\n      0x20\n        /* \"#utility.yul\":16382:16385   */\n      dup3\n        /* \"#utility.yul\":16378:16390   */\n      add\n        /* \"#utility.yul\":16371:16390   */\n      swap1\n      pop\n        /* \"#utility.yul\":16030:16396   */\n      swap2\n      swap1\n      pop\n      jump\t// out\n        /* \"#utility.yul\":16402:16821   */\n    tag_118:\n        /* \"#utility.yul\":16568:16572   */\n      0x00\n        /* \"#utility.yul\":16606:16608   */\n      0x20\n        /* \"#utility.yul\":16595:16604   */\n      dup3\n        /* \"#utility.yul\":16591:16609   */\n      add\n        /* \"#utility.yul\":16583:16609   */\n      swap1\n      pop\n        /* \"#utility.yul\":16655:16664   */\n      dup2\n        /* \"#utility.yul\":16649:16653   */\n      dup2\n        /* \"#utility.yul\":16645:16665   */\n      sub\n        /* \"#utility.yul\":16641:16642   */\n      0x00\n        /* \"#utility.yul\":16630:16639   */\n      dup4\n        /* \"#utility.yul\":16626:16643   */\n      add\n        /* \"#utility.yul\":16619:16666   */\n      mstore\n        /* \"#utility.yul\":16683:16814   */\n      tag_415\n        /* \"#utility.yul\":16809:16813   */\n      dup2\n        /* \"#utility.yul\":16683:16814   */\n      tag_220\n      jump\t// in\n    tag_415:\n        /* \"#utility.yul\":16675:16814   */\n      swap1\n      pop\n        /* \"#utility.yul\":16402:16821   */\n      swap2\n      swap1\n      pop\n      jump\t// out\n        /* \"#utility.yul\":16827:17007   */\n    tag_221:\n        /* \"#utility.yul\":16875:16952   */\n      0x4e487b7100000000000000000000000000000000000000000000000000000000\n        /* \"#utility.yul\":16872:16873   */\n      0x00\n        /* \"#utility.yul\":16865:16953   */\n      mstore\n        /* \"#utility.yul\":16972:16976   */\n      0x11\n        /* \"#utility.yul\":16969:16970   */\n      0x04\n        /* \"#utility.yul\":16962:16977   */\n      mstore\n        /* \"#utility.yul\":16996:17000   */\n      0x24\n        /* \"#utility.yul\":16993:16994   */\n      0x00\n        /* \"#utility.yul\":16986:17001   */\n      revert\n        /* \"#utility.yul\":17013:17246   */\n    tag_136:\n        /* \"#utility.yul\":17052:17055   */\n      0x00\n        /* \"#utility.yul\":17075:17099   */\n      tag_418\n        /* \"#utility.yul\":17093:17098   */\n      dup3\n        /* \"#utility.yul\":17075:17099   */\n      tag_185\n      jump\t// in\n    tag_418:\n        /* \"#utility.yul\":17066:17099   */\n      swap2\n      pop\n        /* \"#utility.yul\":17121:17187   */\n      0xffffffffffffffffffffffffffffffffffffffffffffffffffffffffffffffff\n        /* \"#utility.yul\":17114:17119   */\n      dup3\n        /* \"#utility.yul\":17111:17188   */\n      sub\n        /* \"#utility.yul\":17108:17211   */\n      tag_419\n      jumpi\n        /* \"#utility.yul\":17191:17209   */\n      tag_420\n      tag_221\n      jump\t// in\n    tag_420:\n        /* \"#utility.yul\":17108:17211   */\n    tag_419:\n        /* \"#utility.yul\":17238:17239   */\n      0x01\n        /* \"#utility.yul\":17231:17236   */\n      dup3\n        /* \"#utility.yul\":17227:17240   */\n      add\n        /* \"#utility.yul\":17220:17240   */\n      swap1\n      pop\n        /* \"#utility.yul\":17013:17246   */\n      swap2\n      swap1\n      pop\n      jump\t// out\n        /* \"#utility.yul\":17252:17443   */\n    tag_138:\n        /* \"#utility.yul\":17292:17295   */\n      0x00\n        /* \"#utility.yul\":17311:17331   */\n      tag_422\n        /* \"#utility.yul\":17329:17330   */\n      dup3\n        /* \"#utility.yul\":17311:17331   */\n      tag_185\n      jump\t// in\n    tag_422:\n        /* \"#utility.yul\":17306:17331   */\n      swap2\n      pop\n        /* \"#utility.yul\":17345:17365   */\n      tag_423\n        /* \"#utility.yul\":17363:17364   */\n      dup4\n        /* \"#utility.yul\":17345:17365   */\n      tag_185\n      jump\t// in\n    tag_423:\n        /* \"#utility.yul\":17340:17365   */\n      swap3\n      pop\n        /* \"#utility.yul\":17388:17389   */\n      dup3\n        /* \"#utility.yul\":17385:17386   */\n      dup3\n        /* \"#utility.yul\":17381:17390   */\n      add\n        /* \"#utility.yul\":17374:17390   */\n      swap1\n      pop\n        /* \"#utility.yul\":17409:17412   */\n      dup1\n        /* \"#utility.yul\":17406:17407   */\n      dup3\n        /* \"#utility.yul\":17403:17413   */\n      gt\n        /* \"#utility.yul\":17400:17436   */\n      iszero\n      tag_424\n      jumpi\n        /* \"#utility.yul\":17416:17434   */\n      tag_425\n      tag_221\n      jump\t// in\n    tag_425:\n        /* \"#utility.yul\":17400:17436   */\n    tag_424:\n        /* \"#utility.yul\":17252:17443   */\n      swap3\n      swap2\n      pop\n      pop\n      jump\t// out\n        /* \"#utility.yul\":17449:17590   */\n    tag_222:\n        /* \"#utility.yul\":17498:17502   */\n      0x00\n        /* \"#utility.yul\":17521:17524   */\n      dup2\n        /* \"#utility.yul\":17513:17524   */\n      swap1\n      pop\n        /* \"#utility.yul\":17544:17547   */\n      dup2\n        /* \"#utility.yul\":17541:17542   */\n      0x00\n        /* \"#utility.yul\":17534:17548   */\n      mstore\n        /* \"#utility.yul\":17578:17582   */\n      0x20\n        /* \"#utility.yul\":17575:17576   */\n      0x00\n        /* \"#utility.yul\":17565:17583   */\n      keccak256\n        /* \"#utility.yul\":17557:17583   */\n      swap1\n      pop\n        /* \"#utility.yul\":17449:17590   */\n      swap2\n      swap1\n      pop\n      jump\t// out\n        /* \"#utility.yul\":17596:17689   */\n    tag_223:\n        /* \"#utility.yul\":17633:17639   */\n      0x00\n        /* \"#utility.yul\":17680:17682   */\n      0x20\n        /* \"#utility.yul\":17675:17677   */\n      0x1f\n        /* \"#utility.yul\":17668:17673   */\n      dup4\n        /* \"#utility.yul\":17664:17678   */\n      add\n        /* \"#utility.yul\":17660:17683   */\n      div\n        /* \"#utility.yul\":17650:17683   */\n      swap1\n      pop\n        /* \"#utility.yul\":17596:17689   */\n      swap2\n      swap1\n      pop\n      jump\t// out\n        /* \"#utility.yul\":17695:17802   */\n    tag_224:\n        /* \"#utility.yul\":17739:17747   */\n      0x00\n        /* \"#utility.yul\":17789:17794   */\n      dup3\n        /* \"#utility.yul\":17783:17787   */\n      dup3\n        /* \"#utility.yul\":17779:17795   */\n      shl\n        /* \"#utility.yul\":17758:17795   */\n      swap1\n      pop\n        /* \"#utility.yul\":17695:17802   */\n      swap3\n      swap2\n      pop\n      pop\n      jump\t// out\n        /* \"#utility.yul\":17808:18201   */\n    tag_225:\n        /* \"#utility.yul\":17877:17883   */\n      0x00\n        /* \"#utility.yul\":17927:17928   */\n      0x08\n        /* \"#utility.yul\":17915:17925   */\n      dup4\n        /* \"#utility.yul\":17911:17929   */\n      mul\n        /* \"#utility.yul\":17950:18047   */\n      tag_430\n        /* \"#utility.yul\":17980:18046   */\n      0xffffffffffffffffffffffffffffffffffffffffffffffffffffffffffffffff\n        /* \"#utility.yul\":17969:17978   */\n      dup3\n        /* \"#utility.yul\":17950:18047   */\n      tag_224\n      jump\t// in\n    tag_430:\n        /* \"#utility.yul\":18068:18107   */\n      tag_431\n        /* \"#utility.yul\":18098:18106   */\n      dup7\n        /* \"#utility.yul\":18087:18096   */\n      dup4\n        /* \"#utility.yul\":18068:18107   */\n      tag_224\n      jump\t// in\n    tag_431:\n        /* \"#utility.yul\":18056:18107   */\n      swap6\n      pop\n        /* \"#utility.yul\":18140:18144   */\n      dup1\n        /* \"#utility.yul\":18136:18145   */\n      not\n        /* \"#utility.yul\":18129:18134   */\n      dup5\n        /* \"#utility.yul\":18125:18146   */\n      and\n        /* \"#utility.yul\":18116:18146   */\n      swap4\n      pop\n        /* \"#utility.yul\":18189:18193   */\n      dup1\n        /* \"#utility.yul\":18179:18187   */\n      dup7\n        /* \"#utility.yul\":18175:18194   */\n      and\n        /* \"#utility.yul\":18168:18173   */\n      dup5\n        /* \"#utility.yul\":18165:18195   */\n      or\n        /* \"#utility.yul\":18155:18195   */\n      swap3\n      pop\n        /* \"#utility.yul\":17884:18201   */\n      pop\n      pop\n        /* \"#utility.yul\":17808:18201   */\n      swap4\n      swap3\n      pop\n      pop\n      pop\n      jump\t// out\n        /* \"#utility.yul\":18207:18267   */\n    tag_226:\n        /* \"#utility.yul\":18235:18238   */\n      0x00\n        /* \"#utility.yul\":18256:18261   */\n      dup2\n        /* \"#utility.yul\":18249:18261   */\n      swap1\n      pop\n        /* \"#utility.yul\":18207:18267   */\n      swap2\n      swap1\n      pop\n      jump\t// out\n        /* \"#utility.yul\":18273:18415   */\n    tag_227:\n        /* \"#utility.yul\":18323:18332   */\n      0x00\n        /* \"#utility.yul\":18356:18409   */\n      tag_434\n        /* \"#utility.yul\":18374:18408   */\n      tag_435\n        /* \"#utility.yul\":18383:18407   */\n      tag_436\n        /* \"#utility.yul\":18401:18406   */\n      dup5\n        /* \"#utility.yul\":18383:18407   */\n      tag_185\n      jump\t// in\n    tag_436:\n        /* \"#utility.yul\":18374:18408   */\n      tag_226\n      jump\t// in\n    tag_435:\n        /* \"#utility.yul\":18356:18409   */\n      tag_185\n      jump\t// in\n    tag_434:\n        /* \"#utility.yul\":18343:18409   */\n      swap1\n      pop\n        /* \"#utility.yul\":18273:18415   */\n      swap2\n      swap1\n      pop\n      jump\t// out\n        /* \"#utility.yul\":18421:18496   */\n    tag_228:\n        /* \"#utility.yul\":18464:18467   */\n      0x00\n        /* \"#utility.yul\":18485:18490   */\n      dup2\n        /* \"#utility.yul\":18478:18490   */\n      swap1\n      pop\n        /* \"#utility.yul\":18421:18496   */\n      swap2\n      swap1\n      pop\n      jump\t// out\n        /* \"#utility.yul\":18502:18771   */\n    tag_229:\n        /* \"#utility.yul\":18612:18651   */\n      tag_439\n        /* \"#utility.yul\":18643:18650   */\n      dup4\n        /* \"#utility.yul\":18612:18651   */\n      tag_227\n      jump\t// in\n    tag_439:\n        /* \"#utility.yul\":18673:18764   */\n      tag_440\n        /* \"#utility.yul\":18722:18763   */\n      tag_441\n        /* \"#utility.yul\":18746:18762   */\n      dup3\n        /* \"#utility.yul\":18722:18763   */\n      tag_228\n      jump\t// in\n    tag_441:\n        /* \"#utility.yul\":18714:18720   */\n      dup5\n        /* \"#utility.yul\":18707:18711   */\n      dup5\n        /* \"#utility.yul\":18701:18712   */\n      sload\n        /* \"#utility.yul\":18673:18764   */\n      tag_225\n      jump\t// in\n    tag_440:\n        /* \"#utility.yul\":18667:18671   */\n      dup3\n        /* \"#utility.yul\":18660:18765   */\n      sstore\n        /* \"#utility.yul\":18578:18771   */\n      pop\n        /* \"#utility.yul\":18502:18771   */\n      pop\n      pop\n      pop\n      jump\t// out\n        /* \"#utility.yul\":18777:18850   */\n    tag_230:\n        /* \"#utility.yul\":18822:18825   */\n      0x00\n        /* \"#utility.yul\":18777:18850   */\n      swap1\n      jump\t// out\n        /* \"#utility.yul\":18856:19045   */\n    tag_231:\n        /* \"#utility.yul\":18933:18965   */\n      tag_444\n      tag_230\n      jump\t// in\n    tag_444:\n        /* \"#utility.yul\":18974:19039   */\n      tag_445\n        /* \"#utility.yul\":19032:19038   */\n      dup2\n        /* \"#utility.yul\":19024:19030   */\n      dup5\n        /* \"#utility.yul\":19018:19022   */\n      dup5\n        /* \"#utility.yul\":18974:19039   */\n      tag_229\n      jump\t// in\n    tag_445:\n        /* \"#utility.yul\":18909:19045   */\n      pop\n        /* \"#utility.yul\":18856:19045   */\n      pop\n      pop\n      jump\t// out\n        /* \"#utility.yul\":19051:19237   */\n    tag_232:\n        /* \"#utility.yul\":19111:19231   */\n    tag_447:\n        /* \"#utility.yul\":19128:19131   */\n      dup2\n        /* \"#utility.yul\":19121:19126   */\n      dup2\n        /* \"#utility.yul\":19118:19132   */\n      lt\n        /* \"#utility.yul\":19111:19231   */\n      iszero\n      tag_449\n      jumpi\n        /* \"#utility.yul\":19182:19221   */\n      tag_450\n        /* \"#utility.yul\":19219:19220   */\n      0x00\n        /* \"#utility.yul\":19212:19217   */\n      dup3\n        /* \"#utility.yul\":19182:19221   */\n      tag_231\n      jump\t// in\n    tag_450:\n        /* \"#utility.yul\":19155:19156   */\n      0x01\n        /* \"#utility.yul\":19148:19153   */\n      dup2\n        /* \"#utility.yul\":19144:19157   */\n      add\n        /* \"#utility.yul\":19135:19157   */\n      swap1\n      pop\n        /* \"#utility.yul\":19111:19231   */\n      jump(tag_447)\n    tag_449:\n        /* \"#utility.yul\":19051:19237   */\n      pop\n      pop\n      jump\t// out\n        /* \"#utility.yul\":19243:19786   */\n    tag_233:\n        /* \"#utility.yul\":19344:19346   */\n      0x1f\n        /* \"#utility.yul\":19339:19342   */\n      dup3\n        /* \"#utility.yul\":19336:19347   */\n      gt\n        /* \"#utility.yul\":19333:19779   */\n      iszero\n      tag_452\n      jumpi\n        /* \"#utility.yul\":19378:19416   */\n      tag_453\n        /* \"#utility.yul\":19410:19415   */\n      dup2\n        /* \"#utility.yul\":19378:19416   */\n      tag_222\n      jump\t// in\n    tag_453:\n        /* \"#utility.yul\":19462:19491   */\n      tag_454\n        /* \"#utility.yul\":19480:19490   */\n      dup5\n        /* \"#utility.yul\":19462:19491   */\n      tag_223\n      jump\t// in\n    tag_454:\n        /* \"#utility.yul\":19452:19460   */\n      dup2\n        /* \"#utility.yul\":19448:19492   */\n      add\n        /* \"#utility.yul\":19645:19647   */\n      0x20\n        /* \"#utility.yul\":19633:19643   */\n      dup6\n        /* \"#utility.yul\":19630:19648   */\n      lt\n        /* \"#utility.yul\":19627:19676   */\n      iszero\n      tag_455\n      jumpi\n        /* \"#utility.yul\":19666:19674   */\n      dup2\n        /* \"#utility.yul\":19651:19674   */\n      swap1\n      pop\n        /* \"#utility.yul\":19627:19676   */\n    tag_455:\n        /* \"#utility.yul\":19689:19769   */\n      tag_456\n        /* \"#utility.yul\":19745:19767   */\n      tag_457\n        /* \"#utility.yul\":19763:19766   */\n      dup6\n        /* \"#utility.yul\":19745:19767   */\n      tag_223\n      jump\t// in\n    tag_457:\n        /* \"#utility.yul\":19735:19743   */\n      dup4\n        /* \"#utility.yul\":19731:19768   */\n      add\n        /* \"#utility.yul\":19718:19729   */\n      dup3\n        /* \"#utility.yul\":19689:19769   */\n      tag_232\n      jump\t// in\n    tag_456:\n        /* \"#utility.yul\":19348:19779   */\n      pop\n      pop\n        /* \"#utility.yul\":19333:19779   */\n    tag_452:\n        /* \"#utility.yul\":19243:19786   */\n      pop\n      pop\n      pop\n      jump\t// out\n        /* \"#utility.yul\":19792:19909   */\n    tag_234:\n        /* \"#utility.yul\":19846:19854   */\n      0x00\n        /* \"#utility.yul\":19896:19901   */\n      dup3\n        /* \"#utility.yul\":19890:19894   */\n      dup3\n        /* \"#utility.yul\":19886:19902   */\n      shr\n        /* \"#utility.yul\":19865:19902   */\n      swap1\n      pop\n        /* \"#utility.yul\":19792:19909   */\n      swap3\n      swap2\n      pop\n      pop\n      jump\t// out\n        /* \"#utility.yul\":19915:20084   */\n    tag_235:\n        /* \"#utility.yul\":19959:19965   */\n      0x00\n        /* \"#utility.yul\":19992:20043   */\n      tag_460\n        /* \"#utility.yul\":20040:20041   */\n      0x00\n        /* \"#utility.yul\":20036:20042   */\n      not\n        /* \"#utility.yul\":20028:20033   */\n      dup5\n        /* \"#utility.yul\":20025:20026   */\n      0x08\n        /* \"#utility.yul\":20021:20034   */\n      mul\n        /* \"#utility.yul\":19992:20043   */\n      tag_234\n      jump\t// in\n    tag_460:\n        /* \"#utility.yul\":19988:20044   */\n      not\n        /* \"#utility.yul\":20073:20077   */\n      dup1\n        /* \"#utility.yul\":20067:20071   */\n      dup4\n        /* \"#utility.yul\":20063:20078   */\n      and\n        /* \"#utility.yul\":20053:20078   */\n      swap2\n      pop\n        /* \"#utility.yul\":19966:20084   */\n      pop\n        /* \"#utility.yul\":19915:20084   */\n      swap3\n      swap2\n      pop\n      pop\n      jump\t// out\n        /* \"#utility.yul\":20089:20384   */\n    tag_236:\n        /* \"#utility.yul\":20165:20169   */\n      0x00\n        /* \"#utility.yul\":20311:20340   */\n      tag_462\n        /* \"#utility.yul\":20336:20339   */\n      dup4\n        /* \"#utility.yul\":20330:20334   */\n      dup4\n        /* \"#utility.yul\":20311:20340   */\n      tag_235\n      jump\t// in\n    tag_462:\n        /* \"#utility.yul\":20303:20340   */\n      swap2\n      pop\n        /* \"#utility.yul\":20373:20376   */\n      dup3\n        /* \"#utility.yul\":20370:20371   */\n      0x02\n        /* \"#utility.yul\":20366:20377   */\n      mul\n        /* \"#utility.yul\":20360:20364   */\n      dup3\n        /* \"#utility.yul\":20357:20378   */\n      or\n        /* \"#utility.yul\":20349:20378   */\n      swap1\n      pop\n        /* \"#utility.yul\":20089:20384   */\n      swap3\n      swap2\n      pop\n      pop\n      jump\t// out\n        /* \"#utility.yul\":20389:21784   */\n    tag_140:\n        /* \"#utility.yul\":20506:20543   */\n      tag_464\n        /* \"#utility.yul\":20539:20542   */\n      dup3\n        /* \"#utility.yul\":20506:20543   */\n      tag_177\n      jump\t// in\n    tag_464:\n        /* \"#utility.yul\":20608:20626   */\n      0xffffffffffffffff\n        /* \"#utility.yul\":20600:20606   */\n      dup2\n        /* \"#utility.yul\":20597:20627   */\n      gt\n        /* \"#utility.yul\":20594:20650   */\n      iszero\n      tag_465\n      jumpi\n        /* \"#utility.yul\":20630:20648   */\n      tag_466\n      tag_199\n      jump\t// in\n    tag_466:\n        /* \"#utility.yul\":20594:20650   */\n    tag_465:\n        /* \"#utility.yul\":20674:20712   */\n      tag_467\n        /* \"#utility.yul\":20706:20710   */\n      dup3\n        /* \"#utility.yul\":20700:20711   */\n      sload\n        /* \"#utility.yul\":20674:20712   */\n      tag_75\n      jump\t// in\n    tag_467:\n        /* \"#utility.yul\":20759:20826   */\n      tag_468\n        /* \"#utility.yul\":20819:20825   */\n      dup3\n        /* \"#utility.yul\":20811:20817   */\n      dup3\n        /* \"#utility.yul\":20805:20809   */\n      dup6\n        /* \"#utility.yul\":20759:20826   */\n      tag_233\n      jump\t// in\n    tag_468:\n        /* \"#utility.yul\":20853:20854   */\n      0x00\n        /* \"#utility.yul\":20877:20881   */\n      0x20\n        /* \"#utility.yul\":20864:20881   */\n      swap1\n      pop\n        /* \"#utility.yul\":20909:20911   */\n      0x1f\n        /* \"#utility.yul\":20901:20907   */\n      dup4\n        /* \"#utility.yul\":20898:20912   */\n      gt\n        /* \"#utility.yul\":20926:20927   */\n      0x01\n        /* \"#utility.yul\":20921:21539   */\n      dup2\n      eq\n      tag_470\n      jumpi\n        /* \"#utility.yul\":21583:21584   */\n      0x00\n        /* \"#utility.yul\":21600:21606   */\n      dup5\n        /* \"#utility.yul\":21597:21674   */\n      iszero\n      tag_471\n      jumpi\n        /* \"#utility.yul\":21649:21658   */\n      dup3\n        /* \"#utility.yul\":21644:21647   */\n      dup8\n        /* \"#utility.yul\":21640:21659   */\n      add\n        /* \"#utility.yul\":21634:21660   */\n      mload\n        /* \"#utility.yul\":21625:21660   */\n      swap1\n      pop\n        /* \"#utility.yul\":21597:21674   */\n    tag_471:\n        /* \"#utility.yul\":21700:21767   */\n      tag_472\n        /* \"#utility.yul\":21760:21766   */\n      dup6\n        /* \"#utility.yul\":21753:21758   */\n      dup3\n        /* \"#utility.yul\":21700:21767   */\n      tag_236\n      jump\t// in\n    tag_472:\n        /* \"#utility.yul\":21694:21698   */\n      dup7\n        /* \"#utility.yul\":21687:21768   */\n      sstore\n        /* \"#utility.yul\":21556:21778   */\n      pop\n        /* \"#utility.yul\":20891:21778   */\n      jump(tag_469)\n        /* \"#utility.yul\":20921:21539   */\n    tag_470:\n        /* \"#utility.yul\":20973:20977   */\n      0x1f\n        /* \"#utility.yul\":20969:20978   */\n      not\n        /* \"#utility.yul\":20961:20967   */\n      dup5\n        /* \"#utility.yul\":20957:20979   */\n      and\n        /* \"#utility.yul\":21007:21044   */\n      tag_473\n        /* \"#utility.yul\":21039:21043   */\n      dup7\n        /* \"#utility.yul\":21007:21044   */\n      tag_222\n      jump\t// in\n    tag_473:\n        /* \"#utility.yul\":21066:21067   */\n      0x00\n        /* \"#utility.yul\":21080:21288   */\n    tag_474:\n        /* \"#utility.yul\":21094:21101   */\n      dup3\n        /* \"#utility.yul\":21091:21092   */\n      dup2\n        /* \"#utility.yul\":21088:21102   */\n      lt\n        /* \"#utility.yul\":21080:21288   */\n      iszero\n      tag_476\n      jumpi\n        /* \"#utility.yul\":21173:21182   */\n      dup5\n        /* \"#utility.yul\":21168:21171   */\n      dup10\n        /* \"#utility.yul\":21164:21183   */\n      add\n        /* \"#utility.yul\":21158:21184   */\n      mload\n        /* \"#utility.yul\":21150:21156   */\n      dup3\n        /* \"#utility.yul\":21143:21185   */\n      sstore\n        /* \"#utility.yul\":21224:21225   */\n      0x01\n        /* \"#utility.yul\":21216:21222   */\n      dup3\n        /* \"#utility.yul\":21212:21226   */\n      add\n        /* \"#utility.yul\":21202:21226   */\n      swap2\n      pop\n        /* \"#utility.yul\":21271:21273   */\n      0x20\n        /* \"#utility.yul\":21260:21269   */\n      dup6\n        /* \"#utility.yul\":21256:21274   */\n      add\n        /* \"#utility.yul\":21243:21274   */\n      swap5\n      pop\n        /* \"#utility.yul\":21117:21121   */\n      0x20\n        /* \"#utility.yul\":21114:21115   */\n      dup2\n        /* \"#utility.yul\":21110:21122   */\n      add\n        /* \"#utility.yul\":21105:21122   */\n      swap1\n      pop\n        /* \"#utility.yul\":21080:21288   */\n      jump(tag_474)\n    tag_476:\n        /* \"#utility.yul\":21316:21322   */\n      dup7\n        /* \"#utility.yul\":21307:21314   */\n      dup4\n        /* \"#utility.yul\":21304:21323   */\n      lt\n        /* \"#utility.yul\":21301:21480   */\n      iszero\n      tag_477\n      jumpi\n        /* \"#utility.yul\":21374:21383   */\n      dup5\n        /* \"#utility.yul\":21369:21372   */\n      dup10\n        /* \"#utility.yul\":21365:21384   */\n      add\n        /* \"#utility.yul\":21359:21385   */\n      mload\n        /* \"#utility.yul\":21417:21465   */\n      tag_478\n        /* \"#utility.yul\":21459:21463   */\n      0x1f\n        /* \"#utility.yul\":21451:21457   */\n      dup10\n        /* \"#utility.yul\":21447:21464   */\n      and\n        /* \"#utility.yul\":21436:21445   */\n      dup3\n        /* \"#utility.yul\":21417:21465   */\n      tag_235\n      jump\t// in\n    tag_478:\n        /* \"#utility.yul\":21409:21415   */\n      dup4\n        /* \"#utility.yul\":21402:21466   */\n      sstore\n        /* \"#utility.yul\":21324:21480   */\n      pop\n        /* \"#utility.yul\":21301:21480   */\n    tag_477:\n        /* \"#utility.yul\":21526:21527   */\n      0x01\n        /* \"#utility.yul\":21522:21523   */\n      0x02\n        /* \"#utility.yul\":21514:21520   */\n      dup9\n        /* \"#utility.yul\":21510:21524   */\n      mul\n        /* \"#utility.yul\":21506:21528   */\n      add\n        /* \"#utility.yul\":21500:21504   */\n      dup9\n        /* \"#utility.yul\":21493:21529   */\n      sstore\n        /* \"#utility.yul\":20928:21539   */\n      pop\n      pop\n      pop\n        /* \"#utility.yul\":20891:21778   */\n    tag_469:\n      pop\n        /* \"#utility.yul\":20481:21784   */\n      pop\n      pop\n      pop\n        /* \"#utility.yul\":20389:21784   */\n      pop\n      pop\n      jump\t// out\n        /* \"#utility.yul\":21790:21949   */\n    tag_237:\n        /* \"#utility.yul\":21930:21941   */\n      0x4e6f74206f776e65720000000000000000000000000000000000000000000000\n        /* \"#utility.yul\":21926:21927   */\n      0x00\n        /* \"#utility.yul\":21918:21924   */\n      dup3\n        /* \"#utility.yul\":21914:21928   */\n      add\n        /* \"#utility.yul\":21907:21942   */\n      mstore\n        /* \"#utility.yul\":21790:21949   */\n      pop\n      jump\t// out\n        /* \"#utility.yul\":21955:22320   */\n    tag_238:\n        /* \"#utility.yul\":22097:22100   */\n      0x00\n        /* \"#utility.yul\":22118:22184   */\n      tag_481\n        /* \"#utility.yul\":22182:22183   */\n      0x09\n        /* \"#utility.yul\":22177:22180   */\n      dup4\n        /* \"#utility.yul\":22118:22184   */\n      tag_178\n      jump\t// in\n    tag_481:\n        /* \"#utility.yul\":22111:22184   */\n      swap2\n      pop\n        /* \"#utility.yul\":22193:22286   */\n      tag_482\n        /* \"#utility.yul\":22282:22285   */\n      dup3\n        /* \"#utility.yul\":22193:22286   */\n      tag_237\n      jump\t// in\n    tag_482:\n        /* \"#utility.yul\":22311:22313   */\n      0x20\n        /* \"#utility.yul\":22306:22309   */\n      dup3\n        /* \"#utility.yul\":22302:22314   */\n      add\n        /* \"#utility.yul\":22295:22314   */\n      swap1\n      pop\n        /* \"#utility.yul\":21955:22320   */\n      swap2\n      swap1\n      pop\n      jump\t// out\n        /* \"#utility.yul\":22326:22745   */\n    tag_152:\n        /* \"#utility.yul\":22492:22496   */\n      0x00\n        /* \"#utility.yul\":22530:22532   */\n      0x20\n        /* \"#utility.yul\":22519:22528   */\n      dup3\n        /* \"#utility.yul\":22515:22533   */\n      add\n        /* \"#utility.yul\":22507:22533   */\n      swap1\n      pop\n        /* \"#utility.yul\":22579:22588   */\n      dup2\n        /* \"#utility.yul\":22573:22577   */\n      dup2\n        /* \"#utility.yul\":22569:22589   */\n      sub\n        /* \"#utility.yul\":22565:22566   */\n      0x00\n        /* \"#utility.yul\":22554:22563   */\n      dup4\n        /* \"#utility.yul\":22550:22567   */\n      add\n        /* \"#utility.yul\":22543:22590   */\n      mstore\n        /* \"#utility.yul\":22607:22738   */\n      tag_484\n        /* \"#utility.yul\":22733:22737   */\n      dup2\n        /* \"#utility.yul\":22607:22738   */\n      tag_238\n      jump\t// in\n    tag_484:\n        /* \"#utility.yul\":22599:22738   */\n      swap1\n      pop\n        /* \"#utility.yul\":22326:22745   */\n      swap2\n      swap1\n      pop\n      jump\t// out\n        /* \"#utility.yul\":22751:22945   */\n    tag_156:\n        /* \"#utility.yul\":22791:22795   */\n      0x00\n        /* \"#utility.yul\":22811:22831   */\n      tag_486\n        /* \"#utility.yul\":22829:22830   */\n      dup3\n        /* \"#utility.yul\":22811:22831   */\n      tag_185\n      jump\t// in\n    tag_486:\n        /* \"#utility.yul\":22806:22831   */\n      swap2\n      pop\n        /* \"#utility.yul\":22845:22865   */\n      tag_487\n        /* \"#utility.yul\":22863:22864   */\n      dup4\n        /* \"#utility.yul\":22845:22865   */\n      tag_185\n      jump\t// in\n    tag_487:\n        /* \"#utility.yul\":22840:22865   */\n      swap3\n      pop\n        /* \"#utility.yul\":22889:22890   */\n      dup3\n        /* \"#utility.yul\":22886:22887   */\n      dup3\n        /* \"#utility.yul\":22882:22891   */\n      sub\n        /* \"#utility.yul\":22874:22891   */\n      swap1\n      pop\n        /* \"#utility.yul\":22913:22914   */\n      dup2\n        /* \"#utility.yul\":22907:22911   */\n      dup2\n        /* \"#utility.yul\":22904:22915   */\n      gt\n        /* \"#utility.yul\":22901:22938   */\n      iszero\n      tag_488\n      jumpi\n        /* \"#utility.yul\":22918:22936   */\n      tag_489\n      tag_221\n      jump\t// in\n    tag_489:\n        /* \"#utility.yul\":22901:22938   */\n    tag_488:\n        /* \"#utility.yul\":22751:22945   */\n      swap3\n      swap2\n      pop\n      pop\n      jump\t// out\n        /* \"#utility.yul\":22951:23119   */\n    tag_239:\n        /* \"#utility.yul\":23091:23111   */\n      0x4e6f742045524337323152656365697665720000000000000000000000000000\n        /* \"#utility.yul\":23087:23088   */\n      0x00\n        /* \"#utility.yul\":23079:23085   */\n      dup3\n        /* \"#utility.yul\":23075:23089   */\n      add\n        /* \"#utility.yul\":23068:23112   */\n      mstore\n        /* \"#utility.yul\":22951:23119   */\n      pop\n      jump\t// out\n        /* \"#utility.yul\":23125:23491   */\n    tag_240:\n        /* \"#utility.yul\":23267:23270   */\n      0x00\n        /* \"#utility.yul\":23288:23355   */\n      tag_492\n        /* \"#utility.yul\":23352:23354   */\n      0x12\n        /* \"#utility.yul\":23347:23350   */\n      dup4\n        /* \"#utility.yul\":23288:23355   */\n      tag_178\n      jump\t// in\n    tag_492:\n        /* \"#utility.yul\":23281:23355   */\n      swap2\n      pop\n        /* \"#utility.yul\":23364:23457   */\n      tag_493\n        /* \"#utility.yul\":23453:23456   */\n      dup3\n        /* \"#utility.yul\":23364:23457   */\n      tag_239\n      jump\t// in\n    tag_493:\n        /* \"#utility.yul\":23482:23484   */\n      0x20\n        /* \"#utility.yul\":23477:23480   */\n      dup3\n        /* \"#utility.yul\":23473:23485   */\n      add\n        /* \"#utility.yul\":23466:23485   */\n      swap1\n      pop\n        /* \"#utility.yul\":23125:23491   */\n      swap2\n      swap1\n      pop\n      jump\t// out\n        /* \"#utility.yul\":23497:23916   */\n    tag_164:\n        /* \"#utility.yul\":23663:23667   */\n      0x00\n        /* \"#utility.yul\":23701:23703   */\n      0x20\n        /* \"#utility.yul\":23690:23699   */\n      dup3\n        /* \"#utility.yul\":23686:23704   */\n      add\n        /* \"#utility.yul\":23678:23704   */\n      swap1\n      pop\n        /* \"#utility.yul\":23750:23759   */\n      dup2\n        /* \"#utility.yul\":23744:23748   */\n      dup2\n        /* \"#utility.yul\":23740:23760   */\n      sub\n        /* \"#utility.yul\":23736:23737   */\n      0x00\n        /* \"#utility.yul\":23725:23734   */\n      dup4\n        /* \"#utility.yul\":23721:23738   */\n      add\n        /* \"#utility.yul\":23714:23761   */\n      mstore\n        /* \"#utility.yul\":23778:23909   */\n      tag_495\n        /* \"#utility.yul\":23904:23908   */\n      dup2\n        /* \"#utility.yul\":23778:23909   */\n      tag_240\n      jump\t// in\n    tag_495:\n        /* \"#utility.yul\":23770:23909   */\n      swap1\n      pop\n        /* \"#utility.yul\":23497:23916   */\n      swap2\n      swap1\n      pop\n      jump\t// out\n        /* \"#utility.yul\":23922:24020   */\n    tag_241:\n        /* \"#utility.yul\":23973:23979   */\n      0x00\n        /* \"#utility.yul\":24007:24012   */\n      dup2\n        /* \"#utility.yul\":24001:24013   */\n      mload\n        /* \"#utility.yul\":23991:24013   */\n      swap1\n      pop\n        /* \"#utility.yul\":23922:24020   */\n      swap2\n      swap1\n      pop\n      jump\t// out\n        /* \"#utility.yul\":24026:24194   */\n    tag_242:\n        /* \"#utility.yul\":24109:24120   */\n      0x00\n        /* \"#utility.yul\":24143:24149   */\n      dup3\n        /* \"#utility.yul\":24138:24141   */\n      dup3\n        /* \"#utility.yul\":24131:24150   */\n      mstore\n        /* \"#utility.yul\":24183:24187   */\n      0x20\n        /* \"#utility.yul\":24178:24181   */\n      dup3\n        /* \"#utility.yul\":24174:24188   */\n      add\n        /* \"#utility.yul\":24159:24188   */\n      swap1\n      pop\n        /* \"#utility.yul\":24026:24194   */\n      swap3\n      swap2\n      pop\n      pop\n      jump\t// out\n        /* \"#utility.yul\":24200:24573   */\n    tag_243:\n        /* \"#utility.yul\":24286:24289   */\n      0x00\n        /* \"#utility.yul\":24314:24352   */\n      tag_499\n        /* \"#utility.yul\":24346:24351   */\n      dup3\n        /* \"#utility.yul\":24314:24352   */\n      tag_241\n      jump\t// in\n    tag_499:\n        /* \"#utility.yul\":24368:24438   */\n      tag_500\n        /* \"#utility.yul\":24431:24437   */\n      dup2\n        /* \"#utility.yul\":24426:24429   */\n      dup6\n        /* \"#utility.yul\":24368:24438   */\n      tag_242\n      jump\t// in\n    tag_500:\n        /* \"#utility.yul\":24361:24438   */\n      swap4\n      pop\n        /* \"#utility.yul\":24447:24512   */\n      tag_501\n        /* \"#utility.yul\":24505:24511   */\n      dup2\n        /* \"#utility.yul\":24500:24503   */\n      dup6\n        /* \"#utility.yul\":24493:24497   */\n      0x20\n        /* \"#utility.yul\":24486:24491   */\n      dup7\n        /* \"#utility.yul\":24482:24498   */\n      add\n        /* \"#utility.yul\":24447:24512   */\n      tag_179\n      jump\t// in\n    tag_501:\n        /* \"#utility.yul\":24537:24566   */\n      tag_502\n        /* \"#utility.yul\":24559:24565   */\n      dup2\n        /* \"#utility.yul\":24537:24566   */\n      tag_180\n      jump\t// in\n    tag_502:\n        /* \"#utility.yul\":24532:24535   */\n      dup5\n        /* \"#utility.yul\":24528:24567   */\n      add\n        /* \"#utility.yul\":24521:24567   */\n      swap2\n      pop\n        /* \"#utility.yul\":24290:24573   */\n      pop\n        /* \"#utility.yul\":24200:24573   */\n      swap3\n      swap2\n      pop\n      pop\n      jump\t// out\n        /* \"#utility.yul\":24579:25219   */\n    tag_168:\n        /* \"#utility.yul\":24774:24778   */\n      0x00\n        /* \"#utility.yul\":24812:24815   */\n      0x80\n        /* \"#utility.yul\":24801:24810   */\n      dup3\n        /* \"#utility.yul\":24797:24816   */\n      add\n        /* \"#utility.yul\":24789:24816   */\n      swap1\n      pop\n        /* \"#utility.yul\":24826:24897   */\n      tag_504\n        /* \"#utility.yul\":24894:24895   */\n      0x00\n        /* \"#utility.yul\":24883:24892   */\n      dup4\n        /* \"#utility.yul\":24879:24896   */\n      add\n        /* \"#utility.yul\":24870:24876   */\n      dup8\n        /* \"#utility.yul\":24826:24897   */\n      tag_190\n      jump\t// in\n    tag_504:\n        /* \"#utility.yul\":24907:24979   */\n      tag_505\n        /* \"#utility.yul\":24975:24977   */\n      0x20\n        /* \"#utility.yul\":24964:24973   */\n      dup4\n        /* \"#utility.yul\":24960:24978   */\n      add\n        /* \"#utility.yul\":24951:24957   */\n      dup7\n        /* \"#utility.yul\":24907:24979   */\n      tag_190\n      jump\t// in\n    tag_505:\n        /* \"#utility.yul\":24989:25061   */\n      tag_506\n        /* \"#utility.yul\":25057:25059   */\n      0x40\n        /* \"#utility.yul\":25046:25055   */\n      dup4\n        /* \"#utility.yul\":25042:25060   */\n      add\n        /* \"#utility.yul\":25033:25039   */\n      dup6\n        /* \"#utility.yul\":24989:25061   */\n      tag_193\n      jump\t// in\n    tag_506:\n        /* \"#utility.yul\":25108:25117   */\n      dup2\n        /* \"#utility.yul\":25102:25106   */\n      dup2\n        /* \"#utility.yul\":25098:25118   */\n      sub\n        /* \"#utility.yul\":25093:25095   */\n      0x60\n        /* \"#utility.yul\":25082:25091   */\n      dup4\n        /* \"#utility.yul\":25078:25096   */\n      add\n        /* \"#utility.yul\":25071:25119   */\n      mstore\n        /* \"#utility.yul\":25136:25212   */\n      tag_507\n        /* \"#utility.yul\":25207:25211   */\n      dup2\n        /* \"#utility.yul\":25198:25204   */\n      dup5\n        /* \"#utility.yul\":25136:25212   */\n      tag_243\n      jump\t// in\n    tag_507:\n        /* \"#utility.yul\":25128:25212   */\n      swap1\n      pop\n        /* \"#utility.yul\":24579:25219   */\n      swap6\n      swap5\n      pop\n      pop\n      pop\n      pop\n      pop\n      jump\t// out\n        /* \"#utility.yul\":25225:25374   */\n    tag_244:\n        /* \"#utility.yul\":25261:25268   */\n      0x00\n        /* \"#utility.yul\":25301:25367   */\n      0xffffffff00000000000000000000000000000000000000000000000000000000\n        /* \"#utility.yul\":25294:25299   */\n      dup3\n        /* \"#utility.yul\":25290:25368   */\n      and\n        /* \"#utility.yul\":25279:25368   */\n      swap1\n      pop\n        /* \"#utility.yul\":25225:25374   */\n      swap2\n      swap1\n      pop\n      jump\t// out\n        /* \"#utility.yul\":25380:25500   */\n    tag_245:\n        /* \"#utility.yul\":25452:25475   */\n      tag_510\n        /* \"#utility.yul\":25469:25474   */\n      dup2\n        /* \"#utility.yul\":25452:25475   */\n      tag_244\n      jump\t// in\n    tag_510:\n        /* \"#utility.yul\":25445:25450   */\n      dup2\n        /* \"#utility.yul\":25442:25476   */\n      eq\n        /* \"#utility.yul\":25432:25494   */\n      tag_511\n      jumpi\n        /* \"#utility.yul\":25490:25491   */\n      0x00\n        /* \"#utility.yul\":25487:25488   */\n      dup1\n        /* \"#utility.yul\":25480:25492   */\n      revert\n        /* \"#utility.yul\":25432:25494   */\n    tag_511:\n        /* \"#utility.yul\":25380:25500   */\n      pop\n      jump\t// out\n        /* \"#utility.yul\":25506:25647   */\n    tag_246:\n        /* \"#utility.yul\":25562:25567   */\n      0x00\n        /* \"#utility.yul\":25593:25599   */\n      dup2\n        /* \"#utility.yul\":25587:25600   */\n      mload\n        /* \"#utility.yul\":25578:25600   */\n      swap1\n      pop\n        /* \"#utility.yul\":25609:25641   */\n      tag_513\n        /* \"#utility.yul\":25635:25640   */\n      dup2\n        /* \"#utility.yul\":25609:25641   */\n      tag_245\n      jump\t// in\n    tag_513:\n        /* \"#utility.yul\":25506:25647   */\n      swap3\n      swap2\n      pop\n      pop\n      jump\t// out\n        /* \"#utility.yul\":25653:26002   */\n    tag_171:\n        /* \"#utility.yul\":25722:25728   */\n      0x00\n        /* \"#utility.yul\":25771:25773   */\n      0x20\n        /* \"#utility.yul\":25759:25768   */\n      dup3\n        /* \"#utility.yul\":25750:25757   */\n      dup5\n        /* \"#utility.yul\":25746:25769   */\n      sub\n        /* \"#utility.yul\":25742:25774   */\n      slt\n        /* \"#utility.yul\":25739:25858   */\n      iszero\n      tag_515\n      jumpi\n        /* \"#utility.yul\":25777:25856   */\n      tag_516\n      tag_183\n      jump\t// in\n    tag_516:\n        /* \"#utility.yul\":25739:25858   */\n    tag_515:\n        /* \"#utility.yul\":25897:25898   */\n      0x00\n        /* \"#utility.yul\":25922:25985   */\n      tag_517\n        /* \"#utility.yul\":25977:25984   */\n      dup5\n        /* \"#utility.yul\":25968:25974   */\n      dup3\n        /* \"#utility.yul\":25957:25966   */\n      dup6\n        /* \"#utility.yul\":25953:25975   */\n      add\n        /* \"#utility.yul\":25922:25985   */\n      tag_246\n      jump\t// in\n    tag_517:\n        /* \"#utility.yul\":25912:25985   */\n      swap2\n      pop\n        /* \"#utility.yul\":25868:25995   */\n      pop\n        /* \"#utility.yul\":25653:26002   */\n      swap3\n      swap2\n      pop\n      pop\n      jump\t// out\n\n    auxdata: 0xa2646970667358221220bdf58c6aba53f430ee575ad7c375adc7fe0a7c46faa811c874e9bc2b667835cc64736f6c63430008180033\n}\n",
				"bytecode": {
					"linkReferences": {},
					"object": "6080604052600160025534801562000015575f80fd5b506040516200249e3803806200249e83398181016040528101906200003b9190620001eb565b815f90816200004b9190620004a5565b5080600190816200005d9190620004a5565b50505062000589565b5f604051905090565b5f80fd5b5f80fd5b5f80fd5b5f80fd5b5f601f19601f8301169050919050565b7f4e487b71000000000000000000000000000000000000000000000000000000005f52604160045260245ffd5b620000c7826200007f565b810181811067ffffffffffffffff82111715620000e957620000e86200008f565b5b80604052505050565b5f620000fd62000066565b90506200010b8282620000bc565b919050565b5f67ffffffffffffffff8211156200012d576200012c6200008f565b5b62000138826200007f565b9050602081019050919050565b5f5b838110156200016457808201518184015260208101905062000147565b5f8484015250505050565b5f620001856200017f8462000110565b620000f2565b905082815260208101848484011115620001a457620001a36200007b565b5b620001b184828562000145565b509392505050565b5f82601f830112620001d057620001cf62000077565b5b8151620001e28482602086016200016f565b91505092915050565b5f80604083850312156200020457620002036200006f565b5b5f83015167ffffffffffffffff81111562000224576200022362000073565b5b6200023285828601620001b9565b925050602083015167ffffffffffffffff81111562000256576200025562000073565b5b6200026485828601620001b9565b9150509250929050565b5f81519050919050565b7f4e487b71000000000000000000000000000000000000000000000000000000005f52602260045260245ffd5b5f6002820490506001821680620002bd57607f821691505b602082108103620002d357620002d262000278565b5b50919050565b5f819050815f5260205f209050919050565b5f6020601f8301049050919050565b5f82821b905092915050565b5f60088302620003377fffffffffffffffffffffffffffffffffffffffffffffffffffffffffffffffff82620002fa565b620003438683620002fa565b95508019841693508086168417925050509392505050565b5f819050919050565b5f819050919050565b5f6200038d6200038762000381846200035b565b62000364565b6200035b565b9050919050565b5f819050919050565b620003a8836200036d565b620003c0620003b78262000394565b84845462000306565b825550505050565b5f90565b620003d6620003c8565b620003e38184846200039d565b505050565b5b818110156200040a57620003fe5f82620003cc565b600181019050620003e9565b5050565b601f82111562000459576200042381620002d9565b6200042e84620002eb565b810160208510156200043e578190505b620004566200044d85620002eb565b830182620003e8565b50505b505050565b5f82821c905092915050565b5f6200047b5f19846008026200045e565b1980831691505092915050565b5f6200049583836200046a565b9150826002028217905092915050565b620004b0826200026e565b67ffffffffffffffff811115620004cc57620004cb6200008f565b5b620004d88254620002a5565b620004e58282856200040e565b5f60209050601f8311600181146200051b575f841562000506578287015190505b62000512858262000488565b86555062000581565b601f1984166200052b86620002d9565b5f5b8281101562000554578489015182556001820191506020850194506020810190506200052d565b8683101562000574578489015162000570601f8916826200046a565b8355505b6001600288020188555050505b505050505050565b611f0780620005975f395ff3fe608060405234801561000f575f80fd5b50600436106100cd575f3560e01c806370a082311161008a578063b88d4fde11610064578063b88d4fde1461020d578063c87b56dd14610229578063d0def52114610259578063e985e9c514610275576100cd565b806370a08231146101a357806395d89b41146101d3578063a22cb465146101f1576100cd565b806306fdde03146100d1578063081812fc146100ef578063095ea7b31461011f57806323b872dd1461013b57806342842e0e146101575780636352211e14610173575b5f80fd5b6100d96102a5565b6040516100e691906111cb565b60405180910390f35b6101096004803603810190610104919061122f565b610330565b6040516101169190611299565b60405180910390f35b610139600480360381019061013491906112dc565b610407565b005b6101556004803603810190610150919061131a565b6105af565b005b610171600480360381019061016c919061131a565b610608565b005b61018d6004803603810190610188919061122f565b610627565b60405161019a9190611299565b60405180910390f35b6101bd60048036038101906101b8919061136a565b6106d3565b6040516101ca91906113a4565b60405180910390f35b6101db610787565b6040516101e891906111cb565b60405180910390f35b61020b600480360381019061020691906113f2565b610813565b005b6102276004803603810190610222919061155c565b610979565b005b610243600480360381019061023e919061122f565b6109d4565b60405161025091906111cb565b60405180910390f35b610273600480360381019061026e919061167a565b610b13565b005b61028f600480360381019061028a91906116d4565b610c52565b60405161029c9190611721565b60405180910390f35b5f80546102b190611767565b80601f01602080910402602001604051908101604052809291908181526020018280546102dd90611767565b80156103285780601f106102ff57610100808354040283529160200191610328565b820191905f5260205f20905b81548152906001019060200180831161030b57829003601f168201915b505050505081565b5f8073ffffffffffffffffffffffffffffffffffffffff1660035f8481526020019081526020015f205f9054906101000a900473ffffffffffffffffffffffffffffffffffffffff1673ffffffffffffffffffffffffffffffffffffffff16036103cf576040517f08c379a00000000000000000000000000000000000000000000000000000000081526004016103c6906117e1565b60405180910390fd5b60055f8381526020019081526020015f205f9054906101000a900473ffffffffffffffffffffffffffffffffffffffff169050919050565b5f61041182610627565b90508073ffffffffffffffffffffffffffffffffffffffff168373ffffffffffffffffffffffffffffffffffffffff1603610481576040517f08c379a000000000000000000000000000000000000000000000000000000000815260040161047890611849565b60405180910390fd5b8073ffffffffffffffffffffffffffffffffffffffff163373ffffffffffffffffffffffffffffffffffffffff1614806104c157506104c08133610c52565b5b610500576040517f08c379a00000000000000000000000000000000000000000000000000000000081526004016104f7906118b1565b60405180910390fd5b8260055f8481526020019081526020015f205f6101000a81548173ffffffffffffffffffffffffffffffffffffffff021916908373ffffffffffffffffffffffffffffffffffffffff160217905550818373ffffffffffffffffffffffffffffffffffffffff168273ffffffffffffffffffffffffffffffffffffffff167f8c5be1e5ebec7d5bd14f71427d1e84f3dd0314c0f7b2291e5b200ac8c7c3b92560405160405180910390a4505050565b6105b93382610ce0565b6105f8576040517f08c379a00000000000000000000000000000000000000000000000000000000081526004016105ef906118b1565b60405180910390fd5b610603838383610d74565b505050565b61062283838360405180602001604052805f815250610979565b505050565b5f8060035f8481526020019081526020015f205f9054906101000a900473ffffffffffffffffffffffffffffffffffffffff1690505f73ffffffffffffffffffffffffffffffffffffffff168173ffffffffffffffffffffffffffffffffffffffff16036106ca576040517f08c379a00000000000000000000000000000000000000000000000000000000081526004016106c1906117e1565b60405180910390fd5b80915050919050565b5f8073ffffffffffffffffffffffffffffffffffffffff168273ffffffffffffffffffffffffffffffffffffffff1603610742576040517f08c379a000000000000000000000000000000000000000000000000000000000815260040161073990611919565b60405180910390fd5b60045f8373ffffffffffffffffffffffffffffffffffffffff1673ffffffffffffffffffffffffffffffffffffffff1681526020019081526020015f20549050919050565b6001805461079490611767565b80601f01602080910402602001604051908101604052809291908181526020018280546107c090611767565b801561080b5780601f106107e25761010080835404028352916020019161080b565b820191905f5260205f20905b8154815290600101906020018083116107ee57829003601f168201915b505050505081565b3373ffffffffffffffffffffffffffffffffffffffff168273ffffffffffffffffffffffffffffffffffffffff1603610881576040517f08c379a000000000000000000000000000000000000000000000000000000000815260040161087890611981565b60405180910390fd5b8060065f3373ffffffffffffffffffffffffffffffffffffffff1673ffffffffffffffffffffffffffffffffffffffff1681526020019081526020015f205f8473ffffffffffffffffffffffffffffffffffffffff1673ffffffffffffffffffffffffffffffffffffffff1681526020019081526020015f205f6101000a81548160ff0219169083151502179055508173ffffffffffffffffffffffffffffffffffffffff163373ffffffffffffffffffffffffffffffffffffffff167f17307eab39ab6107e8899845ad3d59bd9653f200f220920489ca2b5937696c318360405161096d9190611721565b60405180910390a35050565b6109833383610ce0565b6109c2576040517f08c379a00000000000000000000000000000000000000000000000000000000081526004016109b9906118b1565b60405180910390fd5b6109ce84848484610fe2565b50505050565b60605f73ffffffffffffffffffffffffffffffffffffffff1660035f8481526020019081526020015f205f9054906101000a900473ffffffffffffffffffffffffffffffffffffffff1673ffffffffffffffffffffffffffffffffffffffff1603610a74576040517f08c379a0000000000000000000000000000000000000000000000000000000008152600401610a6b906117e1565b60405180910390fd5b60075f8381526020019081526020015f208054610a9090611767565b80601f0160208091040260200160405190810160405280929190818152602001828054610abc90611767565b8015610b075780601f10610ade57610100808354040283529160200191610b07565b820191905f5260205f20905b815481529060010190602001808311610aea57829003601f168201915b50505050509050919050565b5f600254905060025f815480929190610b2b906119cc565b91905055508260035f8381526020019081526020015f205f6101000a81548173ffffffffffffffffffffffffffffffffffffffff021916908373ffffffffffffffffffffffffffffffffffffffff160217905550600160045f8573ffffffffffffffffffffffffffffffffffffffff1673ffffffffffffffffffffffffffffffffffffffff1681526020019081526020015f205f828254610bcc9190611a13565b925050819055508160075f8381526020019081526020015f209081610bf19190611be3565b50808373ffffffffffffffffffffffffffffffffffffffff165f73ffffffffffffffffffffffffffffffffffffffff167fddf252ad1be2c89b69c2b068fc378daa952ba7f163c4a11628f55a4df523b3ef60405160405180910390a4505050565b5f60065f8473ffffffffffffffffffffffffffffffffffffffff1673ffffffffffffffffffffffffffffffffffffffff1681526020019081526020015f205f8373ffffffffffffffffffffffffffffffffffffffff1673ffffffffffffffffffffffffffffffffffffffff1681526020019081526020015f205f9054906101000a900460ff16905092915050565b5f80610ceb83610627565b90508073ffffffffffffffffffffffffffffffffffffffff168473ffffffffffffffffffffffffffffffffffffffff161480610d5a57508373ffffffffffffffffffffffffffffffffffffffff16610d4284610330565b73ffffffffffffffffffffffffffffffffffffffff16145b80610d6b5750610d6a8185610c52565b5b91505092915050565b8273ffffffffffffffffffffffffffffffffffffffff16610d9482610627565b73ffffffffffffffffffffffffffffffffffffffff1614610dea576040517f08c379a0000000000000000000000000000000000000000000000000000000008152600401610de190611cfc565b60405180910390fd5b5f73ffffffffffffffffffffffffffffffffffffffff168273ffffffffffffffffffffffffffffffffffffffff1603610e58576040517f08c379a0000000000000000000000000000000000000000000000000000000008152600401610e4f90611919565b60405180910390fd5b600160045f8573ffffffffffffffffffffffffffffffffffffffff1673ffffffffffffffffffffffffffffffffffffffff1681526020019081526020015f205f828254610ea59190611d1a565b92505081905550600160045f8473ffffffffffffffffffffffffffffffffffffffff1673ffffffffffffffffffffffffffffffffffffffff1681526020019081526020015f205f828254610ef99190611a13565b925050819055508160035f8381526020019081526020015f205f6101000a81548173ffffffffffffffffffffffffffffffffffffffff021916908373ffffffffffffffffffffffffffffffffffffffff16021790555060055f8281526020019081526020015f205f6101000a81549073ffffffffffffffffffffffffffffffffffffffff0219169055808273ffffffffffffffffffffffffffffffffffffffff168473ffffffffffffffffffffffffffffffffffffffff167fddf252ad1be2c89b69c2b068fc378daa952ba7f163c4a11628f55a4df523b3ef60405160405180910390a4505050565b610fed848484610d74565b610ff98484848461103e565b611038576040517f08c379a000000000000000000000000000000000000000000000000000000000815260040161102f90611d97565b60405180910390fd5b50505050565b5f808473ffffffffffffffffffffffffffffffffffffffff163b1115611134578373ffffffffffffffffffffffffffffffffffffffff1663150b7a02338786866040518563ffffffff1660e01b815260040161109d9493929190611e07565b6020604051808303815f875af19250505080156110d857506040513d601f19601f820116820180604052508101906110d59190611ea6565b60015b6110e4575f9050611139565b63150b7a0260e01b7bffffffffffffffffffffffffffffffffffffffffffffffffffffffff1916817bffffffffffffffffffffffffffffffffffffffffffffffffffffffff191614915050611139565b600190505b949350505050565b5f81519050919050565b5f82825260208201905092915050565b5f5b8381101561117857808201518184015260208101905061115d565b5f8484015250505050565b5f601f19601f8301169050919050565b5f61119d82611141565b6111a7818561114b565b93506111b781856020860161115b565b6111c081611183565b840191505092915050565b5f6020820190508181035f8301526111e38184611193565b905092915050565b5f604051905090565b5f80fd5b5f80fd5b5f819050919050565b61120e816111fc565b8114611218575f80fd5b50565b5f8135905061122981611205565b92915050565b5f60208284031215611244576112436111f4565b5b5f6112518482850161121b565b91505092915050565b5f73ffffffffffffffffffffffffffffffffffffffff82169050919050565b5f6112838261125a565b9050919050565b61129381611279565b82525050565b5f6020820190506112ac5f83018461128a565b92915050565b6112bb81611279565b81146112c5575f80fd5b50565b5f813590506112d6816112b2565b92915050565b5f80604083850312156112f2576112f16111f4565b5b5f6112ff858286016112c8565b92505060206113108582860161121b565b9150509250929050565b5f805f60608486031215611331576113306111f4565b5b5f61133e868287016112c8565b935050602061134f868287016112c8565b92505060406113608682870161121b565b9150509250925092565b5f6020828403121561137f5761137e6111f4565b5b5f61138c848285016112c8565b91505092915050565b61139e816111fc565b82525050565b5f6020820190506113b75f830184611395565b92915050565b5f8115159050919050565b6113d1816113bd565b81146113db575f80fd5b50565b5f813590506113ec816113c8565b92915050565b5f8060408385031215611408576114076111f4565b5b5f611415858286016112c8565b9250506020611426858286016113de565b9150509250929050565b5f80fd5b5f80fd5b7f4e487b71000000000000000000000000000000000000000000000000000000005f52604160045260245ffd5b61146e82611183565b810181811067ffffffffffffffff8211171561148d5761148c611438565b5b80604052505050565b5f61149f6111eb565b90506114ab8282611465565b919050565b5f67ffffffffffffffff8211156114ca576114c9611438565b5b6114d382611183565b9050602081019050919050565b828183375f83830152505050565b5f6115006114fb846114b0565b611496565b90508281526020810184848401111561151c5761151b611434565b5b6115278482856114e0565b509392505050565b5f82601f83011261154357611542611430565b5b81356115538482602086016114ee565b91505092915050565b5f805f8060808587031215611574576115736111f4565b5b5f611581878288016112c8565b9450506020611592878288016112c8565b93505060406115a38782880161121b565b925050606085013567ffffffffffffffff8111156115c4576115c36111f8565b5b6115d08782880161152f565b91505092959194509250565b5f67ffffffffffffffff8211156115f6576115f5611438565b5b6115ff82611183565b9050602081019050919050565b5f61161e611619846115dc565b611496565b90508281526020810184848401111561163a57611639611434565b5b6116458482856114e0565b509392505050565b5f82601f83011261166157611660611430565b5b813561167184826020860161160c565b91505092915050565b5f80604083850312156116905761168f6111f4565b5b5f61169d858286016112c8565b925050602083013567ffffffffffffffff8111156116be576116bd6111f8565b5b6116ca8582860161164d565b9150509250929050565b5f80604083850312156116ea576116e96111f4565b5b5f6116f7858286016112c8565b9250506020611708858286016112c8565b9150509250929050565b61171b816113bd565b82525050565b5f6020820190506117345f830184611712565b92915050565b7f4e487b71000000000000000000000000000000000000000000000000000000005f52602260045260245ffd5b5f600282049050600182168061177e57607f821691505b6020821081036117915761179061173a565b5b50919050565b7f546f6b656e20646f65736e2774206578697374000000000000000000000000005f82015250565b5f6117cb60138361114b565b91506117d682611797565b602082019050919050565b5f6020820190508181035f8301526117f8816117bf565b9050919050565b7f416c7265616479206f776e6572000000000000000000000000000000000000005f82015250565b5f611833600d8361114b565b915061183e826117ff565b602082019050919050565b5f6020820190508181035f83015261186081611827565b9050919050565b7f4e6f7420617574686f72697a65640000000000000000000000000000000000005f82015250565b5f61189b600e8361114b565b91506118a682611867565b602082019050919050565b5f6020820190508181035f8301526118c88161188f565b9050919050565b7f5a65726f206164647265737300000000000000000000000000000000000000005f82015250565b5f611903600c8361114b565b915061190e826118cf565b602082019050919050565b5f6020820190508181035f830152611930816118f7565b9050919050565b7f53656c6620617070726f76616c000000000000000000000000000000000000005f82015250565b5f61196b600d8361114b565b915061197682611937565b602082019050919050565b5f6020820190508181035f8301526119988161195f565b9050919050565b7f4e487b71000000000000000000000000000000000000000000000000000000005f52601160045260245ffd5b5f6119d6826111fc565b91507fffffffffffffffffffffffffffffffffffffffffffffffffffffffffffffffff8203611a0857611a0761199f565b5b600182019050919050565b5f611a1d826111fc565b9150611a28836111fc565b9250828201905080821115611a4057611a3f61199f565b5b92915050565b5f819050815f5260205f209050919050565b5f6020601f8301049050919050565b5f82821b905092915050565b5f60088302611aa27fffffffffffffffffffffffffffffffffffffffffffffffffffffffffffffffff82611a67565b611aac8683611a67565b95508019841693508086168417925050509392505050565b5f819050919050565b5f611ae7611ae2611add846111fc565b611ac4565b6111fc565b9050919050565b5f819050919050565b611b0083611acd565b611b14611b0c82611aee565b848454611a73565b825550505050565b5f90565b611b28611b1c565b611b33818484611af7565b505050565b5b81811015611b5657611b4b5f82611b20565b600181019050611b39565b5050565b601f821115611b9b57611b6c81611a46565b611b7584611a58565b81016020851015611b84578190505b611b98611b9085611a58565b830182611b38565b50505b505050565b5f82821c905092915050565b5f611bbb5f1984600802611ba0565b1980831691505092915050565b5f611bd38383611bac565b9150826002028217905092915050565b611bec82611141565b67ffffffffffffffff811115611c0557611c04611438565b5b611c0f8254611767565b611c1a828285611b5a565b5f60209050601f831160018114611c4b575f8415611c39578287015190505b611c438582611bc8565b865550611caa565b601f198416611c5986611a46565b5f5b82811015611c8057848901518255600182019150602085019450602081019050611c5b565b86831015611c9d5784890151611c99601f891682611bac565b8355505b6001600288020188555050505b505050505050565b7f4e6f74206f776e657200000000000000000000000000000000000000000000005f82015250565b5f611ce660098361114b565b9150611cf182611cb2565b602082019050919050565b5f6020820190508181035f830152611d1381611cda565b9050919050565b5f611d24826111fc565b9150611d2f836111fc565b9250828203905081811115611d4757611d4661199f565b5b92915050565b7f4e6f7420455243373231526563656976657200000000000000000000000000005f82015250565b5f611d8160128361114b565b9150611d8c82611d4d565b602082019050919050565b5f6020820190508181035f830152611dae81611d75565b9050919050565b5f81519050919050565b5f82825260208201905092915050565b5f611dd982611db5565b611de38185611dbf565b9350611df381856020860161115b565b611dfc81611183565b840191505092915050565b5f608082019050611e1a5f83018761128a565b611e27602083018661128a565b611e346040830185611395565b8181036060830152611e468184611dcf565b905095945050505050565b5f7fffffffff0000000000000000000000000000000000000000000000000000000082169050919050565b611e8581611e51565b8114611e8f575f80fd5b50565b5f81519050611ea081611e7c565b92915050565b5f60208284031215611ebb57611eba6111f4565b5b5f611ec884828501611e92565b9150509291505056fea2646970667358221220bdf58c6aba53f430ee575ad7c375adc7fe0a7c46faa811c874e9bc2b667835cc64736f6c63430008180033",
					"opcodes": "PUSH1 0x80 PUSH1 0x40 MSTORE PUSH1 0x1 PUSH1 0x2 SSTORE CALLVALUE DUP1 ISZERO PUSH3 0x15 JUMPI PUSH0 DUP1 REVERT JUMPDEST POP PUSH1 0x40 MLOAD PUSH3 0x249E CODESIZE SUB DUP1 PUSH3 0x249E DUP4 CODECOPY DUP2 DUP2 ADD PUSH1 0x40 MSTORE DUP2 ADD SWAP1 PUSH3 0x3B SWAP2 SWAP1 PUSH3 0x1EB JUMP JUMPDEST DUP2 PUSH0 SWAP1 DUP2 PUSH3 0x4B SWAP2 SWAP1 PUSH3 0x4A5 JUMP JUMPDEST POP DUP1 PUSH1 0x1 SWAP1 DUP2 PUSH3 0x5D SWAP2 SWAP1 PUSH3 0x4A5 JUMP JUMPDEST POP POP POP PUSH3 0x589 JUMP JUMPDEST PUSH0 PUSH1 0x40 MLOAD SWAP1 POP SWAP1 JUMP JUMPDEST PUSH0 DUP1 REVERT JUMPDEST PUSH0 DUP1 REVERT JUMPDEST PUSH0 DUP1 REVERT JUMPDEST PUSH0 DUP1 REVERT JUMPDEST PUSH0 PUSH1 0x1F NOT PUSH1 0x1F DUP4 ADD AND SWAP1 POP SWAP2 SWAP1 POP JUMP JUMPDEST PUSH32 0x4E487B7100000000000000000000000000000000000000000000000000000000 PUSH0 MSTORE PUSH1 0x41 PUSH1 0x4 MSTORE PUSH1 0x24 PUSH0 REVERT JUMPDEST PUSH3 0xC7 DUP3 PUSH3 0x7F JUMP JUMPDEST DUP2 ADD DUP2 DUP2 LT PUSH8 0xFFFFFFFFFFFFFFFF DUP3 GT OR ISZERO PUSH3 0xE9 JUMPI PUSH3 0xE8 PUSH3 0x8F JUMP JUMPDEST JUMPDEST DUP1 PUSH1 0x40 MSTORE POP POP POP JUMP JUMPDEST PUSH0 PUSH3 0xFD PUSH3 0x66 JUMP JUMPDEST SWAP1 POP PUSH3 0x10B DUP3 DUP3 PUSH3 0xBC JUMP JUMPDEST SWAP2 SWAP1 POP JUMP JUMPDEST PUSH0 PUSH8 0xFFFFFFFFFFFFFFFF DUP3 GT ISZERO PUSH3 0x12D JUMPI PUSH3 0x12C PUSH3 0x8F JUMP JUMPDEST JUMPDEST PUSH3 0x138 DUP3 PUSH3 0x7F JUMP JUMPDEST SWAP1 POP PUSH1 0x20 DUP2 ADD SWAP1 POP SWAP2 SWAP1 POP JUMP JUMPDEST PUSH0 JUMPDEST DUP4 DUP2 LT ISZERO PUSH3 0x164 JUMPI DUP1 DUP3 ADD MLOAD DUP2 DUP5 ADD MSTORE PUSH1 0x20 DUP2 ADD SWAP1 POP PUSH3 0x147 JUMP JUMPDEST PUSH0 DUP5 DUP5 ADD MSTORE POP POP POP POP JUMP JUMPDEST PUSH0 PUSH3 0x185 PUSH3 0x17F DUP5 PUSH3 0x110 JUMP JUMPDEST PUSH3 0xF2 JUMP JUMPDEST SWAP1 POP DUP3 DUP2 MSTORE PUSH1 0x20 DUP2 ADD DUP5 DUP5 DUP5 ADD GT ISZERO PUSH3 0x1A4 JUMPI PUSH3 0x1A3 PUSH3 0x7B JUMP JUMPDEST JUMPDEST PUSH3 0x1B1 DUP5 DUP3 DUP6 PUSH3 0x145 JUMP JUMPDEST POP SWAP4 SWAP3 POP POP POP JUMP JUMPDEST PUSH0 DUP3 PUSH1 0x1F DUP4 ADD SLT PUSH3 0x1D0 JUMPI PUSH3 0x1CF PUSH3 0x77 JUMP JUMPDEST JUMPDEST DUP2 MLOAD PUSH3 0x1E2 DUP5 DUP3 PUSH1 0x20 DUP7 ADD PUSH3 0x16F JUMP JUMPDEST SWAP2 POP POP SWAP3 SWAP2 POP POP JUMP JUMPDEST PUSH0 DUP1 PUSH1 0x40 DUP4 DUP6 SUB SLT ISZERO PUSH3 0x204 JUMPI PUSH3 0x203 PUSH3 0x6F JUMP JUMPDEST JUMPDEST PUSH0 DUP4 ADD MLOAD PUSH8 0xFFFFFFFFFFFFFFFF DUP2 GT ISZERO PUSH3 0x224 JUMPI PUSH3 0x223 PUSH3 0x73 JUMP JUMPDEST JUMPDEST PUSH3 0x232 DUP6 DUP3 DUP7 ADD PUSH3 0x1B9 JUMP JUMPDEST SWAP3 POP POP PUSH1 0x20 DUP4 ADD MLOAD PUSH8 0xFFFFFFFFFFFFFFFF DUP2 GT ISZERO PUSH3 0x256 JUMPI PUSH3 0x255 PUSH3 0x73 JUMP JUMPDEST JUMPDEST PUSH3 0x264 DUP6 DUP3 DUP7 ADD PUSH3 0x1B9 JUMP JUMPDEST SWAP2 POP POP SWAP3 POP SWAP3 SWAP1 POP JUMP JUMPDEST PUSH0 DUP2 MLOAD SWAP1 POP SWAP2 SWAP1 POP JUMP JUMPDEST PUSH32 0x4E487B7100000000000000000000000000000000000000000000000000000000 PUSH0 MSTORE PUSH1 0x22 PUSH1 0x4 MSTORE PUSH1 0x24 PUSH0 REVERT JUMPDEST PUSH0 PUSH1 0x2 DUP3 DIV SWAP1 POP PUSH1 0x1 DUP3 AND DUP1 PUSH3 0x2BD JUMPI PUSH1 0x7F DUP3 AND SWAP2 POP JUMPDEST PUSH1 0x20 DUP3 LT DUP2 SUB PUSH3 0x2D3 JUMPI PUSH3 0x2D2 PUSH3 0x278 JUMP JUMPDEST JUMPDEST POP SWAP2 SWAP1 POP JUMP JUMPDEST PUSH0 DUP2 SWAP1 POP DUP2 PUSH0 MSTORE PUSH1 0x20 PUSH0 KECCAK256 SWAP1 POP SWAP2 SWAP1 POP JUMP JUMPDEST PUSH0 PUSH1 0x20 PUSH1 0x1F DUP4 ADD DIV SWAP1 POP SWAP2 SWAP1 POP JUMP JUMPDEST PUSH0 DUP3 DUP3 SHL SWAP1 POP SWAP3 SWAP2 POP POP JUMP JUMPDEST PUSH0 PUSH1 0x8 DUP4 MUL PUSH3 0x337 PUSH32 0xFFFFFFFFFFFFFFFFFFFFFFFFFFFFFFFFFFFFFFFFFFFFFFFFFFFFFFFFFFFFFFFF DUP3 PUSH3 0x2FA JUMP JUMPDEST PUSH3 0x343 DUP7 DUP4 PUSH3 0x2FA JUMP JUMPDEST SWAP6 POP DUP1 NOT DUP5 AND SWAP4 POP DUP1 DUP7 AND DUP5 OR SWAP3 POP POP POP SWAP4 SWAP3 POP POP POP JUMP JUMPDEST PUSH0 DUP2 SWAP1 POP SWAP2 SWAP1 POP JUMP JUMPDEST PUSH0 DUP2 SWAP1 POP SWAP2 SWAP1 POP JUMP JUMPDEST PUSH0 PUSH3 0x38D PUSH3 0x387 PUSH3 0x381 DUP5 PUSH3 0x35B JUMP JUMPDEST PUSH3 0x364 JUMP JUMPDEST PUSH3 0x35B JUMP JUMPDEST SWAP1 POP SWAP2 SWAP1 POP JUMP JUMPDEST PUSH0 DUP2 SWAP1 POP SWAP2 SWAP1 POP JUMP JUMPDEST PUSH3 0x3A8 DUP4 PUSH3 0x36D JUMP JUMPDEST PUSH3 0x3C0 PUSH3 0x3B7 DUP3 PUSH3 0x394 JUMP JUMPDEST DUP5 DUP5 SLOAD PUSH3 0x306 JUMP JUMPDEST DUP3 SSTORE POP POP POP POP JUMP JUMPDEST PUSH0 SWAP1 JUMP JUMPDEST PUSH3 0x3D6 PUSH3 0x3C8 JUMP JUMPDEST PUSH3 0x3E3 DUP2 DUP5 DUP5 PUSH3 0x39D JUMP JUMPDEST POP POP POP JUMP JUMPDEST JUMPDEST DUP2 DUP2 LT ISZERO PUSH3 0x40A JUMPI PUSH3 0x3FE PUSH0 DUP3 PUSH3 0x3CC JUMP JUMPDEST PUSH1 0x1 DUP2 ADD SWAP1 POP PUSH3 0x3E9 JUMP JUMPDEST POP POP JUMP JUMPDEST PUSH1 0x1F DUP3 GT ISZERO PUSH3 0x459 JUMPI PUSH3 0x423 DUP2 PUSH3 0x2D9 JUMP JUMPDEST PUSH3 0x42E DUP5 PUSH3 0x2EB JUMP JUMPDEST DUP2 ADD PUSH1 0x20 DUP6 LT ISZERO PUSH3 0x43E JUMPI DUP2 SWAP1 POP JUMPDEST PUSH3 0x456 PUSH3 0x44D DUP6 PUSH3 0x2EB JUMP JUMPDEST DUP4 ADD DUP3 PUSH3 0x3E8 JUMP JUMPDEST POP POP JUMPDEST POP POP POP JUMP JUMPDEST PUSH0 DUP3 DUP3 SHR SWAP1 POP SWAP3 SWAP2 POP POP JUMP JUMPDEST PUSH0 PUSH3 0x47B PUSH0 NOT DUP5 PUSH1 0x8 MUL PUSH3 0x45E JUMP JUMPDEST NOT DUP1 DUP4 AND SWAP2 POP POP SWAP3 SWAP2 POP POP JUMP JUMPDEST PUSH0 PUSH3 0x495 DUP4 DUP4 PUSH3 0x46A JUMP JUMPDEST SWAP2 POP DUP3 PUSH1 0x2 MUL DUP3 OR SWAP1 POP SWAP3 SWAP2 POP POP JUMP JUMPDEST PUSH3 0x4B0 DUP3 PUSH3 0x26E JUMP JUMPDEST PUSH8 0xFFFFFFFFFFFFFFFF DUP2 GT ISZERO PUSH3 0x4CC JUMPI PUSH3 0x4CB PUSH3 0x8F JUMP JUMPDEST JUMPDEST PUSH3 0x4D8 DUP3 SLOAD PUSH3 0x2A5 JUMP JUMPDEST PUSH3 0x4E5 DUP3 DUP3 DUP6 PUSH3 0x40E JUMP JUMPDEST PUSH0 PUSH1 0x20 SWAP1 POP PUSH1 0x1F DUP4 GT PUSH1 0x1 DUP2 EQ PUSH3 0x51B JUMPI PUSH0 DUP5 ISZERO PUSH3 0x506 JUMPI DUP3 DUP8 ADD MLOAD SWAP1 POP JUMPDEST PUSH3 0x512 DUP6 DUP3 PUSH3 0x488 JUMP JUMPDEST DUP7 SSTORE POP PUSH3 0x581 JUMP JUMPDEST PUSH1 0x1F NOT DUP5 AND PUSH3 0x52B DUP7 PUSH3 0x2D9 JUMP JUMPDEST PUSH0 JUMPDEST DUP3 DUP2 LT ISZERO PUSH3 0x554 JUMPI DUP5 DUP10 ADD MLOAD DUP3 SSTORE PUSH1 0x1 DUP3 ADD SWAP2 POP PUSH1 0x20 DUP6 ADD SWAP5 POP PUSH1 0x20 DUP2 ADD SWAP1 POP PUSH3 0x52D JUMP JUMPDEST DUP7 DUP4 LT ISZERO PUSH3 0x574 JUMPI DUP5 DUP10 ADD MLOAD PUSH3 0x570 PUSH1 0x1F DUP10 AND DUP3 PUSH3 0x46A JUMP JUMPDEST DUP4 SSTORE POP JUMPDEST PUSH1 0x1 PUSH1 0x2 DUP9 MUL ADD DUP9 SSTORE POP POP POP JUMPDEST POP POP POP POP POP POP JUMP JUMPDEST PUSH2 0x1F07 DUP1 PUSH3 0x597 PUSH0 CODECOPY PUSH0 RETURN INVALID PUSH1 0x80 PUSH1 0x40 MSTORE CALLVALUE DUP1 ISZERO PUSH2 0xF JUMPI PUSH0 DUP1 REVERT JUMPDEST POP PUSH1 0x4 CALLDATASIZE LT PUSH2 0xCD JUMPI PUSH0 CALLDATALOAD PUSH1 0xE0 SHR DUP1 PUSH4 0x70A08231 GT PUSH2 0x8A JUMPI DUP1 PUSH4 0xB88D4FDE GT PUSH2 0x64 JUMPI DUP1 PUSH4 0xB88D4FDE EQ PUSH2 0x20D JUMPI DUP1 PUSH4 0xC87B56DD EQ PUSH2 0x229 JUMPI DUP1 PUSH4 0xD0DEF521 EQ PUSH2 0x259 JUMPI DUP1 PUSH4 0xE985E9C5 EQ PUSH2 0x275 JUMPI PUSH2 0xCD JUMP JUMPDEST DUP1 PUSH4 0x70A08231 EQ PUSH2 0x1A3 JUMPI DUP1 PUSH4 0x95D89B41 EQ PUSH2 0x1D3 JUMPI DUP1 PUSH4 0xA22CB465 EQ PUSH2 0x1F1 JUMPI PUSH2 0xCD JUMP JUMPDEST DUP1 PUSH4 0x6FDDE03 EQ PUSH2 0xD1 JUMPI DUP1 PUSH4 0x81812FC EQ PUSH2 0xEF JUMPI DUP1 PUSH4 0x95EA7B3 EQ PUSH2 0x11F JUMPI DUP1 PUSH4 0x23B872DD EQ PUSH2 0x13B JUMPI DUP1 PUSH4 0x42842E0E EQ PUSH2 0x157 JUMPI DUP1 PUSH4 0x6352211E EQ PUSH2 0x173 JUMPI JUMPDEST PUSH0 DUP1 REVERT JUMPDEST PUSH2 0xD9 PUSH2 0x2A5 JUMP JUMPDEST PUSH1 0x40 MLOAD PUSH2 0xE6 SWAP2 SWAP1 PUSH2 0x11CB JUMP JUMPDEST PUSH1 0x40 MLOAD DUP1 SWAP2 SUB SWAP1 RETURN JUMPDEST PUSH2 0x109 PUSH1 0x4 DUP1 CALLDATASIZE SUB DUP2 ADD SWAP1 PUSH2 0x104 SWAP2 SWAP1 PUSH2 0x122F JUMP JUMPDEST PUSH2 0x330 JUMP JUMPDEST PUSH1 0x40 MLOAD PUSH2 0x116 SWAP2 SWAP1 PUSH2 0x1299 JUMP JUMPDEST PUSH1 0x40 MLOAD DUP1 SWAP2 SUB SWAP1 RETURN JUMPDEST PUSH2 0x139 PUSH1 0x4 DUP1 CALLDATASIZE SUB DUP2 ADD SWAP1 PUSH2 0x134 SWAP2 SWAP1 PUSH2 0x12DC JUMP JUMPDEST PUSH2 0x407 JUMP JUMPDEST STOP JUMPDEST PUSH2 0x155 PUSH1 0x4 DUP1 CALLDATASIZE SUB DUP2 ADD SWAP1 PUSH2 0x150 SWAP2 SWAP1 PUSH2 0x131A JUMP JUMPDEST PUSH2 0x5AF JUMP JUMPDEST STOP JUMPDEST PUSH2 0x171 PUSH1 0x4 DUP1 CALLDATASIZE SUB DUP2 ADD SWAP1 PUSH2 0x16C SWAP2 SWAP1 PUSH2 0x131A JUMP JUMPDEST PUSH2 0x608 JUMP JUMPDEST STOP JUMPDEST PUSH2 0x18D PUSH1 0x4 DUP1 CALLDATASIZE SUB DUP2 ADD SWAP1 PUSH2 0x188 SWAP2 SWAP1 PUSH2 0x122F JUMP JUMPDEST PUSH2 0x627 JUMP JUMPDEST PUSH1 0x40 MLOAD PUSH2 0x19A SWAP2 SWAP1 PUSH2 0x1299 JUMP JUMPDEST PUSH1 0x40 MLOAD DUP1 SWAP2 SUB SWAP1 RETURN JUMPDEST PUSH2 0x1BD PUSH1 0x4 DUP1 CALLDATASIZE SUB DUP2 ADD SWAP1 PUSH2 0x1B8 SWAP2 SWAP1 PUSH2 0x136A JUMP JUMPDEST PUSH2 0x6D3 JUMP JUMPDEST PUSH1 0x40 MLOAD PUSH2 0x1CA SWAP2 SWAP1 PUSH2 0x13A4 JUMP JUMPDEST PUSH1 0x40 MLOAD DUP1 SWAP2 SUB SWAP1 RETURN JUMPDEST PUSH2 0x1DB PUSH2 0x787 JUMP JUMPDEST PUSH1 0x40 MLOAD PUSH2 0x1E8 SWAP2 SWAP1 PUSH2 0x11CB JUMP JUMPDEST PUSH1 0x40 MLOAD DUP1 SWAP2 SUB SWAP1 RETURN JUMPDEST PUSH2 0x20B PUSH1 0x4 DUP1 CALLDATASIZE SUB DUP2 ADD SWAP1 PUSH2 0x206 SWAP2 SWAP1 PUSH2 0x13F2 JUMP JUMPDEST PUSH2 0x813 JUMP JUMPDEST STOP JUMPDEST PUSH2 0x227 PUSH1 0x4 DUP1 CALLDATASIZE SUB DUP2 ADD SWAP1 PUSH2 0x222 SWAP2 SWAP1 PUSH2 0x155C JUMP JUMPDEST PUSH2 0x979 JUMP JUMPDEST STOP JUMPDEST PUSH2 0x243 PUSH1 0x4 DUP1 CALLDATASIZE SUB DUP2 ADD SWAP1 PUSH2 0x23E SWAP2 SWAP1 PUSH2 0x122F JUMP JUMPDEST PUSH2 0x9D4 JUMP JUMPDEST PUSH1 0x40 MLOAD PUSH2 0x250 SWAP2 SWAP1 PUSH2 0x11CB JUMP JUMPDEST PUSH1 0x40 MLOAD DUP1 SWAP2 SUB SWAP1 RETURN JUMPDEST PUSH2 0x273 PUSH1 0x4 DUP1 CALLDATASIZE SUB DUP2 ADD SWAP1 PUSH2 0x26E SWAP2 SWAP1 PUSH2 0x167A JUMP JUMPDEST PUSH2 0xB13 JUMP JUMPDEST STOP JUMPDEST PUSH2 0x28F PUSH1 0x4 DUP1 CALLDATASIZE SUB DUP2 ADD SWAP1 PUSH2 0x28A SWAP2 SWAP1 PUSH2 0x16D4 JUMP JUMPDEST PUSH2 0xC52 JUMP JUMPDEST PUSH1 0x40 MLOAD PUSH2 0x29C SWAP2 SWAP1 PUSH2 0x1721 JUMP JUMPDEST PUSH1 0x40 MLOAD DUP1 SWAP2 SUB SWAP1 RETURN JUMPDEST PUSH0 DUP1 SLOAD PUSH2 0x2B1 SWAP1 PUSH2 0x1767 JUMP JUMPDEST DUP1 PUSH1 0x1F ADD PUSH1 0x20 DUP1 SWAP2 DIV MUL PUSH1 0x20 ADD PUSH1 0x40 MLOAD SWAP1 DUP2 ADD PUSH1 0x40 MSTORE DUP1 SWAP3 SWAP2 SWAP1 DUP2 DUP2 MSTORE PUSH1 0x20 ADD DUP3 DUP1 SLOAD PUSH2 0x2DD SWAP1 PUSH2 0x1767 JUMP JUMPDEST DUP1 ISZERO PUSH2 0x328 JUMPI DUP1 PUSH1 0x1F LT PUSH2 0x2FF JUMPI PUSH2 0x100 DUP1 DUP4 SLOAD DIV MUL DUP4 MSTORE SWAP2 PUSH1 0x20 ADD SWAP2 PUSH2 0x328 JUMP JUMPDEST DUP3 ADD SWAP2 SWAP1 PUSH0 MSTORE PUSH1 0x20 PUSH0 KECCAK256 SWAP1 JUMPDEST DUP2 SLOAD DUP2 MSTORE SWAP1 PUSH1 0x1 ADD SWAP1 PUSH1 0x20 ADD DUP1 DUP4 GT PUSH2 0x30B JUMPI DUP3 SWAP1 SUB PUSH1 0x1F AND DUP3 ADD SWAP2 JUMPDEST POP POP POP POP POP DUP2 JUMP JUMPDEST PUSH0 DUP1 PUSH20 0xFFFFFFFFFFFFFFFFFFFFFFFFFFFFFFFFFFFFFFFF AND PUSH1 0x3 PUSH0 DUP5 DUP2 MSTORE PUSH1 0x20 ADD SWAP1 DUP2 MSTORE PUSH1 0x20 ADD PUSH0 KECCAK256 PUSH0 SWAP1 SLOAD SWAP1 PUSH2 0x100 EXP SWAP1 DIV PUSH20 0xFFFFFFFFFFFFFFFFFFFFFFFFFFFFFFFFFFFFFFFF AND PUSH20 0xFFFFFFFFFFFFFFFFFFFFFFFFFFFFFFFFFFFFFFFF AND SUB PUSH2 0x3CF JUMPI PUSH1 0x40 MLOAD PUSH32 0x8C379A000000000000000000000000000000000000000000000000000000000 DUP2 MSTORE PUSH1 0x4 ADD PUSH2 0x3C6 SWAP1 PUSH2 0x17E1 JUMP JUMPDEST PUSH1 0x40 MLOAD DUP1 SWAP2 SUB SWAP1 REVERT JUMPDEST PUSH1 0x5 PUSH0 DUP4 DUP2 MSTORE PUSH1 0x20 ADD SWAP1 DUP2 MSTORE PUSH1 0x20 ADD PUSH0 KECCAK256 PUSH0 SWAP1 SLOAD SWAP1 PUSH2 0x100 EXP SWAP1 DIV PUSH20 0xFFFFFFFFFFFFFFFFFFFFFFFFFFFFFFFFFFFFFFFF AND SWAP1 POP SWAP2 SWAP1 POP JUMP JUMPDEST PUSH0 PUSH2 0x411 DUP3 PUSH2 0x627 JUMP JUMPDEST SWAP1 POP DUP1 PUSH20 0xFFFFFFFFFFFFFFFFFFFFFFFFFFFFFFFFFFFFFFFF AND DUP4 PUSH20 0xFFFFFFFFFFFFFFFFFFFFFFFFFFFFFFFFFFFFFFFF AND SUB PUSH2 0x481 JUMPI PUSH1 0x40 MLOAD PUSH32 0x8C379A000000000000000000000000000000000000000000000000000000000 DUP2 MSTORE PUSH1 0x4 ADD PUSH2 0x478 SWAP1 PUSH2 0x1849 JUMP JUMPDEST PUSH1 0x40 MLOAD DUP1 SWAP2 SUB SWAP1 REVERT JUMPDEST DUP1 PUSH20 0xFFFFFFFFFFFFFFFFFFFFFFFFFFFFFFFFFFFFFFFF AND CALLER PUSH20 0xFFFFFFFFFFFFFFFFFFFFFFFFFFFFFFFFFFFFFFFF AND EQ DUP1 PUSH2 0x4C1 JUMPI POP PUSH2 0x4C0 DUP2 CALLER PUSH2 0xC52 JUMP JUMPDEST JUMPDEST PUSH2 0x500 JUMPI PUSH1 0x40 MLOAD PUSH32 0x8C379A000000000000000000000000000000000000000000000000000000000 DUP2 MSTORE PUSH1 0x4 ADD PUSH2 0x4F7 SWAP1 PUSH2 0x18B1 JUMP JUMPDEST PUSH1 0x40 MLOAD DUP1 SWAP2 SUB SWAP1 REVERT JUMPDEST DUP3 PUSH1 0x5 PUSH0 DUP5 DUP2 MSTORE PUSH1 0x20 ADD SWAP1 DUP2 MSTORE PUSH1 0x20 ADD PUSH0 KECCAK256 PUSH0 PUSH2 0x100 EXP DUP2 SLOAD DUP2 PUSH20 0xFFFFFFFFFFFFFFFFFFFFFFFFFFFFFFFFFFFFFFFF MUL NOT AND SWAP1 DUP4 PUSH20 0xFFFFFFFFFFFFFFFFFFFFFFFFFFFFFFFFFFFFFFFF AND MUL OR SWAP1 SSTORE POP DUP2 DUP4 PUSH20 0xFFFFFFFFFFFFFFFFFFFFFFFFFFFFFFFFFFFFFFFF AND DUP3 PUSH20 0xFFFFFFFFFFFFFFFFFFFFFFFFFFFFFFFFFFFFFFFF AND PUSH32 0x8C5BE1E5EBEC7D5BD14F71427D1E84F3DD0314C0F7B2291E5B200AC8C7C3B925 PUSH1 0x40 MLOAD PUSH1 0x40 MLOAD DUP1 SWAP2 SUB SWAP1 LOG4 POP POP POP JUMP JUMPDEST PUSH2 0x5B9 CALLER DUP3 PUSH2 0xCE0 JUMP JUMPDEST PUSH2 0x5F8 JUMPI PUSH1 0x40 MLOAD PUSH32 0x8C379A000000000000000000000000000000000000000000000000000000000 DUP2 MSTORE PUSH1 0x4 ADD PUSH2 0x5EF SWAP1 PUSH2 0x18B1 JUMP JUMPDEST PUSH1 0x40 MLOAD DUP1 SWAP2 SUB SWAP1 REVERT JUMPDEST PUSH2 0x603 DUP4 DUP4 DUP4 PUSH2 0xD74 JUMP JUMPDEST POP POP POP JUMP JUMPDEST PUSH2 0x622 DUP4 DUP4 DUP4 PUSH1 0x40 MLOAD DUP1 PUSH1 0x20 ADD PUSH1 0x40 MSTORE DUP1 PUSH0 DUP2 MSTORE POP PUSH2 0x979 JUMP JUMPDEST POP POP POP JUMP JUMPDEST PUSH0 DUP1 PUSH1 0x3 PUSH0 DUP5 DUP2 MSTORE PUSH1 0x20 ADD SWAP1 DUP2 MSTORE PUSH1 0x20 ADD PUSH0 KECCAK256 PUSH0 SWAP1 SLOAD SWAP1 PUSH2 0x100 EXP SWAP1 DIV PUSH20 0xFFFFFFFFFFFFFFFFFFFFFFFFFFFFFFFFFFFFFFFF AND SWAP1 POP PUSH0 PUSH20 0xFFFFFFFFFFFFFFFFFFFFFFFFFFFFFFFFFFFFFFFF AND DUP2 PUSH20 0xFFFFFFFFFFFFFFFFFFFFFFFFFFFFFFFFFFFFFFFF AND SUB PUSH2 0x6CA JUMPI PUSH1 0x40 MLOAD PUSH32 0x8C379A000000000000000000000000000000000000000000000000000000000 DUP2 MSTORE PUSH1 0x4 ADD PUSH2 0x6C1 SWAP1 PUSH2 0x17E1 JUMP JUMPDEST PUSH1 0x40 MLOAD DUP1 SWAP2 SUB SWAP1 REVERT JUMPDEST DUP1 SWAP2 POP POP SWAP2 SWAP1 POP JUMP JUMPDEST PUSH0 DUP1 PUSH20 0xFFFFFFFFFFFFFFFFFFFFFFFFFFFFFFFFFFFFFFFF AND DUP3 PUSH20 0xFFFFFFFFFFFFFFFFFFFFFFFFFFFFFFFFFFFFFFFF AND SUB PUSH2 0x742 JUMPI PUSH1 0x40 MLOAD PUSH32 0x8C379A000000000000000000000000000000000000000000000000000000000 DUP2 MSTORE PUSH1 0x4 ADD PUSH2 0x739 SWAP1 PUSH2 0x1919 JUMP JUMPDEST PUSH1 0x40 MLOAD DUP1 SWAP2 SUB SWAP1 REVERT JUMPDEST PUSH1 0x4 PUSH0 DUP4 PUSH20 0xFFFFFFFFFFFFFFFFFFFFFFFFFFFFFFFFFFFFFFFF AND PUSH20 0xFFFFFFFFFFFFFFFFFFFFFFFFFFFFFFFFFFFFFFFF AND DUP2 MSTORE PUSH1 0x20 ADD SWAP1 DUP2 MSTORE PUSH1 0x20 ADD PUSH0 KECCAK256 SLOAD SWAP1 POP SWAP2 SWAP1 POP JUMP JUMPDEST PUSH1 0x1 DUP1 SLOAD PUSH2 0x794 SWAP1 PUSH2 0x1767 JUMP JUMPDEST DUP1 PUSH1 0x1F ADD PUSH1 0x20 DUP1 SWAP2 DIV MUL PUSH1 0x20 ADD PUSH1 0x40 MLOAD SWAP1 DUP2 ADD PUSH1 0x40 MSTORE DUP1 SWAP3 SWAP2 SWAP1 DUP2 DUP2 MSTORE PUSH1 0x20 ADD DUP3 DUP1 SLOAD PUSH2 0x7C0 SWAP1 PUSH2 0x1767 JUMP JUMPDEST DUP1 ISZERO PUSH2 0x80B JUMPI DUP1 PUSH1 0x1F LT PUSH2 0x7E2 JUMPI PUSH2 0x100 DUP1 DUP4 SLOAD DIV MUL DUP4 MSTORE SWAP2 PUSH1 0x20 ADD SWAP2 PUSH2 0x80B JUMP JUMPDEST DUP3 ADD SWAP2 SWAP1 PUSH0 MSTORE PUSH1 0x20 PUSH0 KECCAK256 SWAP1 JUMPDEST DUP2 SLOAD DUP2 MSTORE SWAP1 PUSH1 0x1 ADD SWAP1 PUSH1 0x20 ADD DUP1 DUP4 GT PUSH2 0x7EE JUMPI DUP3 SWAP1 SUB PUSH1 0x1F AND DUP3 ADD SWAP2 JUMPDEST POP POP POP POP POP DUP2 JUMP JUMPDEST CALLER PUSH20 0xFFFFFFFFFFFFFFFFFFFFFFFFFFFFFFFFFFFFFFFF AND DUP3 PUSH20 0xFFFFFFFFFFFFFFFFFFFFFFFFFFFFFFFFFFFFFFFF AND SUB PUSH2 0x881 JUMPI PUSH1 0x40 MLOAD PUSH32 0x8C379A000000000000000000000000000000000000000000000000000000000 DUP2 MSTORE PUSH1 0x4 ADD PUSH2 0x878 SWAP1 PUSH2 0x1981 JUMP JUMPDEST PUSH1 0x40 MLOAD DUP1 SWAP2 SUB SWAP1 REVERT JUMPDEST DUP1 PUSH1 0x6 PUSH0 CALLER PUSH20 0xFFFFFFFFFFFFFFFFFFFFFFFFFFFFFFFFFFFFFFFF AND PUSH20 0xFFFFFFFFFFFFFFFFFFFFFFFFFFFFFFFFFFFFFFFF AND DUP2 MSTORE PUSH1 0x20 ADD SWAP1 DUP2 MSTORE PUSH1 0x20 ADD PUSH0 KECCAK256 PUSH0 DUP5 PUSH20 0xFFFFFFFFFFFFFFFFFFFFFFFFFFFFFFFFFFFFFFFF AND PUSH20 0xFFFFFFFFFFFFFFFFFFFFFFFFFFFFFFFFFFFFFFFF AND DUP2 MSTORE PUSH1 0x20 ADD SWAP1 DUP2 MSTORE PUSH1 0x20 ADD PUSH0 KECCAK256 PUSH0 PUSH2 0x100 EXP DUP2 SLOAD DUP2 PUSH1 0xFF MUL NOT AND SWAP1 DUP4 ISZERO ISZERO MUL OR SWAP1 SSTORE POP DUP2 PUSH20 0xFFFFFFFFFFFFFFFFFFFFFFFFFFFFFFFFFFFFFFFF AND CALLER PUSH20 0xFFFFFFFFFFFFFFFFFFFFFFFFFFFFFFFFFFFFFFFF AND PUSH32 0x17307EAB39AB6107E8899845AD3D59BD9653F200F220920489CA2B5937696C31 DUP4 PUSH1 0x40 MLOAD PUSH2 0x96D SWAP2 SWAP1 PUSH2 0x1721 JUMP JUMPDEST PUSH1 0x40 MLOAD DUP1 SWAP2 SUB SWAP1 LOG3 POP POP JUMP JUMPDEST PUSH2 0x983 CALLER DUP4 PUSH2 0xCE0 JUMP JUMPDEST PUSH2 0x9C2 JUMPI PUSH1 0x40 MLOAD PUSH32 0x8C379A000000000000000000000000000000000000000000000000000000000 DUP2 MSTORE PUSH1 0x4 ADD PUSH2 0x9B9 SWAP1 PUSH2 0x18B1 JUMP JUMPDEST PUSH1 0x40 MLOAD DUP1 SWAP2 SUB SWAP1 REVERT JUMPDEST PUSH2 0x9CE DUP5 DUP5 DUP5 DUP5 PUSH2 0xFE2 JUMP JUMPDEST POP POP POP POP JUMP JUMPDEST PUSH1 0x60 PUSH0 PUSH20 0xFFFFFFFFFFFFFFFFFFFFFFFFFFFFFFFFFFFFFFFF AND PUSH1 0x3 PUSH0 DUP5 DUP2 MSTORE PUSH1 0x20 ADD SWAP1 DUP2 MSTORE PUSH1 0x20 ADD PUSH0 KECCAK256 PUSH0 SWAP1 SLOAD SWAP1 PUSH2 0x100 EXP SWAP1 DIV PUSH20 0xFFFFFFFFFFFFFFFFFFFFFFFFFFFFFFFFFFFFFFFF AND PUSH20 0xFFFFFFFFFFFFFFFFFFFFFFFFFFFFFFFFFFFFFFFF AND SUB PUSH2 0xA74 JUMPI PUSH1 0x40 MLOAD PUSH32 0x8C379A000000000000000000000000000000000000000000000000000000000 DUP2 MSTORE PUSH1 0x4 ADD PUSH2 0xA6B SWAP1 PUSH2 0x17E1 JUMP JUMPDEST PUSH1 0x40 MLOAD DUP1 SWAP2 SUB SWAP1 REVERT JUMPDEST PUSH1 0x7 PUSH0 DUP4 DUP2 MSTORE PUSH1 0x20 ADD SWAP1 DUP2 MSTORE PUSH1 0x20 ADD PUSH0 KECCAK256 DUP1 SLOAD PUSH2 0xA90 SWAP1 PUSH2 0x1767 JUMP JUMPDEST DUP1 PUSH1 0x1F ADD PUSH1 0x20 DUP1 SWAP2 DIV MUL PUSH1 0x20 ADD PUSH1 0x40 MLOAD SWAP1 DUP2 ADD PUSH1 0x40 MSTORE DUP1 SWAP3 SWAP2 SWAP1 DUP2 DUP2 MSTORE PUSH1 0x20 ADD DUP3 DUP1 SLOAD PUSH2 0xABC SWAP1 PUSH2 0x1767 JUMP JUMPDEST DUP1 ISZERO PUSH2 0xB07 JUMPI DUP1 PUSH1 0x1F LT PUSH2 0xADE JUMPI PUSH2 0x100 DUP1 DUP4 SLOAD DIV MUL DUP4 MSTORE SWAP2 PUSH1 0x20 ADD SWAP2 PUSH2 0xB07 JUMP JUMPDEST DUP3 ADD SWAP2 SWAP1 PUSH0 MSTORE PUSH1 0x20 PUSH0 KECCAK256 SWAP1 JUMPDEST DUP2 SLOAD DUP2 MSTORE SWAP1 PUSH1 0x1 ADD SWAP1 PUSH1 0x20 ADD DUP1 DUP4 GT PUSH2 0xAEA JUMPI DUP3 SWAP1 SUB PUSH1 0x1F AND DUP3 ADD SWAP2 JUMPDEST POP POP POP POP POP SWAP1 POP SWAP2 SWAP1 POP JUMP JUMPDEST PUSH0 PUSH1 0x2 SLOAD SWAP1 POP PUSH1 0x2 PUSH0 DUP2 SLOAD DUP1 SWAP3 SWAP2 SWAP1 PUSH2 0xB2B SWAP1 PUSH2 0x19CC JUMP JUMPDEST SWAP2 SWAP1 POP SSTORE POP DUP3 PUSH1 0x3 PUSH0 DUP4 DUP2 MSTORE PUSH1 0x20 ADD SWAP1 DUP2 MSTORE PUSH1 0x20 ADD PUSH0 KECCAK256 PUSH0 PUSH2 0x100 EXP DUP2 SLOAD DUP2 PUSH20 0xFFFFFFFFFFFFFFFFFFFFFFFFFFFFFFFFFFFFFFFF MUL NOT AND SWAP1 DUP4 PUSH20 0xFFFFFFFFFFFFFFFFFFFFFFFFFFFFFFFFFFFFFFFF AND MUL OR SWAP1 SSTORE POP PUSH1 0x1 PUSH1 0x4 PUSH0 DUP6 PUSH20 0xFFFFFFFFFFFFFFFFFFFFFFFFFFFFFFFFFFFFFFFF AND PUSH20 0xFFFFFFFFFFFFFFFFFFFFFFFFFFFFFFFFFFFFFFFF AND DUP2 MSTORE PUSH1 0x20 ADD SWAP1 DUP2 MSTORE PUSH1 0x20 ADD PUSH0 KECCAK256 PUSH0 DUP3 DUP3 SLOAD PUSH2 0xBCC SWAP2 SWAP1 PUSH2 0x1A13 JUMP JUMPDEST SWAP3 POP POP DUP2 SWAP1 SSTORE POP DUP2 PUSH1 0x7 PUSH0 DUP4 DUP2 MSTORE PUSH1 0x20 ADD SWAP1 DUP2 MSTORE PUSH1 0x20 ADD PUSH0 KECCAK256 SWAP1 DUP2 PUSH2 0xBF1 SWAP2 SWAP1 PUSH2 0x1BE3 JUMP JUMPDEST POP DUP1 DUP4 PUSH20 0xFFFFFFFFFFFFFFFFFFFFFFFFFFFFFFFFFFFFFFFF AND PUSH0 PUSH20 0xFFFFFFFFFFFFFFFFFFFFFFFFFFFFFFFFFFFFFFFF AND PUSH32 0xDDF252AD1BE2C89B69C2B068FC378DAA952BA7F163C4A11628F55A4DF523B3EF PUSH1 0x40 MLOAD PUSH1 0x40 MLOAD DUP1 SWAP2 SUB SWAP1 LOG4 POP POP POP JUMP JUMPDEST PUSH0 PUSH1 0x6 PUSH0 DUP5 PUSH20 0xFFFFFFFFFFFFFFFFFFFFFFFFFFFFFFFFFFFFFFFF AND PUSH20 0xFFFFFFFFFFFFFFFFFFFFFFFFFFFFFFFFFFFFFFFF AND DUP2 MSTORE PUSH1 0x20 ADD SWAP1 DUP2 MSTORE PUSH1 0x20 ADD PUSH0 KECCAK256 PUSH0 DUP4 PUSH20 0xFFFFFFFFFFFFFFFFFFFFFFFFFFFFFFFFFFFFFFFF AND PUSH20 0xFFFFFFFFFFFFFFFFFFFFFFFFFFFFFFFFFFFFFFFF AND DUP2 MSTORE PUSH1 0x20 ADD SWAP1 DUP2 MSTORE PUSH1 0x20 ADD PUSH0 KECCAK256 PUSH0 SWAP1 SLOAD SWAP1 PUSH2 0x100 EXP SWAP1 DIV PUSH1 0xFF AND SWAP1 POP SWAP3 SWAP2 POP POP JUMP JUMPDEST PUSH0 DUP1 PUSH2 0xCEB DUP4 PUSH2 0x627 JUMP JUMPDEST SWAP1 POP DUP1 PUSH20 0xFFFFFFFFFFFFFFFFFFFFFFFFFFFFFFFFFFFFFFFF AND DUP5 PUSH20 0xFFFFFFFFFFFFFFFFFFFFFFFFFFFFFFFFFFFFFFFF AND EQ DUP1 PUSH2 0xD5A JUMPI POP DUP4 PUSH20 0xFFFFFFFFFFFFFFFFFFFFFFFFFFFFFFFFFFFFFFFF AND PUSH2 0xD42 DUP5 PUSH2 0x330 JUMP JUMPDEST PUSH20 0xFFFFFFFFFFFFFFFFFFFFFFFFFFFFFFFFFFFFFFFF AND EQ JUMPDEST DUP1 PUSH2 0xD6B JUMPI POP PUSH2 0xD6A DUP2 DUP6 PUSH2 0xC52 JUMP JUMPDEST JUMPDEST SWAP2 POP POP SWAP3 SWAP2 POP POP JUMP JUMPDEST DUP3 PUSH20 0xFFFFFFFFFFFFFFFFFFFFFFFFFFFFFFFFFFFFFFFF AND PUSH2 0xD94 DUP3 PUSH2 0x627 JUMP JUMPDEST PUSH20 0xFFFFFFFFFFFFFFFFFFFFFFFFFFFFFFFFFFFFFFFF AND EQ PUSH2 0xDEA JUMPI PUSH1 0x40 MLOAD PUSH32 0x8C379A000000000000000000000000000000000000000000000000000000000 DUP2 MSTORE PUSH1 0x4 ADD PUSH2 0xDE1 SWAP1 PUSH2 0x1CFC JUMP JUMPDEST PUSH1 0x40 MLOAD DUP1 SWAP2 SUB SWAP1 REVERT JUMPDEST PUSH0 PUSH20 0xFFFFFFFFFFFFFFFFFFFFFFFFFFFFFFFFFFFFFFFF AND DUP3 PUSH20 0xFFFFFFFFFFFFFFFFFFFFFFFFFFFFFFFFFFFFFFFF AND SUB PUSH2 0xE58 JUMPI PUSH1 0x40 MLOAD PUSH32 0x8C379A000000000000000000000000000000000000000000000000000000000 DUP2 MSTORE PUSH1 0x4 ADD PUSH2 0xE4F SWAP1 PUSH2 0x1919 JUMP JUMPDEST PUSH1 0x40 MLOAD DUP1 SWAP2 SUB SWAP1 REVERT JUMPDEST PUSH1 0x1 PUSH1 0x4 PUSH0 DUP6 PUSH20 0xFFFFFFFFFFFFFFFFFFFFFFFFFFFFFFFFFFFFFFFF AND PUSH20 0xFFFFFFFFFFFFFFFFFFFFFFFFFFFFFFFFFFFFFFFF AND DUP2 MSTORE PUSH1 0x20 ADD SWAP1 DUP2 MSTORE PUSH1 0x20 ADD PUSH0 KECCAK256 PUSH0 DUP3 DUP3 SLOAD PUSH2 0xEA5 SWAP2 SWAP1 PUSH2 0x1D1A JUMP JUMPDEST SWAP3 POP POP DUP2 SWAP1 SSTORE POP PUSH1 0x1 PUSH1 0x4 PUSH0 DUP5 PUSH20 0xFFFFFFFFFFFFFFFFFFFFFFFFFFFFFFFFFFFFFFFF AND PUSH20 0xFFFFFFFFFFFFFFFFFFFFFFFFFFFFFFFFFFFFFFFF AND DUP2 MSTORE PUSH1 0x20 ADD SWAP1 DUP2 MSTORE PUSH1 0x20 ADD PUSH0 KECCAK256 PUSH0 DUP3 DUP3 SLOAD PUSH2 0xEF9 SWAP2 SWAP1 PUSH2 0x1A13 JUMP JUMPDEST SWAP3 POP POP DUP2 SWAP1 SSTORE POP DUP2 PUSH1 0x3 PUSH0 DUP4 DUP2 MSTORE PUSH1 0x20 ADD SWAP1 DUP2 MSTORE PUSH1 0x20 ADD PUSH0 KECCAK256 PUSH0 PUSH2 0x100 EXP DUP2 SLOAD DUP2 PUSH20 0xFFFFFFFFFFFFFFFFFFFFFFFFFFFFFFFFFFFFFFFF MUL NOT AND SWAP1 DUP4 PUSH20 0xFFFFFFFFFFFFFFFFFFFFFFFFFFFFFFFFFFFFFFFF AND MUL OR SWAP1 SSTORE POP PUSH1 0x5 PUSH0 DUP3 DUP2 MSTORE PUSH1 0x20 ADD SWAP1 DUP2 MSTORE PUSH1 0x20 ADD PUSH0 KECCAK256 PUSH0 PUSH2 0x100 EXP DUP2 SLOAD SWAP1 PUSH20 0xFFFFFFFFFFFFFFFFFFFFFFFFFFFFFFFFFFFFFFFF MUL NOT AND SWAP1 SSTORE DUP1 DUP3 PUSH20 0xFFFFFFFFFFFFFFFFFFFFFFFFFFFFFFFFFFFFFFFF AND DUP5 PUSH20 0xFFFFFFFFFFFFFFFFFFFFFFFFFFFFFFFFFFFFFFFF AND PUSH32 0xDDF252AD1BE2C89B69C2B068FC378DAA952BA7F163C4A11628F55A4DF523B3EF PUSH1 0x40 MLOAD PUSH1 0x40 MLOAD DUP1 SWAP2 SUB SWAP1 LOG4 POP POP POP JUMP JUMPDEST PUSH2 0xFED DUP5 DUP5 DUP5 PUSH2 0xD74 JUMP JUMPDEST PUSH2 0xFF9 DUP5 DUP5 DUP5 DUP5 PUSH2 0x103E JUMP JUMPDEST PUSH2 0x1038 JUMPI PUSH1 0x40 MLOAD PUSH32 0x8C379A000000000000000000000000000000000000000000000000000000000 DUP2 MSTORE PUSH1 0x4 ADD PUSH2 0x102F SWAP1 PUSH2 0x1D97 JUMP JUMPDEST PUSH1 0x40 MLOAD DUP1 SWAP2 SUB SWAP1 REVERT JUMPDEST POP POP POP POP JUMP JUMPDEST PUSH0 DUP1 DUP5 PUSH20 0xFFFFFFFFFFFFFFFFFFFFFFFFFFFFFFFFFFFFFFFF AND EXTCODESIZE GT ISZERO PUSH2 0x1134 JUMPI DUP4 PUSH20 0xFFFFFFFFFFFFFFFFFFFFFFFFFFFFFFFFFFFFFFFF AND PUSH4 0x150B7A02 CALLER DUP8 DUP7 DUP7 PUSH1 0x40 MLOAD DUP6 PUSH4 0xFFFFFFFF AND PUSH1 0xE0 SHL DUP2 MSTORE PUSH1 0x4 ADD PUSH2 0x109D SWAP5 SWAP4 SWAP3 SWAP2 SWAP1 PUSH2 0x1E07 JUMP JUMPDEST PUSH1 0x20 PUSH1 0x40 MLOAD DUP1 DUP4 SUB DUP2 PUSH0 DUP8 GAS CALL SWAP3 POP POP POP DUP1 ISZERO PUSH2 0x10D8 JUMPI POP PUSH1 0x40 MLOAD RETURNDATASIZE PUSH1 0x1F NOT PUSH1 0x1F DUP3 ADD AND DUP3 ADD DUP1 PUSH1 0x40 MSTORE POP DUP2 ADD SWAP1 PUSH2 0x10D5 SWAP2 SWAP1 PUSH2 0x1EA6 JUMP JUMPDEST PUSH1 0x1 JUMPDEST PUSH2 0x10E4 JUMPI PUSH0 SWAP1 POP PUSH2 0x1139 JUMP JUMPDEST PUSH4 0x150B7A02 PUSH1 0xE0 SHL PUSH28 0xFFFFFFFFFFFFFFFFFFFFFFFFFFFFFFFFFFFFFFFFFFFFFFFFFFFFFFFF NOT AND DUP2 PUSH28 0xFFFFFFFFFFFFFFFFFFFFFFFFFFFFFFFFFFFFFFFFFFFFFFFFFFFFFFFF NOT AND EQ SWAP2 POP POP PUSH2 0x1139 JUMP JUMPDEST PUSH1 0x1 SWAP1 POP JUMPDEST SWAP5 SWAP4 POP POP POP POP JUMP JUMPDEST PUSH0 DUP2 MLOAD SWAP1 POP SWAP2 SWAP1 POP JUMP JUMPDEST PUSH0 DUP3 DUP3 MSTORE PUSH1 0x20 DUP3 ADD SWAP1 POP SWAP3 SWAP2 POP POP JUMP JUMPDEST PUSH0 JUMPDEST DUP4 DUP2 LT ISZERO PUSH2 0x1178 JUMPI DUP1 DUP3 ADD MLOAD DUP2 DUP5 ADD MSTORE PUSH1 0x20 DUP2 ADD SWAP1 POP PUSH2 0x115D JUMP JUMPDEST PUSH0 DUP5 DUP5 ADD MSTORE POP POP POP POP JUMP JUMPDEST PUSH0 PUSH1 0x1F NOT PUSH1 0x1F DUP4 ADD AND SWAP1 POP SWAP2 SWAP1 POP JUMP JUMPDEST PUSH0 PUSH2 0x119D DUP3 PUSH2 0x1141 JUMP JUMPDEST PUSH2 0x11A7 DUP2 DUP6 PUSH2 0x114B JUMP JUMPDEST SWAP4 POP PUSH2 0x11B7 DUP2 DUP6 PUSH1 0x20 DUP7 ADD PUSH2 0x115B JUMP JUMPDEST PUSH2 0x11C0 DUP2 PUSH2 0x1183 JUMP JUMPDEST DUP5 ADD SWAP2 POP POP SWAP3 SWAP2 POP POP JUMP JUMPDEST PUSH0 PUSH1 0x20 DUP3 ADD SWAP1 POP DUP2 DUP2 SUB PUSH0 DUP4 ADD MSTORE PUSH2 0x11E3 DUP2 DUP5 PUSH2 0x1193 JUMP JUMPDEST SWAP1 POP SWAP3 SWAP2 POP POP JUMP JUMPDEST PUSH0 PUSH1 0x40 MLOAD SWAP1 POP SWAP1 JUMP JUMPDEST PUSH0 DUP1 REVERT JUMPDEST PUSH0 DUP1 REVERT JUMPDEST PUSH0 DUP2 SWAP1 POP SWAP2 SWAP1 POP JUMP JUMPDEST PUSH2 0x120E DUP2 PUSH2 0x11FC JUMP JUMPDEST DUP2 EQ PUSH2 0x1218 JUMPI PUSH0 DUP1 REVERT JUMPDEST POP JUMP JUMPDEST PUSH0 DUP2 CALLDATALOAD SWAP1 POP PUSH2 0x1229 DUP2 PUSH2 0x1205 JUMP JUMPDEST SWAP3 SWAP2 POP POP JUMP JUMPDEST PUSH0 PUSH1 0x20 DUP3 DUP5 SUB SLT ISZERO PUSH2 0x1244 JUMPI PUSH2 0x1243 PUSH2 0x11F4 JUMP JUMPDEST JUMPDEST PUSH0 PUSH2 0x1251 DUP5 DUP3 DUP6 ADD PUSH2 0x121B JUMP JUMPDEST SWAP2 POP POP SWAP3 SWAP2 POP POP JUMP JUMPDEST PUSH0 PUSH20 0xFFFFFFFFFFFFFFFFFFFFFFFFFFFFFFFFFFFFFFFF DUP3 AND SWAP1 POP SWAP2 SWAP1 POP JUMP JUMPDEST PUSH0 PUSH2 0x1283 DUP3 PUSH2 0x125A JUMP JUMPDEST SWAP1 POP SWAP2 SWAP1 POP JUMP JUMPDEST PUSH2 0x1293 DUP2 PUSH2 0x1279 JUMP JUMPDEST DUP3 MSTORE POP POP JUMP JUMPDEST PUSH0 PUSH1 0x20 DUP3 ADD SWAP1 POP PUSH2 0x12AC PUSH0 DUP4 ADD DUP5 PUSH2 0x128A JUMP JUMPDEST SWAP3 SWAP2 POP POP JUMP JUMPDEST PUSH2 0x12BB DUP2 PUSH2 0x1279 JUMP JUMPDEST DUP2 EQ PUSH2 0x12C5 JUMPI PUSH0 DUP1 REVERT JUMPDEST POP JUMP JUMPDEST PUSH0 DUP2 CALLDATALOAD SWAP1 POP PUSH2 0x12D6 DUP2 PUSH2 0x12B2 JUMP JUMPDEST SWAP3 SWAP2 POP POP JUMP JUMPDEST PUSH0 DUP1 PUSH1 0x40 DUP4 DUP6 SUB SLT ISZERO PUSH2 0x12F2 JUMPI PUSH2 0x12F1 PUSH2 0x11F4 JUMP JUMPDEST JUMPDEST PUSH0 PUSH2 0x12FF DUP6 DUP3 DUP7 ADD PUSH2 0x12C8 JUMP JUMPDEST SWAP3 POP POP PUSH1 0x20 PUSH2 0x1310 DUP6 DUP3 DUP7 ADD PUSH2 0x121B JUMP JUMPDEST SWAP2 POP POP SWAP3 POP SWAP3 SWAP1 POP JUMP JUMPDEST PUSH0 DUP1 PUSH0 PUSH1 0x60 DUP5 DUP7 SUB SLT ISZERO PUSH2 0x1331 JUMPI PUSH2 0x1330 PUSH2 0x11F4 JUMP JUMPDEST JUMPDEST PUSH0 PUSH2 0x133E DUP7 DUP3 DUP8 ADD PUSH2 0x12C8 JUMP JUMPDEST SWAP4 POP POP PUSH1 0x20 PUSH2 0x134F DUP7 DUP3 DUP8 ADD PUSH2 0x12C8 JUMP JUMPDEST SWAP3 POP POP PUSH1 0x40 PUSH2 0x1360 DUP7 DUP3 DUP8 ADD PUSH2 0x121B JUMP JUMPDEST SWAP2 POP POP SWAP3 POP SWAP3 POP SWAP3 JUMP JUMPDEST PUSH0 PUSH1 0x20 DUP3 DUP5 SUB SLT ISZERO PUSH2 0x137F JUMPI PUSH2 0x137E PUSH2 0x11F4 JUMP JUMPDEST JUMPDEST PUSH0 PUSH2 0x138C DUP5 DUP3 DUP6 ADD PUSH2 0x12C8 JUMP JUMPDEST SWAP2 POP POP SWAP3 SWAP2 POP POP JUMP JUMPDEST PUSH2 0x139E DUP2 PUSH2 0x11FC JUMP JUMPDEST DUP3 MSTORE POP POP JUMP JUMPDEST PUSH0 PUSH1 0x20 DUP3 ADD SWAP1 POP PUSH2 0x13B7 PUSH0 DUP4 ADD DUP5 PUSH2 0x1395 JUMP JUMPDEST SWAP3 SWAP2 POP POP JUMP JUMPDEST PUSH0 DUP2 ISZERO ISZERO SWAP1 POP SWAP2 SWAP1 POP JUMP JUMPDEST PUSH2 0x13D1 DUP2 PUSH2 0x13BD JUMP JUMPDEST DUP2 EQ PUSH2 0x13DB JUMPI PUSH0 DUP1 REVERT JUMPDEST POP JUMP JUMPDEST PUSH0 DUP2 CALLDATALOAD SWAP1 POP PUSH2 0x13EC DUP2 PUSH2 0x13C8 JUMP JUMPDEST SWAP3 SWAP2 POP POP JUMP JUMPDEST PUSH0 DUP1 PUSH1 0x40 DUP4 DUP6 SUB SLT ISZERO PUSH2 0x1408 JUMPI PUSH2 0x1407 PUSH2 0x11F4 JUMP JUMPDEST JUMPDEST PUSH0 PUSH2 0x1415 DUP6 DUP3 DUP7 ADD PUSH2 0x12C8 JUMP JUMPDEST SWAP3 POP POP PUSH1 0x20 PUSH2 0x1426 DUP6 DUP3 DUP7 ADD PUSH2 0x13DE JUMP JUMPDEST SWAP2 POP POP SWAP3 POP SWAP3 SWAP1 POP JUMP JUMPDEST PUSH0 DUP1 REVERT JUMPDEST PUSH0 DUP1 REVERT JUMPDEST PUSH32 0x4E487B7100000000000000000000000000000000000000000000000000000000 PUSH0 MSTORE PUSH1 0x41 PUSH1 0x4 MSTORE PUSH1 0x24 PUSH0 REVERT JUMPDEST PUSH2 0x146E DUP3 PUSH2 0x1183 JUMP JUMPDEST DUP2 ADD DUP2 DUP2 LT PUSH8 0xFFFFFFFFFFFFFFFF DUP3 GT OR ISZERO PUSH2 0x148D JUMPI PUSH2 0x148C PUSH2 0x1438 JUMP JUMPDEST JUMPDEST DUP1 PUSH1 0x40 MSTORE POP POP POP JUMP JUMPDEST PUSH0 PUSH2 0x149F PUSH2 0x11EB JUMP JUMPDEST SWAP1 POP PUSH2 0x14AB DUP3 DUP3 PUSH2 0x1465 JUMP JUMPDEST SWAP2 SWAP1 POP JUMP JUMPDEST PUSH0 PUSH8 0xFFFFFFFFFFFFFFFF DUP3 GT ISZERO PUSH2 0x14CA JUMPI PUSH2 0x14C9 PUSH2 0x1438 JUMP JUMPDEST JUMPDEST PUSH2 0x14D3 DUP3 PUSH2 0x1183 JUMP JUMPDEST SWAP1 POP PUSH1 0x20 DUP2 ADD SWAP1 POP SWAP2 SWAP1 POP JUMP JUMPDEST DUP3 DUP2 DUP4 CALLDATACOPY PUSH0 DUP4 DUP4 ADD MSTORE POP POP POP JUMP JUMPDEST PUSH0 PUSH2 0x1500 PUSH2 0x14FB DUP5 PUSH2 0x14B0 JUMP JUMPDEST PUSH2 0x1496 JUMP JUMPDEST SWAP1 POP DUP3 DUP2 MSTORE PUSH1 0x20 DUP2 ADD DUP5 DUP5 DUP5 ADD GT ISZERO PUSH2 0x151C JUMPI PUSH2 0x151B PUSH2 0x1434 JUMP JUMPDEST JUMPDEST PUSH2 0x1527 DUP5 DUP3 DUP6 PUSH2 0x14E0 JUMP JUMPDEST POP SWAP4 SWAP3 POP POP POP JUMP JUMPDEST PUSH0 DUP3 PUSH1 0x1F DUP4 ADD SLT PUSH2 0x1543 JUMPI PUSH2 0x1542 PUSH2 0x1430 JUMP JUMPDEST JUMPDEST DUP2 CALLDATALOAD PUSH2 0x1553 DUP5 DUP3 PUSH1 0x20 DUP7 ADD PUSH2 0x14EE JUMP JUMPDEST SWAP2 POP POP SWAP3 SWAP2 POP POP JUMP JUMPDEST PUSH0 DUP1 PUSH0 DUP1 PUSH1 0x80 DUP6 DUP8 SUB SLT ISZERO PUSH2 0x1574 JUMPI PUSH2 0x1573 PUSH2 0x11F4 JUMP JUMPDEST JUMPDEST PUSH0 PUSH2 0x1581 DUP8 DUP3 DUP9 ADD PUSH2 0x12C8 JUMP JUMPDEST SWAP5 POP POP PUSH1 0x20 PUSH2 0x1592 DUP8 DUP3 DUP9 ADD PUSH2 0x12C8 JUMP JUMPDEST SWAP4 POP POP PUSH1 0x40 PUSH2 0x15A3 DUP8 DUP3 DUP9 ADD PUSH2 0x121B JUMP JUMPDEST SWAP3 POP POP PUSH1 0x60 DUP6 ADD CALLDATALOAD PUSH8 0xFFFFFFFFFFFFFFFF DUP2 GT ISZERO PUSH2 0x15C4 JUMPI PUSH2 0x15C3 PUSH2 0x11F8 JUMP JUMPDEST JUMPDEST PUSH2 0x15D0 DUP8 DUP3 DUP9 ADD PUSH2 0x152F JUMP JUMPDEST SWAP2 POP POP SWAP3 SWAP6 SWAP2 SWAP5 POP SWAP3 POP JUMP JUMPDEST PUSH0 PUSH8 0xFFFFFFFFFFFFFFFF DUP3 GT ISZERO PUSH2 0x15F6 JUMPI PUSH2 0x15F5 PUSH2 0x1438 JUMP JUMPDEST JUMPDEST PUSH2 0x15FF DUP3 PUSH2 0x1183 JUMP JUMPDEST SWAP1 POP PUSH1 0x20 DUP2 ADD SWAP1 POP SWAP2 SWAP1 POP JUMP JUMPDEST PUSH0 PUSH2 0x161E PUSH2 0x1619 DUP5 PUSH2 0x15DC JUMP JUMPDEST PUSH2 0x1496 JUMP JUMPDEST SWAP1 POP DUP3 DUP2 MSTORE PUSH1 0x20 DUP2 ADD DUP5 DUP5 DUP5 ADD GT ISZERO PUSH2 0x163A JUMPI PUSH2 0x1639 PUSH2 0x1434 JUMP JUMPDEST JUMPDEST PUSH2 0x1645 DUP5 DUP3 DUP6 PUSH2 0x14E0 JUMP JUMPDEST POP SWAP4 SWAP3 POP POP POP JUMP JUMPDEST PUSH0 DUP3 PUSH1 0x1F DUP4 ADD SLT PUSH2 0x1661 JUMPI PUSH2 0x1660 PUSH2 0x1430 JUMP JUMPDEST JUMPDEST DUP2 CALLDATALOAD PUSH2 0x1671 DUP5 DUP3 PUSH1 0x20 DUP7 ADD PUSH2 0x160C JUMP JUMPDEST SWAP2 POP POP SWAP3 SWAP2 POP POP JUMP JUMPDEST PUSH0 DUP1 PUSH1 0x40 DUP4 DUP6 SUB SLT ISZERO PUSH2 0x1690 JUMPI PUSH2 0x168F PUSH2 0x11F4 JUMP JUMPDEST JUMPDEST PUSH0 PUSH2 0x169D DUP6 DUP3 DUP7 ADD PUSH2 0x12C8 JUMP JUMPDEST SWAP3 POP POP PUSH1 0x20 DUP4 ADD CALLDATALOAD PUSH8 0xFFFFFFFFFFFFFFFF DUP2 GT ISZERO PUSH2 0x16BE JUMPI PUSH2 0x16BD PUSH2 0x11F8 JUMP JUMPDEST JUMPDEST PUSH2 0x16CA DUP6 DUP3 DUP7 ADD PUSH2 0x164D JUMP JUMPDEST SWAP2 POP POP SWAP3 POP SWAP3 SWAP1 POP JUMP JUMPDEST PUSH0 DUP1 PUSH1 0x40 DUP4 DUP6 SUB SLT ISZERO PUSH2 0x16EA JUMPI PUSH2 0x16E9 PUSH2 0x11F4 JUMP JUMPDEST JUMPDEST PUSH0 PUSH2 0x16F7 DUP6 DUP3 DUP7 ADD PUSH2 0x12C8 JUMP JUMPDEST SWAP3 POP POP PUSH1 0x20 PUSH2 0x1708 DUP6 DUP3 DUP7 ADD PUSH2 0x12C8 JUMP JUMPDEST SWAP2 POP POP SWAP3 POP SWAP3 SWAP1 POP JUMP JUMPDEST PUSH2 0x171B DUP2 PUSH2 0x13BD JUMP JUMPDEST DUP3 MSTORE POP POP JUMP JUMPDEST PUSH0 PUSH1 0x20 DUP3 ADD SWAP1 POP PUSH2 0x1734 PUSH0 DUP4 ADD DUP5 PUSH2 0x1712 JUMP JUMPDEST SWAP3 SWAP2 POP POP JUMP JUMPDEST PUSH32 0x4E487B7100000000000000000000000000000000000000000000000000000000 PUSH0 MSTORE PUSH1 0x22 PUSH1 0x4 MSTORE PUSH1 0x24 PUSH0 REVERT JUMPDEST PUSH0 PUSH1 0x2 DUP3 DIV SWAP1 POP PUSH1 0x1 DUP3 AND DUP1 PUSH2 0x177E JUMPI PUSH1 0x7F DUP3 AND SWAP2 POP JUMPDEST PUSH1 0x20 DUP3 LT DUP2 SUB PUSH2 0x1791 JUMPI PUSH2 0x1790 PUSH2 0x173A JUMP JUMPDEST JUMPDEST POP SWAP2 SWAP1 POP JUMP JUMPDEST PUSH32 0x546F6B656E20646F65736E277420657869737400000000000000000000000000 PUSH0 DUP3 ADD MSTORE POP JUMP JUMPDEST PUSH0 PUSH2 0x17CB PUSH1 0x13 DUP4 PUSH2 0x114B JUMP JUMPDEST SWAP2 POP PUSH2 0x17D6 DUP3 PUSH2 0x1797 JUMP JUMPDEST PUSH1 0x20 DUP3 ADD SWAP1 POP SWAP2 SWAP1 POP JUMP JUMPDEST PUSH0 PUSH1 0x20 DUP3 ADD SWAP1 POP DUP2 DUP2 SUB PUSH0 DUP4 ADD MSTORE PUSH2 0x17F8 DUP2 PUSH2 0x17BF JUMP JUMPDEST SWAP1 POP SWAP2 SWAP1 POP JUMP JUMPDEST PUSH32 0x416C7265616479206F776E657200000000000000000000000000000000000000 PUSH0 DUP3 ADD MSTORE POP JUMP JUMPDEST PUSH0 PUSH2 0x1833 PUSH1 0xD DUP4 PUSH2 0x114B JUMP JUMPDEST SWAP2 POP PUSH2 0x183E DUP3 PUSH2 0x17FF JUMP JUMPDEST PUSH1 0x20 DUP3 ADD SWAP1 POP SWAP2 SWAP1 POP JUMP JUMPDEST PUSH0 PUSH1 0x20 DUP3 ADD SWAP1 POP DUP2 DUP2 SUB PUSH0 DUP4 ADD MSTORE PUSH2 0x1860 DUP2 PUSH2 0x1827 JUMP JUMPDEST SWAP1 POP SWAP2 SWAP1 POP JUMP JUMPDEST PUSH32 0x4E6F7420617574686F72697A6564000000000000000000000000000000000000 PUSH0 DUP3 ADD MSTORE POP JUMP JUMPDEST PUSH0 PUSH2 0x189B PUSH1 0xE DUP4 PUSH2 0x114B JUMP JUMPDEST SWAP2 POP PUSH2 0x18A6 DUP3 PUSH2 0x1867 JUMP JUMPDEST PUSH1 0x20 DUP3 ADD SWAP1 POP SWAP2 SWAP1 POP JUMP JUMPDEST PUSH0 PUSH1 0x20 DUP3 ADD SWAP1 POP DUP2 DUP2 SUB PUSH0 DUP4 ADD MSTORE PUSH2 0x18C8 DUP2 PUSH2 0x188F JUMP JUMPDEST SWAP1 POP SWAP2 SWAP1 POP JUMP JUMPDEST PUSH32 0x5A65726F20616464726573730000000000000000000000000000000000000000 PUSH0 DUP3 ADD MSTORE POP JUMP JUMPDEST PUSH0 PUSH2 0x1903 PUSH1 0xC DUP4 PUSH2 0x114B JUMP JUMPDEST SWAP2 POP PUSH2 0x190E DUP3 PUSH2 0x18CF JUMP JUMPDEST PUSH1 0x20 DUP3 ADD SWAP1 POP SWAP2 SWAP1 POP JUMP JUMPDEST PUSH0 PUSH1 0x20 DUP3 ADD SWAP1 POP DUP2 DUP2 SUB PUSH0 DUP4 ADD MSTORE PUSH2 0x1930 DUP2 PUSH2 0x18F7 JUMP JUMPDEST SWAP1 POP SWAP2 SWAP1 POP JUMP JUMPDEST PUSH32 0x53656C6620617070726F76616C00000000000000000000000000000000000000 PUSH0 DUP3 ADD MSTORE POP JUMP JUMPDEST PUSH0 PUSH2 0x196B PUSH1 0xD DUP4 PUSH2 0x114B JUMP JUMPDEST SWAP2 POP PUSH2 0x1976 DUP3 PUSH2 0x1937 JUMP JUMPDEST PUSH1 0x20 DUP3 ADD SWAP1 POP SWAP2 SWAP1 POP JUMP JUMPDEST PUSH0 PUSH1 0x20 DUP3 ADD SWAP1 POP DUP2 DUP2 SUB PUSH0 DUP4 ADD MSTORE PUSH2 0x1998 DUP2 PUSH2 0x195F JUMP JUMPDEST SWAP1 POP SWAP2 SWAP1 POP JUMP JUMPDEST PUSH32 0x4E487B7100000000000000000000000000000000000000000000000000000000 PUSH0 MSTORE PUSH1 0x11 PUSH1 0x4 MSTORE PUSH1 0x24 PUSH0 REVERT JUMPDEST PUSH0 PUSH2 0x19D6 DUP3 PUSH2 0x11FC JUMP JUMPDEST SWAP2 POP PUSH32 0xFFFFFFFFFFFFFFFFFFFFFFFFFFFFFFFFFFFFFFFFFFFFFFFFFFFFFFFFFFFFFFFF DUP3 SUB PUSH2 0x1A08 JUMPI PUSH2 0x1A07 PUSH2 0x199F JUMP JUMPDEST JUMPDEST PUSH1 0x1 DUP3 ADD SWAP1 POP SWAP2 SWAP1 POP JUMP JUMPDEST PUSH0 PUSH2 0x1A1D DUP3 PUSH2 0x11FC JUMP JUMPDEST SWAP2 POP PUSH2 0x1A28 DUP4 PUSH2 0x11FC JUMP JUMPDEST SWAP3 POP DUP3 DUP3 ADD SWAP1 POP DUP1 DUP3 GT ISZERO PUSH2 0x1A40 JUMPI PUSH2 0x1A3F PUSH2 0x199F JUMP JUMPDEST JUMPDEST SWAP3 SWAP2 POP POP JUMP JUMPDEST PUSH0 DUP2 SWAP1 POP DUP2 PUSH0 MSTORE PUSH1 0x20 PUSH0 KECCAK256 SWAP1 POP SWAP2 SWAP1 POP JUMP JUMPDEST PUSH0 PUSH1 0x20 PUSH1 0x1F DUP4 ADD DIV SWAP1 POP SWAP2 SWAP1 POP JUMP JUMPDEST PUSH0 DUP3 DUP3 SHL SWAP1 POP SWAP3 SWAP2 POP POP JUMP JUMPDEST PUSH0 PUSH1 0x8 DUP4 MUL PUSH2 0x1AA2 PUSH32 0xFFFFFFFFFFFFFFFFFFFFFFFFFFFFFFFFFFFFFFFFFFFFFFFFFFFFFFFFFFFFFFFF DUP3 PUSH2 0x1A67 JUMP JUMPDEST PUSH2 0x1AAC DUP7 DUP4 PUSH2 0x1A67 JUMP JUMPDEST SWAP6 POP DUP1 NOT DUP5 AND SWAP4 POP DUP1 DUP7 AND DUP5 OR SWAP3 POP POP POP SWAP4 SWAP3 POP POP POP JUMP JUMPDEST PUSH0 DUP2 SWAP1 POP SWAP2 SWAP1 POP JUMP JUMPDEST PUSH0 PUSH2 0x1AE7 PUSH2 0x1AE2 PUSH2 0x1ADD DUP5 PUSH2 0x11FC JUMP JUMPDEST PUSH2 0x1AC4 JUMP JUMPDEST PUSH2 0x11FC JUMP JUMPDEST SWAP1 POP SWAP2 SWAP1 POP JUMP JUMPDEST PUSH0 DUP2 SWAP1 POP SWAP2 SWAP1 POP JUMP JUMPDEST PUSH2 0x1B00 DUP4 PUSH2 0x1ACD JUMP JUMPDEST PUSH2 0x1B14 PUSH2 0x1B0C DUP3 PUSH2 0x1AEE JUMP JUMPDEST DUP5 DUP5 SLOAD PUSH2 0x1A73 JUMP JUMPDEST DUP3 SSTORE POP POP POP POP JUMP JUMPDEST PUSH0 SWAP1 JUMP JUMPDEST PUSH2 0x1B28 PUSH2 0x1B1C JUMP JUMPDEST PUSH2 0x1B33 DUP2 DUP5 DUP5 PUSH2 0x1AF7 JUMP JUMPDEST POP POP POP JUMP JUMPDEST JUMPDEST DUP2 DUP2 LT ISZERO PUSH2 0x1B56 JUMPI PUSH2 0x1B4B PUSH0 DUP3 PUSH2 0x1B20 JUMP JUMPDEST PUSH1 0x1 DUP2 ADD SWAP1 POP PUSH2 0x1B39 JUMP JUMPDEST POP POP JUMP JUMPDEST PUSH1 0x1F DUP3 GT ISZERO PUSH2 0x1B9B JUMPI PUSH2 0x1B6C DUP2 PUSH2 0x1A46 JUMP JUMPDEST PUSH2 0x1B75 DUP5 PUSH2 0x1A58 JUMP JUMPDEST DUP2 ADD PUSH1 0x20 DUP6 LT ISZERO PUSH2 0x1B84 JUMPI DUP2 SWAP1 POP JUMPDEST PUSH2 0x1B98 PUSH2 0x1B90 DUP6 PUSH2 0x1A58 JUMP JUMPDEST DUP4 ADD DUP3 PUSH2 0x1B38 JUMP JUMPDEST POP POP JUMPDEST POP POP POP JUMP JUMPDEST PUSH0 DUP3 DUP3 SHR SWAP1 POP SWAP3 SWAP2 POP POP JUMP JUMPDEST PUSH0 PUSH2 0x1BBB PUSH0 NOT DUP5 PUSH1 0x8 MUL PUSH2 0x1BA0 JUMP JUMPDEST NOT DUP1 DUP4 AND SWAP2 POP POP SWAP3 SWAP2 POP POP JUMP JUMPDEST PUSH0 PUSH2 0x1BD3 DUP4 DUP4 PUSH2 0x1BAC JUMP JUMPDEST SWAP2 POP DUP3 PUSH1 0x2 MUL DUP3 OR SWAP1 POP SWAP3 SWAP2 POP POP JUMP JUMPDEST PUSH2 0x1BEC DUP3 PUSH2 0x1141 JUMP JUMPDEST PUSH8 0xFFFFFFFFFFFFFFFF DUP2 GT ISZERO PUSH2 0x1C05 JUMPI PUSH2 0x1C04 PUSH2 0x1438 JUMP JUMPDEST JUMPDEST PUSH2 0x1C0F DUP3 SLOAD PUSH2 0x1767 JUMP JUMPDEST PUSH2 0x1C1A DUP3 DUP3 DUP6 PUSH2 0x1B5A JUMP JUMPDEST PUSH0 PUSH1 0x20 SWAP1 POP PUSH1 0x1F DUP4 GT PUSH1 0x1 DUP2 EQ PUSH2 0x1C4B JUMPI PUSH0 DUP5 ISZERO PUSH2 0x1C39 JUMPI DUP3 DUP8 ADD MLOAD SWAP1 POP JUMPDEST PUSH2 0x1C43 DUP6 DUP3 PUSH2 0x1BC8 JUMP JUMPDEST DUP7 SSTORE POP PUSH2 0x1CAA JUMP JUMPDEST PUSH1 0x1F NOT DUP5 AND PUSH2 0x1C59 DUP7 PUSH2 0x1A46 JUMP JUMPDEST PUSH0 JUMPDEST DUP3 DUP2 LT ISZERO PUSH2 0x1C80 JUMPI DUP5 DUP10 ADD MLOAD DUP3 SSTORE PUSH1 0x1 DUP3 ADD SWAP2 POP PUSH1 0x20 DUP6 ADD SWAP5 POP PUSH1 0x20 DUP2 ADD SWAP1 POP PUSH2 0x1C5B JUMP JUMPDEST DUP7 DUP4 LT ISZERO PUSH2 0x1C9D JUMPI DUP5 DUP10 ADD MLOAD PUSH2 0x1C99 PUSH1 0x1F DUP10 AND DUP3 PUSH2 0x1BAC JUMP JUMPDEST DUP4 SSTORE POP JUMPDEST PUSH1 0x1 PUSH1 0x2 DUP9 MUL ADD DUP9 SSTORE POP POP POP JUMPDEST POP POP POP POP POP POP JUMP JUMPDEST PUSH32 0x4E6F74206F776E65720000000000000000000000000000000000000000000000 PUSH0 DUP3 ADD MSTORE POP JUMP JUMPDEST PUSH0 PUSH2 0x1CE6 PUSH1 0x9 DUP4 PUSH2 0x114B JUMP JUMPDEST SWAP2 POP PUSH2 0x1CF1 DUP3 PUSH2 0x1CB2 JUMP JUMPDEST PUSH1 0x20 DUP3 ADD SWAP1 POP SWAP2 SWAP1 POP JUMP JUMPDEST PUSH0 PUSH1 0x20 DUP3 ADD SWAP1 POP DUP2 DUP2 SUB PUSH0 DUP4 ADD MSTORE PUSH2 0x1D13 DUP2 PUSH2 0x1CDA JUMP JUMPDEST SWAP1 POP SWAP2 SWAP1 POP JUMP JUMPDEST PUSH0 PUSH2 0x1D24 DUP3 PUSH2 0x11FC JUMP JUMPDEST SWAP2 POP PUSH2 0x1D2F DUP4 PUSH2 0x11FC JUMP JUMPDEST SWAP3 POP DUP3 DUP3 SUB SWAP1 POP DUP2 DUP2 GT ISZERO PUSH2 0x1D47 JUMPI PUSH2 0x1D46 PUSH2 0x199F JUMP JUMPDEST JUMPDEST SWAP3 SWAP2 POP POP JUMP JUMPDEST PUSH32 0x4E6F742045524337323152656365697665720000000000000000000000000000 PUSH0 DUP3 ADD MSTORE POP JUMP JUMPDEST PUSH0 PUSH2 0x1D81 PUSH1 0x12 DUP4 PUSH2 0x114B JUMP JUMPDEST SWAP2 POP PUSH2 0x1D8C DUP3 PUSH2 0x1D4D JUMP JUMPDEST PUSH1 0x20 DUP3 ADD SWAP1 POP SWAP2 SWAP1 POP JUMP JUMPDEST PUSH0 PUSH1 0x20 DUP3 ADD SWAP1 POP DUP2 DUP2 SUB PUSH0 DUP4 ADD MSTORE PUSH2 0x1DAE DUP2 PUSH2 0x1D75 JUMP JUMPDEST SWAP1 POP SWAP2 SWAP1 POP JUMP JUMPDEST PUSH0 DUP2 MLOAD SWAP1 POP SWAP2 SWAP1 POP JUMP JUMPDEST PUSH0 DUP3 DUP3 MSTORE PUSH1 0x20 DUP3 ADD SWAP1 POP SWAP3 SWAP2 POP POP JUMP JUMPDEST PUSH0 PUSH2 0x1DD9 DUP3 PUSH2 0x1DB5 JUMP JUMPDEST PUSH2 0x1DE3 DUP2 DUP6 PUSH2 0x1DBF JUMP JUMPDEST SWAP4 POP PUSH2 0x1DF3 DUP2 DUP6 PUSH1 0x20 DUP7 ADD PUSH2 0x115B JUMP JUMPDEST PUSH2 0x1DFC DUP2 PUSH2 0x1183 JUMP JUMPDEST DUP5 ADD SWAP2 POP POP SWAP3 SWAP2 POP POP JUMP JUMPDEST PUSH0 PUSH1 0x80 DUP3 ADD SWAP1 POP PUSH2 0x1E1A PUSH0 DUP4 ADD DUP8 PUSH2 0x128A JUMP JUMPDEST PUSH2 0x1E27 PUSH1 0x20 DUP4 ADD DUP7 PUSH2 0x128A JUMP JUMPDEST PUSH2 0x1E34 PUSH1 0x40 DUP4 ADD DUP6 PUSH2 0x1395 JUMP JUMPDEST DUP2 DUP2 SUB PUSH1 0x60 DUP4 ADD MSTORE PUSH2 0x1E46 DUP2 DUP5 PUSH2 0x1DCF JUMP JUMPDEST SWAP1 POP SWAP6 SWAP5 POP POP POP POP POP JUMP JUMPDEST PUSH0 PUSH32 0xFFFFFFFF00000000000000000000000000000000000000000000000000000000 DUP3 AND SWAP1 POP SWAP2 SWAP1 POP JUMP JUMPDEST PUSH2 0x1E85 DUP2 PUSH2 0x1E51 JUMP JUMPDEST DUP2 EQ PUSH2 0x1E8F JUMPI PUSH0 DUP1 REVERT JUMPDEST POP JUMP JUMPDEST PUSH0 DUP2 MLOAD SWAP1 POP PUSH2 0x1EA0 DUP2 PUSH2 0x1E7C JUMP JUMPDEST SWAP3 SWAP2 POP POP JUMP JUMPDEST PUSH0 PUSH1 0x20 DUP3 DUP5 SUB SLT ISZERO PUSH2 0x1EBB JUMPI PUSH2 0x1EBA PUSH2 0x11F4 JUMP JUMPDEST JUMPDEST PUSH0 PUSH2 0x1EC8 DUP5 DUP3 DUP6 ADD PUSH2 0x1E92 JUMP JUMPDEST SWAP2 POP POP SWAP3 SWAP2 POP POP JUMP INVALID LOG2 PUSH5 0x6970667358 0x22 SLT KECCAK256 0xBD CREATE2 DUP13 PUSH11 0xBA53F430EE575AD7C375AD 0xC7 INVALID EXP PUSH29 0x46FAA811C874E9BC2B667835CC64736F6C634300081800330000000000 "
				},
				"gasEstimates": {
					"creation": {
						"codeDepositCost": "1588600",
						"executionCost": "infinite",
						"totalCost": "infinite"
					},
					"external": {
						"approve(address,uint256)": "31690",
						"balanceOf(address)": "2887",
						"getApproved(uint256)": "5121",
						"isApprovedForAll(address,address)": "infinite",
						"mint(address,string)": "infinite",
						"name()": "infinite",
						"ownerOf(uint256)": "3052",
						"safeTransferFrom(address,address,uint256)": "infinite",
						"safeTransferFrom(address,address,uint256,bytes)": "infinite",
						"setApprovalForAll(address,bool)": "infinite",
						"symbol()": "infinite",
						"tokenURI(uint256)": "infinite",
						"transferFrom(address,address,uint256)": "infinite"
					},
					"internal": {
						"_checkOnERC721Received(address,address,uint256,bytes memory)": "infinite",
						"_isApprovedOrOwner(address,uint256)": "infinite",
						"_safeTransfer(address,address,uint256,bytes memory)": "infinite",
						"_transfer(address,address,uint256)": "infinite"
					}
				},
				"methodIdentifiers": {
					"approve(address,uint256)": "095ea7b3",
					"balanceOf(address)": "70a08231",
					"getApproved(uint256)": "081812fc",
					"isApprovedForAll(address,address)": "e985e9c5",
					"mint(address,string)": "d0def521",
					"name()": "06fdde03",
					"ownerOf(uint256)": "6352211e",
					"safeTransferFrom(address,address,uint256)": "42842e0e",
					"safeTransferFrom(address,address,uint256,bytes)": "b88d4fde",
					"setApprovalForAll(address,bool)": "a22cb465",
					"symbol()": "95d89b41",
					"tokenURI(uint256)": "c87b56dd",
					"transferFrom(address,address,uint256)": "23b872dd"
				}
			},
			"storageLayout": {
				"storage": [
					{
						"astId": 117,
						"contract": "Day 21/SimpleNft.sol:SimpleNFT",
						"label": "name",
						"offset": 0,
						"slot": "0",
						"type": "t_string_storage"
					},
					{
						"astId": 119,
						"contract": "Day 21/SimpleNft.sol:SimpleNFT",
						"label": "symbol",
						"offset": 0,
						"slot": "1",
						"type": "t_string_storage"
					},
					{
						"astId": 122,
						"contract": "Day 21/SimpleNft.sol:SimpleNFT",
						"label": "_tokenIdCounter",
						"offset": 0,
						"slot": "2",
						"type": "t_uint256"
					},
					{
						"astId": 126,
						"contract": "Day 21/SimpleNft.sol:SimpleNFT",
						"label": "_owners",
						"offset": 0,
						"slot": "3",
						"type": "t_mapping(t_uint256,t_address)"
					},
					{
						"astId": 130,
						"contract": "Day 21/SimpleNft.sol:SimpleNFT",
						"label": "_balances",
						"offset": 0,
						"slot": "4",
						"type": "t_mapping(t_address,t_uint256)"
					},
					{
						"astId": 134,
						"contract": "Day 21/SimpleNft.sol:SimpleNFT",
						"label": "_tokenApprovals",
						"offset": 0,
						"slot": "5",
						"type": "t_mapping(t_uint256,t_address)"
					},
					{
						"astId": 140,
						"contract": "Day 21/SimpleNft.sol:SimpleNFT",
						"label": "_operatorApprovals",
						"offset": 0,
						"slot": "6",
						"type": "t_mapping(t_address,t_mapping(t_address,t_bool))"
					},
					{
						"astId": 144,
						"contract": "Day 21/SimpleNft.sol:SimpleNFT",
						"label": "_tokenURIs",
						"offset": 0,
						"slot": "7",
						"type": "t_mapping(t_uint256,t_string_storage)"
					}
				],
				"types": {
					"t_address": {
						"encoding": "inplace",
						"label": "address",
						"numberOfBytes": "20"
					},
					"t_bool": {
						"encoding": "inplace",
						"label": "bool",
						"numberOfBytes": "1"
					},
					"t_mapping(t_address,t_bool)": {
						"encoding": "mapping",
						"key": "t_address",
						"label": "mapping(address => bool)",
						"numberOfBytes": "32",
						"value": "t_bool"
					},
					"t_mapping(t_address,t_mapping(t_address,t_bool))": {
						"encoding": "mapping",
						"key": "t_address",
						"label": "mapping(address => mapping(address => bool))",
						"numberOfBytes": "32",
						"value": "t_mapping(t_address,t_bool)"
					},
					"t_mapping(t_address,t_uint256)": {
						"encoding": "mapping",
						"key": "t_address",
						"label": "mapping(address => uint256)",
						"numberOfBytes": "32",
						"value": "t_uint256"
					},
					"t_mapping(t_uint256,t_address)": {
						"encoding": "mapping",
						"key": "t_uint256",
						"label": "mapping(uint256 => address)",
						"numberOfBytes": "32",
						"value": "t_address"
					},
					"t_mapping(t_uint256,t_string_storage)": {
						"encoding": "mapping",
						"key": "t_uint256",
						"label": "mapping(uint256 => string)",
						"numberOfBytes": "32",
						"value": "t_string_storage"
					},
					"t_string_storage": {
						"encoding": "bytes",
						"label": "string",
						"numberOfBytes": "32"
					},
					"t_uint256": {
						"encoding": "inplace",
						"label": "uint256",
						"numberOfBytes": "32"
					}
				}
			},
			"userdoc": {
				"kind": "user",
				"methods": {},
				"version": 1
			}
		}
	}
}